:020000040000FA
:060000000213870208450F
:03002B000210D5EB
:03003300020F7148
:030053000207742D
:100083000207D601010000000000F8FF07FFFF0090
:10009300000504000000030001FFFFFFFF0005301F
:1000A3007500000020FD000206FFFF1E0F00640024
:1000B3000A00007701E416EA16261D00000000007E
:1000C300000000000000000000000000000000002D
:1000D300000000000000000000000000000000001D
:1000E3000000000000FF0104010C0002012B870443
:1000F3000A86010400005314000000E8030000FF17
:10010300FFA4140188130000E8030000C800C8001E
:10011300B801A0BB0D00A0BB0D0002020207040141
:10012300051E02051E020A0A010108080103B80B95
:1001330002803E0102FEFFE8030A050001FFFF0201
:100143000A011401E00100B0423BAAB83F000000DD
:100153003F8C906339AA0CA33A00941E3C804263FF
:100163003DCFFE753E1572313F0000803FF30435ED
:100173003F8096184B000080BF2292D43EDD9B2A1D
:100183003F04000040FFFF7F7FFFFF7FFF010080F0
:10019300341872313F050301010F0300030003000C
:1001A30003000300030003000300030005000A002B
:1001B300140028004F009E0000003C2F00000000A8
:1001C300102E00000000FF000000FF001213B560B6
:1001D300461213D3603DE9687008F618F618F6184E
:1001E300F622748067F7120203090909748067F71E
:1001F300221213D3601D1213B57005191919801A31
:10020300121262701F121276C37003E66733191954
:100213001940071818182208080874FFF618F6186A
:10022300F618F6221212766017121453702192F008
:100233001214417019501720F0140808080909090D
:10024300E7F61819E7F61819E7F61819E7F6221270
:10025300144160E6E869701F0808E62480F608E4A4
:1002630036F618547FB47F0CE654806007F6E41822
:10027300F618F622181822E9C6CC08C6CD08C6CE51
:1002830008C6CFC0E0E8C0E0EAC0E0EBC0E009E99F
:10029300F809E7FA09E7FBE6F918E6F8C3EC98ED85
:1002A30099EE9AEBC2E7F5F0EFC2E795F0500E60D6
:1002B3000CEBCFFBEACEFAE9CDF9E8CCF8EAA2E7FA
:1002C300D2E7FAEB33FB13F5F0EEA2E7D2E7FEEF4A
:1002D30033FFC5F013A2E730E601B313C5F0C3C083
:1002E300E0C0F07F00C39BFB605E9418600F401D6D
:1002F30014601AD0E023F9D0E0F80203D58AF0E9BC
:10030300486003D2F0E4AFF0FAF9F8803BEB30E455
:100313000D89F0EA6003D2F0E4AFF0F9CAF8EB30EC
:10032300E30D88F0EF6002D2F0AFF0E4CAC9F8EB56
:1003330054076014FBC3EA13FAE913F9E813F8EF5F
:10034300135002D2E0FFDBEDD0E0C0E030E739C369
:10035300E49FFFF5F0EC98FC42F0ED99FD42F0EEDE
:100363009AFE42F0D0E0F9D0E0F8E5F0607AE923B4
:10037300F9EE20E742D8028067C3EF33FFEC33FC8A
:10038300ED33FDEE33FE80EAEC28FCED39FDEE3A69
:10039300FED0E023F9D0E0F84002801BC3EE13FE49
:1003A300ED13FDEC13FCEF135002D2E0FF08B8008D
:1003B300067F7F74FF802EEF3350178CF020F002FE
:1003C30060100CBC000C0DBD00080EBE000408E854
:1003D30060DFE933E813FFEE2313FE4F4D4C800833
:1003E300E95480FFE4FEFDFCEE33EF33F47004FCCC
:1003F300FD7E80D0E0FBD0E0FAD0E0F8D0E0CFC6BD
:1004030018CEC618CDC618CCC6F9221213D3700461
:10041300181818221213B5700D74FFF61819F61870
:1004230019F61819F622E7548066F6121441700F74
:1004330012145370F014F608F608F608F680D11279
:100443001453700CF608F608768008E6447F80ECB7
:10045300121279700C12126560BFE65480F6E480C4
:10046300BB121265700519191980A5E869700C761D
:100473003F18768018F618F6E8F922E6CDC0E018A2
:10048300ECC0E0E633CD33CDD313F6E719FCE7191F
:100493001933CC33C3947F400ECD9D502408E654CA
:1004A30080F6E418F6800FF4043D14501408E64473
:1004B3007FF6187680E418F618F6D0E0FCD0E0FD5D
:1004C30022CCD313CCFD18E4C6CBC0E018E4C6CAD3
:1004D300C0E00808ED08C633E613F618E433C67522
:1004E300F003C3CA97CA09CB97CB199C40047D0874
:1004F300802EBD00030205B716B6FF0506060816D3
:1005030018C3CA33CACB33CB33CA27CA09CB37CBB9
:10051300193CC37D08803E187D0820E75CC633C6BE
:10052300CA33CACB33CB33DDF1D5F0EB30E77BCA2B
:1005330097CA09CB974ACB199C406F4B7025E6208D
:10054300E0218066187D08C3CA97CA09CB97CB19E7
:100553009CD3C633C6CA33CACB33CB3350C9DDE7CA
:10056300D5F0E1D3E4C636C608C636C608C636C6D5
:1005730008C636C61818188031C3CA97CA09CB975C
:10058300CB199CB34097C633C6CA33CACB33CB33DC
:10059300DD34D5F02EC6A2E0C640C8CA27CA09CBAF
:1005A30037194A70BECB3CB480B90808E63308E675
:1005B30033601F181818D0E0FAD0E0FBD0E0FCD06D
:1005C300E0FD22187D08CA27CA09CB37CB193CD3D3
:1005D300808013F618E4B67F11F618B6FF0EF618EE
:1005E300C60470D20808768080CAF618F618F6801A
:1005F300C5001213D3604F1213B56012E75480661F
:10060300F61212627011121453703B090909F4F6C1
:1006130018F618F618F622121276701512144108FD
:10062300080860EAE6447FF618768018E4F618F6C0
:100633002212144160161214537012E4F608F608DD
:10064300F608E65480F609090918181822EAC0E0EA
:10065300EBC0E0ECC0E0EDC0E0E687F0A4FBACF05B
:1006630008E687F0A42CFCE435F0FA1809E687F0D5
:10067300A42C4B60027401CA35F0FCE433FB09E699
:1006830087F0D2F7A42CCB35F0FC1908E687F0A449
:100693002BCC35F0FBE433FD0819E687F0D2E7A451
:1006A3002C4ACB35F0CD3400FC09E687F0D2E7A421
:1006B3002DCC35F0FDE433FA0918E687F0D2F7A420
:1006C3002CCD35F0CA3400FC08E687F0D2E7D2F728
:1006D300A42ACC35F07A7E20E70B0ACB33CBCD337B
:1006E300CDCC33CC33CB3350147004ED30E00ED289
:1006F300F1E4CD3DCDCC3CCC3B5005DA05C2F1EB6A
:10070300547FC63308E63392F0FBE73309E733C37C
:100713009A502D2B70190C0D4C4D70151806E608C8
:10072300C333700D20F10AA2F013F6E418800B40D6
:1007330024E4F630F002768018F618F618F68024D2
:10074300D33B14501074FFA2F013F6187680E4180C
:10075300F618F6800FA2F013F618E63303F618EC3A
:10076300F618EDF6D0E0FDD0E0FCD0E0FBD0E0FAE7
:1007730022C0E074F1120BD6A2AFE433F509D2AF75
:1007830085A708AFA1EF5508FE74105E6006121727
:10079300C875A1EF74085E60081217CE75A1F780C3
:1007A30024EFA2E092F0E508A2E082F050179061F6
:1007B30098E0F8900634E0C398A2D265D033500293
:1007C300E8F075A1FE752300E509A2E092AF7F0270
:1007D300020C35C0E074F2120BD6A2AFE433FED2A2
:1007E300AF9061A4E0F8759B00E591585408600848
:1007F3007591F712181C8023E59158541060087501
:1008030091EF1218228014E591A2E092F0E8A2E0A1
:1008130082F05007E0C2E0F01219789061A3E0F88B
:10082300E5E9585404600E12194E75E9FB90619383
:10083300E0A2E640F2752300EEA2E092AF7F010250
:100843000C35C0E074F2120BD6A2AFE433FED2AF84
:100853009061A5E0F8E5BF585404600675BFFB122C
:10086300199080D1C3E498F8E499F91208A8802676
:10087300C3E49AFAE49BFBE920E7E91208A8E498A9
:10088300F8E499F922C3E498F8E499F91208A8E482
:1008930098F8E499F9C3E49AFAE49BFB22EB20E786
:1008A300CFE920E7E0B90010BB0008E88AF084F83C
:1008B300AAF022E4FBC8FA22EB70227B10C833C8EB
:1008C300C933C9335007C39AC3DBF280069A500178
:1008D3002ADBEAC833F4C8C933F4C9FA2275F0082D
:1008E300E4C833C8C933C933C99AC99B5004C92A58
:1008F300C93BD5F0ECFBC833F4C8E4C9FA221209AA
:100903004C30F039120991803412094C20F0143024
:10091300E72B74FFFCFBFA747F8022E4FCFBFA7480
:1009230080801AB48008BC00F2BB00EF800F50EB4C
:10093300F9E4C39AFAE49BFBE49CFCE499C6CC1863
:10094300C6CB18C6CA18C6F922E4C9C608CAC6085F
:10095300CBC6D3330308CCC63392F0C3947F402E67
:1009630094184019C9B90704CACBCC225025C3092E
:10097300CA33CACB33CBCC33CC33D9F422F4600D96
:10098300C9CCC313CB13CBCA13CAD9F6CC22E4FC0C
:10099300FBFA2214FCFBFA22080808EAC0E0EBC0C9
:1009A300E086F0E7A4FA180986F0E7A42AFA180902
:1009B30086F0E7A42AFA180986F0E7A42AFA19862A
:1009C300F0E7A4FBE5F02AFA190886F0E7A42BFB6D
:1009D300E5F03AFA190886F0E7A42BFBE5F03AFABA
:1009E30018180986F0E7A4C5F02BFBE43AFA1908B6
:1009F300E7C5F0C6A426F6E5F03BFBE43AFA188611
:100A0300F0E7A4F6E5F00826F6E43B08F6E43A0836
:100A1300F6D0E0FBD0E0FA22080808E630E711122E
:100A2300123A120A33080808C64480C61818182256
:100A3300181818E9799EC608CAC608CBC608CCC6DA
:100A4300C370207996CACBCC7019798ECBCC701336
:100A53007986CC700EF9802ACA33CACB33CBCC3318
:100A6300CC331930E7F2CCCBCA3350147004EA30DC
:100A7300E00DE4CA3ACACB3BCBCC3CCC500209C311
:100A8300E913C6CC182313C6CB18C6CA18C6F92255
:100A9300E4CFC0E0E4CEC0E0E4CDC0E0E4CCC0E00D
:100AA30075F020E626F608E633F608E633F608E6A0
:100AB30033F6181818EC33FCED33FDEE33FEEF3349
:100AC300FFC3EC9709ED9709EE9709EF97191919E9
:100AD300400FFFEC97FC09ED97FD09EE97FE1919FE
:100AE30006D5F0BFECF709EDF709EEF709EFF719B3
:100AF3001919D0E0FCD0E0FDD0E0FED0E0FF2225C4
:100B030021C582C0E0E52234FFC583C0E0E521C3EF
:100B1300958224F810AF0885832285822180088579
:100B23008322858221D2AFCEF0A3E520F0A37808FB
:100B3300E608F0A3DEFAEFF0A3E58124FAF8E6086D
:100B4300F0A3E608F0A3E608F0A30808E608F0A37C
:100B5300E608F0A315811581D0E0FED0E0F81581F9
:100B630015811581E8C0E0EEC0E02212142CB90013
:100B730003020BC0E4900501784179138002F0A3CE
:100B8300D8FCD9FA78239000867A01BA000280074C
:100B9300E493A3F608DAF97A417B17900087784942
:100BA30079028015E493A3AD82AE838A828B83F0AE
:100BB300A3AA82AB838D828E83D8E9D9E77582821B
:100BC3007583F574041210B775827875832B7400DE
:100BD3001210B7C0D02521C582C0E0E52234FFC57D
:100BE30083C0E0E521C3958224F310AF08858322F7
:100BF3008582218008858322858221D2AFC8F0A314
:100C0300E9F0A3EAF0A3EBF0A37908E709F0A3D88E
:100C1300FAECF0A3EDF0A3EEF0A3EFF0A3D0E0F035
:100C2300A3D0E0F0A3D0E0F0A3E520F0A3E5F0F03B
:100C3300A322852283852182E0C0E0A3E0F9A3E01B
:100C4300FAA3E0FBA37808E0F608A3DFFAE0FCA32D
:100C5300E0FDA3E0FEA3E0FFA3E0C0E0A3E0C0E06B
:100C6300A3E0F5D0A3E0F520A3E0A3F5F010AF08CF
:100C73008583228582218008858322858221D2AFC4
:100C8300D082D083D0E0F8D0E03212123D18181889
:100C9300120A931213361919192212133619191934
:100CA300080808E618181820E7E0120A9312123D04
:100CB30018181822090909E719191920E7DC080887
:100CC30008E618181820E703020A9312123D1818B1
:100CD30018120A9312123D181818121336191919FB
:100CE3002275F0108E248F258582298583288521FE
:100CF30082852283E0CEA3E0CF852982852883EBFA
:100D0300C9EAC8EDCBECCAC3E833C8E933C9EA334F
:100D1300CAEB33CBC3EA9EF527EB9FF526B350040A
:100D2300AB26AA27EC33CCED33CDD5F0DAAE24AF26
:100D330025221213D3601C1213B5601712144170CD
:100D4300071214537001D322C0D01214537006D06B
:100D5300D0B322C32233D0D0501430E0F6C3E79689
:100D63000809E7960809E7960809E796B32220E001
:100D7300D5E6970809E6970809E6970809E697B3C1
:100D830022D083D082ECC0E0EDC0E0E493A3FCE486
:100D930093A3FDED4C600D120EA8EC24FFFCED3483
:100DA300FFFD80EFE493A3FCE493A3FDED4C600D02
:100DB300120F9CEC24FFFCED34FFFD80EFD0E0FD2F
:100DC300D0E0FCE493A3C0E0E493C0E0221213D389
:100DD300601B1213B560161214417007121453608E
:100DE3000CB322C0D01214537005D0D022C32233C7
:100DF300D0D0501330E0EBC3E7960809E796080913
:100E0300E7960809E7962220E0E4E6970809E697C3
:100E13000809E6970809E69722D083D082E9C0E063
:100E2300E493A3C386F0C5F095F0F908E493A38691
:100E3300F0C5F095F0700BE493A3C3994005E90462
:100E43008002A3E475F002A42582F582E5F03583E0
:100E5300F583D0E0F9E493A3C0E0E493C0E02285F6
:100E63002283852182E0A3FEE0A3F5207808E0A396
:100E7300F608DFFAE0A3FFE0A3C0E0E0A3C0E0E0F0
:100E8300A3C0E0E0A3C0E0E0A3C0E010AF08858208
:100E9300218583228008858221858322D2AFD08356
:100EA300D0820210BDC0E0C3E49396087401939608
:100EB30018400FE493667008087401936618700075
:100EC3007019A3A3C3E49396087401939618A3A37C
:100ED300400DD0E0D0E0D0E0020DC0A3A3A3A3A3B4
:100EE300A3D0E0227404800474028000CCC0E0ED3F
:100EF300C0E0E521C39CCCAD2250011D10AF068C90
:100F0300218D2280068C218D22D2AF121039D0E0A0
:100F1300FDD0E0FC2274028000CCC0E0EDC0E0E52F
:100F230021C39CCCAD2250011D10AF068C218D2214
:100F330080068C218D22D2AF121017D0E0FDD0E0B5
:100F4300FC221213D360251213B5602012144170D2
:100F530003021453080808E76670101819E766704F
:100F63000A1819E76670041819E76622F422C0E02C
:100F730074F2120BD6A2AFE433FED2AFE58BA2E03C
:100F830050057904121702758B00C2E8752300EE31
:100F9300A2E092AF7F01020C35C0E0C0F088F0E41C
:100FA300936670080874019366187000A8F0A3A3F1
:100FB300700BD0F0D0E0D0E0D0E0020DC0A3A3D0FE
:100FC300F0D0E022D083D082CCC0E0E493A36006CB
:100FD30012105A1470FAE493A360061211BC147031
:100FE300FAD0E0FCE493A3C0E0E493C0E022C0089D
:100FF300C3E096F50808A3E096420808A3E09642EA
:101003000808A3E0964208A2D265D033E508700130
:10101300D3D00822CAC0E0E493A3C582CCC582C55D
:1010230083CDC583F0A3C582CCC582C583CDC583DB
:10103300DAE5D0E0CA22CAC0E0E0A3C582CCC5820B
:10104300C583CDC583F0A3C582CCC582C583CDC579
:1010530083DAE6D0E0CA22C0E0E493A3D39C501025
:10106300E493A3C39C400AD0E0D0E0D0E0020FE4B5
:10107300A3A3A3D0E0227009080808226016181859
:1010830018C6C333C608C633C608C633C608C63334
:10109300C6D5E0EA22C008C3E096F50808A3E096A7
:1010A300420808A3E096420808A3E09645087001A9
:1010B300D3D00822C09FF59FE473D09F22D083D062
:1010C30082C09FE493C0E0740193C0E0740293F57F
:1010D3009F22C0E0C0D0E8C0E0A8A8D2AFC2C775C5
:1010E3002300E8A2E792AFD0E0F8D0D0D0E03225D9
:1010F30021F58210AF08F521400C15228008F52157
:1011030040021522D2AF8522832200C0D0252110B0
:10111300AF08F521500C05228008F5215002052265
:10112300D2AFD0D0227404800A7403800674028084
:10113300027401C0E0F4041210F2D0E01213EF22A3
:10114300BB0102E722C082C08389828A83BB00037A
:10115300E08002E493D083D082226016080808C698
:10116300C313C618C613C618C613C618C613C6D5E6
:10117300E0EA22C3E0C696F608A3E0C696F608A303
:10118300E0C696F608A3E0C696F6222521F8E435D4
:1011930022F9222521FAE43522FB222521FCE4351C
:1011A30022FD22252110AF08F521400C15228008CD
:1011B300F52140021522D2AF22C0E0E493A36C7064
:1011C30009D0E0D0E0D0E0020FE4A3A3D0E022C333
:1011D300E7960809E7960809E7960809E796A2D271
:1011E30065D03322C3E09608A3E09608A3E09608EF
:1011F300A3E096A2D265D03322E76670100809E710
:1012030066700A0809E76670040809E76622E06663
:10121300701008A3E066700A08A3E066700408A3D0
:10122300E06622C3E096F008A3E096F008A3E096F8
:10123300F008A3E096F022181818E4C396F608E421
:1012430096F608E496F608E496F622C3E697F608BF
:1012530009E697F60809E697F60809E697F62218CD
:101263001818E60846087009E626087005E633F400
:10127300220822191919E70947097009E727097094
:1012830005E733F4220922C3E49396087401939685
:101293000874029396087403939622E026F008A339
:1012A300E036F008A3E036F008A3E036F02270043D
:1012B30022600D18C6C333C608C633C6D5E0F4187A
:1012C30022E657F60809E657F60809E657F608092D
:1012D300E657F622E627F60809E637F60809E63761
:1012E300F60809E637F622E026F608A3E036F60804
:1012F300A3E036F608A3E036F622E056F608A3E0AC
:1013030056F608A3E056F608A3E056F622E647F69B
:101313000809E647F60809E647F60809E647F6220C
:10132300E056F008A3E056F008A3E056F008A3E067
:1013330056F022E4C397F709E497F709E497F7090E
:10134300E497F722600D08C6A2E713C618C613C6B2
:10135300D5E0F322C6F4C608C6F4C608C6F4C60828
:10136300C6F4C622C3E09608A3E09608A3E0960855
:10137300A3E09622C3E7960809E7960809E79608CB
:1013830009E7962275D00075813F75210175220505
:1013930000020B6E600C08C6C313C618C613C6D56D
:1013A300E0F422E6F008A3E6F008A3E6F008A3E6DB
:1013B300F022E7094709C3134709336002E733F40F
:1013C30022E0F608A3E0F608A3E0F608A3E0F6227D
:1013D300E6084608C3134608336002E633F4228066
:1013E3000100E9F874FF28F90470F622CAC0E0E6A8
:1013F300F0A308DAFAD0E0FA22E0F8A3E0F9A3E0D8
:10140300FAA3E0FB22E8F0A3E9F0A3EAF0A3EBF0F0
:1014130022EAF0A3EBF0A3ECF0A3EDF022E0FAA3B1
:10142300E0FBA3E0FCA3E0FD22E5C754F84401F58B
:10143300C77901222521F582E43522F58322E626A8
:1014430018461846184622C2AF75D69F02000022DE
:10145300E727194719471947221210C0F0D0021283
:1014630010C041D1021210C085D1021210C01FD288
:10147300021210C08FD2021210C0BED2021210C0CC
:10148300C4D3021210C0EED3021210C042D402120F
:1014930010C016D5021210C044D7021210C0F2D7E2
:1014A300021210C05FDA021210C0E4DA021210C096
:1014B300E7DD021210C014E0021210C058E002125D
:1014C30010C0B1E1021210C0C4E1021210C001E267
:1014D300021210C0BEE3021210C06AF7041210C059
:1014E3009EF7041210C0F1F7041210C0F4F80412AE
:1014F30010C015F1011210C091F1011210C0C4F116
:10150300011210C0F2F1011210C030F2011210C02A
:101513006DF4011210C08CF4011210C0D1F4011249
:1015230010C067F5011210C0B3F5011210C047F6E1
:10153300011210C020F7011210C07CF7011210C075
:10154300DAF7011210C04DF8011210C091F8011220
:1015530010C0E9F8011210C00BF9011210C09BF979
:10156300011210C02CFA011210C078FA011210C037
:10157300A4FA011210C0E5FA011210C07BFC01129B
:1015830010C067FD011210C042FE011210C0AEDA96
:10159300031210C042DB031210C0AADB031210C0F7
:1015A300CFDC031210C059DD031210C0E4DD0312B7
:1015B30010C020DE031210C0B9DE031210C04EDFCC
:1015C300031210C021E0031210C003E2031210C083
:1015D300B7E2031210C0ADE3031210C04CE40312D0
:1015E30010C0A1E4031210C00FE5031210C01BE8E2
:1015F300031210C045EA031210C046EB031210C0D9
:1016030084EC031210C08FEC031210C00BD8041229
:1016130010C037D8041210C057D8041210C07ED897
:10162300041210C0C5D9041210C0F8D9041210C096
:10163300B7DA041210C051DB041210C0F787051289
:1016430010C0FC87051210C02F88051210C067EA6E
:10165300041210C02EEB041210C040EB041210C091
:10166300B0EB041210C01CFF011210C02DFF0112B9
:1016730010C0CBFF011210C0D6FF011210C0F0FF43
:10168300011210C0F27F001210C0EBFF021210C053
:101693000B83051210C01B83051210C03083051283
:1016A30010C0E483051210C00681051210C08A81A0
:1016B300051210C0F281051210C05AFD021210C0AB
:1016C30078FD021210C0ADFD021210C0D2FD02124D
:1016D30010C0F5FD021210C030FE021210C05DFEF4
:1016E300021210C0A4FE021210C043FF021210C067
:1016F30014FD041210C09BFD041210C0A4FD0412BB
:1017030010C0CBFD041210C013FE041210C02AFE39
:10171300041210C0BFD0041210C0CDD0041210C0E8
:1017230046D1041210C01FD2041210C0E2D3041217
:1017330010C031D4041210C06FD4041210C0F87F4B
:10174300001210C075F3041210C0ADF3041210C0E0
:10175300FBF4041210C07FF5041210C0B5B50412D7
:1017630010C0E1B5041210C04BB8041210C08BB8FE
:10177300041210C0C7B8041210C0DBB8041210C0A2
:10178300F4B8041210C0E6B9041210C099BA0412D6
:1017930010C0ADBA041210C05A7E001210C07E7E73
:1017A300001210C0977E001210C0D57E001210C028
:1017B300057F001210C0327F001210C03C7F001260
:1017C30010C0A27F001210C0A57F001210C0AF7F0F
:1017D300001210C0BC7F001210C0C0E7041210C07A
:1017E300E0E7041210C01FE8041210C03DE8041221
:1017F30010C058E8041210C0BEE8041210C0CAE8B2
:10180300041210C027E9041210C036E9041210C0F4
:101813005AE9041210C01BEA041210C028EA041289
:1018230010C039EA041210C03C85051210C084852B
:10183300051210C0B085051210C003BB041210C0FE
:101843005DBC041210C06BBC041210C07EBC041239
:1018530010C093BC041210C0A8BC041210C0BBBCBF
:10186300041210C037BD041210C09CBD041210C076
:1018730024BE041210C09CBE041210C075BF041213
:1018830010C085BF041210C094BF041210C0A384FB
:10189300051210C0C784051210C0EF84051210C0D2
:1018A3001785051210C0D3EC041210C0FAEC041211
:1018B30010C018ED041210C087ED041210C037FDDC
:1018C300031210C050FD031210C05CFD031210C0C0
:1018D30070FD031210C08EFD031210C098FD031299
:1018E30010C0A2FD031210C0B5FD031210C03BFED1
:1018F300031210C0B0FE031210C0DFFE031210C0AB
:101903002DFF031210C07CFF031210C097FF0312B8
:1019130010C0A1FF031210C0B2FF031210C0F5FFE5
:10192300031210C09186051210C0DC86051210C088
:101933002CA0041210C058A0041210C075A00412E9
:1019430010C088A0041210C0A3A0041210C0FDA0F0
:10195300041210C02BA1041210C03BA5041210C026
:1019630099A6041210C0CBA6041210C02EA704120D
:1019730010C09AA8041210C0C2A8041210C0D7A89D
:10198300041210C0E7A8041210C027A9041210C043
:1019930069A9041210C079A9041210C0E4FB04124F
:1019A30010C0FEFB041210C026FC041210C03FFC42
:1019B300041210C063FC041210C081FC041210C096
:1019C30098FC041210C0C6FC041210C0E1FC0412FF
:1019D30010C0EA83051210C02E84051210C082D4F1
:1019E300041210C092D4041210C097D5041210C070
:1019F300C9D5041210C0F9D5041210C01CD60412A4
:101A030010C033D6041210C06DD6041210C0D2D643
:101A1300041210C014D7041210C05BD7041210C0F4
:101A230088D7041210C0B3D7041210C04EF90412A1
:101A330010C060F9041210C074FA041210C077FACF
:101A4300041210C00080051210C03680051210C0A9
:101A53004E80051210C09080051210C0A0800512A0
:101A630010C0E480051210C0EE80051210C0A9A9B1
:101A7300041210C0ECA9041210C051AA041210C021
:101A830070AA041210C012AB041210C01BAB0412D4
:101A930010C06CAB041210C095AB041210C0A2AB03
:101AA300041210C014AC041210C0A2AC041210C073
:101AB300E7AC041210C020AD041210C085AD0412AF
:101AC30010C0AEAD041210C025AE041210C074AE27
:101AD300041210C0B1AE041210C0E6AE041210C05E
:101AE300F8AE041210C00AAF041210C029AF0412DA
:101AF30010C032AF041210C0F3AF041210C036B0DE
:101B0300041210C074B0041210C04087051210C034
:101B1300A4FA041210C028EF041210C05EEF0412DE
:101B230010C0A6EF041210C0FFF0041210C093C639
:101B3300031210C0B9C7031210C0F5C7031210C0B7
:101B4300B3C9031210C0E1C9031210C04BCC031276
:101B530010C08BCC031210C02DCE031210C0C3CE05
:101B6300031210C01DCF031210C0ADCF031210C05B
:101B7300F1CF031210C033D0031210C098D1031257
:101B830010C018D3031210C059D5031210C087D543
:101B9300031210C0B3D5031210C0BCD5031210C07A
:101BA30019D6031210C0B2D6031210C0C9D903123A
:101BB30010C04FDA031210C05AFF041210C072FF94
:101BC300041210C07CFF041210C0D2FF041210C014
:101BD3003FC4041210C055C4041210C0F6C404124A
:101BE30010C035C5041210C052C5041210C083C5FD
:101BF300041210C0D0C5041210C004C6041210C0D1
:101C03003FC6041210C03CC8041210C0A2C804127C
:101C130010C00B82051210C06A82051210C0A88280
:101C2300051210C0E982051210C0E886051210C023
:101C3300B9A5021210C0C5A5021210C027A6021230
:101C430010C031A6021210C0BEA6021210C0FAA61E
:101C5300021210C0F6A7021210C054A8021210C03C
:101C6300F4A8021210C074A9021210C043AB0212EE
:101C730010C085AD021210C0CCAE021210C009B163
:101C8300021210C071B2021210C01DB3021210C0B2
:101C93000CB8021210C002B9021210C09AB9021293
:101CA30010C0BFB9021210C057BA021210C075BAE1
:101CB300021210C0ECBA021210C00BBB021210C009
:101CC30038BB021210C0D0BC021210C0F1BC021209
:101CD30010C097BD021210C0DEBD021210C052BE6A
:101CE300021210C0E0BE021210C03DBF021210C0AB
:101CF300B6BF021210C038C1021210C09CC3021238
:101D030010C025C4021210C053C4021210C0A0B0E8
:101D1300041210C022B1041210C027B2041210C062
:101D230084B3041210C0A1B3041210C0C0B30412D0
:101D330010C083DB041210C042DC041210C0A8DC04
:101D4300041210C057DD041210C062B1031210C098
:101D530091B1031210C009B2031210C018B30312D9
:101D630010C074B3031210C0E1B4031210C0FDB469
:101D7300031210C04FB5031210C092B5031210C066
:101D8300A5B5031210C0FDB5031210C0BFB60312F0
:101D930010C03BB7031210C072B7031210C0AAB72A
:101DA300031210C03CB9031210C01BBA031210C0B7
:101DB30069BB031210C04CBC031210C0D8BC031281
:101DC30010C018BD031210C037BD031210C082BD6E
:101DD300031210C0A2BD031210C03BBE031210C0F9
:101DE300C1BE031210C01CBF031210C05CBF03129C
:101DF30010C0F2C1031210C00BC3031210C051C3B1
:101E0300031210C046C4031210C06EC4031210C0E4
:101E130071C4031210C07BC4031210C097C4031211
:101E230010C011C5031210C04AC5031210C076C5F5
:101E3300031210C09DC5031210C0C1C5031210C008
:101E430032C6031210C045C6031210C074C6031273
:101E530010C0B385051210C0BF85051210C0F385ED
:101E6300051210C0F57F001210C0339B031210C07F
:101E7300569B031210C0A39C031210C0EC9C0312C8
:101E830010C0589D031210C0B69D031210C0B99D17
:101E9300031210C00A9E031210C07F9E031210C0CB
:101EA300049F031210C0079F031210C0889F0312E0
:101EB30010C0C99F031210C0B5A3031210C05FA5C1
:101EC300031210C0AFA5031210C036A9031210C02D
:101ED30069AA031210C0E3AB031210C080AC031253
:101EE30010C06BAD031210C0C0AF031210C0CEEC14
:101EF300031210C078ED031210C05B9F041210C0D0
:101F0300FEED031210C083EE031210C0DDEE0312C8
:101F130010C024EF031210C08BEF031210C03FD088
:101F2300021210C039F2031210C0C1F2031210C022
:101F3300CAF4031210C077F5031210C01BF6031284
:101F430010C0ECF6031210C0A7F8031210C03FFA3A
:101F5300031210C0D2FA031210C0F8FB031210C010
:101F63000080031210C06380031210C0AB80031201
:101F730010C0EF80031210C04A81031210C0A78162
:101F8300031210C06FCE021210C06482031210C07D
:101F9300BE82031210C03C84031210C0BC8403121F
:101FA30010C01785031210C03185031210C052856B
:101FB300031210C0AC85031210C02888031210C08E
:101FC3004788031210C03789031210C06A8A0312AC
:101FD30010C0E98A031210C0258B031210C0948B22
:101FE300031210C0498C031210C0218E031210C0BB
:101FF300288F031210C0A090031210C096920312F0
:1020030010C00C95031210C0E696031210C0A797D8
:10201300031210C01F98031210C03698031210C089
:102023002D99031210C0219A031210C0909A031223
:1020330010C0EEE1041210C045E3041210C004E422
:10204300041210C06CE4041210C0C9DE041210C0E4
:10205300E4DE041210C028DF041210C04EDF0412A5
:1020630010C075DF041210C08DDF041210C02FE002
:10207300041210C044E0041210C067E1041210C03F
:1020830070E1041210C079E1041210C082E104125D
:1020930010C08CE1041210C0C5BF041210C0D1C31C
:1020A300041210C0D6C3041210C0D8C3041210C047
:1020B300F7F5041210C0CDFF021210C0E0E40412C1
:1020C30010C03CFE041210C02886051210C066F131
:1020D300041210C0C67F001210C0E7CC041210C057
:1020E3009887051210C0A887051210C0AFC8041244
:1020F30010C00080021210C03380021210C09F80F3
:10210300021210C03A81021210C0D781021210C00D
:102113001C82021210C03E82021210C057820212A9
:1021230010C07D82021210C09F82021210C0DD8295
:10213300021210C02183021210C04383021210C086
:10214300A583021210C06C84021210C023850212F0
:1021530010C09585021210C06086021210C0B386AB
:10216300021210C01987021210C05387021210C046
:10217300A587021210C01388021210C07E880212B3
:1021830010C08188021210C00289021210C09989FE
:10219300021210C0198A021210C0388A021210C02B
:1021A3009C8B021210C0A98B021210C0B58C0212B4
:1021B30010C0C28C021210C0CB8C021210C0A38EAE
:1021C300021210C0BD8F021210C03690021210C04E
:1021D300A890021210C0CA90021210C05E9102129F
:1021E30010C03293021210C00997021210C01D973B
:1021F300021210C02D97021210C03797021210C09E
:102203004097021210C04997021210C0539702124E
:1022130010C08097021210C0A997021210C0B49781
:10222300021210C0D897021210C0FC97021210C0FD
:102233006698021210C0AC98021210C0C99802121C
:1022430010C04699021210C07D99021210C0BC99A9
:10225300021210C0099A021210C08F9A021210C003
:102263005D9C021210C0E09C021210C0C49D0212B9
:1022730010C02BA0021210C084A0021210C0CEA066
:10228300021210C029A2021210C05EA2021210C0D4
:10229300B0A2021210C065A3021210C014A402124D
:1022A30010C051A4021210C0E6A4021210C052A51D
:1022B300021210C09D31001210C0CF31001210C0A5
:1022C300FD31001210C0D333001210C0B33400121A
:1022D30010C00B35001210C04636001210C09236E3
:1022E300001210C0BB39001210C0AE3C001210C067
:1022F300FE3D001210C0943E001210C0A03E00121A
:1023030010C0D23E001210C05540001210C0064249
:10231300001210C09A42001210C0DD42001210C019
:102323005B43001210C07843001210C0A843001290
:1023330010C0DD43001210C0AD44001210C056455A
:10234300001210C0DC47001210C0FC48001210C07D
:10235300E749001210C0694A001210C09D4E0012D6
:1023630010C0DA4E001210C0324F001210C0654F79
:10237300001210C0CF4F001210C00550001210C041
:102383009050001210C0E850001210C0BF5100124C
:1023930010C07852001210C01353001210C01B5605
:1023A300001210C03757001210C0DA5A001210C0C2
:1023B300CE5B001210C0D15B001210C0005C001293
:1023C30010C0065E001210C0DF5E001210C0225F54
:1023D300001210C07860001210C0B760001210C065
:1023E3004061001210C07461001210C03962001203
:1023F30010C05164001210C0C264001210C0026504
:10240300001210C09065001210C0B266001210C016
:102413007467001210C07B69001210C09369001228
:1024230010C0A769001210C0DF69001210C00D6A46
:10243300001210C08C6B001210C0B16C001210C0DF
:102443000E6D001210C0C06D001210C0E76D0012B7
:1024530010C0AE6E001210C0466F001210C06C7137
:10246300001210C0A171001210C00472001210C03B
:102473003373001210C0DB73001210C00C7400120F
:1024830010C02474001210C0B374001210C0677718
:10249300001210C03F79001210C05B79001210C007
:1024A3007779001210C0457A001210C0387E0012EE
:1024B30010C03387011210C06587011210C0548BFE
:1024C300011210C0A08B011210C0E68B011210C0C4
:1024D300888C011210C0E48C011210C0298D0112E6
:1024E30010C0708E011210C0848F011210C073933C
:1024F300011210C0F793011210C00495011210C00D
:102503006095011210C05097011210C0C5970112B7
:1025130010C0CF97011210C0DC97011210C00798AA
:10252300011210C0EE98011210C09899011210C048
:10253300169A011210C0369A011210C05F9A011246
:1025430010C0819A011210C0E19C011210C0A79D16
:10255300011210C0EC9D011210C0699E011210C03F
:102563001A9F011210C04C9F011210C0929F0112BA
:1025730010C0CE9F011210C01EA0011210C072A085
:10258300011210C0C8A0011210C014A1011210C082
:1025930081A1011210C0FCA1011210C0C7A3011236
:1025A30010C0C7A4011210C0ECA5011210C02BA9C2
:1025B300011210C03EAC011210C0FBAC011210C0DE
:1025C3003FAD011210C0EFAE011210C003AF0112F4
:1025D30010C00DAF011210C017AF011210C023AF0E
:1025E300011210C03FAF011210C0EAAF011210C0B8
:1025F30029B0011210C033B0011210C03DB0011256
:1026030010C0ADB0011210C0F8B0011210C00DB26D
:10261300011210C069B2011210C0EAB2011210C057
:10262300A9B3011210C0B2B4011210C0E6B5011271
:1026330010C0D4B6011210C0ECB6011210C047B7D7
:10264300011210C065B7011210C0ADB7011210C05E
:10265300D4B7011210C06FB8011210C035B90112FE
:1026630010C0C7B9011210C041BA011210C05BBB40
:10267300011210C008BC011210C030BD011210C0FD
:1026830080BD011210C0E4BD011210C046BE01128C
:1026930010C074BE011210C098BE011210C0CDBE8E
:1026A300011210C0FEBE011210C031BF011210C0D2
:1026B30051BF011210C0B9BF011210C0ADC0011249
:1026C30010C008C1011210C031C1011210C0B9C13C
:1026D300011210C03CC2011210C067C2011210C027
:1026E3004CC3011210C00080041210C038800412C1
:1026F30010C05980041210C09B80041210C0FD80CA
:10270300041210C00781041210C01781041210C0F4
:102713005281041210C03285041210C01F870412A4
:1027230010C00589041210C09C89041210C03E8A8F
:10273300041210C04EC5011210C0CCC5011210C046
:1027430028C6011210C073C6011210C08EC6011232
:1027530010C0B9C6011210C0D6C6011210C0E2C61D
:10276300011210C079C8011210C092C8011210C022
:1027730017C9011210C02AC9011210C049C9011298
:1027830010C0EDC9011210C06ECB011210C021CDD3
:10279300011210C0B7CD011210C0BACD011210C082
:1027A3002ACE011210C048CE011210C0DFCE011292
:1027B30010C027CF011210C02ACF011210C0F0CFD2
:1027C300011210C05DD0011210C083D0011210C0DD
:1027D3000ED1011210C02CD1011210C072D10112FE
:1027E30010C026D2011210C070D2011210C09FD2A5
:1027F300011210C0FCD2011210C031D3011210C05B
:102803005DD3011210C06BD3011210C0B8D30112F3
:1028130010C028D4011210C071D4011210C0BDD44D
:10282300011210C0E9D4011210C0F4D4011210C077
:1028330012D5011210C0FDD5011210C007D6011226
:1028430010C042D6011210C052D6011210C05BD67E
:10285300011210C0AFD6011210C0C3D6011210C0AE
:10286300F2D7011210C009D8011210C01ED80112EC
:1028730010C0ACD8011210C0F1D8011210C07DD91C
:10288300011210C088D9011210C0CADA011210C097
:10289300E5DA011210C031DB011210C0A0DB011216
:1028A30010C0D9DB011210C0F3DB011210C035DCFC
:1028B300011210C005DF011210C0B2DF011210C0F7
:1028C3001FE0011210C05FE2011210C077E2011293
:1028D30010C07AE2011210C086E2011210C09AE21F
:1028E300011210C0A2E2011210C0D5E2011210C001
:1028F300D7E3011210C05EE4011210C0CEE401124E
:1029030010C050E5011210C011E6011210C030E6EC
:10291300011210C0D1E6011210C02EE7011210C03F
:1029230031E7011210C05EE7011210C073E7011214
:1029330010C0E7E7011210C036E9011210C03CEAEB
:10294300011210C0C7EA011210C0E2EB011210C05D
:10295300AAEC011210C0DBEC011210C0FEEC011254
:1029630010C007ED011210C036ED011210C0C6ED04
:10297300011210C07CEE011210C0F1EE011210C062
:1029830098EF011210C00DF0011210C044F00112B3
:1029930010C082F0011210C0B8F0011210C0ABCF0A
:1029A300021210C0C99D041210C01B9D041210C056
:1029B3007E9C041210C0749C041210C00D9C04125F
:1029C30010C0F99B041210C0569B041210C0569AF3
:1029D300041210C06F99041210C05F97041210C044
:1029E3006D96041210C00B96041210C04BCF021246
:1029F30010C00AF1031210C046FD021210C03CFDC4
:102A0300021210C008CC021210C0BFC8021210C0BC
:102A1300D1FC021210C002FB021210C0C0FA021253
:102A230010C0C4F9021210C098F9021210C04FF975
:102A3300021210C090F8021210C07CF5021210C0EE
:102A43003DF3021210C00AF3021210C0B1F20212D7
:102A530010C044F2021210C003F2021210C03CF183
:102A6300021210C0D6F0021210C075F0021210C08C
:102A730015F0021210C0ECEE021210C080EE02122A
:102A830010C0D8ED021210C0D3ED021210C0C7ED72
:102A9300021210C0FAE9021210C0D4E9021210C0E7
:102AA30013C8021210C070C7021210C02AC7021244
:102AB30010C0F5C6021210C0C2C6021210C0ADC6C5
:102AC300021210C082C6021210C072E9021210C0B4
:102AD30013E9021210C0D4E8021210C0C1E80212B6
:102AE30010C0E69F041210C0B6E8021210C085E8B9
:102AF300021210C072E6021210C0E5E5021210C005
:102B03001BCF021210C0A1E5021210C0E281031212
:102B130010C075E5021210C09B95041210C06E958B
:102B2300041210C03B95041210C01395041210C078
:102B3300B494041210C09494041210C05F9404124D
:102B430010C00B91041210C0F38E041210C0DD8C60
:102B5300041210C05D8C041210C0098C041210C042
:102B6300BD8B041210C0158B041210C0B29F041247
:102B730010C0E3ED0300000080FB000022E4738F2C
:102B8300000100FE1787000100FC1735000400C593
:102B93001725000200C91726000200CB17270002E1
:102BA30000CD1728000100D71729000100D817848A
:102BB3000004002F15860001004F172A000100D9D9
:102BC300172B000100DA172C000100DE172D000877
:102BD300003B152E000100DF172F000100E0173026
:102BE300000100E11731000100E217320001004348
:102BF3001533000100441534000100E317360001CA
:102C030000451538000100E41739000100DD178382
:102C1300000200FA1763000100511564000100DB94
:102C23001765000100DC176D0001005215710008E3
:102C330000331566000100F91743000100EA174449
:102C4300000200EB1745000100ED1746000200EEFD
:102C53001747000800491548000100F0174B000111
:102C630000F11704000100FD17A10001000118374E
:102C7300000100001888000100FF173C0001004616
:102C8300153D000100E51749000200F21767000136
:102C93000053154D000200F4174E000100F6174FC4
:102CA300000200F7173E000100E917510001004739
:102CB3001552000100E71753000100E81754000103
:102CC3000048150000000000000001363601010035
:102CD30001020100010301000104010606050200CF
:102CE30000070100340801000F090401010D010070
:102CF300FF0E08000017020000190100FF1A01006F
:102D0300011B0100FE1C0100081D0200001F010041
:102D13000120010001210200002301000F24020011
:102D2300002601000127010008280200FF2A0100F4
:102D3300072B0102402C0100002D0100012E010090
:102D4300012F0100FF30010B1D310800003A010083
:102D5300083B01000F3C0100013D0100FF3E040060
:102D63000042040000460400004A0400004E040030
:102D73000052040000560400005A04000000000042
:102D8300002001318700000100200132870000028A
:102D93000020012D870000030020012E870000047E
:102DA3000042019685000005004201D68500000619
:102DB30000420155850000070030012F8700000005
:102DC30040420155850000FDFF21012987010020B4
:102DD30000200557170100210020055817010000A6
:102DE30002210559170204000029051F14030400DA
:102DF30000290521140304100029052314030414D6
:102E0300002801A217050400002105251401037100
:102E1300030103010301030103010322030203016D
:102E23000310030003000300030003000300030077
:102E330003420300032403060300030003040312F5
:102E430003250323032503230304030403000300CF
:102E5300030003440300030003230300036503216A
:102E6300003503810300030503000300030003008F
:102E73000325032303030271023001600211027070
:102E8300020102020202028002100261023A0041C0
:102E930000630273027202620243020002130238E9
:102EA30000000200020402120200020002000200FB
:102EB3000204020402370037003C024402000239D4
:102EC30000000200026502000235028102000205D1
:102ED3000282028302000201017101010101011159
:102EE3000101013101010101018001100161013B77
:102EF30000140063017301720162014301000113B5
:102F03000106013D01350004011201000100010029
:102F130001000104010401330133013C0144013286
:102F23000136000001000165010001350081010047
:102F3300010501820183010001030071003001607A
:102F43000011007000310220035004800010006162
:102F5300000000140063007300720062004300006D
:102F6300001300060000000000040012000000002F
:102F7300000000000004000400370037003C024456
:102F83000000000000000000006500000035008123
:102F93000000000500000083000000360001000669
:102FA3000000000F0000000000000000000000000F
:102FB3000003FFFF00000403FFFF0000FFFF0FF407
:102FC300010005C4040320000100000B0000000001
:102FD3000000000003010F000000000000000000DB
:102FE30000000000000000000000000000000000DE
:102FF300000000000000000000EA1C081DF01C4E49
:103003001C000000000000000000000000000000A1
:1030130000F61C4E1C00000000FC1C4E1C000000AF
:103023000000000000021D4E1C0000000000000014
:10303300000000000000000000000000000000008D
:10304300000000000000000000000000000000007D
:1030530000000000000000181F0100181F02008E6E
:103063001E0280881E0300941E04009A1E0480A082
:103073001E0500A61E0600B21E3100C41E3300CA80
:103083001E3400D01EFFFF000003000300040008ED
:103093000010001F003E007B00F600EC01D703AFD9
:1030A300075D0FB91E713D000007ECFDFDFDECDC73
:1030B300DCCCBCACAC9C9C8C7C7C6C6C5C5C5C4C5D
:1030C3004C3C3C2C2C1C1C03EAF5E5D5D5C5B5A519
:1030D300959585857575656555554545353525251D
:1030E3001515050A2A2502F42405002507FA240CE0
:1030F300DC240DE824FF000000160F00000B150B65
:10310300020002220F3300000E0F5A696742656501
:10311300416C6C69616E63653039D0D1D2D3D4D53B
:10312300D6D7D8D9DADBDCDDDEDF3030161819204C
:10313300231A1C1E3000034D4C4651181A25050254
:103143000001191618161618230300303017181922
:1031530021301B1D1F30003C40423A3F3F392F476F
:10316300300C0E020B040B0A0708000F02040201C5
:103173000101010902E803000000BE040A01002462
:10318300000300E803FF04091203100F030A0C04F1
:103193001E0828020C0508151E05C082C0831214E0
:1031A300F290157E74CCF0A37422F090158074D243
:1031B300F0A37422F090158274D8F0A37422F090D7
:1031C300158474DEF0A37422F0025ED874F7120B38
:1031D30002901572E4F0E9901571F07C497D157A3F
:1031E300737B15121C249017F0E090157BF090155B
:1031F3007C7433F0A3741502416574F0120B02EA78
:10320300FEEBFF5480700302336E9015711241FA86
:103213007003023367EA241B125A65707CEA241F89
:10322300125A6564137002A3E0706E8A828B831254
:1032330033BC90158C124FF7750A00750B00800D87
:1032430012403B1270D7121B28AA0EAB0FEA4B6039
:10325300488A828B83E0650C7004A3E0650D702CB3
:103263008A828B83A3A3A3A3E0F50EA3E0F50FE566
:103273000A450B8A828B83A3A3A3A360C312433D96
:10328300850A82850B83A3A3A3A380B78A0A8B0B2A
:103293008A828B83124FF380B4E508242A125A657D
:1032A300FCE5082402F8E43509F9E8FAE9FB90158E
:1032B3008C1234A3A3A3E06402703C8A828B831232
:1032C3004FF7800B88828983A3A3A3A312433DE80E
:1032D30049601F88828983E06A7003A3E06B70E40E
:1032E30088828983A3A3E06C70DA9017F6125D9548
:1032F300806BECF9122308850882850983E0640159
:10330300704FE50824181233A512113412667F1288
:103313000EE7E50824121233A5121134E508124111
:10332300EE121130E508240B126683120EEBE5084A
:10333300241712418BE5082402FCE43509FDE50856
:103343002419FAE43509FB122B4E740A12110D806D
:103353000CE064027007AA08AB091223E6AA08ABC3
:1033630009121A92EEFAEF6480802DEA5402600C7F
:103373009018557401F0EA6402FA8023EA54086055
:103383001A122302EA4B700B90158E12655A7A08B3
:103393001233B2EE6408FAEFFB80047A007B00027A
:1033A3006D09F582E43509F583E0F50A780A22FB15
:1033B300901571E0F9121BF422A3A3E0F50CA3E02E
:1033C300F50D227B00901571E0F9121BE8740422BD
:1033D30074F4120B028A088B098A828B83A3A3A33A
:1033E300124DEF12419638F583E02409FA126CA1CD
:1033F30070030234968A828B837402124E648508AA
:10340300828509831234A3E8F0A3E912691B8A8237
:103413008B83A3A3A3A3A3A3A3A3F0E5082403F887
:10342300E435091234981241963AF583E08E828B83
:1034330083A3A3A3A3F0EE2409FAE43FFB8E828FB8
:1034430083A3A3126047F5838882E0A2E58E828F6F
:1034530083A3A3A3A3A3500474018001E4F0E508AC
:103463002403F5828983124FF7EA1255783BF583DB
:10347300126C6812112C1241953B1261398E828FA6
:1034830083A3A3127E1712110DEEFAEFFB901571B1
:10349300126CEE8016F98882F583E0FAA3E0CA2263
:1034A300125194A3A322740212110D7F04020E621F
:1034B30074F2120B028A088B09ECFAEDFB740E12FC
:1034C3001437E0FC1215288A0C8B0DAE0CAF0DEAF5
:1034D3004F6030AC08AD09121516E96026AC08AD93
:1034E30009EEFAEFFB12151CE970148E828F83121A
:1034F300432AFAEFFB121510AA08AB0912154079FB
:1035030000800279B40250E374F0120B0274F612D5
:1035130011A6EAFEEBFF8C088D09750FB385218296
:10352300852283E4F0750E008002050E90319CE441
:1035330093F8E50EC3984003023632AA0E7B0012BD
:1035430015648A0A8B0BEA4B60E08A828B83A3A300
:1035530012363928F0F8C3EE98EF940050CC7C155E
:103563007D007900AA08AB09121A7A850A82850BB5
:1035730083A3A3A3A3127114E0F8EEC3982925E053
:10358300F8E433F9E50A28F582E50B39F583A3A3BB
:10359300A3A3A3A31241A0A3125BBC8A0C8B0DAC03
:1035A3000CAD0DAA08AB09121C24850A82850B8376
:1035B300A3E06401700A12667F74011241B2804471
:1035C300740112119E850A82850B83124FF5121521
:1035D3004CE9603D7409121437E0C0E012667FD0F5
:1035E300E0F07409121437E06403701374011211CC
:1035F3009EE508240BFAE43509FB121C248012749F
:103603000112143712433DE508125BA2350912700B
:10361300D5850A82850B8312668B1241B2A3A3E080
:10362300C0E0E5082414126683D0E0F0750F00A90A
:103633000F740A026D06A3A3A3E0F88521828522F5
:1036430083E02274F7120B02E9FE8A828B83A3A321
:10365300A3A3A3A3E0540860338A828B83A3A3A309
:10366300A3A3A3E0540260218A828B83A3A3A3A311
:10367300A3A3A3A3A3E06406600F74E96E600A74B6
:10368300CD6E600574F06E70031222EA0249E27493
:10369300F0120B0274EF1211A6740F121437126496
:1036A3003E7408121437E9F0ECFEEDFF74051214B2
:1036B300371247AA1249CEA3E0F912153474061241
:1036C300143712643E74061214371256097003023B
:1036D300394D1241DAE0FA7406121437E0F9122276
:1036E3002A1239ADF8A3E0F9E849700302394DEE27
:1036F3002403F50AE43FF50BEE2406F508E43FF551
:10370300097C00850882F583124FF7850A82850BB1
:1037130083E0F912153A740312143712643E850AD2
:1037230082850B83E0C0E08521828522831239A63E
:10373300D0E012571EF9852182852283124042125E
:10374300527012363CFAA3E0CA2407F582E43AF534
:1037530083E8F0A3E41264492406F582E438F58390
:10376300E41270E1124DE312112CEE1241963F1256
:1037730061397403121437124DEF2409127E1112AA
:10378300110D742912143712710E12349D12573110
:103793003A1270D5742B121437E0C0E0852182856C
:1037A30022831255D0D0E0F07402121437E4F0747F
:1037B3002512143778081213C40238A474031214A0
:1037C300371261018882F583123995A3A3A3125B93
:1037D300C7FB121552850E82850F83A3EAF0A3EB74
:1037E300F074031214371239A6A3123995125DD659
:1037F300A2E6500F850E82850F83A3A3A3A3A3E0A4
:10380300D2E1F07405121437E0706B850E82850FD8
:1038130083A312433D9015CCE0687003A3E0697065
:1038230055850E82850F83A3A3A3124175750C00E2
:10383300780C12113478081211287429121437E005
:10384300F50C780C1211347427121437120EEB9006
:1038530015D9120EEB79007419121437124FC712CF
:10386300242E740A12110D850E82850F83A3A3A340
:10387300A3A3E04405F07402121437E004FC8E8223
:103883008F83124FF18E828F83A3A3A3E0F91215C6
:103893003A740312143712643E7402121437E004AC
:1038A300F074031214371256096067740212143746
:1038B300E0FA740612143712433DC3EA98E49950B0
:1038C300517402121437123C7F852182852283E0D2
:1038D30028F8A3E039F9E8240FF50EE439F50F854C
:1038E3000E82F583E4F074031214371239A06401D5
:1038F30060030237BF74051214377401126CF4F0BD
:103903007403121437125EC8123CA2E8F0A3E90252
:1039130037E3852182852283124FF71222308521D6
:1039230082852283120EEB7426121437E0FD742570
:10393300121437E0FC740A121437E0F9EEFAEFFBC5
:103943001222E4740212110D80438E828F83A3A38B
:10395300A3E0C0E0740C121437D0E0F0126B5DE00A
:10396300C0E0740D121437D0E0F07406121437124D
:1039730056097009740E12143774B98007740E1245
:1039830014377410F074091211961224287411025A
:103993006D06E0850E82850F83A3A3A322E0125652
:1039A300F6E022E01256F6A3A32285218285228324
:1039B300EAF0A3EB1256122274F0120B0274E11216
:1039C30011A67404121437E9F07403121437ECF0DF
:1039D3007402121437EDF08A0E8B0F742F12143702
:1039E3001233BEAA0CFB12221E7401121437E9F023
:1039F300AA0CAB0D1222247401121437E0700302D7
:103A03003C7A852182852283E480158E828F83A36D
:103A1300A3A3A3A3E0D2E3F0852182852283E0045C
:103A2300126C4CF8852182852283E0C398400302FF
:103A33003C717401121437E07003023C71852182DA
:103A4300852283123C7FE50C28F8E50D39F9E8243B
:103A53000FFEE439FF8E82F583A3A3A3A3A3E0A201
:103A6300E040B5750800750A08750B00740212145E
:103A730037E060037508207C087D00790074051227
:103A83001196121A7A8E828F83E0603E90161CE0A4
:103A93006401701AE508D2E3F508750B10123C8F28
:103AA300121437E8F0A3E9125ABA74FF8076430878
:103AB3000C750A0C8E828F83A3123C9A1270D774F2
:103AC3000512143774FFF0A3805A7404121437E0FC
:103AD3006009E508D2E6F508750A0A8E828F83A38A
:103AE300E064FE7003A3E0F47030741212143774B0
:103AF300041266A9F8741D121437E8124E64741286
:103B030012119612214C7D007C0079007415121459
:103B130037AA82AB83121F00800B123C8F1214371B
:103B2300E8F0A3E9F07407121437E508F01241D165
:103B3300C0E07409121437D0E0F0740A1214377419
:103B430001F074051211961223EC7411121437E06C
:103B53006003023C4F740D1214371257198E828F73
:103B630083A3A3A3A3F0740D121437124E32E50AF4
:103B7300F0A3E50BF07403121437E0C0E0124DC359
:103B8300D0E0125DD6601190161CE0C0E0740D12F7
:103B93001437124E0DD0E0F0740D12143712433D5A
:103BA300850C82850D83A3A3A3A3A3123C88241CA5
:103BB3001264381270F1123C8A125D8839126B7CE0
:103BC300C0E0124DAAD0E0126C41C0E0740D121493
:103BD300371248F0D0E0126942C0E0740D12143776
:103BE3001248E6D0E0F0740D121437123C9A123CDE
:103BF30088242A126438850E82850F83A3A3A3A386
:103C0300A3A3A3A3E01264311241C0C0E01248D2BF
:103C1300D0E0F0740D121437124FF7850E82850F22
:103C230083126C572428F582E43B1270D51241C9E4
:103C3300126C6812112C126132EA1263CA3B127EB3
:103C43001512110D74051211961223F28E828F83B1
:103C5300A3A3A3A3A3E0D2E0F07411121437E0608E
:103C630003023A0E7401121437E014023A1A79006F
:103C7300AA0CAB0D1222F0741F026D06E075F0075B
:103C8300A4F8A9F022A3A3124FFBE8228E828F830C
:103C9300A3124341740522E0123CA2A3A3A322F87A
:103CA300A3E0F9850E82850F83A32274F0120B0221
:103CB30074E81211A6E9852182852283F08A0E8B8E
:103CC3000F8A828B83A3A3A3A3A3A3A3A3E0F912C5
:103CD30022488A088B09EA4B7003023D8BE50E12DA
:103CE300558C1241E9124180852182852283E0604F
:103CF30003023D8E7C04850E82850F83A3A3A3A3B9
:103D0300A3A3A3A3E0F912224EEE4F607B8E828F12
:103D130083A3A3A3A312433D740712143712656F41
:103D230012433D7409121437124E94C0E0741112F9
:103D33001437D0E0126920A3A3A3A3A3A3A3124320
:103D43003D740F1214371270D77412121437E41221
:103D53006CFCC8241FF582E438F5831260FDC4139C
:103D6300135403FC70027C048E828F83E0F978087D
:103D7300121130742059FD744059F97403121196CD
:103D83001222E4740212110D026D047C08850E8266
:103D9300850F83A3A3A3A3A3A3A3A3E0F912224E96
:103DA3008B0BEA4B7003023D0CEE4F60DB852182E7
:103DB300852283E0F50C780C12113485088285097D
:103DC30083A3A3A3A3A3A3A3E0F50C780C1211343C
:103DD3008A828B83A3A3A3E0FB8A82850B83127958
:103DE300348A82850B83E0FA8E828F83A3A3E0F962
:103DF300122B54740212110D023D1074F7120B02B0
:103E030074FA1211A6E9FE780179017F0080037923
:103E1300000F125173E0FCEFC39C5026EF75F007BF
:103E2300A4FC85F008AD08EA2CFCEB3DFD124762CB
:103E3300E0A2E050DA540C60D6E0A2E250D378005E
:103E430080CF8A828B83A3A3A3A3A3A3E0703DE9BE
:103E5300A2E0400574016E70338A828B83A3A3A30F
:103E6300A3A3A37401124152E0C0E07403121437F8
:103E7300D0E01247C1E0C0E07404121437D0E0F080
:103E83007405121437E812609C1224287406024940
:103E9300DFC082C08379011222F0025ED874F4126B
:103EA3000B02EA4B9018556019E4F08A088B09F568
:103EB3000AF50B78081211287A021233C612110D73
:103EC300800A7401F07A027B001233B30234AE74B9
:103ED300F0120B0274F31211A67403121437E4F0F8
:103EE300A3F090158C1241807401121437E4F0A3EF
:103EF300124E6904F09015C6E0A2E35003023FC5D9
:103F03001241467409121437121408740912143733
:103F130078081213C490158E78081211767405125E
:103F2300143778081213A61240497405121437780F
:103F33000812136750077A017B000240367405129A
:103F43001437780C1213C49017F5E0F509780C793F
:103F530008120A93A80CA90D9017F6E0C398E499E8
:103F63005003E08001E8852182852283F0740912E1
:103F7300143778081213C4C008C009C00AC00B74F0
:103F830005121437780C1213C4124049780C7908BF
:103F9300120A93E4F50AF50BD00FD00ED00DD00C16
:103FA300780C790812124E90158E780C1213A68095
:103FB3001112403B1270D7EEFAEFFB121B28AE082A
:103FC300AF09EE4F60658E828F83123639C39850E6
:103FD3002DEE2403F8E43FF9E0FA88828983E0C3F5
:103FE3009AF0602374031214371244A37401121459
:103FF30037EEF0A3EF12658AFEA3E0FF80C48E8242
:104003008F83A3A3A3E4F08E828F83127DCE7401EA
:104013001214371256098E828F83A3A3A3A3609130
:1040230012656312143712404280897403121437E5
:10403300124FF7740D026D0612434190158C221234
:104043006128A3A3A3229017F4127DD6E4F50AF501
:104053000B2274F0120B028A088B09890A78007903
:104063000090158C124180FBEE4B601E088E828FF0
:1040730083A3A3A3A3124FC1601008E87001098EA4
:10408300828F8312417CEA4F70E39017F7124FF748
:10409300C3E89AE99B40030241397A0612413CA8DE
:1040A3000CA90DEA4970030241398A828B83E50822
:1040B300F0A3E50912415BE50AF09017F612517B74
:1040C300124152A3E4F0A3F090158C124FC1600D7E
:1040D3008E828F83A3A3A3A31270D7801790158C0E
:1040E3001270D79015C6E0A2E3400912414690151D
:1040F3008E1214089015C6E0A2E3503A7A087B00AA
:10410300901571E0F9121BFAEA4B4C4D7028901789
:10411300F4E0F508A3E085080CF50DE4F50EF50FC2
:10412300780C1211287A087B00901571E0F9121BA4
:10413300EE740412110D026D097B00121B228A0C0E
:104143008B0D22121C0CEAF8EBF9ECFAEDFB2212B0
:1041530041562212415BA322F08A828B83A3A322BE
:10416300E508F00249E2F08E828F83A3A3A3A3A301
:10417300A322125A73A3A3F022A3A3A3A3E0FEA333
:10418300E0FF227F05020E62F582E43509F583E044
:10419300F922EA12419A222410F582E4221241A85C
:1041A300A3A3A3A322124345850882850983221270
:1041B30041B622F0850A82850B83A3A322E50E2450
:1041C300111241E6E022E50E240E1241E622E50E2D
:1041D30024101241E6E0221241DE22EE12419A3F00
:1041E300F58322F582E4350FF58322240FF50AE4E3
:1041F3003509F50B780A22E0F9121AA48A088B090B
:10420300EA4B2274F2120B02890B8A088B098A8209
:104213008B83124FF7122314EA4B600479B8806A38
:10422300122320E9F890318DE493F9E8C39940040F
:1042330079B280567A1512413CAE0CAF0DEA4F703D
:1042430004791080458A828B83E4F0A312415BE5F5
:104253000BF0750A00780812112C7C127D00EA24F9
:1042630003126C1312110D901592125609700890D7
:104273001592800C12433D8882898312429070F418
:10428300EEF0A3EFF012233279000250E3124FFB5A
:10429300EA4B8882898322C082C08390159280046E
:1042A3008C828D83127935EC4D60288C828D83A3AB
:1042B300A3E069600574FF6970E68C828D83A3A314
:1042C300A3E06A7003A3E06B70D6EC2403FAE43D29
:1042D300FB80047A007B00025ED874F7120B02E9BC
:1042E300FD74FE6D70047C0180027C009015928049
:1042F300096D70027C0188828983125609601F88C8
:10430300828983A3A3A3E06A7003A3E06B70E7EC45
:10431300A2E088828983A3A3E050D6F9800279FEC4
:104323000249E2EEF9800CA3A3127DD6EE227402B9
:1043330012110D7F02020E62F583124341221243D2
:104343004522E0F8A3E0F9221243458E828F8322AF
:1043530012110D7F03020E62C082C0837900901593
:1043630092800109E0FAA3E08A82F583E58245831E
:1043730070F1025ED874F6120B02E4F508F50978C1
:104383000812113090318DE49375F013A4A9F01243
:10439300449812713512110DE9FE74096E700312FF
:1043A300232C02432674F6120B0274FE1211A68507
:1043B3002182852283E4F0A3F0A821A92288088919
:1043C300097808121130750802750900780812116E
:1043D30030126DA612110D02433174F5120B0274E3
:1043E300EB1211A6852182852283E4F0A3F09015B8
:1043F3009280748E828F83A3A3E0C0E074021214B0
:1044030037D0E0125ABAA982AA8389088A09750AA1
:1044130000780812112C7C127D00740612143712D6
:1044230070FA12110D740212118E88088909780826
:1044330012113075081375090078081211307404CD
:104443001214371255AC75F013A4F8AAF075F013D3
:10445300E9124494126DAE12110D852182852283D7
:104463001244A38E828F83124180EE4F7085A82160
:10447300A92288088909780812113075080275097C
:10448300007808121130126DA612110D7415024333
:1044930053A42AF9E82402FCE439FD7A427B002282
:1044A300E02401F0A3E03400F02274F4120B027450
:1044B300EB1211A67E007F00A821A9228808890992
:1044C30078081211307508028E0978081211307CB1
:1044D300007D007A4212714112110DE9706C8E0851
:1044E3008056740212118E880A890B780A121130D1
:1044F300750A13750B00780A121130E50875F0136D
:10450300A4F8AAF075F013E509124494127143124A
:10451300110DE9701B7403121437AA82AB83740262
:10452300121437E0F912230EE970050EEE70010F35
:104533000508E50870020509852182852283124357
:104543003DC3E50898E509994098EEFAEFFB741529
:104553000234AB74F6120B028C828D83A3A3124731
:10456300AFF0EA1263D03BF583E0C0E012476CD0B2
:10457300E0F0EA241DF582E43B12433B124750125C
:1045830047AAF0A3F0EA241FF582E43BF583124126
:1045930080EC1247433DF583EEF0A3EFF012474959
:1045A3003BF58312477AA3A3A3A3A3A3EEF0A3EF40
:1045B30012602BFE8C828D831247B974035EFEC397
:1045C30094034003024736EE600874026E600302F0
:1045D300465B8C828D83E0540CFE740C6E70030278
:1045E300469AE0A2E4400D88828983E08C828D8321
:1045F300A31247CF74086E600302469A12475A7497
:1046030001F08A828B83A3A3A3A3A3125A807014FD
:104613008C828D83E0440C1247C1A3A312477AEE28
:10462300F0A3EFF08C828D83E0A2E4402B8882120A
:10463300478812479D500109F582124788A3A3A317
:10464300A3A3A3F0A3EF1247C98C828D83A3A3A3D3
:10465300F0E82403F850010988828983E0C0E0EC84
:104663002411F582E43DF583D0E01247B98C828DA5
:1046730083E0A2E7507588828983E0FE8C828D8374
:104683001247CF74FC5E700C8C828D83A3E05403BD
:104693006403701E02473612475AE4F0740C6E60CE
:1046A30003024605888212478E12479D5001090274
:1046B30046278C828D83A3E05403603288828983EA
:1046C300E0C0E0EC1247743DF583D0E01247D08C94
:1046D300828D83E054036402701488828983E0C06E
:1046E300E0124762D0E01247D08003A3E4F0EC125B
:1046F30055783D1270D5EC2410FEE43DFFEA241DED
:10470300F582E43BF583E0F5088E828F83E0C3985E
:104713002508F508F0EA2417F8E43BF98882F583C5
:10472300E0C39508C0E0124750D0E012602BC39558
:1047330008500A124750E4F012476CE4F002433683
:104743002415F582E422EA240DF582E422EC240DFB
:10475300F582E43DF58322EC1257313DF58322ECDB
:104763002414F582E43DF58322EC12419A3DF5834E
:10477300222413F582E422E0FEA3E0FF8C828D83E2
:10478300A3A3A3A32212478EA3A3228983E0F50840
:10479300A3E0FFE5088C828D8322A3A3A3A3F0A348
:1047A300EFF0E82402F8221247AFA322E4F08C8250
:1047B3008D83A3A3A3221247D7A882A983221241E0
:1047C30056A3A3A3A3221247D7A3E022A31247D73A
:1047D30008A98322126034A32274F4120B0274F327
:1047E3001211A68A0A8B0BECFEEDFF8C82F583E097
:1047F300540CF508E0A2E75006E508D2E7F508E512
:1048030008D2E1F508125A807006E508D2E4F508EB
:10481300E0A2E55006E508D2E5F5087C087D0079BD
:1048230000AA21AB22121A7A7402121437E5081275
:1048330070DBC0E07403121437D0E0124E69E50A4E
:10484300F0A3E50BF07405121437126947121437FD
:10485300E070777408121437124DEF12601D38128E
:104863006962C0E074081214371248F0D0E012698C
:1048730042C0E074081214371248E6D0E0F074081E
:104883001214371248DCE0124E17124E981264319C
:10489300EE2411125A4CC0E01248D2D0E0F0EE24BC
:1048A30014125A4CC0E07408121437124DEF243519
:1048B300F582E438F583D0E0124E3CC0E074081270
:1048C3001437124DF3D0E012669B740D0234ABE83B
:1048D3002432F582E439F5832212434BA3A3A3A325
:1048E300A3A322124E03126B4138F58322124E0307
:1048F3002426F582E438F5832274F7120B027E0036
:104903008A828B83A3A3A3A3A3A3A3A3A3E0640487
:1049130060030249BE125729E060030249BE1255E3
:104923008B3B12560770030249BE88828983E05489
:104933000360030249BEE812573139F583E0FA8C6C
:10494300828D83A3A3E0FBA3E0CB2411F582E43B98
:10495300F583E06A706588828983A3A3A3A3A3A3D5
:10496300A3A3A31249C2E06A7003A3E06B704C884F
:10497300828983A3A31249CEE0FFA3E0CF240612CA
:104983005A4C6A7003A3E06B703188828983A3A3B6
:10499300E0F88C828D83A3A3E0F9A3E0F5838982F9
:1049A300A3A3E06860138C828D83A3A3A3E0F583A4
:1049B3008982E0540C640470027E01EEF9802012B7
:1049C30049C622124FFF8C828D8322A3A31249C6AC
:1049D300A3A322740C121437E0F9740D12110D7F86
:1049E30001020E6274F6120B0274FC1211A6EAFEA7
:1049F300EBFFECFAEDFB8C82F583A3E05403601626
:104A030090158812560960597900EEFCEFFD126289
:104A130028122B80804B852182852283EEF0A3EF21
:104A2300F07402121437124E5EAC21AD227A4A7B27
:104A3300231225728A088B09A808A909EA4960216B
:104A43008A828B83A3A3A3A3A3A3A3A3A37406F024
:104A53007A0088828B83124DEF1263F1E0F91224FE
:104A6300D0740402433374F2120B0274F31211A6CE
:104A7300EAFEEBFF8A82F583A3A3A3A3A3A3A3A3C5
:104A8300A3A3E0F50A901855E0700579BA024DA783
:104A9300750801750900750C00750D007C087D0013
:104AA3007900AA21AB22121A7A7405121437740101
:104AB300124E71540460127402121437E0D2E612DB
:104AC3004E7154087003750803E054106006744077
:104AD3004508F508E0540860227402121437E044D4
:104AE300C0124E715420600A7403121437E0D2E0EE
:104AF30080087403121437E0D2E1F0EE2415125A41
:104B03004C124DD77003740169700674084508F59B
:104B1300088E828F83A3A3A3A3A3A3A3A3E07016EA
:104B23001225CC85218285228312643E74021214DD
:104B330037E0D2E28030640F70107402121437121F
:104B43004E7974044508F508807F8E828F83A3A372
:104B5300A3A3A3A3A3A3E064028E828F83700A128C
:104B6300710EE8F0A3E9F08060A3A3A3A3A3A3A31A
:104B7300A3E06403700DAC21AD22EEFAEFFB122328
:104B83008080468E828F83A3A3A3A3A3A3A3A3E0C2
:104B93006401703590161CE0601074021214371211
:104BA3004E79750910750AFF80187402121437E0E4
:104BB300440C124E6974FDF0A374FFF074044508AD
:104BC300F5088E828F831233BEEE2415125A4CA23F
:104BD300E0503F7402121437E0540C701B8E828F26
:104BE30083124FF7121FCCE9700579BB024DA774EE
:104BF30002121437E0D2E5F0EE2415125A4CA2E06B
:104C030050107402121437E0540C64047004E0D2A0
:104C1300E5F0EE2411125A4CC0E07404121437D09C
:104C2300E0126949121437E06003024DA0740812C0
:104C33001437124E32E508F0A3E509F0124DCDE02A
:104C4300C0E0124DC3D0E0F0124DB4E0C0E07408F0
:104C5300121437124DEF12477438F583D0E0124E19
:104C6300986401701190161CE0C0E07408121437A8
:104C7300124E0DD0E0F07408121437124E2D124D5F
:104C8300BEFAE8241CF582E439F583EA124E64EE99
:104C93002415FAE43FFB8A82F583127935E8125D25
:104CA3008839F583124E5EEE241C125A4CC0E01272
:104CB3004DAAD0E0125ECE124DD770037401697015
:104CC300137408121437125719FAEE241D125A4C92
:104CD300F91222548E828F83A3A3A3A3A3A3A3A316
:104CE300A3E0C0E074081214371248F0D0E0F07467
:104CF300081214371248E6E50AF074081214371242
:104D030055AC2428F582E439F583E50CF0A3E50DD1
:104D1300124E44124E17125AC5126431EE124DBE92
:104D2300C0E0E82433F582E439F583D0E0F0EE24E3
:104D33001B125A4CC0E07408121437124DF3D0E022
:104D4300F0EE241A125A4CC0E07408121437124DB4
:104D5300EF2432F582E438F583D0E0124E3C124D55
:104D6300E312112C126B47127935740B121437129C
:104D73004DEF242F127E1112110DEE2415125A4CF1
:104D8300544060129015A8125609600AAA21AB225A
:104D9300126228122B80AA21AB221223F2740C1266
:104DA3001437E0F90250DEE82420F582E439F58374
:104DB30022EE2419F582E43FF58322126B56E0229A
:104DC300E82412F582E439F58322EE2418F582E40F
:104DD3003FF583225480F8A3E05401F974806822DC
:104DE300F508A3E0F509750A00780822124E03229C
:104DF300124E032434F582E438F58322A3A3A3A33C
:104E0300124E0722E0F8A3E0C822124E03124743D2
:104E130038F58322FAA3E0FBE8242AF582E439F586
:104E230083EAF0A3EB22A3A3A3A3124341EE22122E
:104E330055B012559039F58322F0EE2413125ACD52
:104E430022F0EE240D125ACD22E0FC8A828B83E0FD
:104E53002CFCA3E03400FD8A828B83ECF0A3EDF0FD
:104E630022F0A3E4F022F085218285228322F0EE52
:104E73002415125ACD22E0D2E3F0124E81228E8203
:104E83008F83124345852182852283E8F0A3E9F0CD
:104E930022E8F0A3E9126584E02274F7120B028A78
:104EA300828B83A3E0640170047E6380027E648A44
:104EB300828B83E060087905124ED124F3FE9015AE
:104EC300C4E06007F9124ED124F2FE0249BE122457
:104ED3009AE9F8EEC3982274F6120B0274FE1211CB
:104EE300A685218285228312643EE9FEECFAEDFB5E
:104EF3009005C21256096032A821A922880889099F
:104F030078081211307D01740E121437E0FCEEF9AB
:104F13009005C2126412122B80740212110DEA4B17
:104F230060047900800679B2800279B60243317455
:104F3300F7120B02E9FE90157E125609601F7409E1
:104F4300121437E0F5087808121134EEF990157E43
:104F5300126412122B80740112110D800279B602B1
:104F630049E274F7120B028908ECFEEDFF79B5E50F
:104F730008245E602014600624F86034803D9005A8
:104F8300C4124FC16035127152122B808E828F83EF
:104F930012643E8024901580127935EC4D601CEE2E
:104FA300FCEFFD901580126412122B80E9F9800B3F
:104FB30090157C124FC7121C2479000249E2124F4C
:104FC300FBEA4B22127939EEFAEFFB2274F7120B4C
:104FD30002E9FE79B574AB6E700B90157C124FF736
:104FE300121C2479000249E28E828F83A3A3A3A318
:104FF300A3A3A3A3124FFB22124FFF22E0FAA3E0C5
:10500300FB2274F1120B02EAFEEBFF8C0A8D0B7587
:1050130008019015CCE06E7003A3E06F700C125082
:10502300D2AA0AAB0B121C24805E1225D2EE6A7040
:1050330002EF6B7009AA0AAB0B1225D8804AAC0A9F
:10504300AD0BEEFAEFFB122128E9F5089017FCE00F
:105053007036122A88E97030E508702C90159CE0B0
:105063006E7003A3E06F7020EE4F601C750C947597
:105073000D15750E00780C12112C7C087D00AA0A00
:10508300AB0B1270FE12110DA908027A3174F212E1
:105093000B02EAFEEBFF8C088D09750A011250D250
:1050A300EEFAEFFB121C1EE9640170119015CC128D
:1050B300433D8508828509831270D7800EAC08AD05
:1050C30009EEFAEFFB12212EE9F50AA90A80111263
:1050D30025C68A0C8B0DAC0CAD0D22740D12110D6F
:1050E3007F06020E6274F6120B02EAFEEBFF7A0DE4
:1050F3007B00121B22EA4B6062EE2424126DDBF06C
:10510300EE2425126DDBA31251A0126DE1A3A312AD
:105113006B7412517BF0EE125161125190E8F0A3BF
:10512300E91251B71251881270D7EE12516A126CFC
:1051330037A3A3A3A3F0EE2433125A4CC0E01251B9
:1051430073D0E0126966125188A3A3A3E8F0A3E920
:105153001251AFC0E0125729D0E0F0024336242A9F
:10516300F582E43FF58322242EF582E43FF5832282
:10517300EA125BA23BF5832212517F22E08A828BE3
:1051830083A3A3A322126C96A3A3A3A322125194D5
:10519300221243458A828B83A3A3A3A322F0125135
:1051A300A522EE2426F582E43FF58322F0EE243295
:1051B300125ACD22F0EE242C125ACD2274F4120B83
:1051C3000274FE1211A6ECFEEDFFEC2416125A4CEB
:1051D30064057010EC2406FCE43FFD12237AE970A9
:1051E3000302526BAC21AD22126E90121FD28521A5
:1051F30082852283125609606B8E828F83E064015D
:105203007058E875F009A4F8AAF075F009E9A42A22
:10521300F974F328F8740239F9E8FAE9FB8882F59E
:105223008378081213C4EE12530D121367402785B7
:105233002182852283124E2D125A5A1252707808F7
:105243001213C49086C978081212EA8A828B837873
:10525300081213A6800A79A28010EE240F1270D1CF
:105263007900800679A1800279C80234A9124E8E92
:10527300EE126B622274F2120B028A0C8B0DECFE9F
:10528300EDFFEC125A5AE4F0A3F0908699780812D5
:1052930013C4EC12530D1212116067EC240E125A50
:1052A30053703478B39015C3E070289015F5E0641B
:1052B300017020EC2411125A4CF91224828B09A993
:1052C30009EE12558C3F12643CEA49600478008071
:1052D3000278A18808802EE060046402700A122319
:1052E3008CE9F5087007801DE064037010EEFCEF95
:1052F300FDAA0CAB0D121FF6E9F50880087508A18D
:1053030080037508A3A9080250E3126B6278082290
:1053130074F0120B0274F51211A6EAFEEBFFEA24F5
:105323000AFCE43F8C82F583127DD21255967403F6
:1053330012119E8A828B83126232E970030253FC3C
:10534300740112119E7403121196121FD27401126A
:10535300143712560970030253FCE875F009A4F8D8
:10536300AAF075F009E9A42AF974EF28FC7402394C
:10537300FDE508240E126683E4F004121437124389
:105383003DE50812558C35091270D58C828D831238
:1053930013FCE50824121266831214089086C97858
:1053A300081213C48C828D83780812129E8C828D0E
:1053B30083780C1213C490864978081213C4780CAE
:1053C3007908120A93E5084509450A450B702A74C2
:1053D300011214371255AC75F009A4F8AAF075F050
:1053E30009E9A42AF974F728F582740239F583745C
:1053F30001F07A007B081255B98E828F83A3A3A391
:10540300A3A3A3A3A3A3A3E02406FCA3E03400FD6A
:105413008E828F83126232126954603EEE240A1226
:10542300557E124E327468124E64E812557839F57F
:10543300837402F09015AE1213FC8C828D83126478
:105443002B12601D3CF5831214089086C97808124C
:1054530013C49015AE780812129E1255F4705D9025
:10546300157C1255A4A3A3A3A3A3A3A3A3A3A3122D
:105473006053121C1EE9701012601190157C1260AB
:1054830023700512695460348E828F83A3A3A3A370
:10549300A3A3A3A3A3A31255A4124FF7121FFCE9BE
:1054A30060118E828F83A3A3A3A3A3A31255E0E469
:1054B300F0A3F08E828F831255C6E4F01255F46088
:1054C300030255738E828F83A3A3A3A3A3A3127D89
:1054D300CE9015C3E060030255689015F5E06401B2
:1054E3006003025568750A3A750B00780A12113089
:1054F300740212118E880A890B780A121130127302
:10550300CD12110DE9705BE508240E126683740158
:1055130012560EC0E0E5082411126683D0E0F0E5D0
:1055230008240F126683743A124E649015AA12135C
:10553300FCE50824121266831214089086C97808C1
:105543001213C49015AA780812129E9086C978087F
:105553001213C49015AA780812121170081255B5C7
:1055630080031255961255F47006125F1474A1F05D
:10557300740B026D06240EF582E422F8E43FF9E889
:10558300FCE9FD8882F58322EA12559022240FF567
:1055930082E422E5081255903509F583E4F0A3F07F
:1055A300221279398E828F83221255B022124345FB
:1055B300E8227A007B02901453E0F9121ACE228A71
:1055C300828B83A3A3A3A3A3A3A3A3A3A31255D4AF
:1055D30022124E07240EF582E438F58322A3A3A3F7
:1055E300A31255E822124E07240FF582E438F583FF
:1055F300228E828F83A3A3A3A3A3A3124DFF240F01
:10560300F582E438F5831255B0492212561222F07E
:10561300852182852283E02274F6120B02EAFEEBD7
:10562300FF7A237B00121B22EE240AF508E43FF5E0
:105633000985088212643C7C237D007900121A7A62
:1056430085088285098312560970030256DCEEFA37
:10565300EFFB1223981255F460748E828F831257D6
:105663000F64018E828F83A3A3A3A3A3A370071246
:105673005705740E80211256097010126954700B6D
:105683008E828F83A3A3E0A2E050071256FB740D12
:1056930080051256FB740512696654036401700792
:1056A3001256E37405800B9015C4E0C0E01256E374
:1056B300D0E012571EF5838882125A7985088285B5
:1056C3000983124DEF1263D038F583E9800E850804
:1056D300828509831264B580031263F8F0024336AE
:1056E3008E828F83A3A3A3A3A3A3A3A3A3A31256CF
:1056F300F522E0126417A3228E828F83A3A3A3A3B0
:10570300A3A3124DFF1263D638F58322A3A3A3A349
:10571300A3A3A3A3A3A31255D4E0221257222212B8
:105723006EA5F8A3E022EA1257313BF58322240C3D
:10573300F582E42274F1120B0274E41211A68A0CAE
:105743008B0D8C088D097A237B00121B228A0A8B0E
:105753000BAE0AAF0BEA4F7003025A341263DCE557
:10576300082415125A65687003A3E0698E828F833B
:105773007004740280027401F0E508240DF8E43526
:1057830009F98882F583E0FAC3E49AFA95E0FB12FB
:105793005A612AFAA3E03BFB8E828F83A3A3A3A3C0
:1057A30012603A8E828F83A3A3F0EE2420F582E465
:1057B3003FF583E4F0EE2421F582E43FF583E4F042
:1057C300EEFAEFFB12244C850882850983125A8076
:1057D30070098E828F83A3740580069015C4125AB4
:1057E3006EF0EE2417F50AE43FF50B8E828F8312D9
:1057F3005A79E9850A82850B83F0EE2416F8E43F93
:10580300F9E508240EFAE43509FB88828983124EF0
:105813004CE5082410FAE43509FB850A82850B83DD
:10582300E0FC88828983E0F88A828B83E0C398C393
:105833009CF8125ABAF0EEFCEFFDAA0CAB0D122342
:1058430092E9F50B8E828F83E06402700612601179
:10585300125A3EE50B6003025A2B750C00750D00BE
:105863009017FCE064016005E06402703F125A5037
:105873006008EE2421125A5370328E828F83A3A3C1
:10588300A31263FE125A86EE2416125A4C125AAF12
:10589300FAE439FB12413EEA4B6011126C601211BB
:1058A3002C125A94AA0C1270FE12110DEEFAEFFB91
:1058B300122458E9F50B9017FCE064016008E064DA
:1058C300026003025A1EE97003025A1EE50C450DDD
:1058D3007003025A2B8003850E0B125A50600BEE95
:1058E3002421125A536003025A24850B0E850C0897
:1058F300850D09750A00780812112C125A948E82AC
:105903008F83A3A3A3A3127E1712110DEE242012DB
:105913005A4C600D125A597468124E64EE2420805A
:1059230015EE2421125A4C6015125A597403F0A330
:105933007401F0EE2421F582E43FF583E4F0EEFAFE
:10594300EFFB122458E9F50B70907C137D0079006E
:105953007409121196121A7A741A121437740112F6
:105963005AC564687002A3E0704F8E828F8312550C
:10597300E0E0640560030258DA7C0879FF8E828FC9
:1059830083A3A3A3A3E0242A126056121B04E97085
:10599300030258DA7C087D0079FF74011211961214
:1059A3001A7A740112119E7A007B0079AB12237468
:1059B300741912143774FC8015125A59E064037079
:1059C30004A3E064017008741912143774FFF0E43F
:1059D300F508F5097808121130740212119E741338
:1059E300121437AA82AB8312653B12110D852182F3
:1059F300852283E0602B740912118E880889097847
:105A03000812113075081375090078081211307CDB
:105A1300007D00126DAE12110D8006E50C450D6080
:105A230007AA0CAB0D121B28EEFAEFFB121B288002
:105A330003750B10A90B741C027A2EEE2406FAE4EC
:105A43003FFB121C2422EE240C125ACD22EE2420FA
:105A5300125ACD640122EE1255903FF58322E508D8
:105A6300240EF582E43509F583E022125A73A3224A
:105A7300E08E828F8322A3E0F912249A22E054035A
:105A8300640122125A8A22E0FAE82AF8E43400F97F
:105A9300228E828F83A3A3A3126402125A8AEE2456
:105AA30016125ACD125AAFFCE439FD22FAE82AF84D
:105AB300E439F9E8240422125ABE22126975A3A319
:105AC300A322F0125ACA22EE240FF582E43FF58393
:105AD300E02279010210BD74F4120B02EAFEEBFF1F
:105AE3008A82F583A3A3A3A3A3A3A3A3124DEF24A5
:105AF30024F582E438F583125A80702E8A828B83D0
:105B030012570F7025125BA8E06405701D125BA885
:105B1300A3E0F8740168600574066870071255C243
:105B2300740280051255C27403F0EA240A1264A9B0
:105B3300126412E4F0EA2408F8E43F1234982431A2
