:020000040000FA
:06000000020F910205D57C
:03002B00020D08BB
:03003300020BF5C8
:030053000205049F
:1000830002056601010000000000F8FF07FFFF0002
:10009300000504000000030001FFFFFFFF0005301F
:1000A3007500000020FD000206FFFF1E0A00190074
:1000B30001007618000000000000000000000000AE
:1000C3000000FF0000000000000000000000000529
:1000D300000104010C000205AE8503E8850104005C
:1000E30000B713000000E8030000FFFF08140188B5
:1000F300130000E80300002C012C01BC02A0BB0D7F
:1001030000A0BB0D00020202070401051E02051E2A
:10011300020A0A010108080103B80B02803E01022A
:10012300FEFFE8030A050001FFFF020A011401E0D4
:10013300050301010F030003000300030003000391
:100143000003000300030005000A00140028004F09
:10015300009E000000EC290000000084290000003C
:1001630000FF000000FF00120FDD601D120FBF70C3
:1001730005191919801A120E6C701F120E44C370E0
:1001830003E66733191919400718181822080808D5
:1001930074FFF618F618F618F622120E44601712BA
:1001A300105D702192F012104B7019501720F0144B
:1001B300080808090909E7F61819E7F61819E7F610
:1001C3001819E7F62212104B60E6E869701F080859
:1001D300E62480F608E436F618547FB47F0CE65420
:1001E300806007F6E418F618F622181822E9C6CC40
:1001F30008C6CD08C6CE08C6CFC0E0E8C0E0EAC056
:10020300E0EBC0E009E9F809E7FA09E7FBE6F918CA
:10021300E6F8C3EC98ED99EE9AEBC2E7F5F0EFC27E
:10022300E795F0500E600CEBCFFBEACEFAE9CDF97F
:10023300E8CCF8EAA2E7D2E7FAEB33FB13F5F0EEEA
:10024300A2E7D2E7FEEF33FFC5F013A2E730E601E2
:10025300B313C5F0C3C0E0C0F07F00C39BFB605E77
:100263009418600F401D14601AD0E023F9D0E0F811
:1002730002034B8AF0E9486003D2F0E4AFF0FAF9E5
:10028300F8803BEB30E40D89F0EA6003D2F0E4AF91
:10029300F0F9CAF8EB30E30D88F0EF6002D2F0AF6B
:1002A300F0E4CAC9F8EB54076014FBC3EA13FAE994
:1002B30013F9E813F8EF135002D2E0FFDBEDD0E0BF
:1002C300C0E030E739C3E49FFFF5F0EC98FC42F05F
:1002D300ED99FD42F0EE9AFE42F0D0E0F9D0E0F85D
:1002E300E5F0607AE923F9EE20E742D8028067C39C
:1002F300EF33FFEC33FCED33FDEE33FE80EAEC2805
:10030300FCED39FDEE3AFED0E023F9D0E0F84002EF
:10031300801BC3EE13FEED13FDEC13FCEF13500231
:10032300D2E0FF08B800067F7F74FF802EEF3350C2
:10033300178CF020F00260100CBC000C0DBD0008FF
:100343000EBE000408E860DFE933E813FFEE231371
:10035300FE4F4D4C8008E95480FFE4FEFDFCEE3374
:10036300EF33F47004FCFD7E80D0E0FBD0E0FAD0E4
:10037300E0F8D0E0CFC618CEC618CDC618CCC6F963
:100383002200120FDD604F120FBF6012E754806628
:10039300F6120E6C701112105D703B090909F4F628
:1003A30018F618F618F622120E44701512104B08A0
:1003B300080860EAE6447FF618768018E4F618F633
:1003C3002212104B601612105D7012E4F608F60844
:1003D300F608E65480F609090918181822EAC0E05D
:1003E300EBC0E0ECC0E0EDC0E0E687F0A4FBACF0CE
:1003F30008E687F0A42CFCE435F0FA1809E687F048
:10040300A42C4B60027401CA35F0FCE433FB09E60B
:1004130087F0D2F7A42CCB35F0FC1908E687F0A4BB
:100423002BCC35F0FBE433FD0819E687F0D2E7A4C3
:100433002C4ACB35F0CD3400FC09E687F0D2E7A493
:100443002DCC35F0FDE433FA0918E687F0D2F7A492
:100453002CCD35F0CA3400FC08E687F0D2E7D2F79A
:10046300A42ACC35F07A7E20E70B0ACB33CBCD33ED
:10047300CDCC33CC33CB3350147004ED30E00ED2FB
:10048300F1E4CD3DCDCC3CCC3B5005DA05C2F1EBDC
:10049300547FC63308E63392F0FBE73309E733C3EF
:1004A3009A502D2B70190C0D4C4D70151806E6083B
:1004B300C333700D20F10AA2F013F6E418800B4049
:1004C30024E4F630F002768018F618F618F6802445
:1004D300D33B14501074FFA2F013F6187680E4187F
:1004E300F618F6800FA2F013F618E63303F618ECAD
:1004F300F618EDF6D0E0FDD0E0FCD0E0FBD0E0FA5A
:1005030022C0E074F11208EEA2AFE433F509D2AFD2
:1005130085A708AFA1EF5508FE74105E600612129E
:10052300B875A1EF74085E60081212BE75A1F7805A
:1005330024EFA2E092F0E508A2E082F05017906168
:1005430098E0F89005A2E0C398A2D265D033500298
:10055300E8F075A1FE752300E509A2E092AF7F02E2
:100563000209AAC0E074F21208EEA2AFE433FED28D
:10057300AF9061A4E0F8759B00E5915854086008BA
:100583007591F712130C8023E59158541060087588
:1005930091EF1213128014E591A2E092F0E8A2E029
:1005A30082F05007E0C2E0F01214749061A3E0F807
:1005B300E5E9585404600E12144A75E9FB906193FF
:1005C300E0A2E640F2752300EEA2E092AF7F0102C3
:1005D30009AAC0E074F21208EEA2AFE433FED2AF70
:1005E3009061A5E0F8E5BF585404600675BFFB129F
:1005F300148C80D112064230F039120687803412EF
:10060300064220F01430E72B74FFFCFBFA747F8062
:1006130022E4FCFBFA7480801AB48008BC00F2BBAD
:1006230000EF800F50EBF9E4C39AFAE49BFBE49CE0
:10063300FCE499C6CC18C6CB18C6CA18C6F922E47E
:10064300C9C608CAC608CBC6D3330308CCC633927F
:10065300F0C3947F402E94184019C9B90704CACB3C
:10066300CC225025C309CA33CACB33CBCC33CC33CA
:10067300D9F422F4600DC9CCC313CB13CBCA13CA6C
:10068300D9F6CC22E4FCFBFA2214FCFBFA22C3E4E5
:1006930098F8E499F91206D28026C3E49AFAE49B07
:1006A300FBE920E7E91206D2E498F8E499F922C3BA
:1006B300E498F8E499F91206D2E498F8E499F9C3B6
:1006C300E49AFAE49BFB22EB20E7CFE920E7E0B9C9
:1006D3000010BB0008E88AF084F8AAF022E4FBC803
:1006E300FA22EB70227B10C833C8C933C9335007D1
:1006F300C39AC3DBF280069A50012ADBEAC833F4BB
:10070300C8C933F4C9FA2275F008E4C833C8C93339
:10071300C933C99AC99B5004C92AC93BD5F0ECFB1C
:10072300C833F4C8E4C9FA22080808EAC0E0EBC0F9
:10073300E086F0E7A4FA180986F0E7A42AFA180974
:1007430086F0E7A42AFA180986F0E7A42AFA19869C
:10075300F0E7A4FBE5F02AFA190886F0E7A42BFBDF
:10076300E5F03AFA190886F0E7A42BFBE5F03AFA2C
:1007730018180986F0E7A4C5F02BFBE43AFA190828
:10078300E7C5F0C6A426F6E5F03BFBE43AFA188683
:10079300F0E7A4F6E5F00826F6E43B08F6E43A08A9
:1007A300F6D0E0FBD0E0FA22E4CFC0E0E4CEC0E034
:1007B300E4CDC0E0E4CCC0E075F020E626F608E620
:1007C30033F608E633F608E633F6181818EC33FC6C
:1007D300ED33FDEE33FEEF33FFC3EC9709ED9709DD
:1007E300EE9709EF97191919400FFFEC97FC09EDE4
:1007F30097FD09EE97FE191906D5F0BFECF709ED41
:10080300F709EEF709EFF7191919D0E0FCD0E0FD6D
:10081300D0E0FED0E0FF222521C582C0E0E52234EE
:10082300FFC583C0E0E521C3958224F810AF088596
:1008330083228582218008858322858221D2AFCEBF
:10084300F0A3E520F0A37808E608F0A3DEFAEFF0C2
:10085300A3E58124FAF8E608F0A3E608F0A3E60886
:10086300F0A30808E608F0A3E608F0A315811581B4
:10087300D0E0FED0E0F8158115811581E8C0E0EEE7
:10088300C0E022121036B900030208D8E490050133
:1008930078A379128002F0A3D8FCD9FA78239000C8
:1008A300867A01BA00028007E493A3F608DAF97A9C
:1008B300A37B1690008778E479018015E493A3ADB8
:1008C30082AE838A828B83F0A3AA82AB838D828ECE
:1008D30083D8E9D9E77582027583CB7404120CEAD5
:1008E3007582B67583267400120CEAC0D02521C523
:1008F30082C0E0E52234FFC583C0E0E521C39582D1
:1009030024F310AF08858322858221800885832202
:10091300858221D2AFC8F0A3E9F0A3EAF0A3EBF0FC
:10092300A37908E709F0A3D8FAECF0A3EDF0A3EE5E
:10093300F0A3EFF0A3D0E0F0A3D0E0F0A3D0E0F079
:10094300A3E520F0A3E5F0F0A322E9799EC608CA47
:10095300C608CBC608CCC6C370207996CACBCC7068
:1009630019798ECBCC70137986CC700EF9802ACA94
:1009730033CACB33CBCC33CC331930E7F2CCCBCA2D
:100983003350147004EA30E00DE4CA3ACACB3BCBCF
:10099300CC3CCC500209C3E913C6CC182313C6CBF5
:1009A30018C6CA18C6F922852283852182E0C0E0D1
:1009B300A3E0F9A3E0FAA3E0FBA37808E0F608A319
:1009C300DFFAE0FCA3E0FDA3E0FEA3E0FFA3E0C0A9
:1009D300E0A3E0C0E0A3E0F5D0A3E0F520A3E0A30B
:1009E300F5F010AF08858322858221800885832254
:1009F300858221D2AFD082D083D0E0F8D0E032E438
:100A03007375F0108E248F2585822985832885218F
:100A130082852283E0CEA3E0CF852982852883EBDC
:100A2300C9EAC8EDCBECCAC3E833C8E933C9EA3332
:100A3300CAEB33CBC3EA9EF527EB9FF526B35004ED
:100A4300AB26AA27EC33CCED33CDD5F0DAAE24AF09
:100A53002522D083D082ECC0E0EDC0E0E493A3FC78
:100A6300E493A3FDED4C600D120B2DEC24FFFCED84
:100A730034FFFD80EFE493A3FCE493A3FDED4C600E
:100A83000D120BCAEC24FFFCED34FFFD80EFD0E028
:100A9300FDD0E0FCE493A3C0E0E493C0E022852210
:100AA30083852182E0A3FEE0A3F5207808E0A3F686
:100AB30008DFFAE0A3FFE0A3C0E0E0A3C0E0E0A307
:100AC300C0E0E0A3C0E0E0A3C0E010AF088582214E
:100AD3008583228008858221858322D2AFD083D06B
:100AE30082020CF0D083D082E9C0E0E493A3C386F2
:100AF300F0C5F095F0F908E493A386F0C5F095F0FE
:100B0300700BE493A3C3994005E9048002A3E47541
:100B1300F002A42582F582E5F03583F583D0E0F970
:100B2300E493A3C0E0E493C0E022C0E0C3E493965F
:100B3300087401939618400FE493667008087401D3
:100B430093661870007019A3A3C3E4939608740105
:100B5300939618A3A3400DD0E0D0E0D0E0020A9111
:100B6300A3A3A3A3A3A3D0E02274048004740280EC
:100B730000CCC0E0EDC0E0E521C39CCCAD22500128
:100B83001D10AF068C218D2280068C218D22D2AFC1
:100B9300120C6CD0E0FDD0E0FC2274028000CCC0CB
:100BA300E0EDC0E0E521C39CCCAD2250011D10AFA8
:100BB300068C218D2280068C218D22D2AF120C4A05
:100BC300D0E0FDD0E0FC22C0E0C0F088F0E4936602
:100BD30070080874019366187000A8F0A3A3700B43
:100BE300D0F0D0E0D0E0D0E0020A91A3A3D0F0D0BF
:100BF300E022C0E074F21208EEA2AFE433FED2AFFB
:100C0300E58BA2E0500579041211F2758B00C2E85E
:100C1300752300EEA2E092AF7F010209AAD083D030
:100C230082CCC0E0E493A36006120CCB1470FAE408
:100C330093A36006120DEF1470FAD0E0FCE493A3C3
:100C4300C0E0E493C0E022CAC0E0E493A3C582CC31
:100C5300C582C583CDC583F0A3C582CCC582C583B8
:100C6300CDC583DAE5D0E0CA22CAC0E0E0A3C582DD
:100C7300CCC582C583CDC583F0A3C582CCC582C54F
:100C830083CDC583DAE6D0E0CA22700908080822BA
:100C93006016181818C6C333C608C633C608C63349
:100CA300C608C633C6D5E0EA22C008C3E096F508F5
:100CB30008A3E096420808A3E096420808A3E0963A
:100CC30045087001D3D00822C0E0E493A3D39C501D
:100CD30010E493A3C39C400AD0E0D0E0D0E0020C20
:100CE3003DA3A3A3D0E022C09FF59FE473D09F222E
:100CF300D083D082C09FE493C0E0740193C0E074BA
:100D03000293F59F22C0E0C0D0E8C0E0A8A8D2AF0C
:100D1300C2C7752300E8A2E792AFD0E0F8D0D0D0E5
:100D2300E03200C0D0252110AF08F521500C052278
:100D33008008F52150020522D2AFD0D0227404805E
:100D43000A74038006740280027401C0E0F4041282
:100D53000D5BD0E0120FF9222521F58210AF08F5C3
:100D630021400C15228008F52140021522D2AF85BF
:100D7300228322BB0102E722C082C08389828A8345
:100D8300BB0003E08002E493D083D0822260160884
:100D93000808C6C313C618C613C618C613C618C692
:100DA30013C6D5E0EA222521F8E43522F9222521CC
:100DB300FAE43522FB222521FCE43522FD22C3E09F
:100DC300C696F608A3E0C696F608A3E0C696F6080C
:100DD300A3E0C696F622252110AF08F521400C1595
:100DE300228008F52140021522D2AF22C0E0E4930D
:100DF300A36C7009D0E0D0E0D0E0020C3DA3A3D0F7
:100E0300E022E066701008A3E066700A08A3E066BB
:100E1300700408A3E06622C3E09608A3E09608A343
:100E2300E09608A3E096A2D265D03322E76670105D
:100E33000809E766700A0809E76670040809E766A7
:100E430022191919E70947097009E727097005E706
:100E530033F4220922C3E096F008A3E096F008A336
:100E6300E096F008A3E096F022181818E608460862
:100E73007009E626087005E633F4220822C3E493DA
:100E830096087401939608740293960874039396D4
:100E930022C3E697F60809E697F60809E697F608E7
:100EA30009E697F622E026F608A3E036F608A3E063
:100EB30036F608A3E036F622E627F60809E637F603
:100EC3000809E637F60809E637F622700422600DB2
:100ED30018C6C333C608C633C6D5E0F41822E6479E
:100EE300F60809E647F60809E647F60809E647F66D
:100EF30022E056F608A3E056F608A3E056F608A348
:100F0300E056F622E657F60809E657F60809E657CB
:100F1300F60809E657F622E026F008A3E036F008C3
:100F2300A3E036F008A3E036F022E056F008A3E091
:100F330056F008A3E056F008A3E056F022E4C39667
:100F4300F608E496F608E496F608E496F622600DB1
:100F530008C6A2E713C618C613C6D5E0F322C3E733
:100F6300960809E7960809E7960809E79622C6F462
:100F7300C608C6F4C608C6F4C608C6F4C622C3E04B
:100F83009608A3E09608A3E09608A3E0962275D0FE
:100F93000075813F75210175220500020886600CEA
:100FA30008C6C313C618C613C6D5E0F422E6F00874
:100FB300A3E6F008A3E6F008A3E6F022E709470951
:100FC300C3134709336002E733F422E0F608A3E0D2
:100FD300F608A3E0F608A3E0F622E6084608C313E2
:100FE3004608336002E633F422800100E9F874FF17
:100FF30028F90470F622CAC0E0E6F0A308DAFAD0B2
:10100300E0FA22E0F8A3E0F9A3E0FAA3E0FB22E888
:10101300F0A3E9F0A3EAF0A3EBF022EAF0A3EBF0EC
:10102300A3ECF0A3EDF022E0FAA3E0FBA3E0FCA322
:10103300E0FD22E5C754F84401F5C77901222521D3
:10104300F582E43522F58322E6261846184618462B
:1010530022C2AF75D69F02000022E727194719471E
:10106300194722120CF349F101120CF377F1011223
:101073000CF3B5F101120CF3DCF301120CF3F8F3EA
:1010830001120CF33DF401120CF3C2F401120CF340
:101093000EF501120CF3A0F501120CF379F601120F
:1010A3000CF3D5F601120CF333F701120CF3A6F788
:1010B30001120CF3EAF701120CF342F801120CF3DC
:1010C30064F801120CF3F4F801120CF385F9011220
:1010D3000CF3D1F901120CF3FDF901120CF33EFAF2
:1010E30001120CF3DDFB01120CF3BFFC01120CF334
:1010F30094FD01120CF38CAD04120CF3B8AD041281
:101103000CF3D8AD04120CF3FFAD04120CF346AF8D
:1011130004120CF379AF04120CF338B004120CF37D
:10112300D2B004120CF3C0D904120CF3C5D90412C3
:101133000CF3F8D904120CF38ABF04120CF351C058
:1011430004120CF363C004120CF3D3C004120CF3A7
:10115300E6D304120CF3F7D304120CF395D4041260
:101163000CF3A0D404120CF3BAD404120CF3F7FF5B
:1011730001120CF3E6FF02120CF3C9D404120CF3B0
:10118300D9D404120CF3EED404120CF3A2D5041236
:101193000CF3E1D104120CF365D204120CF3CDD29B
:1011A30004120CF3E3C804120CF3F7C804120CF393
:1011B3006DC904120CF3BCC904120CF3F1C9041277
:1011C3000CF316CA04120CF339CA04120CF374CAD2
:1011D30004120CF3A1CA04120CF3E8CA04120CF3B0
:1011E300B9D004120CF340D104120CF349D1041208
:1011F3000CF370D104120CF3B8D104120CF3CFD159
:1012030004120CF3B1A204120CF3BFA204120CF3E8
:1012130038A304120CF311A404120CF3D4A5041282
:101223000CF323A604120CF361A604120CF3F87F4B
:1012330000120CF3F0FD03120CF328FE03120CF35F
:1012430076FF03120CF3FAFF03120CF3C8790012B2
:101253000CF3F47900120CF35E7C00120CF39E7C09
:1012630000120CF3DA7C00120CF3EE7C00120CF388
:10127300077D00120CF3F97D00120CF3AC7E001213
:101283000CF3C07E00120CF36EFE01120CF392FEFF
:1012930001120CF3ABFE01120CF3E9FE01120CF385
:1012A30019FF01120CF346FF01120CF350FF011258
:1012B3000CF3B6FF01120CF3B9FF01120CF3C3FFD9
:1012C30001120CF3D0FF01120CF3E3BC04120CF374
:1012D30003BD04120CF342BD04120CF360BD0412EF
:1012E3000CF37BBD04120CF3E1BD04120CF3EDBD52
:1012F30004120CF34ABE04120CF359BE04120CF38D
:101303007DBE04120CF33EBF04120CF34BBF041258
:101313000CF35CBF04120CF3C5D704120CF30DD805
:1013230004120CF339D804120CF3D39004120CF307
:10133300279204120CF3359204120CF34892041210
:101343000CF35D9204120CF3729204120CF3859267
:1013530004120CF3019304120CF3669304120CF3BE
:10136300EE9304120CF3669404120CF33F950412EB
:101373000CF34F9504120CF35E9504120CF32CD767
:1013830004120CF350D704120CF378D704120CF3A5
:10139300A0D704120CF350C404120CF377C4041244
:1013A3000CF395C404120CF304C504120CF329B412
:1013B30004120CF342B404120CF34EB404120CF3F3
:1013C30062B404120CF380B404120CF38AB4041252
:1013D3000CF394B404120CF3A7B404120CF331B558
:1013E30004120CF3A6B504120CF3DAB504120CF3D1
:1013F30028B604120CF375B604120CF390B604125B
:101403000CF39AB604120CF3C0B604120CF325B70E
:1014130004120CF3A8D504120CF3CAD504120CF36E
:1014230058D604120CF3DAFF01120CF300800412F5
:101433000CF32C8004120CF3498004120CF35C802F
:1014430004120CF3778004120CF3D18004120CF312
:10145300FF8004120CF3138504120CF3718604123B
:101463000CF3A38604120CF3068704120CF38B8887
:1014730004120CF3B38804120CF3C88804120CF39F
:10148300D88804120CF3188904120CF35A89041235
:101493000CF36A8904120CF389CF04120CF3A3CF63
:1014A30004120CF3CBCF04120CF3E4CF04120CF3AD
:1014B30008D004120CF326D004120CF33DD004120E
:1014C3000CF36BD004120CF386D004120CF334FF2C
:1014D30002120CF378FF02120CF303AA04120CF3AA
:1014E30013AA04120CF318AB04120CF34AAB041244
:1014F3000CF37AAB04120CF39DAB04120CF3B4ABF4
:1015030004120CF3EEAB04120CF353AC04120CF301
:1015130095AC04120CF3DCAC04120CF309AD041209
:101523000CF334AD04120CF3F3CC04120CF305CD1D
:1015330004120CF319CE04120CF31CCE04120CF398
:10154300D47E00120CF30A7F00120CF3227F0012E8
:101553000CF3647F00120CF3747F00120CF3B87F5A
:1015630000120CF3C27F00120CF39A8904120CF3DD
:10157300DD8904120CF3428A04120CF3618A04120B
:101583000CF3038B04120CF30C8B04120CF35D8B22
:1015930004120CF3868B04120CF3938B04120CF3DA
:1015A300058C04120CF3938C04120CF3D88C0412E4
:1015B3000CF3118D04120CF3768D04120CF39F8D32
:1015C30004120CF3168E04120CF3658E04120CF342
:1015D300A28E04120CF3D78E04120CF3E98E0412BC
:1015E3000CF3FB8E04120CF31A8F04120CF3238FEB
:1015F30004120CF3E48F04120CF3279004120CF37F
:10160300659004120CF3B1D804120CF349CE041202
:101613000CF3A5C604120CF3DBC604120CF323C7A8
:1016230004120CF37CC804120CF3DEAD03120CF3AA
:1016330004AF03120CF340AF03120CF3FEB003121A
:101643000CF32CB103120CF396B303120CF3D6B3C1
:1016530003120CF378B503120CF30EB603120CF35A
:1016630068B603120CF3F8B603120CF33CB703127B
:101673000CF37EB703120CF3E3B803120CF363BA53
:1016830003120CF3A4BC03120CF3D2BC03120CF32D
:10169300FEBC03120CF307BD03120CF364BD03126B
:1016A3000CF3FDBD03120CF314C103120CF39AC126
:1016B30003120CF382D604120CF39AD604120CF321
:1016C300A4D604120CF3FAD604120CF3099A0412EA
:1016D3000CF31F9A04120CF3C09A04120CF3FF9A32
:1016E30004120CF31C9B04120CF34D9B04120CF319
:1016F3009A9B04120CF3CE9B04120CF3099C041264
:101703000CF3069E04120CF36C9E04120CF3E6D247
:1017130004120CF345D304120CF383D304120CF319
:10172300C4D304120CF3F6C104120CF33AC204122C
:101733000CF351C204120CF3ADC304120CF3E2C355
:1017430004120CF304C404120CF309D904120CF3AD
:10175300008002120CF30C8002120CF36E80021252
:101763000CF3788002120CF3078102120CF343810D
:1017730002120CF3028202120CF35F8202120CF3C8
:10178300F18202120CF3448302120CF3C28302129D
:101793000CF37E8502120CF3838702120CF3B888D4
:1017A30002120CF3FB8902120CF3A08A02120CF34F
:1017B3004E8F02120CF3439002120CF3D9900212D3
:1017C3000CF3FE9002120CF39B9102120CF3B891EE
:1017D30002120CF3D89102120CF3469202120CF38C
:1017E300639202120CF3919202120CF32F940212E1
:1017F3000CF3509402120CF3F69402120CF33E9580
:1018030002120CF39C9502120CF33F9602120CF396
:10181300A49602120CF3039702120CF3B19702126F
:101823000CF32E9802120CF36A9802120CF3DE9852
:1018330002120CF3239A02120CF3AF9B02120CF365
:101843004E9C02120CF38E9E02120CF3F09E0212B7
:101853000CF31E9F02120CF333A102120CF3D3A359
:1018630002120CF3ECA402120CF362D203120CF377
:1018730091D303120CF36FD503120CF380D503122B
:101883000CF39FD503120CF3C8D503120CF31EDA25
:1018930003120CF33CDA03120CF3BDDA03120CF35C
:1018A30060DB03120CF31CDC03120CF3D5DC031214
:1018B3000CF332DA04120CF374A604120CF32FA700
:1018C30004120CF395A704120CF3B6A704120CF33D
:1018D30091A804120CF303EA02120CF332EA021287
:1018E3000CF3AAEA02120CF3B9EB02120CF315EC97
:1018F30002120CF382ED02120CF39EED02120CF3B2
:10190300F0ED02120CF333EE02120CF346EE021268
:101913000CF39EEE02120CF360EF02120CF3DCEFF9
:1019230002120CF313F002120CF34BF002120CF33D
:10193300DDF102120CF3BCF202120CF30AF40212F0
:101943000CF3EDF402120CF379F502120CF3B9F572
:1019530002120CF3D8F502120CF323F602120CF365
:1019630043F602120CF3DCF602120CF362F70212D6
:101973000CF3BDF702120CF3FDF702120CF393FA0A
:1019830002120CF3ACFB02120CF3F2FB02120CF387
:10199300E7FC02120CF30FFD02120CF312FD02120C
:1019A3000CF31CFD02120CF338FD02120CF3B2FD12
:1019B30002120CF3EBFD02120CF317FE02120CF3EE
:1019C3003EFE02120CF362FE02120CF3D3FE02126D
:1019D3000CF3E6FE02120CF315FF02120CF33CD8D3
:1019E30004120CF348D804120CF37CD804120CF341
:1019F300F4FF01120CF3AF9703120CF3D297031207
:101A03000CF31F9903120CF3689903120CF3D49986
:101A130003120CF3329A03120CF3359A03120CF3EC
:101A2300869A03120CF3FB9A03120CF3809B0312A6
:101A33000CF3839B03120CF3049C03120CF3459CDD
:101A430003120CF331A003120CF3DBA103120CF30A
:101A53002BA203120CF3B2A503120CF3E5A6031297
:101A63000CF35FA803120CF3FCA803120CF3E7A911
:101A730003120CF33CAC03120CF3F9C103120CF385
:101A8300A3C203120CF30EC303120CF329C30312F4
:101A93000CF3AEC303120CF308C403120CF34FC4CC
:101AA30003120CF3B6C403120CF335C603120CF382
:101AB30064C703120CF31AF803120CF3F5C90312EB
:101AC3000CF3A2CA03120CF346CB03120CF317CC8C
:101AD30003120CF316F101120CF36ACF03120CF389
:101AE300FDCF03120CF323D103120CF3D0CE021259
:101AF3000CF333CF02120CF37BCF02120CF3BFCFE4
:101B030002120CF31AD002120CF377D002120CF368
:101B1300B2D002120CF334D102120CF38ED10212A2
:101B23000CF30CD302120CF356BA04120CF3E7D3E2
:101B330002120CF301D402120CF322D402120CF39E
:101B43007CD402120CF3F8D602120CF317D702124C
:101B53000CF307D802120CF33AD902120CF3B9D9D9
:101B630002120CF3F5D902120CF364DA02120CF32D
:101B730019DB02120CF3F1DC02120CF3F8DD021292
:101B83000CF370DF02120CF366E102120CF3DCE3D8
:101B930002120CF3B6E502120CF377E602120CF311
:101BA300EFE602120CF306E702120CF3FDE7021252
:101BB3000CF3F1E802120CF360E902120CF330B7F4
:101BC30004120CF387B804120CF346B904120CF395
:101BD300AEB904120CF304B104120CF31FB10412D6
:101BE3000CF363B104120CF389B104120CF3B0B11A
:101BF30004120CF3C8B104120CF36AB204120CF30E
:101C03007FB204120CF3A2B304120CF3ABB30412AD
:101C13000CF3B4B304120CF3BDB304120CF3C7B347
:101C230004120CF38F9504120CF39B9904120CF31A
:101C3300A09904120CF3A29904120CF380CB0412A2
:101C43000CF3DA7F00120CF306DA04120CF361D9F9
:101C530004120CF371D904120CF3799E04120CF3E1
:101C630017A902120CF34AA902120CF3B6A9021225
:101C73000CF351AA02120CF3EEAA02120CF333ABCB
:101C830002120CF355AB02120CF36EAB02120CF3FF
:101C930094AB02120CF3B6AB02120CF3F4AB0212C8
:101CA3000CF338AC02120CF35AAC02120CF3BCACBA
:101CB30002120CF383AD02120CF33AAE02120CF3D0
:101CC300ACAE02120CF377AF02120CF3CAAF0212DE
:101CD3000CF330B002120CF36AB002120CF3BCB076
:101CE30002120CF32AB102120CF395B102120CF397
:101CF30098B102120CF319B202120CF3B0B2021231
:101D03000CF330B302120CF34FB302120CF3B3B45F
:101D130002120CF3C0B402120CF3CCB502120CF392
:101D2300D9B502120CF3E2B502120CF3BAB70212E0
:101D33000CF3D4B802120CF34DB902120CF3BFB971
:101D430002120CF3E1B902120CF375BA02120CF38E
:101D530049BC02120CF320C002120CF334C002126D
:101D63000CF344C002120CF34EC002120CF357C022
:101D730002120CF360C002120CF36AC002120CF3DD
:101D830097C002120CF3C0C002120CF3CBC00212B4
:101D93000CF3EFC002120CF313C102120CF37DC15A
:101DA30002120CF3C3C102120CF3E0C102120CF3D2
:101DB3005DC202120CF394C202120CF3D3C20212DC
:101DC3000CF320C302120CF3A6C302120CF374C566
:101DD30002120CF3F7C502120CF3DBC602120CF36A
:101DE30042C902120CF39BC902120CF3E5C9021299
:101DF3000CF340CB02120CF375CB02120CF3C7CBDE
:101E030002120CF37CCC02120CF32BCD02120CF356
:101E130068CD02120CF3FDCD02120CF369CE02124F
:101E23000CF30B2D00120CF33D2D00120CF36B2D54
:101E330000120CF3412F00120CF3213000120CF3AB
:101E4300793000120CF3B43100120CF3003200129B
:101E53000CF3293500120CF31C3800120CF36C3907
:101E630000120CF3023A00120CF30E3A00120CF3B8
:101E7300403A00120CF3C33B00120CF3743D001202
:101E83000CF3083E00120CF34B3E00120CF3C93E58
:101E930000120CF3E63E00120CF3163F00120CF393
:101EA3004B3F00120CF31B4000120CF3C440001212
:101EB3000CF34A4300120CF36A4400120CF3554529
:101EC30000120CF3D74500120CF30B4A00120CF36B
:101ED300484A00120CF3A04A00120CF3D34A001232
:101EE3000CF33D4B00120CF3734B00120CF3FE4B3F
:101EF30000120CF3564C00120CF32D4D00120CF390
:101F0300E64D00120CF3814E00120CF389510012BE
:101F13000CF3A55200120CF3485600120CF33C5775
:101F230000120CF33F5700120CF36E5700120CF320
:101F3300745900120CF34D5A00120CF3905A00120C
:101F43000CF3E65B00120CF3255C00120CF3AE5CA1
:101F530000120CF3E25C00120CF3A75D00120CF309
:101F6300BF5F00120CF3306000120CF370600012BC
:101F73000CF3FE6000120CF3206200120CF3E26219
:101F830000120CF3E96400120CF3016500120CF368
:101F9300156500120CF34D6500120CF37B650012FE
:101FA3000CF3FA6600120CF31F6800120CF37C6842
:101FB30000120CF32E6900120CF3556900120CF396
:101FC3001C6A00120CF3B46A00120CF3DA6C0012F0
:101FD3000CF30F6D00120CF3726D00120CF3A16E73
:101FE30000120CF3496F00120CF37A6F00120CF31A
:101FF300926F00120CF3217000120CF3D5720012D1
:102003000CF3AD7400120CF3C97400120CF3E574F5
:1020130000120CF3B37500120CF3A67900120CF343
:10202300B88601120CF3EA8601120CF3D98A011265
:102033000CF3258B01120CF36B8B01120CF30D8C3B
:1020430001120CF3698C01120CF3AE8C01120CF328
:10205300F58D01120CF3098F01120CF3F8920112A2
:102063000CF37C9301120CF3899401120CF3E594A5
:1020730001120CF3D59601120CF34A9701120CF3DB
:10208300549701120CF3619701120CF38C97011210
:102093000CF3739801120CF31D9901120CF39B9925
:1020A30001120CF3BB9901120CF3E49901120CF326
:1020B300069A01120CF3669C01120CF32C9D01127B
:1020C3000CF3719D01120CF3EE9D01120CF39F9E14
:1020D30001120CF3D19E01120CF3179F01120CF3A2
:1020E300539F01120CF3A39F01120CF3F79F0112EC
:1020F3000CF34DA001120CF399A001120CF306A1ED
:1021030001120CF381A101120CF34CA301120CF385
:102113004CA401120CF371A501120CF3B0A8011227
:102123000CF3C3AB01120CF380AC01120CF3C4AC7F
:1021330001120CF374AE01120CF388AE01120CF30E
:1021430092AE01120CF39CAE01120CF3A8AE011275
:102153000CF3C4AE01120CF36FAF01120CF3AEAF6C
:1021630001120CF3B8AF01120CF3C2AF01120CF35E
:1021730032B001120CF37DB001120CF392B10112D3
:102183000CF3EEB101120CF36FB201120CF32EB388
:1021930001120CF337B401120CF36BB501120CF3FB
:1021A30059B601120CF371B601120CF3CCB601123D
:1021B3000CF3EAB601120CF332B701120CF359B760
:1021C30001120CF3F4B701120CF3BAB801120CF3B9
:1021D3004CB901120CF3C6B901120CF3E0BA0112A7
:1021E3000CF38DBB01120CF3B5BC01120CF305BD4E
:1021F30001120CF369BD01120CF3CBBD01120CF3F8
:10220300F9BD01120CF31DBE01120CF352BE0112F3
:102213000CF383BE01120CF3B6BE01120CF3D6BE4F
:1022230001120CF33EBF01120CF332C001120CF386
:102233008DC001120CF3B6C001120CF33EC10112A2
:102243000CF3C1C101120CF3ECC101120CF3D1C2A6
:1022530001120CF3C4DD03120CF3FCDD03120CF3C7
:102263001DDE03120CF35FDE03120CF3C1DE031257
:102273000CF3CBDE03120CF3DBDE03120CF316DFDD
:1022830003120CF3F6E203120CF3E3E403120CF370
:10229300C9E603120CF360E703120CF302E803121E
:1022A3000CF3D3C401120CF351C501120CF3ADC5E9
:1022B30001120CF3F8C501120CF313C601120CF34F
:1022C3003EC601120CF35BC601120CF367C6011282
:1022D3000CF3FEC701120CF317C801120CF39CC8D0
:1022E30001120CF3AFC801120CF3CEC801120CF3A8
:1022F30072C901120CF3F3CA01120CF3A6CC01123A
:102303000CF33CCD01120CF33FCD01120CF3AFCD16
:1023130001120CF3CDCD01120CF364CE01120CF3B8
:10232300ACCE01120CF3AFCE01120CF375CF011238
:102333000CF3E2CF01120CF308D001120CF393D08B
:1023430001120CF3B1D001120CF3F7D001120CF30C
:10235300ABD101120CF3F5D101120CF324D201120B
:102363000CF381D201120CF3B6D201120CF3E2D2B8
:1023730001120CF3F0D201120CF33DD301120CF352
:10238300ADD301120CF3F6D301120CF342D40112B4
:102393000CF36ED401120CF379D401120CF397D41D
:1023A30001120CF382D501120CF38CD501120CF33C
:1023B300C7D501120CF3D7D501120CF3E0D50112E6
:1023C3000CF334D601120CF348D601120CF377D771
:1023D30001120CF38ED701120CF3A3D701120CF3E5
:1023E30031D801120CF376D801120CF302D9011281
:1023F3000CF30DD901120CF34FDA01120CF36ADA64
:1024030001120CF3B6DA01120CF325DB01120CF303
:102413005EDB01120CF378DB01120CF3BADB011261
:102423000CF38ADE01120CF337DF01120CF3A4DF85
:1024330001120CF3E4E101120CF3FCE101120CF3C1
:10244300FFE101120CF30BE201120CF31FE2011284
:102453000CF327E201120CF35AE201120CF35CE3D2
:1024630001120CF3E3E301120CF353E401120CF336
:10247300D5E401120CF396E501120CF3B5E5011254
:102483000CF356E601120CF3B3E601120CF3B6E6B5
:1024930001120CF3E3E601120CF3F8E601120CF35C
:1024A3006CE701120CF3BBE801120CF3C1E9011252
:1024B3000CF34CEA01120CF367EB01120CF32FEC53
:1024C30001120CF360EC01120CF383EC01120CF318
:1024D3008CEC01120CF3BBEC01120CF34BED01126B
:1024E3000CF301EE01120CF376EE01120CF31DEF67
:1024F30001120CF392EF01120CF3C9EF01120CF36A
:1025030007F001120CF33DF001120CF39AF00112E3
:102513000CF333F703120CF323F503120CF331F42A
:1025230003120CF3CFF303120CF39B9703120CF378
:10253300919703120CF3269703120CF3579503128A
:102543000CF3159503120CF3199403120CF3ACBBA3
:1025530004120CF3D2CD03120CF3ED9303120CF31C
:10256300A49303120CF322BA04120CF3AAFD031270
:102573000CF3E59203120CF3D38F03120CF3948D37
:1025830003120CF3618D03120CF3088D03120CF389
:102593009B8C03120CF35A8C03120CF3938B0312D0
:1025A3000CF32D8B03120CF3CC8A03120CF36C8AFD
:1025B30003120CF3438903120CF3D78803120CF3B1
:1025C3002F8803120CF32A8803120CF31E880312BC
:1025D3000CF3518403120CF32B8403120CF376FDDA
:1025E30003120CF31FFD03120CF38DFB03120CF308
:1025F300DFFA03120CF342FA03120CF338FA031254
:102603000CF3D1F903120CF3C98303120CF36A839D
:1026130003120CF32B8303120CF3188303120CF332
:10262300BDF903120CF30D8303120CF3DC820312C6
:102633000CF3F88003120CF36B8003120CF3A9BAAA
:1026430004120CF3278003120CF38CD302120CF345
:10265300008003120CF35FF303120CF332F3031243
:102663000CF3FFF203120CF3D7F203120CF378F21C
:1026730003120CF358F203120CF323F203120CF3BC
:10268300CFEE03120CF3B7EC03120CF3A1EA03121F
:102693000CF321EA03120CF3CDE903120CF381E9E5
:1026A30003120CF3D9E803120CF31AF903120CF317
:1026B300ECC70300000080FB0000228F0001004BE9
:1026C300178700010049173500040012172500027F
:1026D300001617260002001817270002001A1728F1
:1026E300000100241729000100251784000400932A
:1026F3001486000100B1162A00010026172B0001E1
:102703000027172C0001002B172D0008009F142E03
:102713000001002C172F0001002D17300001002E9F
:1027230017310001002F1732000100A714330001F5
:1027330000A81434000100301736000100A9143832
:102743000001003117390001002A178300020047F6
:102753001763000100B51464000100281765000128
:102763000029176D000100B6147100080097146664
:1027730000010046174300010037174400020038E8
:1027830017450001003A17460002003B17470008AF
:1027930000AD14480001003D174B0001003E170433
:1027A3000001004A17A10001004E17370001004D38
:1027B30017880001004C173C000100AA143D0001DA
:1027C300003217490002003F1767000100B7144D9C
:1027D30000020041174E00010043174F000200445E
:1027E300173E000100361751000100AB14520001DF
:1027F30000341753000100351754000100AC1400D6
:102803000000000000000000002001B2860000016B
:10281300002001B486000002002001B686000003F8
:10282300002001B3860000040042017C85000005FE
:102833000042015385000006004201428500000763
:10284300003001B78600000040420142850000FDD0
:10285300FF2101B086010020002005B916010021E7
:10286300002005BA16010000022105BB1601000174
:10287300022123EE1602040000290183130204023D
:10288300022923E216020403022923E416020406A2
:10289300021023EA16050400002101851305040430
:1028A300022123E616050405022123E81605040781
:1028B300021023EC160304000029018713030410FC
:1028C3000029018913030414002801E116000136CD
:1028D30036010100010201000103010001040106A8
:1028E3000605020000070100340801000F09040176
:1028F300010D0100FF0E080000170200001901007E
:10290300FF1A0100011B0100FE1C0100081D02004B
:10291300001F01000120010001210200002301002A
:102923000F240200002601000127010008280200ED
:10293300FF2A0100072B0102402C0100002D01009A
:10294300012E0100012F0100FF30010B1D31080092
:10295300003A0100083B01000F3C0100013D01006A
:10296300FF3E04000042040000460400004A040045
:10297300004E04000052040000560400005A0400F4
:102983000001037103010301030103010301032296
:102993000302030103100300030003000300030009
:1029A30003000300034203000324030603000300A0
:1029B300030403120325032303250323030403044E
:1029C3000300030003000344030003000323030085
:1029D300036503210035038103000305030003009E
:1029E3000300030003250323030300710030016088
:1029F30000110070003102200350048000100061B8
:102A030000000014006300730072006200430000C2
:102A13000013000600000000000400120000000084
:102A2300000000000004000400370037003C0244AB
:102A33000000000000000000006500000035008178
:102A43000000000500000083000000010171010186
:102A53000101011101010131010101010180011095
:102A63000161013B001400630173017201620143C0
:102A7300010001130106013D0135000401120100AB
:102A83000100010001000104010401330133013C91
:102A930001440132013600000100016501000135E6
:102AA300008101000105018201830100010302711C
:102AB300023001600211027002010202020202806E
:102AC30002100261023A0041006302730272026261
:102AD3000243020002130238000002000204021241
:102AE300020002000200020002040204023700375F
:102AF300003C0244020002390000020002650200A9
:102B030002350281020002050282028302000236BC
:102B1300000100060000000F00000000000000009C
:102B2300000000000003FFFF00000403FFFF00009C
:102B3300FFFF0FF4010005C4040320000100000B94
:102B4300000000000000000003010F00000000006F
:102B53000000000000000000000000000000000072
:102B630000000000000000000000000000281852D0
:102B7300182E186E1734185818341864183A186E2B
:102B8300173418581840186E170000000046186EC6
:102B93001700000000000000004C186E1700000032
:102BA3000000000000000000000000000000000022
:102BB3000000000000000000000000000000000012
:102BC3000000000000000000000000A41A0100A49F
:102BD3001A02001A1A0280141A0300201A0400268B
:102BE3001A04802C1A0500321A06003E1A310050CE
:102BF3001A3300561A34005C1AFFFF000003000367
:102C0300000400080010001F003E007B00F600ECEB
:102C130001D703AF075D0FB91E713D000007ECFD3F
:102C2300FDFDECDCDCCCBCACAC9C9C8C7C7C6C6C8F
:102C33005C5C5C4C4C3C3C2C2C1C1C0A98200262B7
:102C430020056E200768200C4A200D5620FF000047
:102C530000160F00000B150B020002220F330000B9
:102C63000E0F5A6967426565416C6C69616E6365F5
:102C73003039D0D1D2D3D4D5D6D7D8D9DADBDCDD2D
:102C8300DEDF150AF4D4C0A59582726361555049FD
:102C930000034D4C4651181A250502000119161858
:102CA300161618230300303016181920231A1C1E79
:102CB30030303017181921301B1D1F30003C4042A3
:102CC3003A3F3F392F47300C0E020B040B0A07081B
:102CD300000F02040201010101090200BE040AE817
:102CE300030000E8030100F6FB852C0300202C24DD
:102CF3000010030A0C040F08050328020C051E0824
:102D030015FF00FF0419091EC082C08312250C9011
:102D130014E0743AF0A3741EF09014E27440F0A32C
:102D2300741EF09014E47446F0A3741EF09014E63D
:102D3300744CF0A3741EF0025A4674F712081A90EA
:102D430014D4E4F0E99014D3F07CAD7D147AD57BF0
:102D53001412172090173DE09014DDF09014DE74E8
:102D630097F0A37414023CD374F012081AEAFEEB32
:102D7300FF54807003022EDC9014D3123D6870035D
:102D8300022ED5EA241B1255D3707CEA241F125558
:102D9300D364137002A3E0706E8A828B83122F2A8E
:102DA3009014EE124B65750A00750B00800D123BF3
:102DB300A9126C45121624AA0EAB0FEA4B60488A7F
:102DC300828B83E0650C7004A3E0650D702C8A820E
:102DD3008B83A3A3A3A3E0F50EA3E0F50FE50A45B8
:102DE3000B8A828B83A3A3A3A360C3123EAB850A82
:102DF30082850B83A3A3A3A380B78A0A8B0B8A8242
:102E03008B83124B6180B4E508242A1255D3FCE569
:102E1300082402F8E43509F9E8FAE9FB9014EE1204
:102E23003011A3A3E06402703C8A828B83124B654A
:102E3300800B88828983A3A3A3A3123EABE84960D6
:102E43001F88828983E06A7003A3E06B70E4888241
:102E53008983A3A3E06C70DA901743125903806B44
:102E6300ECF9121E76850882850983E06401704FB0
:102E7300E5082418122F13120D4C1261ED120B6C7E
:102E8300E5082412122F13120D4CE508123D5C12B3
:102E93000D48E508240B1261F1120B70E5082417A5
:102EA300123CF9E5082402FCE43509FDE508241980
:102EB300FAE43509FB12268C740A120D25800CE006
:102EC30064027007AA08AB09121F54AA08AB0912BF
:102ED300158EEEFAEF6480802DEA5402600C901791
:102EE300527401F0EA6402FA8023EA5408601A1269
:102EF3001E70EA4B700B9014F01260C87A08122F00
:102F030020EE6408FAEFFB80047A007B0002687706
:102F1300F582E43509F583E0F50A780A22FB90147B
:102F2300D3E0F91216F022A3A3E0F50CA3E0F50D0C
:102F3300227B009014D3E0F91216E474042274F493
:102F430012081A8A088B098A828B83A3A3A31249C6
:102F53005D123D0438F583E02409FA12680F70030B
:102F63000230048A828B8374021249D285088285D7
:102F73000983123011E8F0A3E91264898A828B83F2
:102F8300A3A3A3A3A3A3A3A3F0E5082403F8E43511
:102F930009123006123D043AF583E08E828B83A337
:102FA300A3A3A3F0EE2409FAE43FFB8E828F83A34D
:102FB300A3125BB5F5838882E0A2E58E828F83A39B
:102FC300A3A3A3A3500474018001E4F0E508240340
:102FD300F5828983124B65EA1250E63BF58312674B
:102FE300D6120D44123D033B125CA78E828F83A33E
:102FF300A3127985120D25EEFAEFFB9014D3126814
:103003005C8016F98882F583E0FAA3E0CA22124DA8
:1030130002A3A3227402120D257F04020AA174F2F3
:1030230012081A8A088B09ECFAEDFB740E12104190
:10303300E0FC1210908A0C8B0DAE0CAF0DEA4F60C2
:1030430030AC08AD0912107EE96026AC08AD09EE7C
:10305300FAEFFB121084E970148E828F83123E986C
:10306300FAEFFB121078AA08AB091210A8790080B6
:103073000279B4024C5174F012081A74F6120DD985
:10308300EAFEEBFF8C088D09750FB385218285223B
:1030930083E4F0750E008002050E902CFBE493F898
:1030A300E50EC39840030231A0AA0E7B001210CC98
:1030B3008A0A8B0BEA4B60E08A828B83A3A31231CB
:1030C300A728F0F8C3EE98EF940050CC7C157D0050
:1030D3007900AA08AB09121576850A82850B83A3AA
:1030E300A3A3A3126C82E0F8EEC3982925E0F8E4C9
:1030F30033F9E50A28F582E50B39F583A3A3A3A3E6
:10310300A3A3123D0EA312572A8A0C8B0DAC0CAD50
:103113000DAA08AB09121720850A82850B83A3E049
:103123006401700A1261ED7401123D208044740140
:10313300120DB9850A82850B83124B631210B4E911
:10314300603D7409121041E0C0E01261EDD0E0F07F
:103153007409121041E0640370137401120DB9E590
:1031630008240BFAE43509FB1217208012740112AC
:103173001041123EABE5081257103509126C438516
:103183000A82850B831261F9123D20A3A3E0C0E0FC
:10319300E50824141261F1D0E0F0750F00A90F7453
:1031A3000A026874A3A3A3E0F8852182852283E041
:1031B3002274F712081AE9FE8A828B83A3A3A3A3BE
:1031C300A3A3E0540860338A828B83A3A3A3A3A39E
:1031D300A3E0540260218A828B83A3A3A3A3A3A3A6
:1031E300A3A3A3E06406600F74E96E600A74CD6E56
:1031F300600574F06E7003121E5802455074F0128D
:10320300081A74EF120DD9740F121041125FAC74C7
:1032130008121041E9F0ECFEEDFF740512104112A3
:10322300431812453CA3E0F912109C740612104196
:10323300125FAC740612104112517770030234BB53
:10324300123D48E0FA7406121041E0F9121D98127B
:10325300351BF8A3E0F9E84970030234BBEE2403FD
:10326300F50AE43FF50BEE2406F508E43FF5097C87
:1032730000850882F583124B65850A82850B83E0FE
:10328300F91210A27403121041125FAC850A8285F1
:103293000B83E0C0E0852182852283123514D0E0C0
:1032A30012528CF9852182852283123BB0124DDEA6
:1032B3001231AAFAA3E0CA2407F582E43AF583E8B7
:1032C300F0A3E4125FB72406F582E438F583E41231
:1032D3006C4F124951120D44EE123D043F125CA78C
:1032E300740312104112495D240912797F120D25CE
:1032F3007429121041126C7C12300B12529F3A1235
:103303006C43742B121041E0C0E085218285228337
:1033130012513ED0E0F07402121041E4F074251211
:1033230010417808120FCE023412740312104112A6
:103333005C6F8882F583123503A3A3A3125735FB71
:103343001210BA850E82850F83A3EAF0A3EBF07403
:1033530003121041123514A3123503125944A2E685
:10336300500F850E82850F83A3A3A3A3A3E0D2E10D
:10337300F07405121041E0706B850E82850F83A3F4
:10338300123EAB90152EE0687003A3E0697055857B
:103393000E82850F83A3A3A3123CE3750C00780C64
:1033A300120D4C7808120D407429121041E0F50CEF
:1033B300780C120D4C7427121041120B7090153BB0
:1033C300120B7079007419121041124B35121F9CA5
:1033D300740A120D25850E82850F83A3A3A3A3A3CD
:1033E300E04405F07402121041E004FC8E828F83E6
:1033F300124B5F8E828F83A3A3A3E0F91210A274F2
:1034030003121041125FAC7402121041E004F07415
:103413000312104112517760677402121041E0FAEF
:103423007406121041123EABC3EA98E499505174EA
:10343300021210411237ED852182852283E028F89C
:10344300A3E039F9E8240FF50EE439F50F850E8270
:10345300F583E4F0740312104112350E6401600326
:1034630002332D74051210417401126862F0740363
:10347300121041125A36123810E8F0A3E902335100
:10348300852182852283124B65121D9E85218285AB
:103493002283120B707426121041E0FD7425121062
:1034A30041E0FC740A121041E0F9EEFAEFFB121E40
:1034B300527402120D2580438E828F83A3A3A3E04F
:1034C300C0E0740C121041D0E0F01266CBE0C0E013
:1034D300740D121041D0E0F07406121041125177AE
:1034E3007009740E12104174B98007740E121041E2
:1034F3007410F07409120DB1121F967411026874DE
:10350300E0850E82850F83A3A3A322E0125264E019
:1035130022E0125264A3A322852182852283EAF04A
:10352300A3EB1251802274F012081A74E1120DD920
:103533007404121041E9F07403121041ECF07402A8
:10354300121041EDF08A0E8B0F742F121041122FBF
:103553002CAA0CFB121D8C7401121041E9F0AA0C69
:10356300AB0D121D927401121041E070030237E893
:10357300852182852283E480158E828F83A3A3A372
:10358300A3A3E0D2E3F0852182852283E0041267BE
:10359300BAF8852182852283E0C39840030237DF8E
:1035A3007401121041E070030237DF852182852206
:1035B300831237EDE50C28F8E50D39F9E8240FFE01
:1035C300E439FF8E82F583A3A3A3A3A3E0A2E04083
:1035D300B5750800750A08750B007402121041E0F6
:1035E30060037508207C087D0079007405120DB115
:1035F3001215768E828F83E0603E90157EE0640123
:10360300701AE508D2E3F508750B101237FD121096
:1036130041E8F0A3E912562874FF807643080C753D
:103623000A0C8E828F83A3123808126C457405121C
:10363300104174FFF0A3805A7404121041E0600932
:10364300E508D2E6F508750A0A8E828F83A3E06443
:10365300FE7003A3E0F4703074121210417404126C
:103663006217F8741D121041E81249D27412120D38
:10367300B1121CBA7D007C0079007415121041AAA6
:1036830082AB83121A8C800B1237FD121041E8F0C3
:10369300A3E9F07407121041E508F0123D3FC0E0C2
:1036A3007409121041D0E0F0740A1210417401F051
:1036B3007405120DB1121F5A7411121041E0600308
:1036C3000237BD740D1210411252878E828F83A36D
:1036D300A3A3A3F0740D1210411249A0E50AF0A3AD
:1036E300E50BF07403121041E0C0E0124931D0E061
:1036F300125944601190157EE0C0E0740D12104120
:1037030012497BD0E0F0740D121041123EAB850CD0
:1037130082850D83A3A3A3A3A31237F6241C125FF0
:10372300A6126C5F1237F81258F6391266EAC0E037
:10373300124918D0E01267AFC0E0740D12104112A5
:10374300445ED0E01264B0C0E0740D121041124424
:1037530054D0E0F0740D1210411238081237F624D9
:103763002A125FA6850E82850F83A3A3A3A3A3A317
:10377300A3A3E0125F9F123D2EC0E0124440D0E0AD
:10378300F0740D121041124B65850E82850F831262
:1037930067C52428F582E43B126C43123D37126758
:1037A300D6120D44125CA0EA125F383B12798312E1
:1037B3000D257405120DB1121F608E828F83A3A392
:1037C300A3A3A3E0D2E0F07411121041E06003025E
:1037D300357C7401121041E0140235887900AA0C7B
:1037E300AB0D121E5E741F026874E075F007A4F837
:1037F300A9F022A3A3124B69E8228E828F83A3121E
:103803003EAF740522E0123810A3A3A322F8A3E06D
:10381300F9850E82850F83A32274F012081A74E8C7
:10382300120DD9E9852182852283F08A0E8B0F8AB6
:10383300828B83A3A3A3A3A3A3A3A3E0F9121DB61F
:103843008A088B09EA4B70030238F9E50E1250FA25
:10385300123D57123CEE852182852283E0600302EC
:1038630038FC7C04850E82850F83A3A3A3A3A3A3A3
:10387300A3A3E0F9121DBCEE4F607B8E828F83A35E
:10388300A3A3A3123EAB74071210411260DD123ED4
:10389300AB7409121041124A02C0E07411121041B4
:1038A300D0E012648EA3A3A3A3A3A3A3123EAB747D
:1038B3000F121041126C457412121041E412686A1F
:1038C300C8241FF582E438F583125C6BC4131354C8
:1038D30003FC70027C048E828F83E0F97808120D5A
:1038E30048742059FD744059F97403120DB1121E26
:1038F300527402120D250268727C08850E82850FB0
:1039030083A3A3A3A3A3A3A3A3E0F9121DBC8B0BBF
:10391300EA4B700302387AEE4F60DB852182852201
:1039230083E0F50C780C120D4C850882850983A37E
:10393300A3A3A3A3A3A3E0F50C780C120D4C8A82D6
:103943008B83A3A3A3E0FB8A82850B831274A28AD1
:1039530082850B83E0FA8E828F83A3A3E0F912267C
:10396300927402120D2502387E74F712081A74FA43
:10397300120DD9E9FE780179017F00800379000FE8
:10398300124CE1E0FCEFC39C5026EF75F007A4FC5A
:1039930085F008AD08EA2CFCEB3DFD1242D0E0A215
:1039A300E050DA540C60D6E0A2E250D3780080CF26
:1039B3008A828B83A3A3A3A3A3A3E0703DE9A2E020
:1039C300400574016E70338A828B83A3A3A3A3A3E0
:1039D300A37401123CC0E0C0E07403121041D0E0B4
:1039E30012432FE0C0E07404121041D0E0F07405DC
:1039F300121041E8125C0A121F96740602454DC06C
:103A030082C0837901121E5E025A4674F412081AA8
:103A1300EA4B9017526019E4F08A088B09F50AF50E
:103A23000B7808120D407A02122F34120D25800AEA
:103A33007401F07A027B00122F2102301C74F01201
:103A4300081A74F3120DD97403121041E4F0A3F0B1
:103A53009014EE123CEE7401121041E4F0A31249EB
:103A6300D704F0901528E0A2E35003023B33123C45
:103A7300B47409121041121012740912104178081B
:103A8300120FCE9014F07808120DC1740512104174
:103A93007808120FB0123BB7740512104178081260
:103AA3000F8150077A017B00023BA4740512104179
:103AB300780C120FCE901742E0F509780C790812B2
:103AC30007ABA80CA90D901743E0C398E4995003E2
:103AD300E08001E8852182852283F0740912104178
:103AE3007808120FCEC008C009C00AC00B740512B3
:103AF3001041780C120FCE123BB7780C79081207DD
:103B0300ABE4F50AF50BD00FD00ED00DD00C780C2A
:103B13007908120E949014F0780C120FB0801112E1
:103B23003BA9126C45EEFAEFFB121624AE08AF095F
:103B3300EE4F60658E828F831231A7C398502DEEAE
:103B43002403F8E43FF9E0FA88828983E0C39AF01A
:103B5300602374031210411240117401121041EEDC
:103B6300F0A3EF1260F8FEA3E0FF80C48E828F8380
:103B7300A3A3A3E4F08E828F8312793C7401121005
:103B8300411251778E828F83A3A3A3A36091126006
:103B9300D1121041123BB080897403121041124BB1
:103BA30065740D026874123EAF9014EE22125C9697
:103BB300A3A3A322901741127944E4F50AF50B223B
:103BC30074F012081A8A088B09890A780079009020
:103BD30014EE123CEEFBEE4B601E088E828F83A325
:103BE300A3A3A3124B2F601008E87001098E828FE4
:103BF30083123CEAEA4F70E3901744124B65C3E823
:103C03009AE99B4003023CA77A06123CAAA80CA996
:103C13000DEA497003023CA78A828B83E508F0A36F
:103C2300E509123CC9E50AF0901743124CE9123C2E
:103C3300C0A3E4F0A3F09014EE124B2F600D8E821C
:103C43008F83A3A3A3A3126C4580179014EE126C69
:103C530045901528E0A2E34009123CB49014F012F9
:103C63001012901528E0A2E3503A7A087B009014D2
:103C7300D3E0F91216F6EA4B4C4D7028901741E049
:103C8300F508A3E085080CF50DE4F50EF50F780CA7
:103C9300120D407A087B009014D3E0F91216EA74EF
:103CA30004120D250268777B0012161E8A0C8B0DF9
:103CB30022121708EAF8EBF9ECFAEDFB22123CC4E6
:103CC30022123CC9A322F08A828B83A3A322E50894
:103CD300F0024550F08E828F83A3A3A3A3A3A32254
:103CE3001255E1A3A3F022A3A3A3A3E0FEA3E0FF45
:103CF300227F05020AA1F582E43509F583E0F92262
:103D0300EA123D08222410F582E422123D16A3A3F1
:103D1300A3A322123EB385088285098322123D2480
:103D230022F0850A82850B83A3A322E50E241112B8
:103D33003D54E022E50E240E123D5422E50E2410DC
:103D4300123D54E022123D4C22EE123D083FF58312
:103D530022F582E4350FF58322240FF50AE43509B1
:103D6300F50B780A22E0F91215A08A088B09EA4BB1
:103D73002274F212081A890B8A088B098A828B83B0
:103D8300124B65121E82EA4B600479B8806A121ED8
:103D93008EE9F8902CF4E493F9E8C399400479B2DE
:103DA30080567A15123CAAAE0CAF0DEA4F70047917
:103DB3001080458A828B83E4F0A3123CC9E50BF0A3
:103DC300750A007808120D447C127D00EA24031260
:103DD3006781120D259014F412517770089014F432
:103DE300800C123EAB88828983123DFE70F4EEF0A4
:103DF300A3EFF0121EA07900024C51124B69EA4B5B
:103E03008882898322C082C0839014F480048C82C8
:103E13008D831274A3EC4D60288C828D83A3A3E061
:103E230069600574FF6970E68C828D83A3A3A3E0A8
:103E33006A7003A3E06B70D6EC2403FAE43DFB80C5
:103E4300047A007B00025A4674F712081AE9FD74DB
:103E5300FE6D70047C0180027C009014F480096D77
:103E630070027C0188828983125177601F8882895E
:103E730083A3A3A3E06A7003A3E06B70E7ECA2E063
:103E830088828983A3A3E050D6F9800279FE024594
:103E930050EEF9800CA3A3127944EE227402120DA2
:103EA300257F02020AA1F583123EAF22123EB322FE
:103EB300E0F8A3E0F922123EB38E828F8322120D23
:103EC300257F03020AA1C082C08379009014F48085
:103ED3000109E0FAA3E08A82F583E582458370F164
:103EE300025A4674F612081AE4F508F5097808121E
:103EF3000D48902CF4E49375F013A4A9F012400636
:103F0300126CA3120D25E9FE74096E7003121E9A3A
:103F1300023E9474F612081A74FE120DD98521829A
:103F2300852283E4F0A3F0A821A9228808890978CF
:103F330008120D487508027509007808120D481219
:103F43006914120D25023E9F74F512081A74EB12C0
:103F53000DD9852182852283E4F0A3F09014F480A7
:103F6300748E828F83A3A3E0C0E07402121041D049
:103F7300E0125628A982AA8389088A09750A00785B
:103F830008120D447C127D007406121041126C68F5
:103F9300120D257402120DA9880889097808120DDB
:103FA300487508137509007808120D487404121037
:103FB3004112511A75F013A4F8AAF075F013E9121F
:103FC300400212691C120D2585218285228312402D
:103FD300118E828F83123CEEEE4F7085A821A922A9
:103FE300880889097808120D487508027509007850
:103FF30008120D48126914120D257415023EC1A44E
:104003002AF9E82402FCE439FD7A427B0022E02409
:1040130001F0A3E03400F02274F412081A74EB12D6
:104023000DD97E007F00A821A92288088909780874
:10403300120D487508028E097808120D487C007D20
:10404300007A42126CAF120D25E9706C8E0880560F
:104053007402120DA9880A890B780A120D48750A91
:1040630013750B00780A120D48E50875F013A4F8D0
:10407300AAF075F013E509124002126CB1120D2576
:10408300E9701B7403121041AA82AB8374021210ED
:1040930041E0F9121E7CE970050EEE70010F050870
:1040A300E50870020509852182852283123EABC390
:1040B300E50898E509994098EEFAEFFB741502308C
:1040C3001974F612081A8C828D83A3A312431DF070
:1040D300EA125F3E3BF583E0C0E01242DAD0E0F043
:1040E300EA241DF582E43B123EA91242BE12431894
:1040F300F0A3F0EA241FF582E43BF583123CEEECD7
:104103001242B13DF583EEF0A3EFF01242B73BF557
:10411300831242E8A3A3A3A3A3A3EEF0A3EF125B2E
:1041230099FE8C828D8312432774035EFEC394032E
:1041330040030242A4EE600874026E60030241C9A8
:104143008C828D83E0540CFE740C6E700302420863
:10415300E0A2E4400D88828983E08C828D83A312E0
:10416300433D74086E60030242081242C87401F0B2
:104173008A828B83A3A3A3A3A31255EE70148C820C
:104183008D83E0440C12432FA3A31242E8EEF0A365
:10419300EFF08C828D83E0A2E4402B88821242F6FA
:1041A30012430B500109F5821242F6A3A3A3A3A362
:1041B300A3F0A3EF1243378C828D83A3A3A3F0E86C
:1041C3002403F850010988828983E0C0E0EC2411BC
:1041D300F582E43DF583D0E01243278C828D83E0A2
:1041E300A2E7507588828983E0FE8C828D83124317
:1041F3003D74FC5E700C8C828D83A3E054036403D6
:10420300701E0242A41242C8E4F0740C6E600302F2
:10421300417388821242FC12430B500109024195FB
:104223008C828D83A3E05403603288828983E0C04B
:10423300E0EC1242E23DF583D0E012433E8C828DE6
:1042430083E054036402701488828983E0C0E0121F
:1042530042D0D0E012433E8003A3E4F0EC1250E6D8
:104263003D126C43EC2410FEE43DFFEA241DF5826D
:10427300E43BF583E0F5088E828F83E0C39825083D
:10428300F508F0EA2417F8E43BF98882F583E0C3E4
:104293009508C0E01242BED0E0125B99C395085066
:1042A3000A1242BEE4F01242DAE4F0023EA42415FC
:1042B300F582E422EA240DF582E422EC240DF58252
:1042C300E43DF58322EC12529F3DF58322EC241446
:1042D300F582E43DF58322EC123D083DF58322246B
:1042E30013F582E422E0FEA3E0FF8C828D83A3A377
:1042F300A3A3221242FCA3A3228983E0F508A3E02F
:10430300FFE5088C828D8322A3A3A3A3F0A3EFF080
:10431300E82402F82212431DA322E4F08C828D8349
:10432300A3A3A322124345A882A98322123CC4A3B8
:10433300A3A3A322124345A3E022A312434508A942
:104343008322125BA2A32274F412081A74F3120DCF
:10435300D98A0A8B0BECFEEDFF8C82F583E0540CBB
:10436300F508E0A2E75006E508D2E7F508E508D22C
:10437300E1F5081255EE7006E508D2E4F508E0A26F
:10438300E55006E508D2E5F5087C087D007900AA2A
:1043930021AB221215767402121041E508126C4902
:1043A300C0E07403121041D0E01249D7E50AF0A32C
:1043B300E50BF074051210411264B5121041E07060
:1043C30077740812104112495D125B8B381264D066
:1043D300C0E0740812104112445ED0E01264B0C011
:1043E300E07408121041124454D0E0F07408121023
:1043F3004112444AE0124985124A06125F9FEE2495
:10440300111255BAC0E0124440D0E0F0EE24141269
:1044130055BAC0E0740812104112495D2435F58283
:10442300E438F583D0E01249AAC0E07408121041C1
:10443300124961D0E0126209740D023019E8243286
:10444300F582E439F58322123EB9A3A3A3A3A3A360
:10445300221249711266AF38F5832212497124265C
:10446300F582E438F5832274F712081A7E008A82F3
:104473008B83A3A3A3A3A3A3A3A3A3E064046003C5
:1044830002452C125297E0600302452C1250F93B6F
:10449300125175700302452C88828983E0540360AE
:1044A3000302452CE812529F39F583E0FA8C828D82
:1044B30083A3A3E0FBA3E0CB2411F582E43BF583C4
:1044C300E06A706588828983A3A3A3A3A3A3A3A39C
:1044D300A3124530E06A7003A3E06B704C888289B5
:1044E30083A3A312453CE0FFA3E0CF24061255BAF1
:1044F3006A7003A3E06B703188828983A3A3E0F819
:104503008C828D83A3A3E0F9A3E0F5838982A3A31F
:10451300E06860138C828D83A3A3A3E0F583898273
:10452300E0540C640470027E01EEF98020124534DD
:1045330022124B6D8C828D8322A3A3124534A3A335
:1045430022740C121041E0F9740D120D257F010243
:104553000AA174F612081A74FC120DD9EAFEEBFFD5
:10456300ECFAEDFB8C82F583A3E054036016901400
:10457300EA12517760597900EEFCEFFD125D961255
:104583000A02804B852182852283EEF0A3EFF0742B
:10459300021210411249CCAC21AD227AB87B1E1213
:1045A30020E08A088B09A808A909EA4960218A82C0
:1045B3008B83A3A3A3A3A3A3A3A3A37406F07A004B
:1045C30088828B8312495D125F5FE0F912203E748B
:1045D30004023EA174F212081A74F3120DD9EAFE12
:1045E300EBFF8A82F583A3A3A3A3A3A3A3A3A3A3FC
:1045F300E0F50A901752E0700579BA02491575087B
:1046030001750900750C00750D007C087D007900AB
:10461300AA21AB22121576740512104174011249B6
:10462300DF540460127402121041E0D2E61249DF33
:1046330054087003750803E054106006744045087D
:10464300F508E0540860227402121041E044C012DD
:1046530049DF5420600A7403121041E0D2E080085D
:104663007403121041E0D2E1F0EE24151255BA1290
:1046730049457003740169700674084508F5088E8E
:10468300828F83A3A3A3A3A3A3A3A3E070161221E2
:104693003A852182852283125FAC7402121041E0B5
:1046A300D2E28030640F701074021210411249E795
:1046B30074044508F508807F8E828F83A3A3A3A388
:1046C300A3A3A3A3E064028E828F83700A126C7C7F
:1046D300E8F0A3E9F08060A3A3A3A3A3A3A3A3E0AB
:1046E3006403700DAC21AD22EEFAEFFB121EEE80D7
:1046F300468E828F83A3A3A3A3A3A3A3A3E06401F2
:10470300703590157EE0601074021210411249E773
:10471300750910750AFF80187402121041E0440CE9
:104723001249D774FDF0A374FFF074044508F5082B
:104733008E828F83122F2CEE24151255BAA2E050CD
:104743003F7402121041E0540C701B8E828F83124F
:104753004B65121B58E9700579BB024915740212A7
:104763001041E0D2E5F0EE24151255BAA2E0501044
:104773007402121041E0540C64047004E0D2E5F0BA
:10478300EE24111255BAC0E07404121041D0E012A5
:1047930064B7121041E0600302490E74081210411D
:1047A3001249A0E508F0A3E509F012493BE0C0E097
:1047B300124931D0E0F0124922E0C0E0740812102F
:1047C3004112495D1242E238F583D0E0124A066491
:1047D30001701190157EE0C0E07408121041124977
:1047E3007BD0E0F0740812104112499B12492CFA55
:1047F300E8241CF582E439F583EA1249D2EE241544
:10480300FAE43FFB8A82F5831274A3E81258F6395F
:10481300F5831249CCEE241C1255BAC0E012491894
:10482300D0E0125A3C124945700374016970137445
:1048330008121041125287FAEE241D1255BAF912CA
:104843001DC28E828F83A3A3A3A3A3A3A3A3A3E0C9
:10485300C0E0740812104112445ED0E0F0740812F4
:104863001041124454E50AF0740812104112511A0F
:104873002428F582E439F583E50CF0A3E50D12490C
:10488300B2124985125633125F9FEE12492CC0E0D3
:10489300E82433F582E439F583D0E0F0EE241B12EB
:1048A30055BAC0E07408121041124961D0E0F0EE2D
:1048B300241A1255BAC0E0740812104112495D243B
:1048C30032F582E438F583D0E01249AA1249511235
:1048D3000D441266B51274A3740B12104112495D94
:1048E300242F12797F120D25EE24151255BA544048
:1048F300601290150A125177600AAA21AB22125D49
:1049030096120A02AA21AB22121F60740C121041E4
:10491300E0F9024C4CE82420F582E439F58322EED9
:104923002419F582E43FF583221266C4E022E824C9
:1049330012F582E439F58322EE2418F582E43FF57B
:1049430083225480F8A3E05401F974806822F508A7
:10495300A3E0F509750A0078082212497122124969
:10496300712434F582E438F58322A3A3A3A3124967
:104973007522E0F8A3E0C8221249711242B138F55A
:104983008322FAA3E0FBE8242AF582E439F583EADB
:10499300F0A3EB22A3A3A3A3123EAFEE2212511E58
:1049A3001250FE39F58322F0EE241312563B22F007
:1049B300EE240D12563B22E0FC8A828B83E02CFC12
:1049C300A3E03400FD8A828B83ECF0A3EDF022F0A8
:1049D300A3E4F022F085218285228322F0EE2415C0
:1049E30012563B22E0D2E3F01249EF228E828F83EC
:1049F300123EB3852182852283E8F0A3E9F022E801
:104A0300F0A3E91260F2E02274F712081A8A828B8B
:104A130083A3E0640170047E6380027E648A828BD8
:104A230083E060087905124A3F24F3FE901526E0DF
:104A33006007F9124A3F24F2FE02452C122008E9CE
:104A4300F8EEC3982274F612081A74FE120DD98573
:104A53002182852283125FACE9FEECFAEDFB90051F
:104A6300301251776032A821A92288088909780871
:104A7300120D487D01740E121041E0FCEEF9900511
:104A830030125F80120A027402120D25EA4B600491
:104A93007900800679B2800279B6023E9F74F712DC
:104AA300081AE9FE9014E0125177601F740912107E
:104AB30041E0F5087808120D4CEEF99014E0125F0E
:104AC30080120A027401120D25800279B602455044
:104AD30074F712081A8908ECFEEDFF79B5E508248E
:104AE3005E602014600624F86034803D9005321225
:104AF3004B2F6035126CC0120A028E828F83125FB5
:104B0300AC80249014E21274A3EC4D601CEEFCEF15
:104B1300FD9014E2125F80120A02E9F9800B9014EF
:104B2300DE124B351217207900024550124B69EA09
:104B33004B221274A7EEFAEFFB2274F712081AE95C
:104B4300FE79B574AB6E700B9014DE124B651217C1
:104B53002079000245508E828F83A3A3A3A3A3A32E
:104B6300A3A3124B6922124B6D22E0FAA3E0FB22AE
:104B730074F112081AEAFEEBFF8C0A8D0B7508011B
:104B830090152EE06E7003A3E06F700C124C40AAD8
:104B93000AAB0B121720805E122140EE6A7002EFFF
:104BA3006B7009AA0AAB0B122146804AAC0AAD0B03
:104BB300EEFAEFFB121C96E9F508901749E0703600
:104BC3001225C6E97030E508702C9014FEE06E7073
:104BD30003A3E06F7020EE4F601C750CF6750D1487
:104BE300750E00780C120D447C087D00AA0AAB0BED
:104BF300126C6C120D25A90802759F74F212081A23
:104C0300EAFEEBFF8C088D09750A01124C40EEFA9F
:104C1300EFFB12171AE96401701190152E123EABC7
:104C2300850882850983126C45800EAC08AD09EEB8
:104C3300FAEFFB121C9CE9F50AA90A801112213430
:104C43008A0C8B0DAC0CAD0D22740D120D257F0655
:104C5300020AA174F612081AEAFEEBFF7A0D7B0032
:104C630012161EEA4B6062EE2424126949F0EE2408
:104C730025126949A3124D0E12694FA3A31266E2CE
:104C8300124CE9F0EE124CCF124CFEE8F0A3E912FD
:104C93004D25124CF6126C45EE124CD81267A5A3A3
:104CA300A3A3A3F0EE24331255BAC0E0124CE1D013
:104CB300E01264D4124CF6A3A3A3E8F0A3E9124DC7
:104CC3001DC0E0125297D0E0F0023EA4242AF582E0
:104CD300E43FF58322242EF582E43FF58322EA1292
:104CE30057103BF58322124CED22E08A828B83A37B
:104CF300A3A322126804A3A3A3A322124D02221288
:104D03003EB38A828B83A3A3A3A322F0124D132263
:104D1300EE2426F582E43FF58322F0EE2432125688
:104D23003B22F0EE242C12563B2274F412081A7420
:104D3300FE120DD9ECFEEDFFEC24161255BA6405F4
:104D43007010EC2406FCE43FFD121EE8E970030238
:104D53004DD9AC21AD221269FE121B5E85218285DD
:104D63002283125177606B8E828F83E064017058C7
:104D7300E875F009A4F8AAF075F009E9A42AF97412
:104D83005728F8740239F9E8FAE9FB8882F5837841
:104D930008120FCEEE124E7B120F8140278521821F
:104DA30085228312499B1255C8124DDE7808120FD3
:104DB300CE90864C7808120EA88A828B83780812CC
:104DC3000FB0800A79A28010EE240F126C3F790095
:104DD300800679A1800279C80230171249FCEE12CD
:104DE30066D02274F212081A8A0C8B0DECFEEDFFCA
:104DF300EC1255C8E4F0A3F09086047808120FCEA5
:104E0300EC124E7B120E056067EC240E1255C17036
:104E13003478B3901525E07028901557E06401703D
:104E230020EC24111255BAF9121FF08B09A909EECF
:104E33001250FA3F125FAAEA4960047800800278B0
:104E4300A18808802EE060046402700A121EFAE949
:104E5300F5087007801DE064037010EEFCEFFDAAF7
:104E63000CAB0D121B82E9F50880087508A18003BD
:104E73007508A3A908024C511266D078082274F071
:104E830012081A74F5120DD9EAFEEBFFEA240AFCA4
:104E9300E43F8C82F5831279401251047403120D9E
:104EA300B98A828B83125DA0E97003024F6A740191
:104EB300120DB97403120DB1121B5E74011210416D
:104EC3001251777003024F6AE875F009A4F8AAF04B
:104ED30075F009E9A42AF9745328FC740239FDE535
:104EE30008240E1261F1E4F004121041123EABE506
:104EF300081250FA3509126C438C828D8312100606
:104F0300E50824121261F112101290864C780812EF
:104F13000FCE8C828D837808120F1A8C828D837842
:104F23000C120FCE9086A47808120FCE780C790855
:104F33001207ABE5084509450A450B702A740112AF
:104F4300104112511A75F009A4F8AAF075F009E995
:104F5300A42AF9745B28F582740239F5837401F08D
:104F63007A007B081251278E828F83A3A3A3A3A366
:104F7300A3A3A3A3A3E02406FCA3E03400FD8E8235
:104F83008F83125DA01264C2603EEE240A1250ECBD
:104F93001249A074681249D2E81250E639F58374B5
:104FA30002F09015101210068C828D83125F9912F5
:104FB3005B8B3CF58312101290864C7808120FCE4F
:104FC3009015107808120F1A125162705D9014DE5A
:104FD300125112A3A3A3A3A3A3A3A3A3A3125BC1CD
:104FE30012171AE97010125B7F9014DE125B917036
:104FF300051264C260348E828F83A3A3A3A3A3A3E9
:10500300A3A3A3A3125112124B65121B88E96011CB
:105013008E828F83A3A3A3A3A3A312514EE4F0A371
:10502300F08E828F83125134E4F0125162600302D6
:1050330050E18E828F83A3A3A3A3A3A312793C90F1
:105043001525E060030250D6901557E06401600314
:105053000250D6750A3A750B00780A120D4874028D
:10506300120DA9880A890B780A120D48126F3B1298
:105073000D25E9705BE508240E1261F174011251EC
:105083007CC0E0E50824111261F1D0E0F0E50824CA
:105093000F1261F1743A1249D290150C121006E501
:1050A3000824121261F112101290864C7808120F24
:1050B300CE90150C7808120F1A90864C7808120FB0
:1050C300CE90150C7808120E057008125123800338
:1050D3001251041251627006125A8274A1F0740BB9
:1050E300026874240EF582E422F8E43FF9E8FCE94F
:1050F300FD8882F58322EA1250FE22240FF582E412
:1051030022E5081250FE3509F583E4F0A3F02212DC
:1051130074A78E828F832212511E22123EB3E8227D
:105123007A007B029013B7E0F91215CA228A828BA8
:1051330083A3A3A3A3A3A3A3A3A3A31251422212B2
:105143004975240EF582E438F58322A3A3A3A312A1
:10515300515622124975240FF582E438F583228EC5
:10516300828F83A3A3A3A3A3A312496D240FF58264
:10517300E438F58312511E492212518022F0852111
:1051830082852283E02274F612081AEAFEEBFF7A84
:10519300237B0012161EEE240AF508E43FF5098569
:1051A3000882125FAA7C237D007900121576850898
:1051B30082850983125177700302524AEEFAEFFB9C
:1051C300121F0612516260748E828F8312527D64A5
:1051D300018E828F83A3A3A3A3A3A3700712527389
:1051E300740E802112517770101264C2700B8E827C
:1051F3008F83A3A3E0A2E05007125269740D8005C8
:1052030012526974051264D4540364017007125274
:10521300517405800B901526E0C0E0125251D0E086
:1052230012528CF58388821255E78508828509839B
:1052330012495D125F3E38F583E9800E8508828549
:1052430009831260238003125F66F0023EA48E82FC
:105253008F83A3A3A3A3A3A3A3A3A3A312526322F2
:10526300E0125F85A3228E828F83A3A3A3A3A3A3AC
:1052730012496D125F4438F58322A3A3A3A3A3A30A
:10528300A3A3A3A3125142E02212529022126A1343
:10529300F8A3E022EA12529F3BF58322240CF58205
:1052A300E42274F112081A74E4120DD98A0C8B0DDE
:1052B3008C088D097A237B0012161E8A0A8B0BAE8B
:1052C3000AAF0BEA4F70030255A2125F4AE50824A6
:1052D300151255D3687003A3E0698E828F8370041F
:1052E300740280027401F0E508240DF8E43509F92D
:1052F3008882F583E0FAC3E49AFA95E0FB1255CF6E
:105303002AFAA3E03BFB8E828F83A3A3A3A3125BA2
:10531300A88E828F83A3A3F0EE2420F582E43FF5C9
:1053230083E4F0EE2421F582E43FF583E4F0EEFA22
:10533300EFFB121FBA8508828509831255EE7009A7
:105343008E828F83A3740580069015261255DCF098
:10535300EE2417F50AE43FF50B8E828F831255E78F
:10536300E9850A82850B83F0EE2416F8E43FF9E51C
:1053730008240EFAE43509FB888289831249BAE5C9
:10538300082410FAE43509FB850A82850B83E0FCC7
:1053930088828983E0F88A828B83E0C398C39CF870
:1053A300125628F0EEFCEFFDAA0CAB0D121F00E91C
:1053B300F50B8E828F83E064027006125B7F1255B9
:1053C300ACE50B6003025599750C00750D00901741
:1053D30049E064016005E06402703F1255BE600855
:1053E300EE24211255C170328E828F83A3A3A312A0
:1053F3005F6C1255F4EE24161255BA12561DFAE4D8
:1054030039FB123CACEA4B60111267CE120D441209
:105413005602AA0C126C6C120D25EEFAEFFB121F4A
:10542300C6E9F50B901749E064016008E064026087
:105433000302558CE9700302558CE50C450D70038E
:105443000255998003850E0B1255BE600BEE242185
:105453001255C16003025592850B0E850C08850D0C
:1054630009750A007808120D441256028E828F8342
:10547300A3A3A3A3127985120D25EE24201255BAF6
:10548300600D1255C774681249D2EE24208015EEC0
:1054930024211255BA60151255C77403F0A3740181
:1054A300F0EE2421F582E43FF583E4F0EEFAEFFB1E
:1054B300121FC6E9F50B70907C137D007900740907
:1054C300120DB1121576741A12104174011256336B
:1054D30064687002A3E0704F8E828F8312514EE096
:1054E300640560030254487C0879FF8E828F83A38E
:1054F300A3A3A3E0242A125BC4121600E9700302DB
:1055030054487C087D0079FF7401120DB1121576A1
:105513007401120DB97A007B0079AB121EE2741983
:1055230012104174FC80151255C7E064037004A384
:10553300E064017008741912104174FFF0E4F50877
:10554300F5097808120D487402120DB9741312107C
:1055530041AA82AB831260A9120D2585218285227F
:1055630083E0602B7409120DA98808890978081251
:105573000D487508137509007808120D487C007DE5
:105583000012691C120D258006E50C450D6007AA63
:105593000CAB0D121624EEFAEFFB121624800375E2
:1055A3000B10A90B741C02759CEE2406FAE43FFB56
:1055B30012172022EE240C12563B22EE2420125600
:1055C3003B640122EE1250FE3FF58322E508240ED0
:1055D300F582E43509F583E0221255E1A322E08E3A
:1055E300828F8322A3E0F912200822E0540364018E
:1055F300221255F822E0FAE82AF8E43400F9228E60
:10560300828F83A3A3A3125F701255F8EE241612A0
:10561300563B12561DFCE439FD22FAE82AF8E43918
:10562300F9E824042212562C221264E3A3A3A32232
:10563300F012563822EE240FF582E43FF583E02280
:105643007901020CF074F412081AEAFEEBFF8A8265
:10565300F583A3A3A3A3A3A3A3A312495D2424F5C2
:1056630082E438F5831255EE702E8A828B831252B0
:105673007D7025125716E06405701D125716A3E0BE
:10568300F87401686005740668700712513074027B
:1056930080051251307403F0EA240A126017125F76
:1056A30080E4F0EA2408F8E43F1230062431F5825E
:1056B300E43AF583E0C0E0126CB7A3A3D0E012573D
:1056C30035CA242EF582E43AF583E0C0E0126CB7C4
:1056D300A3A3A3D0E0125C5BC812571038123EA9F3
:1056E300126CB712572A8A0A8B0BAC0AAD0B8508CA
:1056F30082850983125BC11217208508828509837D
:10570300124B65121FC6126012F002301C240BF5F7
:1057130082E4228A828B83A3A3A3A3A3A3A3A312BA
:1057230064A9F583888222A3A3A3A31249FC1221AF
:105733003422125B9DFAA3E022025643C082C08347
:10574300901500740CF0A3741FF09015027418F0F8
:10575300A3741FF0901504741EF0A3741FF090152A
:10576300067412F0A3741FF0025A4674F412081A56
:10577300EA2408FEE43BFF8E82F58312511A125F7E
:1057830056E0F50874035508F509125BBCF8A3E06D
:105793008882F583E508F0A3A882A983E509600957
:1057A30074026509600302585B740C5508FC600AB7
:1057B30074086C600574046C7026740265097006C5
:1057C300E508A2E4401A8A828B83A3A3A3A3A3A31D
:1057D300A3A31259611266AF3D1258FCA308A98313
:1057E300740C6C701C12595D24281259492428F535
:1057F30082E43DF583A31262DDF0E82402F8500150
:1058030009740265097006E508A2E4404B12595D6C
:10581300242A125949242AF582E43DF583A3125917
:105823000B1259671262DD125967A3125903E82458
:1058330004F8500109EC600F74086C600A740C6C76
:10584300600574046C7011125F8D2426F582E43CAC
:105853001258FCA3A882A9838A828B83A3A3A3A340
:10586300A3A3A3A312592B54037014E508A2E14088
:105873000E125F8D1258F63CF583E05480600812D7
:1058830059111258FE80199014D4E0C0E012591136
:10589300D0E012593E8882898312593E04125BA2DA
:1058A300A3A882A983E508A2E750458E828F8312BD
:1058B300592B88828983125944125930540360301A
:1058C300125F8D2434F582E43C1262DBF0E508A21A
:1058D300E1501D8A828B83A3A3A3A3A3A3A3A31233
:1058E300300B2435F582E43A1262DBA3F0E824039B
:1058F30002301C241EF582E422F58312590BF02298
:1059030012590BA3A3A3F022E088828983228A82FF
:105913008B83A3A3A3A3A3A3A3A3E0FCA3E0CC240F
:1059230032F582E43CF58322E012593022FCA3E0F5
:10593300CC2425F582E43CF583E022F09014D4E0F6
:10594300221264DFE022F582E43DF58312590B1243
:105953005956221264E3125961228E828F83E0FD2D
:10596300A3E0CD22A3125956242CF582E43DF583FE
:1059730022C082C0838A828B83125A36FC74035CF2
:10598300F98A828B83A3A37401F0E9600574026929
:105993007061740C5CF8600A7408686005740468CC
:1059A30070137402697005ECA2E440098A828B8348
:1059B300A3A37402F0740C68700A8A828B83A3A376
:1059C300E02402F07402697005ECA2E440258A82A7
:1059D3008B83A3A3E02404F0E8600F740868600AD3
:1059E300740C68600574046870098A828B83A3A3AE
:1059F300E004F0ECA2E7502A8A828B83A3A3E0049D
:105A0300125A3C123515E0540360178A828B83A324
:105A1300A3E004F0ECA2E150098A828B83A3A3E004
:105A230004F08A828B83A3A3E004F080168521828D
:105A3300852283125263A3E022F08A828B83E022C1
:105A4300120D25D083D082020CF0C082C0838A82DB
:105A53008B83A3A3A3A3A3A3A3A3A3A3125177609D
:105A6300098A828B83A3A3125A6F80D7A3A3A3A30C
:105A7300A3A3A3A3125A7B22124B6D121624221244
:105A83005A8622EE240CF582E43FF5832274F61243
:105A9300081A74F4120DD9125BCBFCA3E0F5838CC6
:105AA30082A3E0C0E07402121041D0E0125C7912CC
:105AB3005C627404121041126C457402121041E0CE
:105AC30064047014125BE12412125BC47406121096
:105AD30041125BA8241A8035E064016005E0640686
:105AE3007039EA2402F8E43B123006125B8B3AF574
:105AF30083E0C0E07403121041D0E0125B992413D9
:105B0300125BC47406121041125BA8241B125C6260
:105B13007408121041E8F0A3E9802B7406121041B7
:105B2300E4F0A3125BDC2412125BC474081210416C
:105B3300125BB5C8241AF582E438F583E0C0E0743B
