:020000040000FA
:06000000021392020863E6
:03002B000210F5CB
:03003300020F9128
:030053000207920F
:100083000207F401010000000000F8FF07FFFF0072
:10009300000504000000030001FFFFFFFF0005301F
:1000A3007500000020FD000206FFFF1E0A00190074
:1000B300010000770123162916B91C000000000077
:1000C300000000000000000000000000000000002D
:1000D300000000000000000000000000000000001D
:1000E3000000000000951C0000000000000000005C
:1000F3000000000000FF00000000000000000000FE
:10010300000001000104010C000205278603698633
:1001130001040000C113000000E8030000FFFF1208
:10012300140188130000E80300002C012C01BC0219
:10013300A0BB0D00A0BB0D00020202070401051EB7
:1001430002051E020A0A010108080103B80B028016
:100153003E0102FEFFE8030A050001FFFF020A0158
:100163001401E00100B0423BAAB83F0000003F8CFD
:10017300906339AA0CA33A00941E3C8042633DCF9E
:10018300FE753E1572313F0000803FF304353F801A
:1001930096184B000080BF2292D43EDD9B2A3F0479
:1001A300000040FFFF7F7FFFFF7FFF0100803418C7
:1001B30072313F050301010F030003000300030035
:1001C3000300030003000300030005000A001400FA
:1001D30028004F009E000000292F00000000FD2D85
:1001E30000000000FF000000FF001213C060461271
:1001F30013DE603DE9687008F618F618F618F62263
:10020300748067F7120221090909748067F72212C3
:1002130013DE601D1213C07005191919801A12120A
:100223006D701F121281C37003E6673319191940E9
:10023300071818182208080874FFF618F618F61895
:10024300F622121281601712145E702192F01214BA
:100253004C7019501720F014080808090909E7F62B
:100263001819E7F61819E7F61819E7F62212144CCD
:1002730060E6E869701F0808E62480F608E436F6AD
:1002830018547FB47F0CE654806007F6E418F61820
:10029300F622181822E9C6CC08C6CD08C6CE08C671
:1002A300CFC0E0E8C0E0EAC0E0EBC0E009E9F8094C
:1002B300E7FA09E7FBE6F918E6F8C3EC98ED99EEDF
:1002C3009AEBC2E7F5F0EFC2E795F0500E600CEB46
:1002D300CFFBEACEFAE9CDF9E8CCF8EAA2E7D2E718
:1002E300FAEB33FB13F5F0EEA2E7D2E7FEEF33FFB1
:1002F300C5F013A2E730E601B313C5F0C3C0E0C0F5
:10030300F07F00C39BFB605E9418600F401D146078
:100313001AD0E023F9D0E0F80203F38AF0E9486049
:1003230003D2F0E4AFF0FAF9F8803BEB30E40D8947
:10033300F0EA6003D2F0E4AFF0F9CAF8EB30E30D72
:1003430088F0EF6002D2F0AFF0E4CAC9F8EB5407CB
:100353006014FBC3EA13FAE913F9E813F8EF135037
:1003630002D2E0FFDBEDD0E0C0E030E739C3E49F29
:10037300FFF5F0EC98FC42F0ED99FD42F0EE9AFEA9
:1003830042F0D0E0F9D0E0F8E5F0607AE923F9EE45
:1003930020E742D8028067C3EF33FFEC33FCED3331
:1003A300FDEE33FE80EAEC28FCED39FDEE3AFED09B
:1003B300E023F9D0E0F84002801BC3EE13FEED13F7
:1003C300FDEC13FCEF135002D2E0FF08B800067FE8
:1003D3007F74FF802EEF3350178CF020F0026010F3
:1003E3000CBC000C0DBD00080EBE000408E860DF65
:1003F300E933E813FFEE2313FE4F4D4C8008E95415
:1004030080FFE4FEFDFCEE33EF33F47004FCFD7E6D
:1004130080D0E0FBD0E0FAD0E0F8D0E0CFC618CE31
:10042300C618CDC618CCC6F9221213DE70041818EC
:1004330018221213C0700D74FFF61819F61819F666
:100443001819F622E7548066F612144C700F121432
:100453005E70F014F608F608F608F680D112145E02
:10046300700CF608F608768008E6447F80EC1212DA
:1004730084700C12127060BFE65480F6E480BB12E5
:100483001270700519191980A5E869700C763F1868
:10049300768018F618F6E8F922E6CDC0E018ECC02D
:1004A300E0E633CD33CDD313F6E719FCE71919335F
:1004B300CC33C3947F400ECD9D502408E65480F680
:1004C300E418F6800FF4043D14501408E6447FF654
:1004D300187680E418F618F6D0E0FCD0E0FD22CCC4
:1004E300D313CCFD18E4C6CBC0E018E4C6CAC0E001
:1004F3000808ED08C633E613F618E433C675F003AF
:10050300C3CA97CA09CB97CB199C40047D08802E98
:10051300BD00030205D516B6FF050606081618C367
:10052300CA33CACB33CB33CA27CA09CB37CB193C1F
:10053300C37D08803E187D0820E75CC633C6CA33F6
:10054300CACB33CB33DDF1D5F0EB30E77BCA97CAA7
:1005530009CB974ACB199C406F4B7025E620E021CD
:100563008066187D08C3CA97CA09CB97CB199CD359
:10057300C633C6CA33CACB33CB3350C9DDE7D5F054
:10058300E1D3E4C636C608C636C608C636C608C6AC
:1005930036C61818188031C3CA97CA09CB97CB1926
:1005A3009CB34097C633C6CA33CACB33CB33DD348F
:1005B300D5F02EC6A2E0C640C8CA27CA09CB371950
:1005C3004A70BECB3CB480B90808E63308E6336012
:1005D3001F181818D0E0FAD0E0FBD0E0FCD0E0FD03
:1005E30022187D08CA27CA09CB37CB193CD3808090
:1005F30013F618E4B67F11F618B6FF0EF618C60404
:1006030070D20808768080CAF618F618F680C500FE
:100613001213DE604F1213C06012E7548066F612A5
:10062300126D701112145E703B090909F4F618F685
:1006330018F618F622121281701512144C080808C5
:1006430060EAE6447FF618768018E4F618F622127C
:10065300144C601612145E7012E4F608F608F608DD
:10066300E65480F609090918181822EAC0E0EBC01D
:10067300E0ECC0E0EDC0E0E687F0A4FBACF008E6F8
:1006830087F0A42CFCE435F0FA1809E687F0A42CD3
:100693004B60027401CA35F0FCE433FB09E687F0D2
:1006A300D2F7A42CCB35F0FC1908E687F0A42BCCA9
:1006B30035F0FBE433FD0819E687F0D2E7A42C4AB2
:1006C300CB35F0CD3400FC09E687F0D2E7A42DCC7E
:1006D30035F0FDE433FA0918E687F0D2F7A42CCD00
:1006E30035F0CA3400FC08E687F0D2E7D2F7A42A33
:1006F300CC35F07A7E20E70B0ACB33CBCD33CDCC90
:1007030033CC33CB3350147004ED30E00ED2F1E42C
:10071300CD3DCDCC3CCC3B5005DA05C2F1EB547F4B
:10072300C63308E63392F0FBE73309E733C39A5045
:100733002D2B70190C0D4C4D70151806E608C3339C
:10074300700D20F10AA2F013F6E418800B4024E4A4
:10075300F630F002768018F618F618F68024D33BAC
:1007630014501074FFA2F013F6187680E418F618EC
:10077300F6800FA2F013F618E63303F618ECF6181A
:10078300EDF6D0E0FDD0E0FCD0E0FBD0E0FA22C0F3
:10079300E074F1120BF4A2AFE433F509D2AF85A7ED
:1007A30008AFA1EF5508FE74105E600612170775B7
:1007B300A1EF74085E600812170D75A1F78024EF8E
:1007C300A2E092F0E508A2E082F05017906198E071
:1007D300F89005A2E0C398A2D265D0335002E8F0A6
:1007E30075A1FE752300E509A2E092AF7F02020C1A
:1007F30053C0E074F2120BF4A2AFE433FED2AF9015
:1008030061A4E0F8759B00E5915854086008759160
:10081300F712175B8023E59158541060087591EF28
:100823001217618014E591A2E092F0E8A2E082F051
:100833005007E0C2E0F01218B79061A3E0F8E5E9D1
:10084300585404600E12188D75E9FB906193E0A271
:10085300E640F2752300EEA2E092AF7F01020C5353
:10086300C0E074F2120BF4A2AFE433FED2AF906196
:10087300A5E0F8E5BF585404600675BFFB1218CF16
:1008830080D11208D030F03912091580341208D003
:1008930020F01430E72B74FFFCFBFA747F8022E412
:1008A300FCFBFA7480801AB48008BC00F2BB00EF32
:1008B300800F50EBF9E4C39AFAE49BFBE49CFCE45D
:1008C30099C6CC18C6CB18C6CA18C6F922E4C9C63D
:1008D30008CAC608CBC6D3330308CCC63392F0C3C9
:1008E300947F402E94184019C9B90704CACBCC226F
:1008F3005025C309CA33CACB33CBCC33CC33D9F459
:1009030022F4600DC9CCC313CB13CBCA13CAD9F6D7
:10091300CC22E4FCFBFA2214FCFBFA22C3E498F891
:10092300E499F91209608026C3E49AFAE49BFBE98F
:1009330020E7E9120960E498F8E499F922C3E498FE
:10094300F8E499F9120960E498F8E499F9C3E49A90
:10095300FAE49BFB22EB20E7CFE920E7E0B90010A4
:10096300BB0008E88AF084F8AAF022E4FBC8FA2264
:10097300EB70227B10C833C8C933C9335007C39AFD
:10098300C3DBF280069A50012ADBEAC833F4C8C9F4
:1009930033F4C9FA2275F008E4C833C8C933C9333C
:1009A300C99AC99B5004C92AC93BD5F0ECFBC8338B
:1009B300F4C8E4C9FA22080808EAC0E0EBC0E086FC
:1009C300F0E7A4FA180986F0E7A42AFA180986F0D2
:1009D300E7A42AFA180986F0E7A42AFA1986F0E7A9
:1009E300A4FBE5F02AFA190886F0E7A42BFBE5F04F
:1009F3003AFA190886F0E7A42BFBE5F03AFA18183F
:100A03000986F0E7A4C5F02BFBE43AFA1908E7C519
:100A1300F0C6A426F6E5F03BFBE43AFA1886F0E7C5
:100A2300A4F6E5F00826F6E43B08F6E43A08F6D027
:100A3300E0FBD0E0FA22080808E630E7111212457D
:100A4300120A51080808C64480C618181822181834
:100A530018E9799EC608CAC608CBC608CCC6C370B7
:100A6300207996CACBCC7019798ECBCC701379864A
:100A7300CC700EF9802ACA33CACB33CBCC33CC33F8
:100A83001930E7F2CCCBCA3350147004EA30E00DCE
:100A9300E4CA3ACACB3BCBCC3CCC500209C3E913E2
:100AA300C6CC182313C6CB18C6CA18C6F922E4CF7E
:100AB300C0E0E4CEC0E0E4CDC0E0E4CCC0E075F03B
:100AC30020E626F608E633F608E633F608E633F6BC
:100AD300181818EC33FCED33FDEE33FEEF33FFC390
:100AE300EC9709ED9709EE9709EF97191919400F3C
:100AF300FFEC97FC09ED97FD09EE97FE191906D552
:100B0300F0BFECF709EDF709EEF709EFF71919193B
:100B1300D0E0FCD0E0FDD0E0FED0E0FF222521C5EF
:100B230082C0E0E52234FFC583C0E0E521C395829E
:100B330024F810AF088583228582218008858322CB
:100B4300858221D2AFCEF0A3E520F0A37808E60892
:100B5300F0A3DEFAEFF0A3E58124FAF8E608F0A3A8
:100B6300E608F0A3E608F0A30808E608F0A3E60801
:100B7300F0A315811581D0E0FED0E0F81581158131
:100B83001581E8C0E0EEC0E022121437B900030279
:100B93000BDEE490050178AF79128002F0A3D8FC54
:100BA300D9FA78239000867A01BA00028007E49389
:100BB300A3F608DAF97AAF7B169000877867790293
:100BC3008015E493A3AD82AE838A828B83F0A3AABC
:100BD30082AB838D828E83D8E9D9E77582057583CD
:100BE300EA74041210D775822F75832B74001210C8
:100BF300D7C0D02521C582C0E0E52234FFC583C01C
:100C0300E0E521C3958224F310AF08858322858212
:100C1300218008858322858221D2AFC8F0A3E9F021
:100C2300A3EAF0A3EBF0A37908E709F0A3D8FAEC61
:100C3300F0A3EDF0A3EEF0A3EFF0A3D0E0F0A3D088
:100C4300E0F0A3D0E0F0A3E520F0A3E5F0F0A322C9
:100C5300852283852182E0C0E0A3E0F9A3E0FAA323
:100C6300E0FBA37808E0F608A3DFFAE0FCA3E0FDCD
:100C7300A3E0FEA3E0FFA3E0C0E0A3E0C0E0A3E0A5
:100C8300F5D0A3E0F520A3E0A3F5F010AF0885832A
:100C9300228582218008858322858221D2AFD0825A
:100CA300D083D0E0F8D0E032121248181818120A94
:100CB300B1121341191919221213411919190808EC
:100CC30008E618181820E7E0120AB112124818189B
:100CD3001822090909E719191920E7DC080808E6A9
:100CE30018181820E703020AB1121248181818122C
:100CF3000AB112124818181812134119191922E4CB
:100D03007375F0108E248F2585822985832885218C
:100D130082852283E0CEA3E0CF852982852883EBD9
:100D2300C9EAC8EDCBECCAC3E833C8E933C9EA332F
:100D3300CAEB33CBC3EA9EF527EB9FF526B35004EA
:100D4300AB26AA27EC33CCED33CDD5F0DAAE24AF06
:100D530025221213DE601C1213C0601712144C708C
:100D63000712145E7001D322C0D012145E7006D035
:100D7300D0B322C32233D0D0501430E0F6C3E79669
:100D83000809E7960809E7960809E796B32220E0E1
:100D9300D5E6970809E6970809E6970809E697B3A1
:100DA30022D083D082ECC0E0EDC0E0E493A3FCE466
:100DB30093A3FDED4C600D120EC8EC24FFFCED3443
:100DC300FFFD80EFE493A3FCE493A3FDED4C600DE2
:100DD300120FBCEC24FFFCED34FFFD80EFD0E0FDEF
:100DE300D0E0FCE493A3C0E0E493C0E0221213DE5E
:100DF300601B1213C0601612144C700712145E604D
:100E03000CB322C0D012145E7005D0D022C322339B
:100E1300D0D0501330E0EBC3E7960809E7960809F2
:100E2300E7960809E7962220E0E4E6970809E697A3
:100E33000809E6970809E69722D083D082E9C0E043
:100E4300E493A3C386F0C5F095F0F908E493A38671
:100E5300F0C5F095F0700BE493A3C3994005E90442
:100E63008002A3E475F002A42582F582E5F03583C0
:100E7300F583D0E0F9E493A3C0E0E493C0E02285D6
:100E83002283852182E0A3FEE0A3F5207808E0A376
:100E9300F608DFFAE0A3FFE0A3C0E0E0A3C0E0E0D0
:100EA300A3C0E0E0A3C0E0E0A3C0E010AF088582E8
:100EB300218583228008858221858322D2AFD08336
:100EC300D0820210DDC0E0C3E493960874019396C8
:100ED30018400FE493667008087401936618700055
:100EE3007019A3A3C3E49396087401939618A3A35C
:100EF300400DD0E0D0E0D0E0020DE0A3A3A3A3A374
:100F0300A3D0E0227404800474028000CCC0E0ED1E
:100F1300C0E0E521C39CCCAD2250011D10AF068C6F
:100F2300218D2280068C218D22D2AF121059D0E060
:100F3300FDD0E0FC2274028000CCC0E0EDC0E0E50F
:100F430021C39CCCAD2250011D10AF068C218D22F4
:100F530080068C218D22D2AF121037D0E0FDD0E075
:100F6300FC221213DE60251213C0602012144C7091
:100F73000302145E080808E76670101819E7667024
:100F83000A1819E76670041819E76622F422C0E00C
:100F930074F2120BF4A2AFE433FED2AFE58BA2E0FE
:100FA30050057904121641758B00C2E8752300EED3
:100FB300A2E092AF7F01020C53C0E0C0F088F0E4DE
:100FC300936670080874019366187000A8F0A3A3D1
:100FD300700BD0F0D0E0D0E0D0E0020DE0A3A3D0BE
:100FE300F0D0E022D083D082CCC0E0E493A36006AB
:100FF3001210B81470FAE493A360061211C61470A9
:10100300FAD0E0FCE493A3C0E0E493C0E022C0087C
:10101300C3E096F50808A3E096420808A3E09642C9
:101023000808A3E0964208A2D265D033E508700110
:10103300D3D00822CAC0E0E493A3C582CCC582C53D
:1010430083CDC583F0A3C582CCC582C583CDC583BB
:10105300DAE5D0E0CA22CAC0E0E0A3C582CCC582EB
:10106300C583CDC583F0A3C582CCC582C583CDC559
:1010730083DAE6D0E0CA22C008C3E096F50808A3E5
:10108300E096420808A3E096420808A3E0964508C4
:101093007001D3D0082270090808082260161818B6
:1010A30018C6C333C608C633C608C633C608C63314
:1010B300C6D5E0EA22C0E0E493A3D39C5010E493A6
:1010C300A3C39C400AD0E0D0E0D0E0021004A3A365
:1010D300A3D0E022C09FF59FE473D09F22D083D09A
:1010E30082C09FE493C0E0740193C0E0740293F55F
:1010F3009F22C0E0C0D0E8C0E0A8A8D2AFC2C775A5
:101103002300E8A2E792AFD0E0F8D0D0D0E03225B8
:1011130021F58210AF08F521400C15228008F52136
:1011230040021522D2AF8522832200C0D025211090
:10113300AF08F521500C05228008F5215002052245
:10114300D2AFD0D0227404800A7403800674028064
:10115300027401C0E0F404121112D0E01213FA2257
:10116300BB0102E722C082C08389828A83BB00035A
:10117300E08002E493D083D082226016080808C678
:10118300C313C618C613C618C613C618C613C6D5C6
:10119300E0EA222521F8E43522F9222521FAE43573
:1011A30022FB222521FCE43522FD22C3E0C696F66C
:1011B30008A3E0C696F608A3E0C696F608A3E0C621
:1011C30096F622C0E0E493A36C7009D0E0D0E0D09F
:1011D300E0021004A3A3D0E022252110AF08F521DB
:1011E300400C15228008F52140021522D2AF22E0DF
:1011F30066701008A3E066700A08A3E0667004082E
:10120300A3E06622C3E09608A3E09608A3E096084D
:10121300A3E096A2D265D03322E76670100809E7EF
:1012230066700A0809E76670040809E76622C3E0E6
:1012330096F008A3E096F008A3E096F008A3E096E2
:10124300F022181818E4C396F608E496F608E49614
:10125300F608E496F622C3E697F60809E697F60839
:1012630009E697F60809E697F622181818E60846DD
:10127300087009E626087005E633F42208221919D6
:1012830019E70947097009E727097005E733F422CD
:101293000922C3E493960874019396087402939603
:1012A300087403939622E627F60809E637F6080939
:1012B300E637F60809E637F622700422600D18C6F1
:1012C300C333C608C633C6D5E0F41822E657F6087A
:1012D30009E657F60809E657F60809E657F622E045
:1012E30056F608A3E056F608A3E056F608A3E05620
:1012F300F622E026F608A3E036F608A3E036F60861
:10130300A3E036F622E026F008A3E036F008A3E0D7
:1013130036F008A3E036F022E056F008A3E056F0DA
:1013230008A3E056F008A3E056F022E647F60809C2
:10133300E647F60809E647F60809E647F622E4C356
:1013430097F709E497F709E497F709E497F7226019
:101353000D08C6A2E713C618C613C6D5E0F322C606
:10136300F4C608C6F4C608C6F4C608C6F4C622C343
:10137300E09608A3E09608A3E09608A3E09622C3AC
:10138300E7960809E7960809E7960809E79622759C
:10139300D00075813F75210175220500020B8C6019
:1013A3000C08C6C313C618C613C6D5E0F422E6F06C
:1013B30008A3E6F008A3E6F008A3E6F022E709474E
:1013C30009C3134709336002E733F422E0F608A3A5
:1013D300E0F608A3E0F608A3E0F622E6084608C311
:1013E300134608336002E633F422800100E9F874FF
:1013F300FF28F90470F622CAC0E0E6F0A308DAFA7F
:10140300D0E0FA22E0F8A3E0F9A3E0FAA3E0FB229C
:10141300E8F0A3E9F0A3EAF0A3EBF022EAF0A3EBF0
:10142300F0A3ECF0A3EDF022E0FAA3E0FBA3E0FCD1
:10143300A3E0FD22E5C754F84401F5C7790122254D
:1014430021F582E43522F58322E62618461846184C
:101453004622C2AF75D69F02000022E7271947191B
:10146300471947221210E0E1F5011210E073F6016B
:101473001210E04CF7011210E0A8F7011210E00679
:10148300F8011210E079F8011210E0BDF801121012
:10149300E015F9011210E037F9011210E0C7F90164
:1014A3001210E058FA011210E0A4FA011210E0D071
:1014B300FA011210E011FB011210E0B0FC0112104E
:1014C300E092FD011210E067FE011210E0F9C10382
:1014D3001210E08DC2031210E0F5C2031210E01ADD
:1014E300C4031210E0A4C4031210E02FC5031210AA
:1014F300E06BC5031210E004C6031210E099C603A3
:101503001210E06CC7031210E04EC9031210E00280
:10151300CA031210E0F8CA031210E097CB031210AB
:10152300E0ECCB031210E05ACC031210E066CF03B9
:101533001210E090D1031210E091D2031210E0CF09
:10154300D3031210E0DAD3031210E0E1C704121040
:10155300E00DC8041210E02DC8041210E054C804B2
:101563001210E09BC9041210E0CEC9041210E08DE2
:10157300CA041210E027CB041210E021FA0412105F
:10158300E026FA041210E059FA041210E0EADE042D
:101593001210E0B1DF041210E0C3DF041210E033D5
:1015A300E0041210E004F5041210E015F504121023
:1015B300E0B3F5041210E0BEF5041210E0D8F50410
:1015C3001210E0F57F001210E0DF7F001210E0E759
:1015D300F5041210E0F7F5041210E00CF6041210F3
:1015E300E0C0F6041210E0FFF2041210E083F304EB
:1015F3001210E0EBF3041210E077DC041210E09514
:10160300DC041210E0CADC041210E0EFDC04121058
:10161300E012DD041210E04DDD041210E07ADD0467
:101623001210E0C1DD041210E060DE041210E0B31A
:10163300EF041210E03AF0041210E043F004121029
:10164300E06AF0041210E0B2F0041210E0C9F004F2
:101653001210E095C0041210E0A3C0041210E01CA5
:10166300C1041210E0F5C1041210E0B8C304121053
:10167300E007C4041210E045C4041210E0F87F0030
:101683001210E0F8E7041210E030E8041210E07ED4
:10169300E9041210E002EA041210E08BA504121010
:1016A300E0B7A5041210E021A8041210E061A80419
:1016B3001210E09DA8041210E0B1A8041210E0CAB1
:1016C300A8041210E0BCA9041210E06FAA041210BF
:1016D300E083AA041210E0477E001210E06B7E0044
:1016E3001210E0847E001210E0C27E001210E0F2BD
:1016F3007E001210E01F7F001210E0297F001210FD
:10170300E08F7F001210E0927F001210E09C7F00B8
:101713001210E0A97F001210E0D0D9041210E0F0FB
:10172300D9041210E02FDA041210E04DDA0412107B
:10173300E068DA041210E0CEDA041210E0DADA0418
:101743001210E037DB041210E046DB041210E06AEB
:10175300DB041210E02BDC041210E038DC0412105E
:10176300E049DC041210E066F7041210E0AEF7045F
:101773001210E0DAF7041210E0D9AA041210E033D1
:10178300AC041210E041AC041210E054AC0412108B
:10179300E069AC041210E07EAC041210E091AC04DA
:1017A3001210E00DAD041210E072AD041210E0FA55
:1017B300AD041210E072AE041210E04BAF0412102D
:1017C300E05BAF041210E06AAF041210E0CDF60440
:1017D3001210E0F1F6041210E019F7041210E041C0
:1017E300F7041210E056E1041210E07DE104121038
:1017F300E09BE1041210E00AE2041210E046D40474
:101803001210E05FD4041210E06BD4041210E07FD6
:10181300D4041210E09DD4041210E0A7D4041210D3
:10182300E0B1D4041210E0C4D4041210E04AD50489
:101833001210E0BFD5041210E0EED5041210E03C04
:10184300D6041210E08BD6041210E0A6D6041210B0
:10185300E0B0D6041210E0C1D6041210E004D7049D
:101863001210E0BBF8041210E006F9041210E0179E
:1018730095041210E04395041210E06095041210D1
:10188300E07395041210E08E95041210E0E89504BD
:101893001210E01696041210E0269A041210E08447
:1018A3009B041210E0B69B041210E0199C04121062
:1018B300E0859D041210E0AD9D041210E0C29D046A
:1018C3001210E0D29D041210E0129E041210E05494
:1018D3009E041210E0649E041210E083EE041210C2
:1018E300E09DEE041210E0C5EE041210E0DEEE04FB
:1018F3001210E002EF041210E020EF041210E037A0
:10190300EF041210E065EF041210E080EF041210F0
:10191300E041FF011210E085FF011210E058C404FA
:101923001210E068C4041210E06DC5041210E09FA9
:10193300C5041210E0CFC5041210E0F2C504121062
:10194300E009C6041210E043C6041210E0A8C6045E
:101953001210E0EAC6041210E031C7041210E05E70
:10196300C7041210E089C7041210E0EDEB04121053
:10197300E0FFEB041210E013ED041210E016ED0487
:101983001210E0F9F1041210E02FF2041210E047F4
:10199300F2041210E089F2041210E099F20412101A
:1019A300E0DDF2041210E0E7F2041210E0949E046A
:1019B3001210E0D79E041210E03C9F041210E05B6B
:1019C3009F041210E0FD9F041210E006A004121001
:1019D300E057A0041210E080A0041210E08DA004D0
:1019E3001210E0FFA0041210E08DA1041210E0D247
:1019F300A1041210E00BA2041210E070A204121052
:101A0300E099A2041210E010A3041210E05FA304F3
:101A13001210E09CA3041210E0D1A3041210E0E31F
:101A2300A3041210E0F5A3041210E014A40412108E
:101A3300E01DA4041210E0DEA4041210E021A504AA
:101A43001210E05FA5041210E012F9041210E04333
:101A5300ED041210E0ABE3041210E0E1E304121012
:101A6300E029E4041210E082E5041210E0DEAD0385
:101A73001210E004AF031210E040AF031210E0FEB7
:101A8300B0031210E02CB1031210E096B30312104E
:101A9300E0D6B3031210E078B5031210E00EB603DC
:101AA3001210E068B6031210E0F8B6031210E03C1F
:101AB300B7031210E07EB7031210E0E3B80312106D
:101AC300E063BA031210E0A4BC031210E0D2BC031B
:101AD3001210E0FEBC031210E007BD031210E06415
:101AE300BD031210E0FDBD031210E014C103121078
:101AF300E09AC1031210E034FF021210E04CFF021F
:101B03001210E056FF021210E0ACFF021210E015B3
:101B1300B4041210E02BB4041210E0CCB40412107D
:101B2300E00BB5041210E028B5041210E059B50417
:101B33001210E0A6B5041210E0DAB5041210E01595
:101B4300B6041210E012B8041210E078B8041210B0
:101B5300E004F4041210E063F4041210E0A1F404AE
:101B63001210E0E2F4041210E06AF9041210E0002B
:101B730080021210E00C80021210E06E800212103C
:101B8300E07880021210E00781021210E043810224
:101B93001210E00282021210E05F82021210E0F1E2
:101BA30082021210E04483021210E0C28302121078
:101BB300E07E85021210E08387021210E0B88802EB
:101BC3001210E0FB89021210E0A08A021210E04E0C
:101BD3008F021210E04390021210E0D9900212100B
:101BE300E0FE90021210E09B91021210E0B8910205
:101BF3001210E0D891021210E04692021210E06334
:101C030092021210E09192021210E02F940212102D
:101C1300E05094021210E0F694021210E03E950296
:101C23001210E09C95021210E03F96021210E0A4FD
:101C330096021210E00397021210E0B197021210FD
:101C4300E02E98021210E06A98021210E0DE980269
:101C53001210E0239A021210E0AF9B021210E04E22
:101C63009C021210E08E9E021210E0F09E021210EF
:101C7300E01E9F021210E033A1021210E0D3A30270
:101C83001210E0ECA4021210E082E4031210E0A9A7
:101C9300E5031210E087E7031210E098E703121040
:101CA300E0B7E7031210E0E0E7031210E0DCEB0318
:101CB3001210E06DED031210E08AED031210E0BA8A
:101CC300ED031210E0D8ED031210E059EE031210E9
:101CD300E0FCEE031210E0A8EF031210E061F00342
:101CE3001210E0D7FF021210E065FC031210E0208F
:101CF300FD031210E086FD031210E0A7FD0312108E
:101D0300E082FE031210E003EA021210E032EA025C
:101D13001210E0AAEA021210E0B9EB021210E01569
:101D2300EC021210E082ED021210E09EED0212109E
:101D3300E0F0ED021210E033EE021210E046EE0284
:101D43001210E09EEE021210E060EF021210E0DCCF
:101D5300EF021210E013F0021210E04BF002121027
:101D6300E0DDF1021210E0BCF2021210E00AF4020C
:101D73001210E0EDF4021210E079F5021210E0B94E
:101D8300F5021210E0D8F5021210E023F602121049
:101D9300E043F6021210E0DCF6021210E062F702F2
:101DA3001210E0BDF7021210E0FDF7021210E093EB
:101DB300FA021210E0ACFB021210E0F2FB02121066
:101DC300E0E7FC021210E00FFD021210E012FD0228
:101DD3001210E01CFD021210E038FD021210E0B2F6
:101DE300FD021210E0EBFD021210E017FE021210CA
:101DF300E03EFE021210E062FE021210E0D3FE0289
:101E03001210E0E6FE021210E015FF021210E0DDF0
:101E1300F7041210E0E9F7041210E01DF8041210A1
:101E2300E0F27F001210E0AF97031210E0D29703A5
:101E33001210E01F99031210E06899031210E0D406
:101E430099031210E0329A031210E0359A0312102C
:101E5300E0869A031210E0FB9A031210E0809B03C2
:101E63001210E0839B031210E0049C031210E04560
:101E73009C031210E031A0031210E0DBA103121047
:101E8300E02BA2031210E0B2A5031210E0E5A603B3
:101E93001210E05FA8031210E0FCA8031210E0E7A1
:101EA300A9031210E03CAC031210E019D403121082
:101EB300E0C3D4031210E02ED5031210E049D5037A
:101EC3001210E0CED5031210E028D6031210E06FF3
:101ED300D6031210E0D6D6031210E0B49204121007
:101EE300E084D9031210E00CDA031210E015DC03CE
:101EF3001210E0C2DC031210E066DD031210E0955D
:101F0300F5011210E0F2DF031210E08AE103121070
:101F1300E01DE2031210E043E3031210E0D0CE020F
:101F23001210E033CF021210E07BCF021210E0BF99
:101F3300CF021210E01AD0021210E077D002121072
:101F4300E0B2D0021210E034D1021210E08ED102BE
:101F53001210E00CD3021210E08CD3021210E0E74F
:101F6300D3021210E088F2011210E022D402121000
:101F7300E07CD4021210E0F8D6021210E017D70268
:101F83001210E007D8021210E03AD9021210E0B999
:101F9300D9021210E0F5D9021210E064DA0212102D
:101FA300E019DB021210E0F1DC021210E0F8DD02AE
:101FB3001210E070DF021210E066E1021210E0DCA2
:101FC300E3021210E0B6E5021210E077E602121007
:101FD300E0EFE6021210E006E7021210E0FDE7026E
:101FE3001210E0F1E8021210E060E9021210E07E44
:101FF300CE041210E0D5CF041210E094D0041210D6
:10200300E0FCD0041210E059CB041210E074CB04AE
:102013001210E0B8CB041210E0DECB041210E0057E
:10202300CC041210E01DCC041210E0BFCC0412103B
:10203300E0D4CC041210E0F7CD041210E000CE047B
:102043001210E009CE041210E012CE041210E01CAC
:10205300CE041210E09BAF041210E0A7B3041210D9
:10206300E0ACB3041210E0AEB3041210E07AEA0459
:102073001210E067FA041210E070D1041210E0DBD2
:10208300F0041210E052F8041210E0E9E504121013
:10209300E0B37F001210E0BDBC041210E0C2F904EB
:1020A3001210E0D2F9041210E085B8041210E01700
:1020B300A9021210E04AA9021210E0B6A9021210F6
:1020C300E051AA021210E0EEAA021210E033AB02B2
:1020D3001210E055AB021210E06EAB021210E09446
:1020E300AB021210E0B6AB021210E0F4AB02121016
:1020F300E038AC021210E05AAC021210E0BCAC02A1
:102103001210E083AD021210E03AAE021210E0ACFE
:10211300AE021210E077AF021210E0CAAF02121043
:10212300E030B0021210E06AB0021210E0BCB0025C
:102133001210E02AB1021210E095B1021210E098D9
:10214300B1021210E019B2021210E0B0B202121082
:10215300E030B3021210E04FB3021210E0B3B40246
:102163001210E0C0B4021210E0CCB5021210E0D994
:10217300B5021210E0E2B5021210E0BAB702121073
:10218300E0D4B8021210E04DB9021210E0BFB90258
:102193001210E0E1B9021210E075BA021210E04920
:1021A300BC021210E020C0021210E034C002121070
:1021B300E044C0021210E04EC0021210E057C00209
:1021C3001210E060C0021210E06AC0021210E09721
:1021D300C0021210E0C0C0021210E0CBC002121005
:1021E300E0EFC0021210E013C1021210E07DC10241
:1021F3001210E0C3C1021210E0E0C1021210E05D50
:10220300C2021210E094C2021210E0D3C2021210F2
:10221300E020C3021210E0A6C3021210E074C5024C
:102223001210E0F7C5021210E0DBC6021210E04202
:10223300C9021210E09BC9021210E0E5C902121094
:10224300E040CB021210E075CB021210E0C7CB02C4
:102253001210E07CCC021210E02BCD021210E068C9
:10226300CD021210E0FDCD021210E069CE02121071
:10227300E08A31001210E0BC31001210E0EA3100B4
:102283001210E0C033001210E0A034001210E0F886
:1022930034001210E03336001210E07F36001210C3
:1022A300E0A839001210E09B3C001210E0EB3D0067
:1022B3001210E0813E001210E08D3E001210E0BFCC
:1022C3003E001210E04240001210E0F341001210F1
:1022D300E08742001210E0CA42001210E0484300B7
:1022E3001210E06543001210E09543001210E0CA9B
:1022F30043001210E09A44001210E043450012100C
:10230300E0C947001210E0E948001210E0D4490088
:102313001210E0564A001210E08A4E001210E0C775
:102323004E001210E01F4F001210E0524F00121027
:10233300E0BC4F001210E0F24F001210E07D50009D
:102343001210E0D550001210E0AC51001210E065FD
:1023530052001210E00053001210E0085600121051
:10236300E02457001210E0C75A001210E0BB5B00D4
:102373001210E0BE5B001210E0ED5B001210E0F300
:102383005D001210E0CC5E001210E00F5F0012102F
:10239300E06560001210E0A460001210E02D6100FF
:1023A3001210E06161001210E02662001210E03E9C
:1023B30064001210E0AF64001210E0EF640012102A
:1023C300E07D65001210E09F66001210E061670077
:1023D3001210E06869001210E08069001210E094A6
:1023E30069001210E0CC69001210E0FA69001210C3
:1023F300E0796B001210E09E6C001210E0FB6C00A1
:102403001210E0AD6D001210E0D46D001210E09BCD
:102413006E001210E0336F001210E05971001210B9
:10242300E08E71001210E0F171001210E0207300D1
:102433001210E0C873001210E0F973001210E011DB
:1024430074001210E0A074001210E0547700121010
:10245300E02C79001210E04879001210E064790052
:102463001210E0327A001210E0257E001210E08B89
:1024730087011210E0BD87011210E0AC8B0112102E
:10248300E0F88B011210E03E8C011210E0E08C01A9
:102493001210E03C8D011210E0818D011210E0C892
:1024A3008E011210E0DC8F011210E0CB93011210A9
:1024B300E04F94011210E05C95011210E0B8950111
:1024C3001210E0A897011210E01D98011210E027E6
:1024D30098011210E03498011210E05F9801121075
:1024E300E04699011210E0F099011210E06E9A0192
:1024F3001210E08E9A011210E0B79A011210E0D97F
:102503009A011210E0399D011210E0FF9D01121093
:10251300E0449E011210E0C19E011210E0729F017F
:102523001210E0A49F011210E0EA9F011210E026AE
:10253300A0011210E076A0011210E0CAA00112104F
:10254300E020A1011210E06CA1011210E0D9A10159
:102553001210E054A2011210E01FA4011210E01F98
:10256300A5011210E044A6011210E083A901121084
:10257300E096AC011210E053AD011210E097AD01EB
:102583001210E047AF011210E05BAF011210E065DB
:10259300AF011210E06FAF011210E07BAF01121018
:1025A300E097AF011210E042B0011210E081B001D8
:1025B3001210E08BB0011210E095B0011210E0058B
:1025C300B1011210E050B1011210E065B201121016
:1025D300E0C1B2011210E042B3011210E001B401F4
:1025E3001210E00AB5011210E03EB6011210E02C01
:1025F300B7011210E044B7011210E09FB7011210A7
:10260300E0BDB7011210E005B8011210E02CB801CB
:102613001210E0C7B8011210E08DB9011210E01FCB
:10262300BA011210E099BA011210E0B3BB01121003
:10263300E060BC011210E088BD011210E0D8BD01BA
:102643001210E03CBE011210E09EBE011210E0CC5D
:10265300BE011210E0F0BE011210E025BF011210FE
:10266300E056BF011210E089BF011210E0A9BF01BB
:102673001210E011C0011210E005C1011210E06058
:10268300C1011210E089C1011210E011C201121040
:10269300E094C2011210E0BFC2011210E0A4C30112
:1026A3001210E050F1031210E088F1031210E0A9B8
:1026B300F1031210E0EBF1031210E04DF2031210DC
:1026C300E057F2031210E067F2031210E0A2F203E4
:1026D3001210E082F6031210E06FF8031210E055B7
:1026E300FA031210E0ECFA031210E08EFB0312104F
:1026F300E0A6C5011210E024C6011210E080C60155
:102703001210E0CBC6011210E0E6C6011210E01170
:10271300C7011210E02EC7011210E03AC7011210D0
:10272300E0D1C8011210E0EAC8011210E06FC9013C
:102733001210E082C9011210E0A1C9011210E04594
:10274300CA011210E0C6CB011210E079CD011210BC
:10275300E00FCE011210E012CE011210E082CE0182
:102763001210E0A0CE011210E037CF011210E07F6B
:10277300CF011210E082CF011210E048D0011210F5
:10278300E0B5D0011210E0DBD0011210E066D101F8
:102793001210E084D1011210E0CAD1011210E07EC0
:1027A300D2011210E0C8D2011210E0F7D2011210C8
:1027B300E054D3011210E089D3011210E0B5D30124
:1027C3001210E0C3D3011210E010D4011210E08004
:1027D300D4011210E0C9D4011210E015D501121072
:1027E300E041D5011210E04CD5011210E06AD50189
:1027F3001210E055D6011210E05FD6011210E09AD4
:10280300D6011210E0AAD6011210E0B3D6011210BD
:10281300E007D7011210E01BD7011210E04AD801DC
:102823001210E061D8011210E076D8011210E00412
:10283300D9011210E049D9011210E0D5D9011210C3
:10284300E0E0D9011210E022DB011210E03DDB01D0
:102853001210E089DB011210E0F8DB011210E03105
:10286300DC011210E04BDC011210E08DDC011210D0
:10287300E05DDF011210E00AE0011210E077E001F1
:102883001210E0B7E2011210E0CFE2011210E0D221
:10289300E2011210E0DEE2011210E0F2E201121096
:1028A300E0FAE2011210E02DE3011210E02FE4013F
:1028B3001210E0B6E4011210E026E5011210E0A8C0
:1028C300E5011210E069E6011210E088E60112103A
:1028D300E029E7011210E086E7011210E089E70121
:1028E3001210E0B6E7011210E0CBE7011210E03F4F
:1028F300E8011210E08EE9011210E094EA011210CF
:10290300E01FEB011210E03AEC011210E002ED01BE
:102913001210E033ED011210E056ED011210E05FEA
:10292300ED011210E08EED011210E01EEE01121007
:10293300E0D4EE011210E049EF011210E0F0EF01D4
:102943001210E065F0011210E09CF0011210E0DAC1
:10295300F0011210E010F1011210E010F501121055
:10296300E00692041210E06991041210E05F9104F2
:102973001210E0F890041210E0E490041210E04109
:1029830090041210E0418F041210E05A8E041210CA
:10299300E04A8C041210E0588B041210E0F68A040B
:1029A3001210E0CBF4011210E037DE031210E09BAB
:1029B30097031210E09197031210E04AF2011210EC
:1029C300E01CF2011210E02697031210E057950362
:1029D3001210E01595031210E01994031210E0EDA4
:1029E30093031210E0A493031210E0E59203121074
:1029F300E0D38F031210E0948D031210E0618D0376
:102A03001210E0088D031210E09B8C031210E05AA1
:102A13008C031210E0938B031210E02D8B03121022
:102A2300E0CC8A031210E06C8A031210E04389039E
:102A33001210E0D788031210E02F88031210E02A47
:102A430088031210E01E88031210E0518403121051
:102A5300E02B84031210E0E9F1011210E06DF101A3
:102A63001210E099D8041210E096D7041210E04334
:102A7300D7041210E00FD7041210E0D194041210FF
:102A8300E0C983031210E06A83031210E02B83036F
:102A93001210E01883031210E09D94041210E00D4D
:102AA30083031210E0DC82031210E0F8800312109B
:102AB300E06B80031210E0AFF4011210E0278003F3
:102AC3001210E001D4021210E00080031210E0861D
:102AD3008A041210E0598A041210E0268A041210A4
:102AE300E0FE89041210E09F89041210E07F89043C
:102AF3001210E04A89041210E0F685041210E0DE99
:102B030083041210E0C881041210E04881041210FB
:102B1300E0F480041210E0A880041210E0008004A6
:102B23001210E04694041210E055D8030000008010
:102B3300FB0000228F0001008A178700010088171D
:102B43003500040051172500020055172600020026
:102B5300571727000200591728000100631729009F
:102B630001006417840004009D1486000100BD1653
:102B73002A00010065172B00010066172C000100D5
:102B83006A172D000800A9142E0001006B172F00EF
:102B930001006C17300001006D17310001006E1742
:102BA30032000100B11433000100B21434000100FB
:102BB3006F1736000100B314380001007017390095
:102BC3000100691783000200861763000100BF1428
:102BD3006400010067176500010068176D000100BC
:102BE300C01471000800A11466000100851743009A
:102BF300010076174400020077174500010079179A
:102C0300460002007A1747000800B7144800010085
:102C13007C174B0001007D17040001008917A100F8
:102C230001008D17370001008C17880001008B17F6
:102C33003C000100B4143D0001007117490002007B
:102C43007E1767000100C1144D00020080174E007B
:102C5300010082174F00020083173E000100751721
:102C630051000100B5145200010073175300010015
:102C7300741754000100B6140000000000000000A7
:102C830000002001858700000100200187870000E4
:102C930002002001898700000300200186870000CD
:102CA30004004201EB850000050042011C86000080
:102CB3000600420190850000070030018A8700006A
:102CC3000040420190850000FDFF21018387010040
:102CD30020002005C516010021002005C6160100AD
:102CE30000022105C7160100010221232D1702044A
:102CF300000029018D130204020229232117020473
:102D030003022923231702040602102329170504AB
:102D1300000021018F130504040221232517050454
:102D23000502212327170504070210232B17030489
:102D330000002901911303041000290193130304D4
:102D43001400280120170001363601010001020199
:102D5300000103010001040106060502000007014A
:102D630000340801000F090401010D0100FF0E08E2
:102D7300000017020000190100FF1A0100011B01E6
:102D830000FE1C0100081D0200001F0100012001BC
:102D93000001210200002301000F2402000026018C
:102DA300000127010008280200FF2A0100072B0168
:102DB30002402C0100002D0100012E0100012F0112
:102DC30000FF30010B1D310800003A0100083B01F0
:102DD300000F3C0100013D0100FF3E0400004204DE
:102DE3000000460400004A0400004E0400005204A0
:102DF3000000560400005A0400000103710301039C
:102E0300010301030103010322030203010310036E
:102E13000003000300030003000300030003420355
:102E23000003240306030003000304031203250322
:102E33002303250323030403040300030003000304
:102E43004403000300032303000365032100350348
:102E530081030003050300030003000300032503AC
:102E630023030302710230016002110270020102A6
:102E7300020202028002100261023A004100630270
:102E8300730272026202430200021302380000025C
:102E93000002040212020002000200020002040205
:102EA3000402370037003C024402000239000002EA
:102EB300000265020002350281020002050282025D
:102EC30083020002010171010101010111010101EC
:102ED3003101010101018001100161013B00140076
:102EE30063017301720162014301000113010601D1
:102EF3003D01350004011201000100010001000140
:102F030004010401330133013C0144013201360061
:102F13000001000165010001350081010001050187
:102F23008201830100010300710030016000110080
:102F33007000310220035004800010006100000083
:102F4300140063007300720062004300000013006A
:102F53000600000000000400120000000000000052
:102F6300000004000400370037003C024400000066
:102F73000000000000006500000035008100000033
:102F83000500000083000000360001000600000079
:102F93000F0000000000000000000000000003FF1D
:102FA300FF00000403FFFF0000FFFF0FF401000513
:102FB300C4040320000100000B0000000000000017
:102FC3000003010F000000000000000000000000EB
:102FD30000000000000000000000000000000000EE
:102FE300000000000000471C711C4D1C8D1B531C6E
:102FF300771C531C831C591C8D1B531C771C5F1C93
:103003008D1B00000000651C8D1B000000000000EC
:1030130000006B1C8D1B000000000000000000007E
:10302300000000000000000000000000000000009D
:10303300000000000000000000000000000000008D
:1030430000000000D51E0100D51E02004B1E0280A9
:10305300451E0300511E0400571E04805D1E05001B
:10306300631E06006F1E3100811E3300871E34006D
:103073008D1EFFFF00000300030004000800100082
:103083001F003E007B00F600EC01D703AF075D0F86
:10309300B91E713D000007ECFDFDFDECDCDCCCBC92
:1030A300ACAC9C9C8C7C7C6C6C5C5C5C4C4C3C3C0D
:1030B3002C2C1C1C03EAF5E5D5D5C5B5A59595853E
:1030C30085757565655555454535352525151505AD
:1030D3000AE72402B12405BD2407B7240C99240D63
:1030E300A524FF000000160F00000B150B020002C1
:1030F300220F3300000E0F5A6967426565416C6CFD
:1031030069616E63653039D0D1D2D3D4D5D6D7D8DF
:10311300D9DADBDCDDDEDF303016181920231A1C88
:103123001E3000034D4C4651181A250502000119A3
:103133001618161618230300303017181921301BE0
:103143001D1F30003C40423A3F3F392F47300C0EA1
:10315300020B040B0A0708000F020402010101011C
:103163000902E803000000BE040A01002400030072
:10317300E803FF04091903100F030A0C041E0828AF
:10318300020C0508151E05C082C083122A5D901427
:10319300EC7489F0A37422F09014EE748FF0A3748E
:1031A30022F09014F07495F0A37422F09014F2744A
:1031B3009BF0A37422F0025EC574F7120B209014E7
:1031C300E0E4F0E99014DFF07CB77D147AE17B143E
:1031D300121B6390177CE09014E9F09014EA74A139
:1031E300F0A3741402415274F0120B20EAFEEBFFB9
:1031F3005480700302335B9014DF1241E7700302C3
:103203003354EA241B125A52707CEA241F125A5276
:1032130064137002A3E0706E8A828B831233A990C9
:1032230014FA124FE4750A00750B00800D12402842
:103233001270C4121A67AA0EAB0FEA4B60488A8257
:103243008B83E0650C7004A3E0650D702C8A828B80
:1032530083A3A3A3A3E0F50EA3E0F50FE50A450BB3
:103263008A828B83A3A3A3A360C312432A850A8202
:10327300850B83A3A3A3A380B78A0A8B0B8A828BB4
:1032830083124FE080B4E508242A125A52FCE50861
:103293002402F8E43509F9E8FAE9FB9014FA123448
:1032A30090A3A3E06402703C8A828B83124FE48074
:1032B3000B88828983A3A3A3A312432AE849601F2F
:1032C30088828983E06A7003A3E06B70E488828953
:1032D30083A3A3E06C70DA901782125D82806BEC9B
:1032E300F91222C5850882850983E06401704FE5E0
:1032F30008241812339212115412666C120F07E548
:10330300082412123392121154E5081241DB1211F0
:1033130050E508240B126670120F0BE508241712F0
:103323004178E5082402FCE43509FDE5082419FA8F
:10333300E43509FB122B05740A12112D800CE0648D
:10334300027007AA08AB091223A3AA08AB09121932
:10335300D1EEFAEF6480802DEA5402600C9017E1FD
:103363007401F0EA6402FA8023EA5408601A122214
:10337300BFEA4B700B9014FC1265477A0812339F17
:10338300EE6408FAEFFB80047A007B00026CF6F52A
:1033930082E43509F583E0F50A780A22FB9014DF0D
:1033A300E0F9121B3322A3A3E0F50CA3E0F50D22F1
:1033B3007B009014DFE0F9121B2774042274F412CB
:1033C3000B208A088B098A828B83A3A3A3124DDC6B
:1033D30012418338F583E02409FA126C8E700302DC
:1033E30034838A828B837402124E51850882850945
:1033F30083123490E8F0A3E91269088A828B83A3CD
:10340300A3A3A3A3A3A3A3F0E5082403F8E4350926
:103413001234851241833AF583E08E828B83A3A312
:10342300A3A3F0EE2409FAE43FFB8E828F83A3A3C8
:10343300126034F5838882E0A2E58E828F83A3A392
:10344300A3A3A3500474018001E4F0E5082403F569
:10345300828983124FE4EA1255653BF583126C555A
:1034630012114C1241823B1261268E828F83A3A3D9
:10347300127E0412112DEEFAEFFB9014DF126CDBB7
:103483008016F98882F583E0FAA3E0CA22125181FB
:10349300A3A322740212112D7F04020E8274F2126E
:1034A3000B208A088B09ECFAEDFB740E121442E030
:1034B300FC1214678A0C8B0DAE0CAF0DEA4F603013
:1034C300AC08AD091229A3E96026AC08AD09EEFAF0
:1034D300EFFB12295BE970148E828F83124317FA74
:1034E300EFFB122AB7AA08AB0912147F79008002F6
:1034F30079B40250D074F0120B2074F61211DCEA86
:10350300FEEBFF8C088D09750FB38521828522831D
:10351300E4F0750E008002050E903189E493F8E51E
:103523000EC398400302361FAA0E7B001214A38A0F
:103533000A8B0BEA4B60E08A828B83A3A3123626A5
:1035430028F0F8C3EE98EF940050CC7C157D0079F9
:1035530000AA08AB091219B9850A82850B83A3A3B4
:10356300A3A3127101E0F8EEC3982925E0F8E43330
:10357300F9E50A28F582E50B39F583A3A3A3A3A3F1
:10358300A312418DA3125BA98A0C8B0DAC0CAD0D5C
:10359300AA08AB09121B63850A82850B83A3E06427
:1035A30001700A12666C740112419F804474011207
:1035B30011A6850A82850B83124FE212148BE960F0
:1035C3003D7409121442E0C0E012666CD0E0F0745E
:1035D30009121442E06403701374011211A6E50882
:1035E300240BFAE43509FB121B63801274011214D5
:1035F3004212432AE508125B8F35091270C2850A0D
:1036030082850B8312667812419FA3A3E0C0E0E595
:10361300082414126670D0E0F0750F00A90F740A25
:10362300026CF3A3A3A3E0F8852182852283E02221
:1036330074F7120B20E9FE8A828B83A3A3A3A3A3AF
:10364300A3E0540860338A828B83A3A3A3A3A3A319
:10365300E0540260218A828B83A3A3A3A3A3A3A321
:10366300A3A3E06406600F74E96E600A74CD6E6014
:103673000574F06E70031222A70249CF74F0120B87
:103683002074EF1211DC740F12144212642B7408AD
:10369300121442E9F0ECFEEDFF74051214421247D6
:1036A300971249BBA3E0F912147374061214421261
:1036B300642B74061214421255F6700302393A123F
:1036C30041C7E0FA7406121442E0F91221E71239F5
:1036D3009AF8A3E0F9E849700302393AEE2403F5B6
:1036E3000AE43FF50BEE2406F508E43FF5097C00F8
:1036F300850882F583124FE4850A82850B83E0F9FE
:10370300121479740312144212642B850A82850BF6
:1037130083E0C0E0852182852283123993D0E012B1
:10372300570BF985218285228312402F12525D1295
:103733003629FAA3E0CA2407F582E43AF583E8F0D0
:10374300A3E41264362406F582E438F583E41270A8
:10375300CE124DD012114CEE1241833F12612674EA
:1037630003121442124DDC2409127DFE12112D7432
:10377300291214421270FB12348A12571E3A127025
:10378300C2742B121442E0C0E08521828522831289
:1037930055BDD0E0F07402121442E4F07425121403
:1037A3004278081213CF0238917403121442126044
:1037B300EE8882F583123982A3A3A3125BB4FB12B2
:1037C3001491850E82850F83A3EAF0A3EBF07403B3
:1037D300121442123993A3123982125DC3A2E65026
:1037E3000F850E82850F83A3A3A3A3A3E0D2E1F0E9
:1037F3007405121442E0706B850E82850F83A31249
:10380300432A90153AE0687003A3E0697055850E6A
:1038130082850F83A3A3A3124162750C00780C1257
:10382300115478081211487429121442E0F50C78E7
:103833000C1211547427121442120F0B90154712D5
:103843000F0B79007419121442124FB41223EB7444
:103853000A12112D850E82850F83A3A3A3A3A3E0D0
:103863004405F07402121442E004FC8E828F83122A
:103873004FDE8E828F83A3A3A3E0F912147974031E
:1038830012144212642B7402121442E004F0740303
:103893001214421255F660677402121442E0FA746D
:1038A3000612144212432AC3EA98E499505174024F
:1038B300121442123C6C852182852283E028F8A3EE
:1038C300E039F9E8240FF50EE439F50F850E82F59A
:1038D30083E4F0740312144212398D64016003020D
:1038E30037AC74051214427401126CE1F0740312C4
:1038F3001442125EB5123C8FE8F0A3E90237D0857B
:103903002182852283124FE41221ED8521828522B3
:1039130083120F0B7426121442E0FD742512144215
:10392300E0FC740A121442E0F9EEFAEFFB1222A152
:10393300740212112D80438E828F83A3A3A3E0C050
:10394300E0740C121442D0E0F0126B4AE0C0E07451
:103953000D121442D0E0F074061214421255F670A0
:1039630009740E12144274B98007740E121442744F
:1039730010F0740912119E1223E57411026CF3E026
:10398300850E82850F83A3A3A322E01256E3E022D0
:10399300E01256E3A3A322852182852283EAF0A3C2
:1039A300EB1255FF2274F0120B2074E11211DC7438
:1039B30004121442E9F07403121442ECF07402127C
:1039C3001442EDF08A0E8B0F742F1214421233AB94
:1039D300AA0CFB1221DB7401121442E9F0AA0CAB0E
:1039E3000D1221E17401121442E07003023C678559
:1039F3002182852283E480158E828F83A3A3A3A3D0
:103A0300A3E0D2E3F0852182852283E004126C399E
:103A1300F8852182852283E0C3984003023C5E74CB
:103A230001121442E07003023C5E852182852283E9
:103A3300123C6CE50C28F8E50D39F9E8240FFEE497
:103A430039FF8E82F583A3A3A3A3A3E0A2E040B52D
:103A5300750800750A08750B007402121442E060C1
:103A6300037508207C087D007900740512119E12ED
:103A730019B98E828F83E0603E90158AE0640170ED
:103A83001AE508D2E3F508750B10123C7C121442B8
:103A9300E8F0A3E9125AA774FF807643080C750A6D
:103AA3000C8E828F83A3123C871270C47405121488
:103AB3004274FFF0A3805A7404121442E06009E5D3
:103AC30008D2E6F508750A0A8E828F83A3E064FEA6
:103AD3007003A3E0F470307412121442740412667B
:103AE30096F8741D121442E8124E51741212119E6C
:103AF3001221097D007C0079007415121442AA82F8
:103B0300AB83121EBD800B123C7C121442E8F0A35F
:103B1300E9F07407121442E508F01241BEC0E074E4
:103B230009121442D0E0F0740A1214427401F074C2
:103B33000512119E1223A97411121442E0600302AC
:103B43003C3C740D1214421257068E828F83A3A33A
:103B5300A3A3F0740D121442124E1FE50AF0A3E55D
:103B63000BF07403121442E0C0E0124DB0D0E01227
:103B73005DC3601190158AE0C0E0740D1214421207
:103B83004DFAD0E0F0740D12144212432A850C82D0
:103B9300850D83A3A3A3A3A3123C75241C12642540
:103BA3001270DE123C77125D7539126B69C0E01238
:103BB3004D97D0E0126C2EC0E0740D1214421248DF
:103BC300DDD0E012692FC0E0740D1214421248D305
:103BD300D0E0F0740D121442123C87123C75242A73
:103BE300126425850E82850F83A3A3A3A3A3A3A396
:103BF300A3E012641E1241ADC0E01248BFD0E0F052
:103C0300740D121442124FE4850E82850F83126CD9
:103C1300442428F582E43B1270C21241B6126C555B
:103C230012114C12611FEA1263B73B127E0212118A
:103C33002D740512119E1223AF8E828F83A3A3A32B
:103C4300A3A3E0D2E0F07411121442E0600302393E
:103C5300FB7401121442E014023A077900AA0CAB78
:103C63000D1222AD741F026CF3E075F007A4F8A9DE
:103C7300F022A3A3124FE8E8228E828F83A312437C
:103C83002E740522E0123C8FA3A3A322F8A3E0F92C
:103C9300850E82850F83A32274F0120B2074E81221
:103CA30011DCE9852182852283F08A0E8B0F8A82BB
:103CB3008B83A3A3A3A3A3A3A3A3E0F91222058A3F
:103CC300088B09EA4B7003023D78E50E1255791211
:103CD30041D612416D852182852283E06003023D36
:103CE3007B7C04850E82850F83A3A3A3A3A3A3A335
:103CF300A3E0F912220BEE4F607B8E828F83A3A386
:103D0300A3A312432A740712144212655C12432AB6
:103D13007409121442124E81C0E07411121442D07D
:103D2300E012690DA3A3A3A3A3A3A312432A740FB1
:103D33001214421270C47412121442E4126CE9C8D1
:103D4300241FF582E438F5831260EAC41313540385
:103D5300FC70027C048E828F83E0F9780812115084
:103D6300742059FD744059F9740312119E1222A153
:103D7300740212112D026CF17C08850E82850F836B
:103D8300A3A3A3A3A3A3A3A3E0F912220B8B0BEA80
:103D93004B7003023CF9EE4F60DB85218285228361
:103DA300E0F50C780C121154850882850983A3A3CE
:103DB300A3A3A3A3A3E0F50C780C1211548A828B5E
:103DC30083A3A3A3E0FB8A82850B831279218A82D2
:103DD300850B83E0FA8E828F83A3A3E0F9122B0B6A
:103DE300740212112D023CFD74F7120B2074FA12A7
:103DF30011DCE9FE780179017F00800379000F125D
:103E03005160E0FCEFC39C5026EF75F007A4FC85DE
:103E1300F008AD08EA2CFCEB3DFD12474FE0A2E0B1
:103E230050DA540C60D6E0A2E250D3780080CF8AF7
:103E3300828B83A3A3A3A3A3A3E0703DE9A2E040E5
:103E43000574016E70338A828B83A3A3A3A3A3A3F8
:103E5300740112413FE0C0E07403121442D0E01237
:103E630047AEE0C0E07404121442D0E0F0740512CF
:103E73001442E81260891223E574060249CCC08219
:103E8300C08379011222AD025EC574F4120B20EADD
:103E93004B9017E16019E4F08A088B09F50AF50BDA
:103EA30078081211487A021233B312112D800A7462
:103EB30001F07A027B001233A002349B74F0120BE0
:103EC3002074F31211DC7403121442E4F0A3F09093
:103ED30014FA12416D7401121442E4F0A3124E5607
:103EE30004F0901534E0A2E35003023FB2124133D1
:103EF300740912144212141374091214427808122A
:103F030013CF9014FC78081211AE74051214427882
:103F1300081213B1124036740512144278081213B2
:103F23007250077A017B0002402374051214427811
:103F33000C1213CF901781E0F509780C7908120A57
:103F4300B1A80CA90D901782E0C398E4995003E03F
:103F53008001E8852182852283F074091214427856
:103F6300081213CFC008C009C00AC00B740512148D
:103F730042780C1213CF124036780C7908120AB12A
:103F8300E4F50AF50BD00FD00ED00DD00C780C79D8
:103F9300081212599014FC780C1213B180111240BC
:103FA300281270C4EEFAEFFB121A67AE08AF09EEDF
:103FB3004F60658E828F83123626C398502DEE2470
:103FC30003F8E43FF9E0FA88828983E0C39AF0605A
:103FD3002374031214421244907401121442EEF03B
:103FE300A3EF126577FEA3E0FF80C48E828F83A3C5
:103FF300A3A3E4F08E828F83127DBB74011214425B
:104003001255F68E828F83A3A3A3A36091126550EA
:1040130012144212402F80897403121442124FE487
:10402300740D026CF312432E9014FA22126115A33D
:10403300A3A322901780127DC3E4F50AF50B227423
:10404300F0120B208A088B09890A780079009014F2
:10405300FA12416DFBEE4B601E088E828F83A3A381
:10406300A3A3124FAE601008E87001098E828F83FC
:10407300124169EA4F70E3901783124FE4C3E89A41
:10408300E99B40030241267A06124129A80CA90D97
:10409300EA4970030241268A828B83E508F0A3E58F
:1040A30009124148E50AF090178212516812413F04
:1040B300A3E4F0A3F09014FA124FAE600D8E828F3A
:1040C30083A3A3A3A31270C480179014FA1270C41D
:1040D300901534E0A2E340091241339014FC12140A
:1040E30013901534E0A2E3503A7A087B009014DF72
:1040F300E0F9121B39EA4B4C4D7028901780E0F51C
:1041030008A3E085080CF50DE4F50EF50F780C1205
:1041130011487A087B009014DFE0F9121B2D740418
:1041230012112D026CF67B00121A618A0C8B0D2280
:10413300121B4BEAF8EBF9ECFAEDFB221241432296
:10414300124148A322F08A828B83A3A322E508F0BD
:104153000249CFF08E828F83A3A3A3A3A3A322122A
:104163005A60A3A3F022A3A3A3A3E0FEA3E0FF222C
:104173007F05020E82F582E43509F583E0F922EA30
:10418300124187222410F582E422124195A3A3A3AE
:10419300A322124332850882850983221241A32276
:1041A300F0850A82850B83A3A322E50E2411124115
:1041B300D3E022E50E240E1241D322E50E24101281
:1041C30041D3E0221241CB22EE1241873FF58322F5
:1041D300F582E4350FF58322240FF50AE43509F55A
:1041E3000B780A22E0F91219E38A088B09EA4B22B9
:1041F30074F2120B20890B8A088B098A828B831233
:104203004FE41222D1EA4B600479B8806A1222DDAE
:10421300E9F890317AE493F9E8C399400479B280DC
:10422300567A15124129AE0CAF0DEA4F700479107E
:1042330080458A828B83E4F0A3124148E50BF07535
:104243000A00780812114C7C127D00EA2403126CD8
:104253000012112D9015001255F67008901500806C
:104263000C12432A8882898312427D70F4EEF0A3F4
:10427300EFF01222EF79000250D0124FE8EA4B8898
:1042830082898322C082C08390150080048C828D32
:1042930083127922EC4D60288C828D83A3A3E0697D
:1042A300600574FF6970E68C828D83A3A3A3E06A23
:1042B3007003A3E06B70D6EC2403FAE43DFB8004A7
:1042C3007A007B00025EC574F7120B20E9FD74FED1
:1042D3006D70047C0180027C0090150080096D7074
:1042E300027C01888289831255F6601F8882898344
:1042F300A3A3A3E06A7003A3E06B70E7ECA2E088DA
:10430300828983A3A3E050D6F9800279FE0249CFC4
:10431300EEF9800CA3A3127DC3EE22740212112DB9
:104323007F02020E82F58312432E2212433222E0D1
:10433300F8A3E0F9221243328E828F832212112DC9
:104343007F03020E82C082C0837900901500800132
:1043530009E0FAA3E08A82F583E582458370F102DE
:104363005EC574F6120B20E4F508F50978081211FE
:104373005090317AE49375F013A4A9F01244851296
:10438300712212112DE9FE74096E70031222E902E3
:10439300431374F6120B2074FE1211DC85218285FF
:1043A3002283E4F0A3F0A821A922880889097808C8
:1043B3001211507508027509007808121150126D18
:1043C3009312112D02431E74F5120B2074EB12117C
:1043D300DC852182852283E4F0A3F09015008074AC
:1043E3008E828F83A3A3E0C0E07402121442D0E054
:1043F300125AA7A982AA8389088A09750A0078082C
:1044030012114C7C127D0074061214421270E712D2
:10441300112D740212119688088909780812115017
:1044230075081375090078081211507404121442A8
:1044330012559975F013A4F8AAF075F013E9124414
:1044430081126D9B12112D85218285228312449046
:104453008E828F8312416DEE4F7085A821A9228829
:10446300088909780812115075080275090078083F
:10447300121150126D9312112D7415024340A42A88
:10448300F9E82402FCE439FD7A427B0022E02401AE
:10449300F0A3E03400F02274F4120B2074EB121139
:1044A300DC7E007F00A821A92288088909780812E8
:1044B30011507508028E0978081211507C007D0096
:1044C3007A4212712E12112DE9706C8E0880567487
:1044D30002121196880A890B780A121150750A1371
:1044E300750B00780A121150E50875F013A4F8AAA9
:1044F300F075F013E50912448112713012112DE9A0
:10450300701B7403121442AA82AB83740212144206
:10451300E0F91222CBE970050EEE70010F0508E5F4
:10452300087002050985218285228312432AC3E587
:104533000898E509994098EEFAEFFB741502349850
:1045430074F6120B208C828D83A3A312479CF0EA8E
:104553001263BD3BF583E0C0E0124759D0E0F0EAB7
:10456300241DF582E43B12432812473D124797F07E
:10457300A3F0EA241FF582E43BF58312416DEC12AC
:1045830047303DF583EEF0A3EFF01247363BF5835A
:10459300124767A3A3A3A3A3A3EEF0A3EF1260188C
:1045A300FE8C828D831247A674035EFEC394034080
:1045B30003024723EE600874026E60030246488CD0
:1045C300828D83E0540CFE740C6E7003024687E008
:1045D300A2E4400D88828983E08C828D83A31247F5
:1045E300BC74086E60030246871247477401F08A61
:1045F300828B83A3A3A3A3A3125A6D70148C828D01
:1046030083E0440C1247AEA3A3124767EEF0A3EF77
:10461300F08C828D83E0A2E4402B888212477512CE
:10462300478A500109F582124775A3A3A3A3A3A345
:10463300F0A3EF1247B68C828D83A3A3A3F0E824E3
:1046430003F850010988828983E0C0E0EC2411F566
:1046530082E43DF583D0E01247A68C828D83E0A2ED
:10466300E7507588828983E0FE8C828D831247BC74
:1046730074FC5E700C8C828D83A3E054036403701E
:104683001E024723124747E4F0740C6E6003024591
:10469300F2888212477B12478A5001090246148C22
:1046A300828D83A3E05403603288828983E0C0E073
:1046B300EC1247613DF583D0E01247BD8C828D83B8
:1046C300E054036402701488828983E0C0E01247D7
:1046D3004FD0E01247BD8003A3E4F0EC1255653DD3
:1046E3001270C2EC2410FEE43DFFEA241DF582E4BF
:1046F3003BF583E0F5088E828F83E0C3982508F5A8
:1047030008F0EA2417F8E43BF98882F583E0C395BF
:1047130008C0E012473DD0E0126018C39508500A64
:1047230012473DE4F0124759E4F00243232415F500
:1047330082E422EA240DF582E422EC240DF582E4DE
:104743003DF58322EC12571E3DF58322EC2414F52C
:1047530082E43DF58322EC1241873DF58322241345
:10476300F582E422E0FEA3E0FF8C828D83A3A3A362
:10477300A32212477BA3A3228983E0F508A3E0FFCA
:10478300E5088C828D8322A3A3A3A3F0A3EFF0E813
:104793002402F82212479CA322E4F08C828D83A387
:1047A300A3A3221247C4A882A98322124143A3A32D
:1047B300A3A3221247C4A3E022A31247C408A983D8
:1047C30022126021A32274F4120B2074F31211DC61
:1047D3008A0A8B0BECFEEDFF8C82F583E0540CF51B
:1047E30008E0A2E75006E508D2E7F508E508D2E1BC
:1047F300F508125A6D7006E508D2E4F508E0A2E563
:104803005006E508D2E5F5087C087D007900AA2169
:10481300AB221219B97402121442E5081270C8C00F
:10482300E07403121442D0E0124E56E50AF0A3E5F9
:104833000BF07405121442126934121442E07077BB
:104843007408121442124DDC12600A3812694FC008
:10485300E074081214421248DDD0E012692FC0E060
:1048630074081214421248D3D0E0F07408121442B0
:104873001248C9E0124E04124E8512641EEE241132
:10488300125A39C0E01248BFD0E0F0EE2414125A95
:1048930039C0E07408121442124DDC2435F582E469
:1048A30038F583D0E0124E29C0E074081214421286
:1048B3004DE0D0E0126688740D023498E82432F596
:1048C30082E439F58322124338A3A3A3A3A3A3222B
:1048D300124DF0126B2E38F58322124DF02426F57B
:1048E30082E438F5832274F7120B207E008A828BD0
:1048F30083A3A3A3A3A3A3A3A3A3E06404600302CA
:1049030049AB125716E060030249AB1255783B12CC
:1049130055F470030249AB88828983E05403600332
:104923000249ABE812571E39F583E0FA8C828D8376
:10493300A3A3E0FBA3E0CB2411F582E43BF583E0E2
:104943006A706588828983A3A3A3A3A3A3A3A3A354
:104953001249AFE06A7003A3E06B704C88828983CD
:10496300A3A31249BBE0FFA3E0CF2406125A396A7E
:104973007003A3E06B703188828983A3A3E0F88C72
:10498300828D83A3A3E0F9A3E0F5838982A3A3E047
:104993006860138C828D83A3A3A3E0F5838982E0EF
:1049A300540C640470027E01EEF980201249B32294
:1049B300124FEC8C828D8322A3A31249B3A3A322AB
:1049C300740C121442E0F9740D12112D7F01020EC2
:1049D3008274F6120B2074FC1211DCEAFEEBFFEC7E
:1049E300FAEDFB8C82F583A3E0540360169014F672
:1049F3001255F660597900EEFCEFFD126215120DA7
:104A030002804B852182852283EEF0A3EFF07402AE
:104A1300121442124E4BAC21AD227A077B2312258E
:104A23002F8A088B09A808A909EA4960218A828B81
:104A330083A3A3A3A3A3A3A3A3A37406F07A0088C9
:104A4300828B83124DDC1263DEE0F912248D740431
:104A530002432074F2120B2074F31211DCEAFEEB12
:104A6300FF8A82F583A3A3A3A3A3A3A3A3A3A3E082
:104A7300F50A9017E1E0700579BA024D94750801C3
:104A8300750900750C00750D007C087D007900AA7E
:104A930021AB221219B974051214427401124E5E2D
:104AA300540460127402121442E0D2E6124E5E54B1
:104AB300087003750803E05410600674404508F558
:104AC30008E0540860227402121442E044C0124EFB
:104AD3005E5420600A7403121442E0D2E08008742A
:104AE30003121442E0D2E1F0EE2415125A39124DAA
:104AF300C47003740169700674084508F5088E8252
:104B03008F83A3A3A3A3A3A3A3A3E0701612258952
:104B130085218285228312642B7402121442E0D20F
:104B2300E28030640F70107402121442124E6674E5
:104B3300044508F508807F8E828F83A3A3A3A3A3D4
:104B4300A3A3A3E064028E828F83700A1270FBE832
:104B5300F0A3E9F08060A3A3A3A3A3A3A3A3E064AA
:104B630003700DAC21AD22EEFAEFFB12233D80461C
:104B73008E828F83A3A3A3A3A3A3A3A3E064017043
:104B83003590158AE060107402121442124E667555
:104B93000910750AFF80187402121442E0440C12C3
:104BA3004E5674FDF0A374FFF074044508F5088EA7
:104BB300828F831233ABEE2415125A39A2E0503F91
:104BC3007402121442E0540C701B8E828F83124FB6
:104BD300E4121F89E9700579BB024D947402121423
:104BE30042E0D2E5F0EE2415125A39A2E0501074D7
:104BF30002121442E0540C64047004E0D2E5F0EEB7
:104C03002411125A39C0E07404121442D0E012691C
:104C130036121442E06003024D8D740812144212DE
:104C23004E1FE508F0A3E509F0124DBAE0C0E0120B
:104C33004DB0D0E0F0124DA1E0C0E0740812144270
:104C4300124DDC12476138F583D0E0124E856401C2
:104C5300701190158AE0C0E07408121442124DFAE4
:104C6300D0E0F07408121442124E1A124DABFAE857
:104C7300241CF582E439F583EA124E51EE2415FA29
:104C8300E43FFB8A82F583127922E8125D7539F5D8
:104C930083124E4BEE241C125A39C0E0124D97D0AA
:104CA300E0125EBB124DC470037401697013740883
:104CB300121442125706FAEE241D125A39F912221F
:104CC300118E828F83A3A3A3A3A3A3A3A3A3E0C053
:104CD300E074081214421248DDD0E0F07408121494
:104CE300421248D3E50AF07408121442125599246B
:104CF30028F582E439F583E50CF0A3E50D124E3176
:104D0300124E04125AB212641EEE124DABC0E0E80A
:104D13002433F582E439F583D0E0F0EE241B125AF4
:104D230039C0E07408121442124DE0D0E0F0EE24D2
:104D33001A125A39C0E07408121442124DDC24329C
:104D4300F582E438F583D0E0124E29124DD01211CA
:104D53004C126B34127922740B121442124DDC2460
:104D63002F127DFE12112DEE2415125A3954406074
:104D7300129015161255F6600AAA21AB221262157B
:104D8300120D02AA21AB221223AF740C121442E0BB
:104D9300F90250CBE82420F582E439F58322EE248E
:104DA30019F582E43FF58322126B43E022E82412D3
:104DB300F582E439F58322EE2418F582E43FF58386
:104DC300225480F8A3E05401F974806822F508A303
:104DD300E0F509750A00780822124DF022124DF011
:104DE3002434F582E438F58322A3A3A3A3124DF45C
:104DF30022E0F8A3E0C822124DF012473038F583C1
:104E030022FAA3E0FBE8242AF582E439F583EAF0E9
:104E1300A3EB22A3A3A3A312432EEE2212559D12AA
:104E2300557D39F58322F0EE2413125ABA22F0EE9F
:104E3300240D125ABA22E0FC8A828B83E02CFCA355
:104E4300E03400FD8A828B83ECF0A3EDF022F0A323
:104E5300E4F022F085218285228322F0EE241512CC
:104E63005ABA22E0D2E3F0124E6E228E828F831260
:104E73004332852182852283E8F0A3E9F022E8F01A
:104E8300A3E9126571E02274F7120B208A828B83E7
:104E9300A3E0640170047E6380027E648A828B8354
:104EA300E060087905124EBE24F3FE901532E060EF
:104EB30007F9124EBE24F2FE0249AB122457E9F859
:104EC300EEC3982274F6120B2074FE1211DC8521B6
:104ED3008285228312642BE9FEECFAEDFB90053008
:104EE3001255F66032A821A9228808890978081288
:104EF30011507D01740E121442E0FCEEF99005305E
:104F03001263FF120D02740212112DEA4B60047931
:104F130000800679B2800279B602431E74F7120B41
:104F230020E9FE9014EC1255F6601F740912144226
:104F3300E0F5087808121154EEF99014EC1263FFAF
:104F4300120D02740112112D800279B60249CF7439
:104F5300F7120B208908ECFEEDFF79B5E508245E16
:104F6300602014600624F86034803D900532124FAF
:104F7300AE603512713F120D028E828F8312642B45
:104F830080249014EE127922EC4D601CEEFCEFFDB0
:104F93009014EE1263FF120D02E9F9800B9014EAEC
:104FA300124FB4121B6379000249CF124FE8EA4B48
:104FB30022127926EEFAEFFB2274F7120B20E9FE98
:104FC30079B574AB6E700B9014EA124FE4121B6345
:104FD30079000249CF8E828F83A3A3A3A3A3A3A3A4
:104FE300A3124FE822124FEC22E0FAA3E0FB227453
:104FF300F1120B20EAFEEBFF8C0A8D0B7508019072
:10500300153AE06E7003A3E06F700C1250BFAA0A4A
:10501300AB0B121B63805E12258FEE6A7002EF6B7F
:105023007009AA0AAB0B122595804AAC0AAD0BEEA8
:10503300FAEFFB1220E5E9F508901788E0703612C5
:105043002A3FE97030E508702C90150AE06E700372
:10505300A3E06F7020EE4F601C750C02750D157583
:105063000E00780C12114C7C087D00AA0AAB0B12BF
:1050730070EB12112DA908027A1E74F2120B20EAAA
:10508300FEEBFF8C088D09750A011250BFEEFAEF93
:10509300FB121B5DE96401701190153A12432A85D6
:1050A30008828509831270C4800EAC08AD09EEFA3C
:1050B300EFFB1220EBE9F50AA90A80111225838A76
:1050C3000C8B0DAC0CAD0D22740D12112D7F06024D
:1050D3000E8274F6120B20EAFEEBFF7A0D7B0012B0
:1050E3001A61EA4B6062EE2424126DC8F0EE2425A7
:1050F300126DC8A312518D126DCEA3A3126B611250
:105103005168F0EE12514E12517DE8F0A3E91251AD
:10511300A41251751270C4EE125157126C24A3A33A
:10512300A3A3F0EE2433125A39C0E0125160D0E049
:10513300126953125175A3A3A3E8F0A3E912519C7A
:10514300C0E0125716D0E0F0024323242AF582E48C
:105153003FF58322242EF582E43FF58322EA125B96
:105163008F3BF5832212516C22E08A828B83A3A3A7
:10517300A322126C83A3A3A3A3221251812212435D
:10518300328A828B83A3A3A3A322F012519222EE2D
:105193002426F582E43FF58322F0EE2432125ABA34
:1051A30022F0EE242C125ABA2274F4120B2074FE4D
:1051B3001211DCECFEEDFFEC2416125A3964057073
:1051C30010EC2406FCE43FFD122337E9700302527E
:1051D30058AC21AD22126E7D121F8F85218285224C
:1051E300831255F6606B8E828F83E064017058E8FA
:1051F30075F009A4F8AAF075F009E9A42AF9746115
:1052030028F8740239F9E8FAE9FB8882F58378080B
:105213001213CFEE1252FA121372402785218285A0
:105223002283124E1A125A4712525D78081213CF74
:1052330090868778081212F58A828B837808121376
:10524300B1800A79A28010EE240F1270BE7900801B
:105253000679A1800279C8023496124E7BEE126B56
:105263004F2274F2120B208A0C8B0DECFEEDFFEC37
:10527300125A47E4F0A3F09086D378081213CFECC8
:105283001252FA1211F26067EC240E125A40703473
:1052930078B3901531E07028901563E064017020B5
:1052A300EC2411125A39F912243F8B09A909EE1281
:1052B30055793F126429EA4960047800800278A195
:1052C3008808802EE060046402700A122349E9F51D
:1052D300087007801DE064037010EEFCEFFDAA0C5C
:1052E300AB0D121FB3E9F50880087508A18003759B
:1052F30008A3A9080250D0126B4F78082274F01249
:105303000B2074F51211DCEAFEEBFFEA240AFCE43D
:105313003F8C82F583127DBF12558374031211A64D
:105323008A828B8312621FE970030253E9740112AC
:1053330011A6740312119E121F8F740112144212CC
:1053430055F670030253E9E875F009A4F8AAF0755D
:10535300F009E9A42AF9745D28FC740239FDE50813
:10536300240E126670E4F00412144212432AE50874
:1053730012557935091270C28C828D83121407E598
:105383000824121266701214139086877808121379
:10539300CF8C828D8378081213088C828D83780CCE
:1053A3001213CF90869378081213CF780C790812D2
:1053B3000AB1E5084509450A450B702A7401121420
:1053C3004212559975F009A4F8AAF075F009E9A4F9
:1053D3002AF9746528F582740239F5837401F07A29
:1053E300007B081255A68E828F83A3A3A3A3A3A336
:1053F300A3A3A3A3E02406FCA3E03400FD8E828FC5
:105403008312621F126941603EEE240A12556B1229
:105413004E1F7468124E51E812556539F5837402B4
:10542300F090151C1214078C828D8312641812607D
:105433000A3CF58312141390868778081213CF90D1
:10544300151C78081213081255E1705D9014EA12C6
:105453005591A3A3A3A3A3A3A3A3A3A31260401241
:105463001B5DE97010125FFE9014EA126010700564
:1054730012694160348E828F83A3A3A3A3A3A3A342
:10548300A3A3A3125591124FE4121FB9E960118E21
:10549300828F83A3A3A3A3A3A31255CDE4F0A3F008
:1054A3008E828F831255B3E4F01255E160030255E7
:1054B300608E828F83A3A3A3A3A3A3127DBB9015A6
:1054C30031E06003025555901563E0640160030207
:1054D3005555750A3A750B00780A12115074021269
:1054E3001196880A890B780A1211501273BA121195
:1054F3002DE9705BE508240E12667074011255FBEA
:10550300C0E0E5082411126670D0E0F0E508240F2E
:10551300126670743A124E51901518121407E5086A
:10552300241212667012141390868778081213CF10
:10553300901518780812130890868778081213CFED
:1055430090151878081211F270081255A2800312F0
:1055530055831255E17006125F0174A1F0740B02BA
:105563006CF3240EF582E422F8E43FF9E8FCE9FD4C
:105573008882F58322EA12557D22240FF582E422E4
:10558300E50812557D3509F583E4F0A3F02212797D
:10559300268E828F832212559D22124332E8227A6D
:1055A300007B029013C1E0F9121A0D228A828B83C9
:1055B300A3A3A3A3A3A3A3A3A3A31255C122124DE1
:1055C300F4240EF582E438F58322A3A3A3A3125592
:1055D300D522124DF4240FF582E438F583228E820E
:1055E3008F83A3A3A3A3A3A3124DEC240FF582E4FB
:1055F30038F58312559D49221255FF22F0852182E9
:10560300852283E02274F6120B20EAFEEBFF7A2355
:105613007B00121A61EE240AF508E43FF5098508B8
:10562300821264297C237D0079001219B9850882CE
:105633008509831255F670030256C9EEFAEFFB1281
:1056430023551255E160748E828F831256FC6401D8
:105653008E828F83A3A3A3A3A3A370071256F2740E
:105663000E80211255F67010126941700B8E828FD5
:1056730083A3A3E0A2E050071256E8740D8005123D
:1056830056E874051269535403640170071256D027
:105693007405800B901532E0C0E01256D0D0E012B2
:1056A300570BF5838882125A66850882850983120F
:1056B3004DDC1263BD38F583E9800E8508828509C8
:1056C300831264A280031263E5F00243238E828F68
:1056D30083A3A3A3A3A3A3A3A3A3A31256E222E09A
:1056E300126404A3228E828F83A3A3A3A3A3A31272
:1056F3004DEC1263C338F58322A3A3A3A3A3A3A3EF
:10570300A3A3A31255C1E02212570F22126E92F8DF
:10571300A3E022EA12571E3BF58322240CF582E410
:105723002274F1120B2074E41211DC8A0C8B0D8CA1
:10573300088D097A237B00121A618A0A8B0BAE0A41
:10574300AF0BEA4F7003025A211263C9E50824150F
:10575300125A52687003A3E0698E828F83700474B7
:105763000280027401F0E508240DF8E43509F98894
:1057730082F583E0FAC3E49AFA95E0FB125A4E2AC3
:10578300FAA3E03BFB8E828F83A3A3A3A31260271C
:105793008E828F83A3A3F0EE2420F582E43FF5836A
:1057A300E4F0EE2421F582E43FF583E4F0EEFAEF32
:1057B300FB122409850882850983125A6D70098EAC
:1057C300828F83A374058006901532125A5BF0EE24
:1057D3002417F50AE43FF50B8E828F83125A66E98C
:1057E300850A82850B83F0EE2416F8E43FF9E50879
:1057F300240EFAE43509FB88828983124E39E508C1
:105803002410FAE43509FB850A82850B83E0FC88C2
:10581300828983E0F88A828B83E0C398C39CF81261
:105823005AA7F0EEFCEFFDAA0CAB0D12234FE9F5DE
:105833000B8E828F83E064027006125FFE125A2B76
:10584300E50B6003025A18750C00750D009017885C
:10585300E064016005E06402703F125A3D6008EEA7
:105863002421125A4070328E828F83A3A3A3126322
:10587300EB125A73EE2416125A39125A9CFAE4396F
:10588300FB12412BEA4B6011126C4D12114C125A50
:1058930081AA0C1270EB12112DEEFAEFFB122415F4
:1058A300E9F50B901788E064016008E06402600387
:1058B300025A0BE97003025A0BE50C450D70030203
:1058C3005A188003850E0B125A3D600BEE242112E9
:1058D3005A406003025A11850B0E850C08850D0989
:1058E300750A00780812114C125A818E828F83A395
:1058F300A3A3A3127E0412112DEE2420125A3960A1
:105903000D125A467468124E51EE24208015EE246F
:1059130021125A396015125A467403F0A37401F028
:10592300EE2421F582E43FF583E4F0EEFAEFFB1277
:105933002415E9F50B70907C137D0079007409122E
:10594300119E1219B9741A1214427401125AB264D4
:10595300687002A3E0704F8E828F831255CDE0648E
:105963000560030258C77C0879FF8E828F83A3A347
:10597300A3A3E0242A126043121A43E970030258D6
:10598300C77C087D0079FF740112119E1219B97446
:10599300011211A67A007B0079AB1223317419121C
:1059A300144274FC8015125A46E064037004A3E0A9
:1059B30064017008741912144274FFF0E4F508F5D9
:1059C30009780812115074021211A67413121442AA
:1059D300AA82AB8312652812112D85218285228329
:1059E300E0602B740912119688088909780812114E
:1059F3005075081375090078081211507C007D005A
:105A0300126D9B12112D8006E50C450D6007AA0C43
:105A1300AB0D121A67EEFAEFFB121A678003750BD0
:105A230010A90B741C027A1BEE2406FAE43FFB1246
:105A33001B6322EE240C125ABA22EE2420125ABA05
:105A4300640122EE12557D3FF58322E508240EF50D
:105A530082E43509F583E022125A60A322E08E82A4
:105A63008F8322A3E0F912245722E0540364012216
:105A7300125A7722E0FAE82AF8E43400F9228E82F7
:105A83008F83A3A3A31263EF125A77EE2416125A3D
:105A9300BA125A9CFCE439FD22FAE82AF8E439F9EF
:105AA300E8240422125AAB22126962A3A3A322F0B0
:105AB300125AB722EE240FF582E43FF583E02279F0
:105AC300010210DD74F4120B20EAFEEBFF8A82F56B
:105AD30083A3A3A3A3A3A3A3A3124DDC2424F5822E
:105AE300E438F583125A6D702E8A828B831256FC2A
:105AF3007025125B95E06405701D125B95A3E0F8B9
:105B0300740168600574066870071255AF740280EB
:105B1300051255AF7403F0EA240A1264961263FF68
:105B2300E4F0EA2408F8E43F1234852431F582E4F2
:105B33003AF583E0C0E0127136A3A3D0E0125BB460
