:020000040000FA
:06000000020F910205D57C
:03002B00020D08BB
:03003300020BF5C8
:030053000205049F
:1000830002056601010000000000F8FF07FFFF0002
:10009300000504000000030001FFFFFFFF0005301F
:1000A3007500000020FD000206FFFF1E0A00190074
:1000B30001006A18000000000000000000000000BA
:1000C3000000FF000000000000000000000000012D
:1000D300000104010C000205AC8503E68501040060
:1000E30000B513000000E8030000FFFF06140188B9
:1000F300130000E80300002C012C01BC02A0BB0D7F
:1001030000A0BB0D00020202070401051E02051E2A
:10011300020A0A010108080103B80B02803E01022A
:10012300FEFFE8030A050001FFFF020A011401E0D4
:10013300050301010F030003000300030003000391
:100143000003000300030005000A00140028004F09
:10015300009E000000A42A0000000078290000008F
:1001630000FF000000FF00120FDD601D120FBF70C3
:1001730005191919801A120E6C701F120E44C370E0
:1001830003E66733191919400718181822080808D5
:1001930074FFF618F618F618F622120E44601712BA
:1001A300105D702192F012104B7019501720F0144B
:1001B300080808090909E7F61819E7F61819E7F610
:1001C3001819E7F62212104B60E6E869701F080859
:1001D300E62480F608E436F618547FB47F0CE65420
:1001E300806007F6E418F618F622181822E9C6CC40
:1001F30008C6CD08C6CE08C6CFC0E0E8C0E0EAC056
:10020300E0EBC0E009E9F809E7FA09E7FBE6F918CA
:10021300E6F8C3EC98ED99EE9AEBC2E7F5F0EFC27E
:10022300E795F0500E600CEBCFFBEACEFAE9CDF97F
:10023300E8CCF8EAA2E7D2E7FAEB33FB13F5F0EEEA
:10024300A2E7D2E7FEEF33FFC5F013A2E730E601E2
:10025300B313C5F0C3C0E0C0F07F00C39BFB605E77
:100263009418600F401D14601AD0E023F9D0E0F811
:1002730002034B8AF0E9486003D2F0E4AFF0FAF9E5
:10028300F8803BEB30E40D89F0EA6003D2F0E4AF91
:10029300F0F9CAF8EB30E30D88F0EF6002D2F0AF6B
:1002A300F0E4CAC9F8EB54076014FBC3EA13FAE994
:1002B30013F9E813F8EF135002D2E0FFDBEDD0E0BF
:1002C300C0E030E739C3E49FFFF5F0EC98FC42F05F
:1002D300ED99FD42F0EE9AFE42F0D0E0F9D0E0F85D
:1002E300E5F0607AE923F9EE20E742D8028067C39C
:1002F300EF33FFEC33FCED33FDEE33FE80EAEC2805
:10030300FCED39FDEE3AFED0E023F9D0E0F84002EF
:10031300801BC3EE13FEED13FDEC13FCEF13500231
:10032300D2E0FF08B800067F7F74FF802EEF3350C2
:10033300178CF020F00260100CBC000C0DBD0008FF
:100343000EBE000408E860DFE933E813FFEE231371
:10035300FE4F4D4C8008E95480FFE4FEFDFCEE3374
:10036300EF33F47004FCFD7E80D0E0FBD0E0FAD0E4
:10037300E0F8D0E0CFC618CEC618CDC618CCC6F963
:100383002200120FDD604F120FBF6012E754806628
:10039300F6120E6C701112105D703B090909F4F628
:1003A30018F618F618F622120E44701512104B08A0
:1003B300080860EAE6447FF618768018E4F618F633
:1003C3002212104B601612105D7012E4F608F60844
:1003D300F608E65480F609090918181822EAC0E05D
:1003E300EBC0E0ECC0E0EDC0E0E687F0A4FBACF0CE
:1003F30008E687F0A42CFCE435F0FA1809E687F048
:10040300A42C4B60027401CA35F0FCE433FB09E60B
:1004130087F0D2F7A42CCB35F0FC1908E687F0A4BB
:100423002BCC35F0FBE433FD0819E687F0D2E7A4C3
:100433002C4ACB35F0CD3400FC09E687F0D2E7A493
:100443002DCC35F0FDE433FA0918E687F0D2F7A492
:100453002CCD35F0CA3400FC08E687F0D2E7D2F79A
:10046300A42ACC35F07A7E20E70B0ACB33CBCD33ED
:10047300CDCC33CC33CB3350147004ED30E00ED2FB
:10048300F1E4CD3DCDCC3CCC3B5005DA05C2F1EBDC
:10049300547FC63308E63392F0FBE73309E733C3EF
:1004A3009A502D2B70190C0D4C4D70151806E6083B
:1004B300C333700D20F10AA2F013F6E418800B4049
:1004C30024E4F630F002768018F618F618F6802445
:1004D300D33B14501074FFA2F013F6187680E4187F
:1004E300F618F6800FA2F013F618E63303F618ECAD
:1004F300F618EDF6D0E0FDD0E0FCD0E0FBD0E0FA5A
:1005030022C0E074F11208EEA2AFE433F509D2AFD2
:1005130085A708AFA1EF5508FE74105E600612129E
:10052300B875A1EF74085E60081212BE75A1F7805A
:1005330024EFA2E092F0E508A2E082F05017906168
:1005430098E0F89005A2E0C398A2D265D033500298
:10055300E8F075A1FE752300E509A2E092AF7F02E2
:100563000209AAC0E074F21208EEA2AFE433FED28D
:10057300AF9061A4E0F8759B00E5915854086008BA
:100583007591F712130C8023E59158541060087588
:1005930091EF1213128014E591A2E092F0E8A2E029
:1005A30082F05007E0C2E0F01214689061A3E0F813
:1005B300E5E9585404600E12143E75E9FB9061930B
:1005C300E0A2E640F2752300EEA2E092AF7F0102C3
:1005D30009AAC0E074F21208EEA2AFE433FED2AF70
:1005E3009061A5E0F8E5BF585404600675BFFB129F
:1005F300148080D112064230F039120687803412FB
:10060300064220F01430E72B74FFFCFBFA747F8062
:1006130022E4FCFBFA7480801AB48008BC00F2BBAD
:1006230000EF800F50EBF9E4C39AFAE49BFBE49CE0
:10063300FCE499C6CC18C6CB18C6CA18C6F922E47E
:10064300C9C608CAC608CBC6D3330308CCC633927F
:10065300F0C3947F402E94184019C9B90704CACB3C
:10066300CC225025C309CA33CACB33CBCC33CC33CA
:10067300D9F422F4600DC9CCC313CB13CBCA13CA6C
:10068300D9F6CC22E4FCFBFA2214FCFBFA22C3E4E5
:1006930098F8E499F91206D28026C3E49AFAE49B07
:1006A300FBE920E7E91206D2E498F8E499F922C3BA
:1006B300E498F8E499F91206D2E498F8E499F9C3B6
:1006C300E49AFAE49BFB22EB20E7CFE920E7E0B9C9
:1006D3000010BB0008E88AF084F8AAF022E4FBC803
:1006E300FA22EB70227B10C833C8C933C9335007D1
:1006F300C39AC3DBF280069A50012ADBEAC833F4BB
:10070300C8C933F4C9FA2275F008E4C833C8C93339
:10071300C933C99AC99B5004C92AC93BD5F0ECFB1C
:10072300C833F4C8E4C9FA22080808EAC0E0EBC0F9
:10073300E086F0E7A4FA180986F0E7A42AFA180974
:1007430086F0E7A42AFA180986F0E7A42AFA19869C
:10075300F0E7A4FBE5F02AFA190886F0E7A42BFBDF
:10076300E5F03AFA190886F0E7A42BFBE5F03AFA2C
:1007730018180986F0E7A4C5F02BFBE43AFA190828
:10078300E7C5F0C6A426F6E5F03BFBE43AFA188683
:10079300F0E7A4F6E5F00826F6E43B08F6E43A08A9
:1007A300F6D0E0FBD0E0FA22E4CFC0E0E4CEC0E034
:1007B300E4CDC0E0E4CCC0E075F020E626F608E620
:1007C30033F608E633F608E633F6181818EC33FC6C
:1007D300ED33FDEE33FEEF33FFC3EC9709ED9709DD
:1007E300EE9709EF97191919400FFFEC97FC09EDE4
:1007F30097FD09EE97FE191906D5F0BFECF709ED41
:10080300F709EEF709EFF7191919D0E0FCD0E0FD6D
:10081300D0E0FED0E0FF222521C582C0E0E52234EE
:10082300FFC583C0E0E521C3958224F810AF088596
:1008330083228582218008858322858221D2AFCEBF
:10084300F0A3E520F0A37808E608F0A3DEFAEFF0C2
:10085300A3E58124FAF8E608F0A3E608F0A3E60886
:10086300F0A30808E608F0A3E608F0A315811581B4
:10087300D0E0FED0E0F8158115811581E8C0E0EEE7
:10088300C0E022121036B900030208D8E490050133
:1008930078A179128002F0A3D8FCD9FA78239000CA
:1008A300867A01BA00028007E493A3F608DAF97A9C
:1008B300A17B1690008778E479018015E493A3ADBA
:1008C30082AE838A828B83F0A3AA82AB838D828ECE
:1008D30083D8E9D9E775820E7583FE7403120CEA97
:1008E3007582AA7583267400120CEAC0D02521C52F
:1008F30082C0E0E52234FFC583C0E0E521C39582D1
:1009030024F310AF08858322858221800885832202
:10091300858221D2AFC8F0A3E9F0A3EAF0A3EBF0FC
:10092300A37908E709F0A3D8FAECF0A3EDF0A3EE5E
:10093300F0A3EFF0A3D0E0F0A3D0E0F0A3D0E0F079
:10094300A3E520F0A3E5F0F0A322E9799EC608CA47
:10095300C608CBC608CCC6C370207996CACBCC7068
:1009630019798ECBCC70137986CC700EF9802ACA94
:1009730033CACB33CBCC33CC331930E7F2CCCBCA2D
:100983003350147004EA30E00DE4CA3ACACB3BCBCF
:10099300CC3CCC500209C3E913C6CC182313C6CBF5
:1009A30018C6CA18C6F922852283852182E0C0E0D1
:1009B300A3E0F9A3E0FAA3E0FBA37808E0F608A319
:1009C300DFFAE0FCA3E0FDA3E0FEA3E0FFA3E0C0A9
:1009D300E0A3E0C0E0A3E0F5D0A3E0F520A3E0A30B
:1009E300F5F010AF08858322858221800885832254
:1009F300858221D2AFD082D083D0E0F8D0E032E438
:100A03007375F0108E248F2585822985832885218F
:100A130082852283E0CEA3E0CF852982852883EBDC
:100A2300C9EAC8EDCBECCAC3E833C8E933C9EA3332
:100A3300CAEB33CBC3EA9EF527EB9FF526B35004ED
:100A4300AB26AA27EC33CCED33CDD5F0DAAE24AF09
:100A53002522D083D082ECC0E0EDC0E0E493A3FC78
:100A6300E493A3FDED4C600D120B2DEC24FFFCED84
:100A730034FFFD80EFE493A3FCE493A3FDED4C600E
:100A83000D120BCAEC24FFFCED34FFFD80EFD0E028
:100A9300FDD0E0FCE493A3C0E0E493C0E022852210
:100AA30083852182E0A3FEE0A3F5207808E0A3F686
:100AB30008DFFAE0A3FFE0A3C0E0E0A3C0E0E0A307
:100AC300C0E0E0A3C0E0E0A3C0E010AF088582214E
:100AD3008583228008858221858322D2AFD083D06B
:100AE30082020CF0D083D082E9C0E0E493A3C386F2
:100AF300F0C5F095F0F908E493A386F0C5F095F0FE
:100B0300700BE493A3C3994005E9048002A3E47541
:100B1300F002A42582F582E5F03583F583D0E0F970
:100B2300E493A3C0E0E493C0E022C0E0C3E493965F
:100B3300087401939618400FE493667008087401D3
:100B430093661870007019A3A3C3E4939608740105
:100B5300939618A3A3400DD0E0D0E0D0E0020A9111
:100B6300A3A3A3A3A3A3D0E02274048004740280EC
:100B730000CCC0E0EDC0E0E521C39CCCAD22500128
:100B83001D10AF068C218D2280068C218D22D2AFC1
:100B9300120C6CD0E0FDD0E0FC2274028000CCC0CB
:100BA300E0EDC0E0E521C39CCCAD2250011D10AFA8
:100BB300068C218D2280068C218D22D2AF120C4A05
:100BC300D0E0FDD0E0FC22C0E0C0F088F0E4936602
:100BD30070080874019366187000A8F0A3A3700B43
:100BE300D0F0D0E0D0E0D0E0020A91A3A3D0F0D0BF
:100BF300E022C0E074F21208EEA2AFE433FED2AFFB
:100C0300E58BA2E0500579041211F2758B00C2E85E
:100C1300752300EEA2E092AF7F010209AAD083D030
:100C230082CCC0E0E493A36006120CCB1470FAE408
:100C330093A36006120DEF1470FAD0E0FCE493A3C3
:100C4300C0E0E493C0E022CAC0E0E493A3C582CC31
:100C5300C582C583CDC583F0A3C582CCC582C583B8
:100C6300CDC583DAE5D0E0CA22CAC0E0E0A3C582DD
:100C7300CCC582C583CDC583F0A3C582CCC582C54F
:100C830083CDC583DAE6D0E0CA22700908080822BA
:100C93006016181818C6C333C608C633C608C63349
:100CA300C608C633C6D5E0EA22C008C3E096F508F5
:100CB30008A3E096420808A3E096420808A3E0963A
:100CC30045087001D3D00822C0E0E493A3D39C501D
:100CD30010E493A3C39C400AD0E0D0E0D0E0020C20
:100CE3003DA3A3A3D0E022C09FF59FE473D09F222E
:100CF300D083D082C09FE493C0E0740193C0E074BA
:100D03000293F59F22C0E0C0D0E8C0E0A8A8D2AF0C
:100D1300C2C7752300E8A2E792AFD0E0F8D0D0D0E5
:100D2300E03200C0D0252110AF08F521500C052278
:100D33008008F52150020522D2AFD0D0227404805E
:100D43000A74038006740280027401C0E0F4041282
:100D53000D5BD0E0120FF9222521F58210AF08F5C3
:100D630021400C15228008F52140021522D2AF85BF
:100D7300228322BB0102E722C082C08389828A8345
:100D8300BB0003E08002E493D083D0822260160884
:100D93000808C6C313C618C613C618C613C618C692
:100DA30013C6D5E0EA222521F8E43522F9222521CC
:100DB300FAE43522FB222521FCE43522FD22C3E09F
:100DC300C696F608A3E0C696F608A3E0C696F6080C
:100DD300A3E0C696F622252110AF08F521400C1595
:100DE300228008F52140021522D2AF22C0E0E4930D
:100DF300A36C7009D0E0D0E0D0E0020C3DA3A3D0F7
:100E0300E022E066701008A3E066700A08A3E066BB
:100E1300700408A3E06622C3E09608A3E09608A343
:100E2300E09608A3E096A2D265D03322E76670105D
:100E33000809E766700A0809E76670040809E766A7
:100E430022191919E70947097009E727097005E706
:100E530033F4220922C3E096F008A3E096F008A336
:100E6300E096F008A3E096F022181818E608460862
:100E73007009E626087005E633F4220822C3E493DA
:100E830096087401939608740293960874039396D4
:100E930022C3E697F60809E697F60809E697F608E7
:100EA30009E697F622E026F608A3E036F608A3E063
:100EB30036F608A3E036F622E627F60809E637F603
:100EC3000809E637F60809E637F622700422600DB2
:100ED30018C6C333C608C633C6D5E0F41822E6479E
:100EE300F60809E647F60809E647F60809E647F66D
:100EF30022E056F608A3E056F608A3E056F608A348
:100F0300E056F622E657F60809E657F60809E657CB
:100F1300F60809E657F622E026F008A3E036F008C3
:100F2300A3E036F008A3E036F022E056F008A3E091
:100F330056F008A3E056F008A3E056F022E4C39667
:100F4300F608E496F608E496F608E496F622600DB1
:100F530008C6A2E713C618C613C6D5E0F322C3E733
:100F6300960809E7960809E7960809E79622C6F462
:100F7300C608C6F4C608C6F4C608C6F4C622C3E04B
:100F83009608A3E09608A3E09608A3E0962275D0FE
:100F93000075813F75210175220500020886600CEA
:100FA30008C6C313C618C613C6D5E0F422E6F00874
:100FB300A3E6F008A3E6F008A3E6F022E709470951
:100FC300C3134709336002E733F422E0F608A3E0D2
:100FD300F608A3E0F608A3E0F622E6084608C313E2
:100FE3004608336002E633F422800100E9F874FF17
:100FF30028F90470F622CAC0E0E6F0A308DAFAD0B2
:10100300E0FA22E0F8A3E0F9A3E0FAA3E0FB22E888
:10101300F0A3E9F0A3EAF0A3EBF022EAF0A3EBF0EC
:10102300A3ECF0A3EDF022E0FAA3E0FBA3E0FCA322
:10103300E0FD22E5C754F84401F5C77901222521D3
:10104300F582E43522F58322E6261846184618462B
:1010530022C2AF75D69F02000022E727194719471E
:10106300194722120CF347F101120CF375F1011227
:101073000CF3B3F101120CF3DAF301120CF3F6F3F0
:1010830001120CF33BF401120CF3C0F401120CF344
:101093000CF501120CF39EF501120CF377F6011215
:1010A3000CF3D3F601120CF331F701120CF3A4F78E
:1010B30001120CF3E8F701120CF340F801120CF3E0
:1010C30062F801120CF3F2F801120CF383F9011226
:1010D3000CF3CFF901120CF3FBF901120CF33CFAF8
:1010E30001120CF3DBFB01120CF3BDFC01120CF338
:1010F30092FD01120CF375AD04120CF3A1AD0412B1
:101103000CF3C1AD04120CF3E8AD04120CF32FAFD2
:1011130004120CF362AF04120CF321B004120CF3AB
:10112300BBB004120CF3EAD804120CF3EFD8041288
:101133000CF322D904120CF335BF04120CF3FCBFD9
:1011430004120CF30EC004120CF37EC004120CF351
:101153008BD304120CF39CD304120CF33AD4041271
:101163000CF345D404120CF35FD404120CF3F9FF0F
:1011730002120CF3E6FF02120CF36ED404120CF30A
:101183007ED404120CF393D404120CF347D5041247
:101193000CF386D104120CF30AD204120CF372D2AC
:1011A30004120CF38EC804120CF3A2C804120CF33D
:1011B30018C904120CF367C904120CF39CC9041276
:1011C3000CF3C1C904120CF3E4C904120CF31FCAD3
:1011D30004120CF34CCA04120CF393CA04120CF35A
:1011E300CE7E00120CF3557F00120CF35E7F0012CB
:1011F3000CF3857F00120CF3CD7F00120CF3E47F18
:1012030000120CF39AA204120CF3A8A204120CF31A
:1012130021A304120CF3FAA304120CF3BDA50412C8
:101223000CF30CA604120CF34AA604120CF3F87F79
:1012330000120CF3ADCA04120CF3E5CA04120CF34A
:1012430033CC04120CF3B7CC04120CF3C2790012A2
:101253000CF3EE7900120CF3587C00120CF3987C1B
:1012630000120CF3D47C00120CF3E87C00120CF394
:10127300017D00120CF3F37D00120CF3A67E001225
:101283000CF3BA7E00120CF36CFE01120CF390FE09
:1012930001120CF3A9FE01120CF3E7FE01120CF389
:1012A30017FF01120CF344FF01120CF34EFF01125E
:1012B3000CF3B4FF01120CF3B7FF01120CF3C1FFDF
:1012C30001120CF3CEFF01120CF38EBC04120CF3CB
:1012D300AEBC04120CF3EDBC04120CF30BBD0412F0
:1012E3000CF326BD04120CF38CBD04120CF398BD51
:1012F30004120CF3F5BD04120CF304BE04120CF338
:1013030028BE04120CF3E9BE04120CF3F6BE041259
:101313000CF307BF04120CF390D604120CF3D8D6C7
:1013230004120CF304D704120CF3B69004120CF35A
:10133300109204120CF31E9204120CF33192041255
:101343000CF3469204120CF35B9204120CF36E92AC
:1013530004120CF3EA9204120CF34F9304120CF3ED
:10136300D79304120CF34F9404120CF32895041230
:101373000CF3389504120CF3479504120CF3F7D5CC
:1013830004120CF31BD604120CF343D604120CF311
:101393006BD604120CF3FBC304120CF322C4041225
:1013A3000CF340C404120CF3AFC404120CF304B7DF
:1013B30004120CF31DB704120CF329B704120CF337
:1013C3003DB704120CF35BB704120CF365B70412B8
:1013D3000CF36FB704120CF382B704120CF308B8C2
:1013E30004120CF37DB804120CF3ACB804120CF322
:1013F300FAB804120CF349B904120CF364B90412D9
:101403000CF36EB904120CF37FB904120CF3C2B9D6
:1014130004120CF384D704120CF3CFD704120CF389
:10142300008004120CF32C8004120CF34980041284
:101433000CF35C8004120CF3778004120CF3D1805C
:1014430004120CF3FF8004120CF30F8504120CF347
:101453006D8604120CF39F8604120CF302870412A8
:101463000CF36E8804120CF3968804120CF3AB8809
:1014730004120CF3BB8804120CF3FB8804120CF364
:101483003D8904120CF34D8904120CF350CF04125E
:101493000CF36ACF04120CF392CF04120CF3ABCF0C
:1014A30004120CF3CFCF04120CF3EDCF04120CF3A0
:1014B30004D004120CF332D004120CF34DD00412F6
:1014C3000CF334FF02120CF378FF02120CF3ECA9B5
:1014D30004120CF3FCA904120CF301AB04120CF379
:1014E30033AB04120CF363AB04120CF386AB04129C
:1014F3000CF39DAB04120CF3D7AB04120CF33CAC0E
:1015030004120CF37EAC04120CF3C5AC04120CF3FE
:10151300F2AC04120CF31DAD04120CF3BACC04129A
:101523000CF3CCCC04120CF3E0CD04120CF3E3CD9A
:1015330004120CF380D004120CF3B6D004120CF393
:10154300CED004120CF310D104120CF320D10412E8
:101553000CF364D104120CF36ED104120CF37D89E5
:1015630004120CF3C08904120CF3258A04120CF341
:10157300448A04120CF3E68A04120CF3EF8A041271
:101583000CF3408B04120CF3698B04120CF3768B6F
:1015930004120CF3E88B04120CF3768C04120CF394
:1015A300BB8C04120CF3F48C04120CF3598D04124B
:1015B3000CF3828D04120CF3F98D04120CF3488E94
:1015C30004120CF3858E04120CF3BA8E04120CF37E
:1015D300CC8E04120CF3DE8E04120CF3FD8E041277
:1015E3000CF3068F04120CF3C78F04120CF30A904A
:1015F30004120CF3489004120CF3DBD704120CF31F
:1016030010CE04120CF350C604120CF386C6041257
:101613000CF3CEC604120CF327C804120CF3DEAD90
:1016230003120CF304AF03120CF340AF03120CF3D9
:10163300FEB003120CF32CB103120CF396B3031296
:101643000CF3D6B303120CF378B503120CF30EB6F6
:1016530003120CF368B603120CF3F8B603120CF37F
:101663003CB703120CF37EB703120CF3E3B8031277
:101673000CF363BA03120CF3A4BC03120CF3D2BC35
:1016830003120CF3FEBC03120CF307BD03120CF39D
:1016930064BD03120CF3FDBD03120CF314C103125A
:1016A3000CF39AC103120CF34DD504120CF365D558
:1016B30004120CF36FD504120CF3C5D504120CF30A
:1016C300F29904120CF3089A04120CF3A99A041267
:1016D3000CF3E89A04120CF3059B04120CF3369BEB
:1016E30004120CF3839B04120CF3B79B04120CF348
:1016F300F29B04120CF3EF9D04120CF3559E04129B
:101703000CF38BD204120CF3EAD204120CF328D399
:1017130004120CF369D304120CF3A1C104120CF3E9
:10172300E5C104120CF3FCC104120CF358C30412F8
:101733000CF38DC304120CF3AFC304120CF333D8B0
:1017430004120CF3008002120CF30C8002120CF34F
:101753006E8002120CF3788002120CF307810212DE
:101763000CF3438102120CF3028202120CF35F8228
:1017730002120CF3F18202120CF3448302120CF3F3
:10178300C28302120CF37E8502120CF383870212CA
:101793000CF3B88802120CF3FB8902120CF3A08A33
:1017A30002120CF34E8F02120CF3439002120CF34D
:1017B300D99002120CF3FE9002120CF39B910212C9
:1017C3000CF3B89102120CF3D89102120CF3469267
:1017D30002120CF3639202120CF3919202120CF3B5
:1017E3002F9402120CF3509402120CF3F69402128B
:1017F3000CF33E9502120CF39C9502120CF33F96E8
:1018030002120CF3A49602120CF3039702120CF3C8
:10181300B19702120CF32E9802120CF36A9802127B
:101823000CF3DE9802120CF3239A02120CF3AF9B13
:1018330002120CF34E9C02120CF38E9E02120CF356
:10184300F09E02120CF31E9F02120CF333A102123C
:101853000CF3D3A302120CF3ECA402120CF362D226
:1018630003120CF38BD303120CF369D503120CF39D
:101873007AD503120CF399D503120CF3C2D50312D4
:101883000CF33CDA03120CF35ADA03120CF3DBDA2F
:1018930003120CF37EDB03120CF33ADC03120CF39A
:1018A300F3DC03120CF3D8FF01120CF35DA6041250
:1018B3000CF318A704120CF37EA704120CF39FA7D2
:1018C30004120CF37AA804120CF303EA02120CF3C9
:1018D30032EA02120CF3AAEA02120CF3B9EB021277
:1018E3000CF315EC02120CF382ED02120CF39EEDD5
:1018F30002120CF3F0ED02120CF333EE02120CF3AE
:1019030046EE02120CF39EEE02120CF360EF02128B
:101913000CF3DCEF02120CF313F002120CF34BF096
:1019230002120CF3DDF102120CF3BCF202120CF3FF
:101933000AF402120CF3EDF402120CF379F502121D
:101943000CF3B9F502120CF3D8F502120CF323F6DB
:1019530002120CF343F602120CF3DCF602120CF340
:1019630062F702120CF3BDF702120CF3FDF7021239
:101973000CF393FA02120CF3ACFB02120CF3F2FB1E
:1019830002120CF3E7FC02120CF30FFD02120CF32C
:1019930012FD02120CF31CFD02120CF338FD0212AD
:1019A3000CF3B2FD02120CF3EBFD02120CF317FE63
:1019B30002120CF33EFE02120CF362FE02120CF34F
:1019C300D3FE02120CF3E6FE02120CF315FF021211
:1019D3000CF307D704120CF313D704120CF347D7F5
:1019E30004120CF3FCFF02120CF3AF9703120CF377
:1019F300D29703120CF31F9903120CF36899031285
:101A03000CF3D49903120CF3329A03120CF3359AA4
:101A130003120CF3869A03120CF3FB9A03120CF3D2
:101A2300809B03120CF3839B03120CF3049C03129D
:101A33000CF3459C03120CF331A003120CF3DBA14E
:101A430003120CF32BA203120CF3B2A503120CF333
:101A5300E5A603120CF35FA803120CF3FCA8031210
:101A63000CF3E7A903120CF33CAC03120CF3F9C11A
:101A730003120CF3A3C203120CF30EC303120CF3F1
:101A830029C303120CF3AEC303120CF308C40312ED
:101A93000CF34FC403120CF3B6C403120CF335C694
:101AA30003120CF364C703120CF3ECC703120CF319
:101AB30038F803120CF3A2CA03120CF346CB031239
:101AC3000CF317CC03120CF3D2CD03120CF314F165
:101AD30001120CF3FDCF03120CF323D103120CF309
:101AE300D0CE02120CF333CF02120CF37BCF0212CF
:101AF3000CF3BFCF02120CF31AD002120CF377D0FF
:101B030002120CF3B2D002120CF334D102120CF312
:101B13008ED102120CF30CD302120CF38CD30212EB
:101B23000CF301BA04120CF301D402120CF322D405
:101B330002120CF37CD402120CF3F8D602120CF34B
:101B430017D702120CF307D802120CF33AD9021278
:101B53000CF3B9D902120CF3F5D902120CF364DABF
:101B630002120CF319DB02120CF3F1DC02120CF378
:101B7300F8DD02120CF370DF02120CF366E10212BD
:101B83000CF3DCE302120CF3B6E502120CF377E676
:101B930002120CF3EFE602120CF306E702120CF347
:101BA300FDE702120CF3F1E802120CF360E90212F2
:101BB3000CF312B404120CF369B504120CF328B637
:101BC30004120CF390B604120CF3EDB004120CF3F0
:101BD30008B104120CF34CB104120CF372B10412E9
:101BE3000CF399B104120CF3B1B104120CF353B218
:101BF30004120CF368B204120CF38BB304120CF34B
:101C030094B304120CF39DB304120CF3A6B30412A1
:101C13000CF3B0B304120CF3789504120CF384990B
:101C230004120CF3899904120CF38B9904120CF32C
:101C330083FE03120CF35CD904120CF330D90412A3
:101C43000CF38BD804120CF39BD804120CF3629E92
:101C530004120CF317A902120CF34AA902120CF393
:101C6300B6A902120CF351AA02120CF3EEAA021245
:101C73000CF333AB02120CF355AB02120CF36EAB45
:101C830002120CF394AB02120CF3B6AB02120CF378
:101C9300F4AB02120CF338AC02120CF35AAC02127E
:101CA3000CF3BCAC02120CF383AD02120CF33AAE8C
:101CB30002120CF3ACAE02120CF377AF02120CF368
:101CC300CAAF02120CF330B002120CF36AB0021264
:101CD3000CF3BCB002120CF32AB102120CF395B14F
:101CE30002120CF398B102120CF319B202120CF3A4
:101CF300B0B202120CF330B302120CF34FB3021260
:101D03000CF3B3B402120CF3C0B402120CF3CCB54F
:101D130002120CF3D9B502120CF3E2B502120CF362
:101D2300BAB702120CF3D4B802120CF34DB9021273
:101D33000CF3BFB902120CF3E1B902120CF375BA3A
:101D430002120CF349BC02120CF320C002120CF372
:101D530034C002120CF344C002120CF34EC0021240
:101D63000CF357C002120CF360C002120CF36AC0EA
:101D730002120CF397C002120CF3C0C002120CF350
:101D8300CBC002120CF3EFC002120CF313C1021208
:101D93000CF37DC102120CF3C3C102120CF3E0C1B8
:101DA30002120CF35DC202120CF394C202120CF382
:101DB300D3C202120CF320C302120CF3A6C3021205
:101DC3000CF374C502120CF3F7C502120CF3DBC655
:101DD30002120CF342C902120CF39BC902120CF358
:101DE300E5C902120CF340CB02120CF375CB0212BD
:101DF3000CF3C7CB02120CF37CCC02120CF32BCDE9
:101E030002120CF368CD02120CF3FDCD02120CF397
:101E130069CE02120CF3052D00120CF3372D0012BC
:101E23000CF3652D00120CF33B2F00120CF31B3047
:101E330000120CF3733000120CF3AE3100120CF3EA
:101E4300FA3100120CF3233500120CF3163800128A
:101E53000CF3663900120CF3FC3900120CF3083A48
:101E630000120CF33A3A00120CF3BD3B00120CF3D0
:101E73006E3D00120CF3023E00120CF3453E0012BD
:101E83000CF3C33E00120CF3E03E00120CF3103FC0
:101E930000120CF3453F00120CF3154000120CF333
:101EA300BE4000120CF3444300120CF364440012CE
:101EB3000CF34F4500120CF3D14500120CF3054A05
:101EC30000120CF3424A00120CF39A4A00120CF36C
:101ED300CD4A00120CF3374B00120CF36D4B00127A
:101EE3000CF3F84B00120CF3504C00120CF3274D7B
:101EF30000120CF3E04D00120CF37B4E00120CF3B6
:101F0300835100120CF39F5200120CF3425600123D
:101F13000CF3365700120CF3395700120CF36857C1
:101F230000120CF36E5900120CF3475A00120CF313
:101F33008A5A00120CF3E05B00120CF31F5C0012D0
:101F43000CF3A85C00120CF3DC5C00120CF3A15D33
:101F530000120CF3B95F00120CF32A6000120CF3A9
:101F63006A6000120CF3F86000120CF31A6200129C
:101F73000CF3DC6200120CF3E36400120CF3FB6459
:101F830000120CF30F6500120CF3476500120CF3FB
:101F9300756500120CF3F46600120CF31968001255
:101FA3000CF3766800120CF3286900120CF34F69E6
:101FB30000120CF3166A00120CF3AE6A00120CF353
:101FC300D46C00120CF3096D00120CF36C6D00124B
:101FD3000CF39B6E00120CF3436F00120CF3746F3F
:101FE30000120CF38C6F00120CF31B7000120CF335
:101FF300CF7200120CF3A77400120CF3C374001217
:102003000CF3DF7400120CF3AD7500120CF3A0791E
:1020130000120CF3B68601120CF3E88601120CF3DE
:10202300D78A01120CF3238B01120CF3698B011273
:102033000CF30B8C01120CF3678C01120CF3AC8CB8
:1020430001120CF3F38D01120CF3078F01120CF341
:10205300F69201120CF37A9301120CF38794011296
:102063000CF3E39401120CF3D39601120CF348978B
:1020730001120CF3529701120CF35F9701120CF348
:102083008A9701120CF3719801120CF31B99011238
:102093000CF3999901120CF3B99901120CF3E2991B
:1020A30001120CF3049A01120CF3649C01120CF359
:1020B3002A9D01120CF36F9D01120CF3EC9D01128A
:1020C3000CF39D9E01120CF3CF9E01120CF3159F8E
:1020D30001120CF3519F01120CF3A19F01120CF397
:1020E300F59F01120CF34BA001120CF397A0011200
:1020F3000CF304A101120CF37FA101120CF34AA308
:1021030001120CF34AA401120CF36FA501120CF394
:10211300AEA801120CF3C1AB01120CF37EAC011299
:102123000CF3C2AC01120CF372AE01120CF386AEC7
:1021330001120CF390AE01120CF39AAE01120CF3E0
:10214300A6AE01120CF3C2AE01120CF36DAF011275
:102153000CF3ACAF01120CF3B6AF01120CF3C0AF2A
:1021630001120CF330B001120CF37BB001120CF32B
:1021730090B101120CF3ECB101120CF36DB2011228
:102183000CF32CB301120CF335B401120CF369B543
:1021930001120CF357B601120CF36FB601120CF3D4
:1021A300CAB601120CF3E8B601120CF330B70112F0
:1021B3000CF357B701120CF3F2B701120CF3B8B8D2
:1021C30001120CF34AB901120CF3C4B901120CF356
:1021D300DEBA01120CF38BBB01120CF3B3BC011278
:1021E3000CF303BD01120CF367BD01120CF3C9BD5F
:1021F30001120CF3F7BD01120CF31BBE01120CF319
:1022030050BE01120CF381BE01120CF3B4BE0112D5
:102213000CF3D4BE01120CF33CBF01120CF330C01B
:1022230001120CF38BC001120CF3B4C001120CF3B6
:102233003CC101120CF3BFC101120CF3EAC101123C
:102243000CF3CFC201120CF3E2DD03120CF31ADE1E
:1022530003120CF33BDE03120CF37DDE03120CF3CB
:10226300DFDE03120CF3E9DE03120CF3F9DE0312D3
:102273000CF334DF03120CF314E303120CF301E544
:1022830003120CF3E7E603120CF37EE703120CF3DD
:1022930020E803120CF3D1C401120CF34FC5011251
:1022A3000CF3ABC501120CF3F6C501120CF311C606
:1022B30001120CF33CC601120CF359C601120CF3C4
:1022C30065C601120CF3FCC701120CF315C8011209
:1022D3000CF39AC801120CF3ADC801120CF3CCC86D
:1022E30001120CF370C901120CF3F1CA01120CF3C1
:1022F300A4CC01120CF33ACD01120CF33DCD011223
:102303000CF3ADCD01120CF3CBCD01120CF362CE65
:1023130001120CF3AACE01120CF3ADCE01120CF391
:1023230073CF01120CF3E0CF01120CF306D00112AC
:102333000CF391D001120CF3AFD001120CF3F5D0D2
:1023430001120CF3A9D101120CF3F3D101120CF316
:1023530022D201120CF37FD201120CF3B4D2011278
:102363000CF3E0D201120CF3EED201120CF33BD3C7
:1023730001120CF3ABD301120CF3F4D301120CF3DF
:1023830040D401120CF36CD401120CF377D4011274
:102393000CF395D401120CF380D501120CF38AD5FA
:1023A30001120CF3C5D501120CF3D5D501120CF3B0
:1023B300DED501120CF332D601120CF346D601120C
:1023C3000CF375D701120CF38CD701120CF3A1D7C0
:1023D30001120CF32FD801120CF374D801120CF371
:1023E30000D901120CF30BD901120CF34DDA0112CF
:1023F3000CF368DA01120CF3B4DA01120CF323DBE9
:1024030001120CF35CDB01120CF376DB01120CF30B
:10241300B8DB01120CF388DE01120CF335DF011275
:102423000CF3A2DF01120CF3E2E101120CF3FAE167
:1024330001120CF3FDE101120CF309E201120CF39A
:102443001DE201120CF325E201120CF358E2011212
:102453000CF35AE301120CF3E1E301120CF351E420
:1024630001120CF3D3E401120CF394E501120CF303
:10247300B3E501120CF354E601120CF3B1E60112B9
:102483000CF3B4E601120CF3E1E601120CF3F6E6E9
:1024930001120CF36AE701120CF3B9E801120CF311
:1024A300BFE901120CF34AEA01120CF365EB0112C6
:1024B3000CF32DEC01120CF35EEC01120CF381EC26
:1024C30001120CF38AEC01120CF3B9EC01120CF3B8
:1024D30049ED01120CF3FFED01120CF374EE01123E
:1024E3000CF31BEF01120CF390EF01120CF3C7EF87
:1024F30001120CF305F001120CF33BF001120CF383
:1025030098F001120CF351F703120CF341F5031287
:102513000CF34FF403120CF3EDF303120CF39B973C
:1025230003120CF3919703120CF3269703120CF387
:10253300579503120CF3159503120CF31994031218
:102543000CF357BB04120CF36ACF03120CF3ED9395
:1025530003120CF3A49303120CF3CDB904120CF37E
:10256300C8FD03120CF3E59203120CF3D38F03128D
:102573000CF3948D03120CF3618D03120CF3088D8D
:1025830003120CF39B8C03120CF35A8C03120CF3FF
:10259300938B03120CF32D8B03120CF3CC8A0312CF
:1025A3000CF36C8A03120CF3438903120CF3D788E0
:1025B30003120CF32F8803120CF32A8803120CF373
:1025C3001E8803120CF3518403120CF32B840312A1
:1025D3000CF394FD03120CF33DFD03120CF3ABFB60
:1025E30003120CF3FDFA03120CF360FA03120CF35B
:1025F30056FA03120CF3EFF903120CF3C983031217
:102603000CF36A8303120CF32B8303120CF318836A
:1026130003120CF3DBF903120CF30D8303120CF317
:10262300DC8203120CF3F88003120CF36B800312A9
:102633000CF354BA04120CF3278003120CF3E7D300
:1026430002120CF3008003120CF37DF303120CF35C
:1026530050F303120CF31DF303120CF3F5F2031200
:102663000CF396F203120CF376F203120CF341F21D
:1026730003120CF3EDEE03120CF3D5EC03120CF37F
:10268300BFEA03120CF33FEA03120CF3EBE9031264
:102693000CF39FE903120CF3F7E803120CF338F978
:1026A30003120CF3F5C90300000080FB0000228F26
:1026B3000001004917870001004717350004001087
:1026C3001725000200141726000200161727000220
:1026D300001817280001002217290001002317847E
:1026E300000400911486000100AF162A00010024A3
:1026F300172B00010025172C00010029172D0008B6
:10270300009D142E0001002A172F0001002B173003
:102713000001002C17310001002D1732000100A524
:102723001433000100A614340001002E17360001F3
:1027330000A714380001002F173900010028178360
:10274300000200451763000100B314640001002672
:10275300176500010027176D000100B4147100080C
:102763000095146600010044174300010035174427
:1027730000020036174500010038174600020039F1
:102783001747000800AB14480001003B174B00013A
:10279300003C17040001004817A10001004C173743
:1027A3000001004B17880001004A173C000100A8F4
:1027B300143D0001003017490002003D1767000176
:1027C30000B5144D0002003F174E00010041174FA2
:1027D30000020042173E000100341751000100A916
:1027E3001452000100321753000100331754000143
:1027F30000AA14000000000000000000002001B047
:1028030086000001002001B286000002002001B40E
:1028130086000003002001B186000004004201533A
:1028230085000005004201A1850000060042014227
:1028330085000007003001B58600000040420142D8
:10284300850000FDFF2101AE86010020002005B7B1
:1028530016010021002005B816010000022105B968
:1028630016010001022123EC160204000029018154
:1028730013020402022923E016020403022923E2BD
:1028830016020406021023E8160504000021018342
:1028930013050404022123E416050405022123E69B
:1028A30016050407021023EA160304000029018514
:1028B300130304100029018713030414002801DF04
:1028C3001600013636010100010201000103010077
:1028D3000104010606050200000701003408010097
:1028E3000F090401010D0100FF0E0800001702008B
:1028F30000190100FF1A0100011B0100FE1C010069
:10290300081D0200001F0100012001000121020037
:10291300002301000F24020000260100012701000B
:1029230008280200FF2A0100072B0102402C0100A6
:10293300002D0100012E0100012F0100FF30010BCA
:102943001D310800003A0100083B01000F3C010063
:10295300013D0100FF3E0400004204000046040064
:10296300004A0400004E0400005204000056040014
:10297300005A040000010371030103010301030171
:1029830003010322030203010310030003000300F6
:1029930003000300030003000342030003240306B0
:1029A3000300030003040312032503230325032366
:1029B30003040304030003000300034403000300B0
:1029C300032303000365032100350381030003058B
:1029D3000300030003000300032503230303027121
:1029E300023001600211027002010202020202803F
:1029F30002100261023A0041006302730272026232
:102A03000243020002130238000002000204021211
:102A1300020002000200020002040204023700372F
:102A2300003C024402000239000002000265020079
:102A330002350281020002050282028302000201C2
:102A430001710101010101110101013101010101C3
:102A5300018001100161013B0014006301730172E5
:102A630001620143010001130106013D0135000428
:102A730001120100010001000100010401040133FE
:102A83000133013C014401320136000001000165BC
:102A9300010001350081010001050182018301006C
:102AA3000103007100300160001100700031022049
:102AB30003500480001000610000001400630073E1
:102AC30000720062004300000013000600000000D3
:102AD30000040012000000000000000000040004D5
:102AE30000370037003C02440000000000000000F3
:102AF3000065000000350081000000050000008330
:102B030000000036000100060000000F0000000076
:102B130000000000000000000003FFFF00000403AA
:102B2300FFFF0000FFFF0FF4010005C404032000B2
:102B33000100000B000000000000000003010F0073
:102B43000000000000000000000000000000000082
:102B53000000000000000000000000000000000072
:102B6300001C1846182218621728184C18281858E1
:102B7300182E18621728184C183418621700000012
:102B8300003A1862170000000000000000401862BD
:102B9300170000000000000000000000000000001B
:102BA3000000000000000000000000000000000022
:102BB300000000000000000000000000000000987A
:102BC3001A0100981A02000E1A0280081A03001450
:102BD3001A04001A1A0480201A0500261A06003265
:102BE3001A3100441A33004A1A3400501AFFFF0006
:102BF30000030003000400080010001F003E007BD8
:102C030000F600EC01D703AF075D0FB91E713D005D
:102C13000007ECFDFDFDECDCDCCCBCACAC9C9C8C7F
:102C23007C7C6C6C5C5C5C4C4C3C3C2C2C1C1C031A
:102C3300EAF5E5D5D5C5B5A595958585757565651C
:102C430055554545353525251515050A8C2002565C
:102C530020056220075C200C3E200D4A20FF000067
:102C630000160F00000B150B020002220F330000A9
:102C73000E0F5A6967426565416C6C69616E6365E5
:102C83003039D0D1D2D3D4D5D6D7D8D9DADBDCDD1D
:102C9300DEDF303016181920231A1C1E3000034DB6
:102CA3004C4651181A250502000119161816161854
:102CB300230300303017181921301B1D1F30003C2F
:102CC30040423A3F3F392F47300C0E020B040B0AA8
:102CD3000708000F020402010101010902E80300D1
:102CE3000000BE040A010024000300E803FF0409F6
:102CF3001903100F030A0C041E0828020C050815FB
:102D03001E05C082C0831225009014DE742EF0A32A
:102D1300741EF09014E07434F0A3741EF09014E267
:102D2300743AF0A3741EF09014E47440F0A3741E7C
:102D3300F0025A4074F712081A9014D2E4F0E990A2
:102D430014D1F07CAB7D147AD37B14121714901733
:102D53003BE09014DBF09014DC7495F0A374140240
:102D63003CCD74F012081AEAFEEBFF5480700302A4
:102D73002ED69014D1123D627003022ECFEA241B8B
:102D83001255CD707CEA241F1255CD64137002A333
:102D9300E0706E8A828B83122F249014EC124B5FA7
:102DA300750A00750B00800D123BA3126C3F1216BF
:102DB30018AA0EAB0FEA4B60488A828B83E0650C3E
:102DC3007004A3E0650D702C8A828B83A3A3A3A355
:102DD300E0F50EA3E0F50FE50A450B8A828B83A38A
:102DE300A3A3A360C3123EA5850A82850B83A3A375
:102DF300A3A380B78A0A8B0B8A828B83124B5B80D7
:102E0300B4E508242A1255CDFCE5082402F8E4357C
:102E130009F9E8FAE9FB9014EC12300BA3A3E06480
:102E230002703C8A828B83124B5F800B888289837A
:102E3300A3A3A3A3123EA5E849601F88828983E068
:102E43006A7003A3E06B70E488828983A3A3E06CB8
:102E530070DA9017411258FD806BECF9121E6A85E7
:102E63000882850983E06401704FE5082418122F56
:102E73000D120D4C1261E7120B6CE5082412122F90
:102E83000D120D4CE508123D56120D48E508240BB2
:102E93001261EB120B70E5082417123CF3E50824CA
:102EA30002FCE43509FDE5082419FAE43509FB12AF
:102EB3002680740A120D25800CE064027007AA08AC
:102EC300AB09121F48AA08AB09121582EEFAEF6488
:102ED30080802DEA5402600C9017507401F0EA646C
:102EE30002FA8023EA5408601A121E64EA4B700B3C
:102EF3009014EE1260C27A08122F1AEE6408FAEFE9
:102F0300FB80047A007B00026871F582E43509F5E1
:102F130083E0F50A780A22FB9014D1E0F91216E453
:102F230022A3A3E0F50CA3E0F50D227B009014D1BE
:102F3300E0F91216D874042274F412081A8A088B62
:102F4300098A828B83A3A3A3124957123CFE38F547
:102F530083E02409FA1268097003022FFE8A828B28
:102F63008374021249CC85088285098312300BE8E9
:102F7300F0A3E91264838A828B83A3A3A3A3A3A3ED
:102F8300A3A3F0E5082403F8E43509123000123C4A
:102F9300FE3AF583E08E828B83A3A3A3A3F0EE24F2
:102FA30009FAE43FFB8E828F83A3A3125BAFF58301
:102FB3008882E0A2E58E828F83A3A3A3A3A35004F8
:102FC30074018001E4F0E5082403F5828983124B40
:102FD3005FEA1250E03BF5831267D0120D44123CB6
:102FE300FD3B125CA18E828F83A3A312797F120D06
:102FF30025EEFAEFFB9014D11268568016F98882F9
:10300300F583E0FAA3E0CA22124CFCA3A3227402C4
:10301300120D257F04020AA174F212081A8A088B82
:1030230009ECFAEDFB740E121041E0FC1210908AC9
:103033000C8B0DAE0CAF0DEA4F6030AC08AD09122E
:10304300107EE96026AC08AD09EEFAEFFB1210849E
:10305300E970148E828F83123E92FAEFFB1210787E
:10306300AA08AB091210A87900800279B4024C4B6C
:1030730074F012081A74F6120DD9EAFEEBFF8C08ED
:103083008D09750FB3852182852283E4F0750E00C7
:103093008002050E902D04E493F8E50EC3984003D7
:1030A30002319AAA0E7B001210CC8A0A8B0BEA4BD0
:1030B30060E08A828B83A3A31231A128F0F8C3EEC8
:1030C30098EF940050CC7C157D007900AA08AB09D9
:1030D30012156A850A82850B83A3A3A3A3126C7CB2
:1030E300E0F8EEC3982925E0F8E433F9E50A28F57A
:1030F30082E50B39F583A3A3A3A3A3A3123D08A3DE
:103103001257248A0C8B0DAC0CAD0DAA08AB091217
:103113001714850A82850B83A3E06401700A126188
:10312300E77401123D1A80447401120DB9850A82B5
:10313300850B83124B5D1210B4E9603D74091210C4
:1031430041E0C0E01261E7D0E0F07409121041E001
:10315300640370137401120DB9E508240BFAE43506
:1031630009FB12171480127401121041123EA5E5D7
:103173000812570A3509126C3D850A82850B8312A2
:1031830061F3123D1AA3A3E0C0E0E5082414126121
:10319300EBD0E0F0750F00A90F740A02686EA3A3C9
:1031A300A3E0F8852182852283E02274F712081AAE
:1031B300E9FE8A828B83A3A3A3A3A3A3E05408609D
:1031C300338A828B83A3A3A3A3A3A3E05402602126
:1031D3008A828B83A3A3A3A3A3A3A3A3A3E06406CD
:1031E300600F74E96E600A74CD6E600574F06E70E2
:1031F30003121E4C02454A74F012081A74EF120DA2
:10320300D9740F121041125FA67408121041E9F02D
:10321300ECFEEDFF7405121041124312124536A362
:10322300E0F912109C7406121041125FA674061284
:10323300104112517170030234B5123D42E0FA7429
:1032430006121041E0F9121D8C123515F8A3E0F9AE
:10325300E84970030234B5EE2403F50AE43FF50BA5
:10326300EE2406F508E43FF5097C00850882F58322
:10327300124B5F850A82850B83E0F91210A2740357
:10328300121041125FA6850A82850B83E0C0E08598
:10329300218285228312350ED0E0125286F98521D0
:1032A30082852283123BAA124DD81231A4FAA3E0DD
:1032B300CA2407F582E43AF583E8F0A3E4125FB188
:1032C3002406F582E438F583E4126C4912494B1263
:1032D3000D44EE123CFE3F125CA174031210411226
:1032E30049572409127979120D25742912104112B4
:1032F3006C761230051252993A126C3D742B1210EF
:1033030041E0C0E0852182852283125138D0E0F06C
:103313007402121041E4F074251210417808120F60
:10332300CE02340C7403121041125C698882F58357
:103333001234FDA3A3A312572FFB1210BA850E82DA
:10334300850F83A3EAF0A3EBF07403121041123547
:103353000EA31234FD12593EA2E6500F850E82854C
:103363000F83A3A3A3A3A3E0D2E1F074051210413A
:10337300E0706B850E82850F83A3123EA590152CFA
:10338300E0687003A3E0697055850E82850F83A3FF
:10339300A3A3123CDD750C00780C120D4C780812B7
:1033A3000D407429121041E0F50C780C120D4C7489
:1033B30027121041120B70901539120B707900749B
:1033C30019121041124B2F121F90740A120D2585EA
:1033D3000E82850F83A3A3A3A3A3E04405F0740285
:1033E300121041E004FC8E828F83124B598E828F20
:1033F30083A3A3A3E0F91210A27403121041125F76
:10340300A67402121041E004F07403121041125129
:103413007160677402121041E0FA740612104112CF
:103423003EA5C3EA98E49950517402121041123731
:10343300E7852182852283E028F8A3E039F9E8248F
:103443000FF50EE439F50F850E82F583E4F074036E
:103453001210411235086401600302332774051208
:103463001041740112685CF07403121041125A3057
:1034730012380AE8F0A3E902334B852182852283BF
:10348300124B5F121D92852182852283120B707469
:1034930026121041E0FD7425121041E0FC740A125B
:1034A3001041E0F9EEFAEFFB121E467402120D25ED
:1034B30080438E828F83A3A3A3E0C0E0740C121019
:1034C30041D0E0F01266C5E0C0E0740D121041D0A7
:1034D300E0F074061210411251717009740E12104B
:1034E3004174B98007740E1210417410F0740912FC
:1034F3000DB1121F8A741102686EE0850E82850F6A
:1035030083A3A3A322E012525EE022E012525EA341
:10351300A322852182852283EAF0A3EB12517A222A
:1035230074F012081A74E1120DD97404121041E9EF
:10353300F07403121041ECF07402121041EDF08AA2
:103543000E8B0F742F121041122F26AA0CFB121D83
:10355300807401121041E9F0AA0CAB0D121D8674A0
:1035630001121041E070030237E285218285228334
:10357300E480158E828F83A3A3A3A3A3E0D2E3F0F9
:10358300852182852283E0041267B4F88521828530
:103593002283E0C39840030237D97401121041E03B
:1035A30070030237D98521828522831237E7E50C20
:1035B30028F8E50D39F9E8240FFEE439FF8E82F58A
:1035C30083A3A3A3A3A3E0A2E040B5750800750AF3
:1035D30008750B007402121041E060037508207C2B
:1035E300087D0079007405120DB112156A8E828F61
:1035F30083E0603E90157CE06401701AE508D2E335
:10360300F508750B101237F7121041E8F0A3E91211
:10361300562274FF807643080C750A0C8E828F83C2
:10362300A3123802126C3F740512104174FFF0A309
:10363300805A7404121041E06009E508D2E6F508E7
:10364300750A0A8E828F83A3E064FE7003A3E0F4FD
:10365300703074121210417404126211F8741D1246
:103663001041E81249CC7412120DB1121CAE7D0048
:103673007C0079007415121041AA82AB83121A8060
:10368300800B1237F7121041E8F0A3E9F074071228
:103693001041E508F0123D39C0E07409121041D021
:1036A300E0F0740A1210417401F07405120DB112A6
:1036B3001F4E7411121041E060030237B7740D12EC
:1036C30010411252818E828F83A3A3A3A3F0740DA2
:1036D30012104112499AE50AF0A3E50BF0740312A4
:1036E3001041E0C0E012492BD0E012593E60119026
:1036F300157CE0C0E0740D121041124975D0E0F062
:10370300740D121041123EA5850C82850D83A3A36F
:10371300A3A3A31237F0241C125FA0126C59123713
:10372300F21258F0391266E4C0E0124912D0E012E6
:1037330067A9C0E0740D121041124458D0E012641E
:10374300AAC0E0740D12104112444ED0E0F0740D83
:103753001210411238021237F0242A125FA0850E8C
:1037630082850F83A3A3A3A3A3A3A3A3E0125F99BB
:10377300123D28C0E012443AD0E0F0740D1210411B
:10378300124B5F850E82850F831267BF2428F58253
:10379300E43B126C3D123D311267D0120D44125CB2
:1037A3009AEA125F323B12797D120D257405120DD0
:1037B300B1121F548E828F83A3A3A3A3A3E0D2E0ED
:1037C300F07411121041E060030235767401121097
:1037D30041E0140235827900AA0CAB0D121E52741B
:1037E3001F02686EE075F007A4F8A9F022A3A312E4
:1037F3004B63E8228E828F83A3123EA9740522E0D5
:1038030012380AA3A3A322F8A3E0F9850E82850F39
:1038130083A32274F012081A74E8120DD9E98521E2
:1038230082852283F08A0E8B0F8A828B83A3A3A3C4
:10383300A3A3A3A3A3E0F9121DAA8A088B09EA4B49
:1038430070030238F3E50E1250F4123D51123CE8B6
:10385300852182852283E060030238F67C04850E8D
:1038630082850F83A3A3A3A3A3A3A3A3E0F9121D9C
:10387300B0EE4F607B8E828F83A3A3A3A3123EA5DA
:1038830074071210411260D7123EA5740912104139
:103893001249FCC0E07411121041D0E0126488A3F5
:1038A300A3A3A3A3A3A3123EA5740F121041126CEA
:1038B3003F7412121041E4126864C8241FF582E4B5
:1038C30038F583125C65C413135403FC70027C0443
:1038D3008E828F83E0F97808120D48742059FD74A5
:1038E3004059F97403120DB1121E467402120D25CC
:1038F30002686C7C08850E82850F83A3A3A3A3A310
:10390300A3A3A3E0F9121DB08B0BEA4B700302389B
:1039130074EE4F60DB852182852283E0F50C780C01
:10392300120D4C850882850983A3A3A3A3A3A3A394
:10393300E0F50C780C120D4C8A828B83A3A3A3E0D1
:10394300FB8A82850B8312749C8A82850B83E0FA3F
:103953008E828F83A3A3E0F91226867402120D25AB
:1039630002387874F712081A74FA120DD9E9FE783E
:103973000179017F00800379000F124CDBE0FCEF3B
:10398300C39C5026EF75F007A4FC85F008AD08EA48
:103993002CFCEB3DFD1242CAE0A2E050DA540C606D
:1039A300D6E0A2E250D3780080CF8A828B83A3A390
:1039B300A3A3A3A3E0703DE9A2E0400574016E70E8
:1039C300338A828B83A3A3A3A3A3A37401123CBA58
:1039D300E0C0E07403121041D0E0124329E0C0E0DC
:1039E3007404121041D0E0F07405121041E8125C27
:1039F30004121F8A7406024547C082C083790112EC
:103A03001E52025A4074F412081AEA4B901750607F
:103A130019E4F08A088B09F50AF50B7808120D40B2
:103A23007A02122F2E120D25800A7401F07A027B7E
:103A330000122F1B02301674F012081A74F3120DC1
:103A4300D97403121041E4F0A3F09014EC123CE893
:103A53007401121041E4F0A31249D104F090152629
:103A6300E0A2E35003023B2D123CAE740912104155
:103A730012101274091210417808120FCE9014EE2E
:103A83007808120DC174051210417808120FB01294
:103A93003BB174051210417808120F8150077A0167
:103AA3007B00023B9E7405121041780C120FCE90DE
:103AB3001740E0F509780C79081207ABA80CA90D9B
:103AC300901741E0C398E4995003E08001E8852111
:103AD30082852283F074091210417808120FCEC038
:103AE30008C009C00AC00B7405121041780C120FEC
:103AF300CE123BB1780C79081207ABE4F50AF50B4B
:103B0300D00FD00ED00DD00C780C7908120E9490F3
:103B130014EE780C120FB08011123BA3126C3FEE1F
:103B2300FAEFFB121618AE08AF09EE4F60658E82EE
:103B33008F831231A1C398502DEE2403F8E43FF98B
:103B4300E0FA88828983E0C39AF060237403121039
:103B53004112400B7401121041EEF0A3EF1260F218
:103B6300FEA3E0FF80C48E828F83A3A3A3E4F08E21
:103B7300828F8312793674011210411251718E8231
:103B83008F83A3A3A3A360911260CB121041123BB6
:103B9300AA80897403121041124B5F740D02686E80
:103BA300123EA99014EC22125C90A3A3A3229017B7
:103BB3003F12793EE4F50AF50B2274F012081A8AD3
:103BC300088B09890A780079009014EC123CE8FB11
:103BD300EE4B601E088E828F83A3A3A3A3124B29EF
:103BE300601008E87001098E828F83123CE4EA4F6B
:103BF30070E3901742124B5FC3E89AE99B400302BC
:103C03003CA17A06123CA4A80CA90DEA4970030250
:103C13003CA18A828B83E508F0A3E509123CC3E546
:103C23000AF0901741124CE3123CBAA3E4F0A3F05C
:103C33009014EC124B29600D8E828F83A3A3A3A350
:103C4300126C3F80179014EC126C3F901526E0A283
:103C5300E34009123CAE9014EE121012901526E0C8
:103C6300A2E3503A7A087B009014D1E0F91216EAE5
:103C7300EA4B4C4D702890173FE0F508A3E0850808
:103C83000CF50DE4F50EF50F780C120D407A087B58
:103C9300009014D1E0F91216DE7404120D250268A7
:103CA300717B001216128A0C8B0D221216FCEAF895
:103CB300EBF9ECFAEDFB22123CBE22123CC3A32229
:103CC300F08A828B83A3A322E508F002454AF08E93
:103CD300828F83A3A3A3A3A3A3221255DBA3A3F0E1
:103CE30022A3A3A3A3E0FEA3E0FF227F05020AA170
:103CF300F582E43509F583E0F922EA123D02222434
:103D030010F582E422123D10A3A3A3A322123EAD19
:103D130085088285098322123D1E22F0850A828549
:103D23000B83A3A322E50E2411123D4EE022E50EE0
:103D3300240E123D4E22E50E2410123D4EE02212B7
:103D43003D4622EE123D023FF58322F582E4350F14
:103D5300F58322240FF50AE43509F50B780A22E0EE
:103D6300F91215948A088B09EA4B2274F212081A85
:103D7300890B8A088B098A828B83124B5F121E760A
:103D8300EA4B600479B8806A121E82E9F8902CF538
:103D9300E493F9E8C399400479B280567A15123C4A
:103DA300A4AE0CAF0DEA4F7004791080458A828B64
:103DB30083E4F0A3123CC3E50BF0750A0078081204
:103DC3000D447C127D00EA240312677B120D2590BB
:103DD30014F212517170089014F2800C123EA588EF
:103DE300828983123DF870F4EEF0A3EFF0121E9473
:103DF3007900024C4B124B63EA4B8882898322C0C1
:103E030082C0839014F280048C828D8312749DECA3
:103E13004D60288C828D83A3A3E069600574FF69DC
:103E230070E68C828D83A3A3A3E06A7003A3E06B87
:103E330070D6EC2403FAE43DFB80047A007B000295
:103E43005A4074F712081AE9FD74FE6D70047C0180
:103E530080027C009014F280096D70027C018882DC
:103E63008983125171601F88828983A3A3A3E06AA7
:103E73007003A3E06B70E7ECA2E088828983A3A3BD
:103E8300E050D6F9800279FE02454AEEF9800CA390
:103E9300A312793EEE227402120D257F02020AA1BB
:103EA300F583123EA922123EAD22E0F8A3E0F922E7
:103EB300123EAD8E828F8322120D257F03020AA14B
:103EC300C082C08379009014F2800109E0FAA3E074
:103ED3008A82F583E582458370F1025A4074F612B3
:103EE300081AE4F508F5097808120D48902CF5E452
:103EF3009375F013A4A9F0124000126C9D120D25C6
:103F0300E9FE74096E7003121E8E023E8E74F61261
:103F1300081A74FE120DD9852182852283E4F0A349
:103F2300F0A821A922880889097808120D48750884
:103F3300027509007808120D4812690E120D250248
:103F43003E9974F512081A74EB120DD985218285F6
:103F53002283E4F0A3F09014F280748E828F83A303
:103F6300A3E0C0E07402121041D0E0125622A982ED
:103F7300AA8389088A09750A007808120D447C12FD
:103F83007D007406121041126C62120D2574021228
:103F93000DA9880889097808120D48750813750951
:103FA300007808120D48740412104112511475F070
:103FB30013A4F8AAF075F013E9123FFC1269161264
:103FC3000D2585218285228312400B8E828F8312D9
:103FD3003CE8EE4F7085A821A92288088909780852
:103FE300120D487508027509007808120D48126908
:103FF3000E120D257415023EBBA42AF9E82402FC17
:10400300E439FD7A427B0022E02401F0A3E034008E
:10401300F02274F412081A74EB120DD97E007F009B
:10402300A821A922880889097808120D4875080271
:104033008E097808120D487C007D007A42126CA923
:10404300120D25E9706C8E0880567402120DA98832
:104053000A890B780A120D48750A13750B00780A42
:10406300120D48E50875F013A4F8AAF075F013E5EE
:1040730009123FFC126CAB120D25E9701B7403127D
:104083001041AA82AB837402121041E0F9121E7030
:10409300E970050EEE70010F0508E50870020509C9
:1040A300852182852283123EA5C3E50898E50999F7
:1040B3004098EEFAEFFB741502301374F612081AE7
:1040C3008C828D83A3A3124317F0EA125F383BF56A
:1040D30083E0C0E01242D4D0E0F0EA241DF582E48C
:1040E3003B123EA31242B8124312F0A3F0EA241F7C
:1040F300F582E43BF583123CE8EC1242AB3DF583D9
:10410300EEF0A3EFF01242B13BF5831242E2A3A318
:10411300A3A3A3A3EEF0A3EF125B93FE8C828D8384
:1041230012432174035EFEC39403400302429EEED6
:10413300600874026E60030241C38C828D83E05475
:104143000CFE740C6E7003024202E0A2E4400D8880
:10415300828983E08C828D83A312433774086E6057
:10416300030242021242C27401F08A828B83A3A328
:10417300A3A3A31255E870148C828D83E0440C1220
:104183004329A3A31242E2EEF0A3EFF08C828D83C6
:10419300E0A2E4402B88821242F012430550010949
:1041A300F5821242F0A3A3A3A3A3A3F0A3EF1243A8
:1041B300318C828D83A3A3A3F0E82403F850010973
:1041C30088828983E0C0E0EC2411F582E43DF58325
:1041D300D0E01243218C828D83E0A2E75075888260
:1041E3008983E0FE8C828D8312433774FC5E700CEE
:1041F3008C828D83A3E054036403701E02429E12DB
:1042030042C2E4F0740C6E600302416D8882124274
:10421300F612430550010902418F8C828D83A3E07E
:104223005403603288828983E0C0E0EC1242DC3DB3
:10423300F583D0E01243388C828D83E0540364020B
:10424300701488828983E0C0E01242CAD0E012432E
:10425300388003A3E4F0EC1250E03D126C3DEC24F3
:1042630010FEE43DFFEA241DF582E43BF583E0F50F
:10427300088E828F83E0C3982508F508F0EA241797
:10428300F8E43BF98882F583E0C39508C0E0124265
:10429300B8D0E0125B93C39508500A1242B8E4F019
:1042A3001242D4E4F0023E9E2415F582E422EA246D
:1042B3000DF582E422EC240DF582E43DF58322EC36
:1042C3001252993DF58322EC2414F582E43DF583E3
:1042D30022EC123D023DF583222413F582E422E011
:1042E300FEA3E0FF8C828D83A3A3A3A3221242F635
:1042F300A3A3228983E0F508A3E0FFE5088C828D60
:104303008322A3A3A3A3F0A3EFF0E82402F82212CD
:104313004317A322E4F08C828D83A3A3A322124329
:104323003FA882A98322123CBEA3A3A3A3221243C4
:104333003FA3E022A312433F08A98322125B9CA35D
:104343002274F412081A74F3120DD98A0A8B0BEC37
:10435300FEEDFF8C82F583E0540CF508E0A2E750F4
:1043630006E508D2E7F508E508D2E1F5081255E8B5
:104373007006E508D2E4F508E0A2E55006E508D2A8
:10438300E5F5087C087D007900AA21AB2212156AA5
:104393007402121041E508126C43C0E0740312105A
:1043A30041D0E01249D1E50AF0A3E50BF074051200
:1043B30010411264AF121041E0707774081210417B
:1043C300124957125B85381264CAC0E07408121090
:1043D30041124458D0E01264AAC0E074081210419C
:1043E30012444ED0E0F07408121041124444E0121B
:1043F300497F124A00125F99EE24111255B4C0E0AE
:1044030012443AD0E0F0EE24141255B4C0E074081C
:104413001210411249572435F582E438F583D0E070
:104423001249A4C0E0740812104112495BD0E01293
:104433006203740D023013E82432F582E439F58304
:1044430022123EB3A3A3A3A3A3A32212496B126612
:10445300A938F5832212496B2426F582E438F583C3
:104463002274F712081A7E008A828B83A3A3A3A364
:10447300A3A3A3A3A3E064046003024526125291FD
:10448300E060030245261250F33B12516F700302A2
:10449300452688828983E054036003024526E81297
:1044A300529939F583E0FA8C828D83A3A3E0FBA3B1
:1044B300E0CB2411F582E43BF583E06A70658882E2
:1044C3008983A3A3A3A3A3A3A3A3A312452AE06A57
:1044D3007003A3E06B704C88828983A3A3124536D3
:1044E300E0FFA3E0CF24061255B46A7003A3E06B88
:1044F300703188828983A3A3E0F88C828D83A3A380
:10450300E0F9A3E0F5838982A3A3E06860138C82BA
:104513008D83A3A3A3E0F5838982E0540C64047024
:10452300027E01EEF9802012452E22124B678C8207
:104533008D8322A3A312452EA3A322740C12104130
:10454300E0F9740D120D257F01020AA174F6120819
:104553001A74FC120DD9EAFEEBFFECFAEDFB8C8228
:10456300F583A3E0540360169014E8125171605967
:104573007900EEFCEFFD125D90120A02804B85215B
:1045830082852283EEF0A3EFF074021210411249E8
:10459300C6AC21AD227AAC7B1E1220D48A088B09CB
:1045A300A808A909EA4960218A828B83A3A3A3A34C
:1045B300A3A3A3A3A37406F07A0088828B83124972
:1045C30057125F59E0F91220327404023E9B74F2D1
:1045D30012081A74F3120DD9EAFEEBFF8A82F583EF
:1045E300A3A3A3A3A3A3A3A3A3A3E0F50A90175094
:1045F300E0700579BA02490F750801750900750C59
:1046030000750D007C087D007900AA21AB221215EC
:104613006A740512104174011249D954046012746A
:1046230002121041E0D2E61249D95408700375080A
:1046330003E05410600674404508F508E054086030
:10464300227402121041E044C01249D95420600A76
:104653007403121041E0D2E080087403121041E0A9
:10466300D2E1F0EE24151255B412493F70037401E0
:1046730069700674084508F5088E828F83A3A3A387
:10468300A3A3A3A3A3E0701612212E852182852262
:1046930083125FA67402121041E0D2E28030640FED
:1046A300701074021210411249E174044508F508B0
:1046B300807F8E828F83A3A3A3A3A3A3A3A3E0647A
:1046C300028E828F83700A126C76E8F0A3E9F08081
:1046D30060A3A3A3A3A3A3A3A3E06403700DAC21CE
:1046E300AD22EEFAEFFB121EE280468E828F83A389
:1046F300A3A3A3A3A3A3A3E06401703590157CE057
:10470300601074021210411249E1750910750AFF15
:1047130080187402121041E0440C1249D174FDF068
:10472300A374FFF074044508F5088E828F83122F5B
:1047330026EE24151255B4A2E0503F740212104124
:10474300E0540C701B8E828F83124B5F121B4CE95B
:10475300700579BB02490F7402121041E0D2E5F0F3
:10476300EE24151255B4A2E050107402121041E069
:10477300540C64047004E0D2E5F0EE24111255B435
:10478300C0E07404121041D0E01264B1121041E091
:104793006003024908740812104112499AE508F0AF
:1047A300A3E509F0124935E0C0E012492BD0E0F04F
:1047B30012491CE0C0E0740812104112495712421A
:1047C300DC38F583D0E0124A006401701190157C47
:1047D300E0C0E07408121041124975D0E0F074088B
:1047E300121041124995124926FAE8241CF582E475
:1047F30039F583EA1249CCEE2415FAE43FFB8A82A9
:10480300F58312749DE81258F039F5831249C6EE08
:10481300241C1255B4C0E0124912D0E0125A3612C9
:10482300493F7003740169701374081210411252E6
:1048330081FAEE241D1255B4F9121DB68E828F83B0
:10484300A3A3A3A3A3A3A3A3A3E0C0E0740812108C
:1048530041124458D0E0F0740812104112444EE55E
:104863000AF074081210411251142428F582E43915
:10487300F583E50CF0A3E50D1249AC12497F1256FE
:104883002D125F99EE124926C0E0E82433F582E445
:1048930039F583D0E0F0EE241B1255B4C0E0740860
:1048A30012104112495BD0E0F0EE241A1255B4C045
:1048B300E074081210411249572432F582E438F5A6
:1048C30083D0E01249A412494B120D441266AF1271
:1048D300749D740B121041124957242F12797912C7
:1048E3000D25EE24151255B454406012901508128C
:1048F3005171600AAA21AB22125D90120A02AA2109
:10490300AB22121F54740C121041E0F9024C46E81A
:104913002420F582E439F58322EE2419F582E43F5D
:10492300F583221266BEE022E82412F582E439F50B
:104933008322EE2418F582E43FF583225480F8A302
:10494300E05401F974806822F508A3E0F509750ABB
:104953000078082212496B2212496B2434F582E451
:1049630038F58322A3A3A3A312496F22E0F8A3E09F
:10497300C82212496B1242AB38F58322FAA3E0FB3B
:10498300E8242AF582E439F583EAF0A3EB22A3A312
:10499300A3A3123EA9EE221251181250F839F5833F
:1049A30022F0EE241312563522F0EE240D12563562
:1049B30022E0FC8A828B83E02CFCA3E03400FD8A96
:1049C300828B83ECF0A3EDF022F0A3E4F022F085D8
:1049D300218285228322F0EE241512563522E0D25D
:1049E300E3F01249E9228E828F83123EAD85218244
:1049F300852283E8F0A3E9F022E8F0A3E91260EC52
:104A0300E02274F712081A8A828B83A3E064017090
:104A1300047E6380027E648A828B83E0600879056A
:104A2300124A3924F3FE901524E06007F9124A393B
:104A330024F2FE024526121FFCE9F8EEC398227405
:104A4300F612081A74FE120DD9852182852283126B
:104A53005FA6E9FEECFAEDFB90053012517160326E
:104A6300A821A922880889097808120D487D0174B4
:104A73000E121041E0FCEEF9900530125F7A120A33
:104A8300027402120D25EA4B60047900800679B2A4
:104A9300800279B6023E9974F712081AE9FE90145F
:104AA300DE125171601F7409121041E0F508780895
:104AB300120D4CEEF99014DE125F7A120A027401A1
:104AC300120D25800279B602454A74F712081A8935
:104AD30008ECFEEDFF79B5E508245E60201460065E
:104AE30024F86034803D900532124B296035126CF6
:104AF300BA120A028E828F83125FA680249014E07A
:104B030012749DEC4D601CEEFCEFFD9014E0125FFF
:104B13007A120A02E9F9800B9014DC124B2F121758
:104B230014790002454A124B63EA4B221274A1EE38
:104B3300FAEFFB2274F712081AE9FE79B574AB6E2B
:104B4300700B9014DC124B5F121714790002454A64
:104B53008E828F83A3A3A3A3A3A3A3A3124B632236
:104B6300124B6722E0FAA3E0FB2274F112081AEA5F
:104B7300FEEBFF8C0A8D0B75080190152CE06E700F
:104B830003A3E06F700C124C3AAA0AAB0B12171472
:104B9300805E122134EE6A7002EF6B7009AA0AABD1
:104BA3000B12213A804AAC0AAD0BEEFAEFFB121C52
:104BB3008AE9F508901747E070361225BAE9703094
:104BC300E508702C9014FCE06E7003A3E06F702076
:104BD300EE4F601C750CF4750D14750E00780C12F5
:104BE3000D447C087D00AA0AAB0B126C66120D25DE
:104BF300A90802759974F212081AEAFEEBFF8C08F1
:104C03008D09750A01124C3AEEFAEFFB12170EE901
:104C13006401701190152C123EA5850882850983C5
:104C2300126C3F800EAC08AD09EEFAEFFB121C903C
:104C3300E9F50AA90A80111221288A0C8B0DAC0C04
:104C4300AD0D22740D120D257F06020AA174F61212
:104C5300081AEAFEEBFF7A0D7B00121612EA4B608C
:104C630062EE2424126943F0EE2425126943A31251
:104C73004D08126949A3A31266DC124CE3F0EE124D
:104C83004CC9124CF8E8F0A3E9124D1F124CF01274
:104C93006C3FEE124CD212679FA3A3A3A3F0EE24A2
:104CA300331255B4C0E0124CDBD0E01264CE124C88
:104CB300F0A3A3A3E8F0A3E9124D17C0E0125291A9
:104CC300D0E0F0023E9E242AF582E43FF5832224BD
:104CD3002EF582E43FF58322EA12570A3BF583223D
:104CE300124CE722E08A828B83A3A3A3221267FEDE
:104CF300A3A3A3A322124CFC22123EAD8A828B8370
:104D0300A3A3A3A322F0124D0D22EE2426F582E4E1
:104D13003FF58322F0EE243212563522F0EE242C96
:104D23001256352274F412081A74FE120DD9ECFED1
:104D3300EDFFEC24161255B464057010EC2406FC48
:104D4300E43FFD121EDCE97003024DD3AC21AD221A
:104D53001269F8121B5285218285228312517160D8
:104D63006B8E828F83E064017058E875F009A4F8B4
:104D7300AAF075F009E9A42AF9745528F8740239E0
:104D8300F9E8FAE9FB8882F5837808120FCEEE1270
:104D93004E75120F81402785218285228312499502
:104DA3001255C2124DD87808120FCE90864A780851
:104DB300120EA88A828B837808120FB0800A79A218
:104DC3008010EE240F126C397900800679A18002DD
:104DD30079C80230111249F6EE1266CA2274F21231
:104DE300081A8A0C8B0DECFEEDFFEC1255C2E4F0B1
:104DF300A3F09086027808120FCEEC124E75120EB5
:104E0300056067EC240E1255BB703478B3901523FC
:104E1300E07028901555E064017020EC24111255C0
:104E2300B4F9121FE48B09A909EE1250F43F125F83
:104E3300A4EA4960047800800278A18808802EE003
:104E430060046402700A121EEEE9F5087007801D03
:104E5300E064037010EEFCEFFDAA0CAB0D121B76A1
:104E6300E9F50880087508A180037508A3A908025D
:104E73004C4B1266CA78082274F012081A74F512A1
:104E83000DD9EAFEEBFFEA240AFCE43F8C82F583AA
:104E930012793A1250FE7403120DB98A828B83126F
:104EA3005D9AE97003024F647401120DB974031221
:104EB3000DB1121B52740112104112517170030291
:104EC3004F64E875F009A4F8AAF075F009E9A42A7B
:104ED300F9745128FC740239FDE508240E1261EBC4
:104EE300E4F004121041123EA5E5081250F435090E
:104EF300126C3D8C828D83121006E5082412126118
:104F0300EB12101290864A7808120FCE8C828D8392
:104F13007808120F1A8C828D83780C120FCE90862C
:104F2300A27808120FCE780C79081207ABE5084572
:104F330009450A450B702A74011210411251147568
:104F4300F009A4F8AAF075F009E9A42AF97459281C
:104F5300F582740239F5837401F07A007B081251EB
:104F6300218E828F83A3A3A3A3A3A3A3A3A3A3E0BD
:104F73002406FCA3E03400FD8E828F83125D9A1217
:104F830064BC603EEE240A1250E612499A74681219
:104F930049CCE81250E039F5837402F090150E12F3
:104FA30010068C828D83125F93125B853CF583120E
:104FB300101290864A7808120FCE90150E780812B8
:104FC3000F1A12515C705D9014DC12510CA3A3A351
:104FD300A3A3A3A3A3A3A3125BBB12170EE9701091
:104FE300125B799014DC125B8B70051264BC603425
:104FF3008E828F83A3A3A3A3A3A3A3A3A3A31251CB
:105003000C124B5F121B7CE960118E828F83A3A36A
:10501300A3A3A3A3125148E4F0A3F08E828F8312BB
:10502300512EE4F012515C60030250DB8E828F83B9
:10503300A3A3A3A3A3A3127936901523E0600302CD
:1050430050D0901555E0640160030250D0750A3AC0
:10505300750B00780A120D487402120DA9880A898B
:105063000B780A120D48126F35120D25E9705BE5B6
:1050730008240E1261EB7401125176C0E0E5082496
:10508300111261EBD0E0F0E508240F1261EB743AE2
:105093001249CC90150A121006E50824121261EB8E
:1050A30012101290864A7808120FCE90150A7808CB
:1050B300120F1A90864A7808120FCE90150A7808B4
:1050C300120E05700812511D80031250FE12515C1E
:1050D3007006125A7C74A1F0740B02686E240EF5EC
:1050E30082E422F8E43FF9E8FCE9FD8882F58322B3
:1050F300EA1250F822240FF582E422E5081250F850
:105103003509F583E4F0A3F0221274A18E828F8314
:105113002212511822123EADE8227A007B0290132C
:10512300B5E0F91215BE228A828B83A3A3A3A3A39E
:10513300A3A3A3A3A312513C2212496F240EF58209
:10514300E438F58322A3A3A3A31251502212496F7B
:10515300240FF582E438F583228E828F83A3A3A3E1
:10516300A3A3A3124967240FF582E438F5831251F0
:1051730018492212517A22F0852182852283E02266
:1051830074F612081AEAFEEBFF7A237B001216125A
:10519300EE240AF508E43FF509850882125FA47C32
:1051A300237D00790012156A8508828509831251CF
:1051B300717003025244EEFAEFFB121EFA12515CB5
:1051C30060748E828F8312527764018E828F83A3E1
:1051D300A3A3A3A3A3700712526D740E80211251CF
:1051E3007170101264BC700B8E828F83A3A3E0A234
:1051F300E05007125263740D800512526374051256
:1052030064CE54036401700712524B7405800B90F3
:105213001524E0C0E012524BD0E0125286F5838889
:10522300821255E1850882850983124957125F3836
:1052330038F583E9800E85088285098312601D8015
:1052430003125F60F0023E9E8E828F83A3A3A3A30B
:10525300A3A3A3A3A3A312525D22E0125F7FA32201
:105263008E828F83A3A3A3A3A3A3124967125F3ED6
:1052730038F58322A3A3A3A3A3A3A3A3A3A3125198
:105283003CE02212528A22126A0DF8A3E022EA12AB
:1052930052993BF58322240CF582E42274F112081F
:1052A3001A74E4120DD98A0C8B0D8C088D097A239C
:1052B3007B001216128A0A8B0BAE0AAF0BEA4F70F1
:1052C3000302559C125F44E50824151255CD6870FE
:1052D30003A3E0698E828F837004740280027401D9
:1052E300F0E508240DF8E43509F98882F583E0FA3E
:1052F300C3E49AFA95E0FB1255C92AFAA3E03BFBF3
:105303008E828F83A3A3A3A3125BA28E828F83A318
:10531300A3F0EE2420F582E43FF583E4F0EE2421AC
:10532300F582E43FF583E4F0EEFAEFFB121FAE855E
:1053330008828509831255E870098E828F83A374CE
:105343000580069015241255D6F0EE2417F50AE4CD
:105353003FF50B8E828F831255E1E9850A82850B17
:1053630083F0EE2416F8E43FF9E508240EFAE43559
:1053730009FB888289831249B4E5082410FAE435CD
:1053830009FB850A82850B83E0FC88828983E0F828
:105393008A828B83E0C398C39CF8125622F0EEFCFA
:1053A300EFFDAA0CAB0D121EF4E9F50B8E828F8371
:1053B300E064027006125B791255A6E50B600302E6
:1053C3005593750C00750D00901747E06401600557
:1053D300E06402703F1255B86008EE24211255BBF9
:1053E30070328E828F83A3A3A3125F661255EEEEF3
:1053F30024161255B4125617FAE439FB123CA6EAE6
:105403004B60111267C8120D441255FCAA0C126CA2
:1054130066120D25EEFAEFFB121FBAE9F50B901792
:1054230047E064016008E064026003025586E970A6
:1054330003025586E50C450D7003025593800385E1
:105443000E0B1255B8600BEE24211255BB600302FC
:10545300558C850B0E850C08850D09750A00780897
:10546300120D441255FC8E828F83A3A3A3A312793A
:105473007F120D25EE24201255B4600D1255C17410
:10548300681249CCEE24208015EE24211255B46015
:10549300151255C17403F0A37401F0EE2421F582B3
:1054A300E43FF583E4F0EEFAEFFB121FBAE9F50BE4
:1054B30070907C137D0079007409120DB112156A86
:1054C300741A121041740112562D64687002A3E01D
:1054D300704F8E828F83125148E06405600302543B
:1054E300427C0879FF8E828F83A3A3A3A3E0242A9F
:1054F300125BBE1215F4E970030254427C087D006E
:1055030079FF7401120DB112156A7401120DB97A83
:10551300007B0079AB121ED6741912104174FC8003
:10552300151255C1E064037004A3E06401700874AC
:105533001912104174FFF0E4F508F5097808120D0B
:10554300487402120DB97413121041AA82AB83126C
:1055530060A3120D25852182852283E0602B7409C7
:10556300120DA9880889097808120D487508137562
:1055730009007808120D487C007D00126916120D8F
:10558300258006E50C450D6007AA0CAB0D12161815
:10559300EEFAEFFB1216188003750B10A90B741C9F
:1055A300027596EE2406FAE43FFB12171422EE244A
:1055B3000C12563522EE2420125635640122EE12C7
:1055C30050F83FF58322E508240EF582E43509F50A
:1055D30083E0221255DBA322E08E828F8322A3E095
:1055E300F9121FFC22E054036401221255F222E057
:1055F300FAE82AF8E43400F9228E828F83A3A3A366
:10560300125F6A1255F2EE2416125635125617FC23
:10561300E439FD22FAE82AF8E439F9E824042212ED
:105623005626221264DDA3A3A322F012563222EEE1
:10563300240FF582E43FF583E0227901020CF07434
:10564300F412081AEAFEEBFF8A82F583A3A3A3A34D
:10565300A3A3A3A31249572424F582E438F58312A4
:1056630055E8702E8A828B83125277702512571059
:10567300E06405701D125710A3E0F874016860051B
:10568300740668700712512A7402800512512A7435
:1056930003F0EA240A126011125F7AE4F0EA2408A4
:1056A300F8E43F1230002431F582E43AF583E0C098
:1056B300E0126CB1A3A3D0E012572FCA242EF582B7
:1056C300E43AF583E0C0E0126CB1A3A3A3D0E012E7
:1056D3005C55C812570A38123EA3126CB1125724F4
:1056E3008A0A8B0BAC0AAD0B850882850983125B92
:1056F300BB121714850882850983124B5F121FBAE8
:1057030012600CF0023016240BF582E4228A828B9D
:1057130083A3A3A3A3A3A3A3A31264A3F583888250
:1057230022A3A3A3A31249F612212822125B97FAFC
:10573300A3E02202563DC082C0839014FE7400F0A1
:10574300A3741FF0901500740CF0A3741FF0901550
:10575300027412F0A3741FF09015047406F0A3747E
:105763001FF0025A4074F412081AEA2408FEE43BBC
:10577300FF8E82F583125114125F50E0F508740313
:105783005508F509125BB6F8A3E08882F583E508AE
:10579300F0A3A882A983E50960097402650960037F
:1057A300025855740C5508FC600A74086C60057443
:1057B300046C7026740265097006E508A2E4401AB9
:1057C3008A828B83A3A3A3A3A3A3A3A312595B12CC
:1057D30066A93D1258F6A308A983740C6C701C12B9
:1057E300595724281259432428F582E43DF583A30D
:1057F3001262D7F0E82402F85001097402650970B7
:1058030006E508A2E4404B125957242A12594324AF
:105813002AF582E43DF583A31259051259611262F8
:10582300D7125961A31258FDE82404F8500109EC7A
:10583300600F74086C600A740C6C600574046C70FF
:1058430011125F872426F582E43C1258F6A3A8823E
:10585300A9838A828B83A3A3A3A3A3A3A3A312597C
:105863002554037014E508A2E1400E125F87125815
:10587300F03CF583E05480600812590B1258F8800D
:10588300199014D2E0C0E012590BD0E012593888B5
:1058930082898312593804125B9CA3A882A983E5E9
:1058A30008A2E750458E828F831259258882898307
:1058B30012593E12592A54036030125F872434F57B
:1058C30082E43C1262D5F0E508A2E1501D8A828B86
:1058D30083A3A3A3A3A3A3A3A31230052435F58213
:1058E300E43A1262D5A3F0E82403023016241EF52D
:1058F30082E422F583125905F022125905A3A3A3CA
:10590300F022E088828983228A828B83A3A3A3A3C4
:10591300A3A3A3A3E0FCA3E0CC2432F582E43CF5EB
:105923008322E012592A22FCA3E0CC2425F582E449
:105933003CF583E022F09014D2E0221264D9E022F5
:10594300F582E43DF583125905125950221264DDA4
:1059530012595B228E828F83E0FDA3E0CD22A31236
:105963005950242CF582E43DF58322C082C0838AFA
:10597300828B83125A30FC74035CF98A828B83A373
:10598300A37401F0E960057402697061740C5CF83A
:10599300600A74086860057404687013740269709F
:1059A30005ECA2E440098A828B83A3A37402F074FA
:1059B3000C68700A8A828B83A3A3E02402F074022A
:1059C300697005ECA2E440258A828B83A3A3E024BB
:1059D30004F0E8600F740868600A740C686005746A
:1059E300046870098A828B83A3A3E004F0ECA2E726
:1059F300502A8A828B83A3A3E004125A3612350FEE
:105A0300E0540360178A828B83A3A3E004F0ECA223
:105A1300E150098A828B83A3A3E004F08A828B83FB
:105A2300A3A3E004F0801685218285228312525DB0
:105A3300A3E022F08A828B83E022120D25D083D04B
:105A430082020CF0C082C0838A828B83A3A3A3A3A8
:105A5300A3A3A3A3A3A312517160098A828B83A377
:105A6300A3125A6980D7A3A3A3A3A3A3A3A3125AE0
:105A73007522124B6712161822125A8022EE240C3A
:105A8300F582E43FF5832274F612081A74F4120DBA
:105A9300D9125BC5FCA3E0F5838C82A3E0C0E0745C
:105AA30002121041D0E0125C73125C5C7404121099
:105AB30041126C3F7402121041E064047014125BD3
:105AC300DB2412125BBE7406121041125BA2241A6D
:105AD3008035E064016005E064067039EA2402F869
:105AE300E43B123000125B853AF583E0C0E07403B7
:105AF300121041D0E0125B932413125BBE740612A2
:105B03001041125BA2241B125C5C7408121041E862
:105B1300F0A3E9802B7406121041E4F0A3125BD6C4
:105B23002412125BBE7408121041125BAFC8241A10
:105B3300F582E438F583E0C0E0740A121041D0E046
