:020000040000FA
:060000000213870208450F
:03002B000210D5EB
:03003300020F7148
:030053000207742D
:100083000207D601010000000000F8FF07FFFF0090
:10009300000504000000030001FFFFFFFF00141030
:1000A3002700000020FD000206FFFF1E007701E489
:1000B30016EA16321D0000000000000000000000D8
:1000C300000000000000000000000000000000002D
:1000D300000000000000000000000000000000011C
:1000E30000FF010005000104010C0002012D87043B
:1000F3000486010400005214000000E8030000FF1E
:10010300FFA3140188130000E803000064006400E7
:10011300B801A0BB0D00A0BB0D0002020207040141
:10012300051E02051E020A0A010108080103B80B95
:1001330002803E0102FEFFE8030A050001FFFF0201
:100143000A011401E00100B0423BAAB83F000000DD
:100153003F8C906339AA0CA33A00941E3C804263FF
:100163003DCFFE753E1572313F0000803FF30435ED
:100173003F8096184B000080BF2292D43EDD9B2A1D
:100183003F04000040FFFF7F7FFFFF7FFF010080F0
:10019300341872313F050301010F0300030003000C
:1001A30003000300030003000300030005000A002B
:1001B300140028004F009E000000842E0000000061
:1001C3001C2E00000000FF000000FF001213B560AA
:1001D300461213D3603DE9687008F618F618F6184E
:1001E300F622748067F7120203090909748067F71E
:1001F300221213D3601D1213B57005191919801A31
:10020300121262701F121276C37003E66733191954
:100213001940071818182208080874FFF618F6186A
:10022300F618F6221212766017121453702192F008
:100233001214417019501720F0140808080909090D
:10024300E7F61819E7F61819E7F61819E7F6221270
:10025300144160E6E869701F0808E62480F608E4A4
:1002630036F618547FB47F0CE654806007F6E41822
:10027300F618F622181822E9C6CC08C6CD08C6CE51
:1002830008C6CFC0E0E8C0E0EAC0E0EBC0E009E99F
:10029300F809E7FA09E7FBE6F918E6F8C3EC98ED85
:1002A30099EE9AEBC2E7F5F0EFC2E795F0500E60D6
:1002B3000CEBCFFBEACEFAE9CDF9E8CCF8EAA2E7FA
:1002C300D2E7FAEB33FB13F5F0EEA2E7D2E7FEEF4A
:1002D30033FFC5F013A2E730E601B313C5F0C3C083
:1002E300E0C0F07F00C39BFB605E9418600F401D6D
:1002F30014601AD0E023F9D0E0F80203D58AF0E9BC
:10030300486003D2F0E4AFF0FAF9F8803BEB30E455
:100313000D89F0EA6003D2F0E4AFF0F9CAF8EB30EC
:10032300E30D88F0EF6002D2F0AFF0E4CAC9F8EB56
:1003330054076014FBC3EA13FAE913F9E813F8EF5F
:10034300135002D2E0FFDBEDD0E0C0E030E739C369
:10035300E49FFFF5F0EC98FC42F0ED99FD42F0EEDE
:100363009AFE42F0D0E0F9D0E0F8E5F0607AE923B4
:10037300F9EE20E742D8028067C3EF33FFEC33FC8A
:10038300ED33FDEE33FE80EAEC28FCED39FDEE3A69
:10039300FED0E023F9D0E0F84002801BC3EE13FE49
:1003A300ED13FDEC13FCEF135002D2E0FF08B8008D
:1003B300067F7F74FF802EEF3350178CF020F002FE
:1003C30060100CBC000C0DBD00080EBE000408E854
:1003D30060DFE933E813FFEE2313FE4F4D4C800833
:1003E300E95480FFE4FEFDFCEE33EF33F47004FCCC
:1003F300FD7E80D0E0FBD0E0FAD0E0F8D0E0CFC6BD
:1004030018CEC618CDC618CCC6F9221213D3700461
:10041300181818221213B5700D74FFF61819F61870
:1004230019F61819F622E7548066F6121441700F74
:1004330012145370F014F608F608F608F680D11279
:100443001453700CF608F608768008E6447F80ECB7
:10045300121279700C12126560BFE65480F6E480C4
:10046300BB121265700519191980A5E869700C761D
:100473003F18768018F618F6E8F922E6CDC0E018A2
:10048300ECC0E0E633CD33CDD313F6E719FCE7191F
:100493001933CC33C3947F400ECD9D502408E654CA
:1004A30080F6E418F6800FF4043D14501408E64473
:1004B3007FF6187680E418F618F6D0E0FCD0E0FD5D
:1004C30022CCD313CCFD18E4C6CBC0E018E4C6CAD3
:1004D300C0E00808ED08C633E613F618E433C67522
:1004E300F003C3CA97CA09CB97CB199C40047D0874
:1004F300802EBD00030205B716B6FF0506060816D3
:1005030018C3CA33CACB33CB33CA27CA09CB37CBB9
:10051300193CC37D08803E187D0820E75CC633C6BE
:10052300CA33CACB33CB33DDF1D5F0EB30E77BCA2B
:1005330097CA09CB974ACB199C406F4B7025E6208D
:10054300E0218066187D08C3CA97CA09CB97CB19E7
:100553009CD3C633C6CA33CACB33CB3350C9DDE7CA
:10056300D5F0E1D3E4C636C608C636C608C636C6D5
:1005730008C636C61818188031C3CA97CA09CB975C
:10058300CB199CB34097C633C6CA33CACB33CB33DC
:10059300DD34D5F02EC6A2E0C640C8CA27CA09CBAF
:1005A30037194A70BECB3CB480B90808E63308E675
:1005B30033601F181818D0E0FAD0E0FBD0E0FCD06D
:1005C300E0FD22187D08CA27CA09CB37CB193CD3D3
:1005D300808013F618E4B67F11F618B6FF0EF618EE
:1005E300C60470D20808768080CAF618F618F6801A
:1005F300C5001213D3604F1213B56012E75480661F
:10060300F61212627011121453703B090909F4F6C1
:1006130018F618F618F622121276701512144108FD
:10062300080860EAE6447FF618768018E4F618F6C0
:100633002212144160161214537012E4F608F608DD
:10064300F608E65480F609090918181822EAC0E0EA
:10065300EBC0E0ECC0E0EDC0E0E687F0A4FBACF05B
:1006630008E687F0A42CFCE435F0FA1809E687F0D5
:10067300A42C4B60027401CA35F0FCE433FB09E699
:1006830087F0D2F7A42CCB35F0FC1908E687F0A449
:100693002BCC35F0FBE433FD0819E687F0D2E7A451
:1006A3002C4ACB35F0CD3400FC09E687F0D2E7A421
:1006B3002DCC35F0FDE433FA0918E687F0D2F7A420
:1006C3002CCD35F0CA3400FC08E687F0D2E7D2F728
:1006D300A42ACC35F07A7E20E70B0ACB33CBCD337B
:1006E300CDCC33CC33CB3350147004ED30E00ED289
:1006F300F1E4CD3DCDCC3CCC3B5005DA05C2F1EB6A
:10070300547FC63308E63392F0FBE73309E733C37C
:100713009A502D2B70190C0D4C4D70151806E608C8
:10072300C333700D20F10AA2F013F6E418800B40D6
:1007330024E4F630F002768018F618F618F68024D2
:10074300D33B14501074FFA2F013F6187680E4180C
:10075300F618F6800FA2F013F618E63303F618EC3A
:10076300F618EDF6D0E0FDD0E0FCD0E0FBD0E0FAE7
:1007730022C0E074F1120BD6A2AFE433F509D2AF75
:1007830085A708AFA1EF5508FE74105E6006121727
:10079300C875A1EF74085E60081217CE75A1F780C3
:1007A30024EFA2E092F0E508A2E082F050179061F6
:1007B30098E0F8900634E0C398A2D265D033500293
:1007C300E8F075A1FE752300E509A2E092AF7F0270
:1007D300020C35C0E074F2120BD6A2AFE433FED2A2
:1007E300AF9061A4E0F8759B00E591585408600848
:1007F3007591F712181C8023E59158541060087501
:1008030091EF1218228014E591A2E092F0E8A2E0A1
:1008130082F05007E0C2E0F01219849061A3E0F87F
:10082300E5E9585404600E12195A75E9FB90619377
:10083300E0A2E640F2752300EEA2E092AF7F010250
:100843000C35C0E074F2120BD6A2AFE433FED2AF84
:100853009061A5E0F8E5BF585404600675BFFB122C
:10086300199C80D1C3E498F8E499F91208A880266A
:10087300C3E49AFAE49BFBE920E7E91208A8E498A9
:10088300F8E499F922C3E498F8E499F91208A8E482
:1008930098F8E499F9C3E49AFAE49BFB22EB20E786
:1008A300CFE920E7E0B90010BB0008E88AF084F83C
:1008B300AAF022E4FBC8FA22EB70227B10C833C8EB
:1008C300C933C9335007C39AC3DBF280069A500178
:1008D3002ADBEAC833F4C8C933F4C9FA2275F0082D
:1008E300E4C833C8C933C933C99AC99B5004C92A58
:1008F300C93BD5F0ECFBC833F4C8E4C9FA221209AA
:100903004C30F039120991803412094C20F0143024
:10091300E72B74FFFCFBFA747F8022E4FCFBFA7480
:1009230080801AB48008BC00F2BB00EF800F50EB4C
:10093300F9E4C39AFAE49BFBE49CFCE499C6CC1863
:10094300C6CB18C6CA18C6F922E4C9C608CAC6085F
:10095300CBC6D3330308CCC63392F0C3947F402E67
:1009630094184019C9B90704CACBCC225025C3092E
:10097300CA33CACB33CBCC33CC33D9F422F4600D96
:10098300C9CCC313CB13CBCA13CAD9F6CC22E4FC0C
:10099300FBFA2214FCFBFA22080808EAC0E0EBC0C9
:1009A300E086F0E7A4FA180986F0E7A42AFA180902
:1009B30086F0E7A42AFA180986F0E7A42AFA19862A
:1009C300F0E7A4FBE5F02AFA190886F0E7A42BFB6D
:1009D300E5F03AFA190886F0E7A42BFBE5F03AFABA
:1009E30018180986F0E7A4C5F02BFBE43AFA1908B6
:1009F300E7C5F0C6A426F6E5F03BFBE43AFA188611
:100A0300F0E7A4F6E5F00826F6E43B08F6E43A0836
:100A1300F6D0E0FBD0E0FA22080808E630E711122E
:100A2300123A120A33080808C64480C61818182256
:100A3300181818E9799EC608CAC608CBC608CCC6DA
:100A4300C370207996CACBCC7019798ECBCC701336
:100A53007986CC700EF9802ACA33CACB33CBCC3318
:100A6300CC331930E7F2CCCBCA3350147004EA30DC
:100A7300E00DE4CA3ACACB3BCBCC3CCC500209C311
:100A8300E913C6CC182313C6CB18C6CA18C6F92255
:100A9300E4CFC0E0E4CEC0E0E4CDC0E0E4CCC0E00D
:100AA30075F020E626F608E633F608E633F608E6A0
:100AB30033F6181818EC33FCED33FDEE33FEEF3349
:100AC300FFC3EC9709ED9709EE9709EF97191919E9
:100AD300400FFFEC97FC09ED97FD09EE97FE1919FE
:100AE30006D5F0BFECF709EDF709EEF709EFF719B3
:100AF3001919D0E0FCD0E0FDD0E0FED0E0FF2225C4
:100B030021C582C0E0E52234FFC583C0E0E521C3EF
:100B1300958224F810AF0885832285822180088579
:100B23008322858221D2AFCEF0A3E520F0A37808FB
:100B3300E608F0A3DEFAEFF0A3E58124FAF8E6086D
:100B4300F0A3E608F0A3E608F0A30808E608F0A37C
:100B5300E608F0A315811581D0E0FED0E0F81581F9
:100B630015811581E8C0E0EEC0E02212142CB90013
:100B730003020BC0E4900501784079138002F0A3CF
:100B8300D8FCD9FA78239000867A01BA000280074C
:100B9300E493A3F608DAF97A407B17900087784943
:100BA30079028015E493A3AD82AE838A828B83F0AE
:100BB300A3AA82AB838D828E83D8E9D9E775829508
:100BC3007583F574041210B775828475832B7400D2
:100BD3001210B7C0D02521C582C0E0E52234FFC57D
:100BE30083C0E0E521C3958224F310AF08858322F7
:100BF3008582218008858322858221D2AFC8F0A314
:100C0300E9F0A3EAF0A3EBF0A37908E709F0A3D88E
:100C1300FAECF0A3EDF0A3EEF0A3EFF0A3D0E0F035
:100C2300A3D0E0F0A3D0E0F0A3E520F0A3E5F0F03B
:100C3300A322852283852182E0C0E0A3E0F9A3E01B
:100C4300FAA3E0FBA37808E0F608A3DFFAE0FCA32D
:100C5300E0FDA3E0FEA3E0FFA3E0C0E0A3E0C0E06B
:100C6300A3E0F5D0A3E0F520A3E0A3F5F010AF08CF
:100C73008583228582218008858322858221D2AFC4
:100C8300D082D083D0E0F8D0E03212123D18181889
:100C9300120A931213361919192212133619191934
:100CA300080808E618181820E7E0120A9312123D04
:100CB30018181822090909E719191920E7DC080887
:100CC30008E618181820E703020A9312123D1818B1
:100CD30018120A9312123D181818121336191919FB
:100CE3002275F0108E248F258582298583288521FE
:100CF30082852283E0CEA3E0CF852982852883EBFA
:100D0300C9EAC8EDCBECCAC3E833C8E933C9EA334F
:100D1300CAEB33CBC3EA9EF527EB9FF526B350040A
:100D2300AB26AA27EC33CCED33CDD5F0DAAE24AF26
:100D330025221213D3601C1213B5601712144170CD
:100D4300071214537001D322C0D01214537006D06B
:100D5300D0B322C32233D0D0501430E0F6C3E79689
:100D63000809E7960809E7960809E796B32220E001
:100D7300D5E6970809E6970809E6970809E697B3C1
:100D830022D083D082ECC0E0EDC0E0E493A3FCE486
:100D930093A3FDED4C600D120EA8EC24FFFCED3483
:100DA300FFFD80EFE493A3FCE493A3FDED4C600D02
:100DB300120F9CEC24FFFCED34FFFD80EFD0E0FD2F
:100DC300D0E0FCE493A3C0E0E493C0E0221213D389
:100DD300601B1213B560161214417007121453608E
:100DE3000CB322C0D01214537005D0D022C32233C7
:100DF300D0D0501330E0EBC3E7960809E796080913
:100E0300E7960809E7962220E0E4E6970809E697C3
:100E13000809E6970809E69722D083D082E9C0E063
:100E2300E493A3C386F0C5F095F0F908E493A38691
:100E3300F0C5F095F0700BE493A3C3994005E90462
:100E43008002A3E475F002A42582F582E5F03583E0
:100E5300F583D0E0F9E493A3C0E0E493C0E02285F6
:100E63002283852182E0A3FEE0A3F5207808E0A396
:100E7300F608DFFAE0A3FFE0A3C0E0E0A3C0E0E0F0
:100E8300A3C0E0E0A3C0E0E0A3C0E010AF08858208
:100E9300218583228008858221858322D2AFD08356
:100EA300D0820210BDC0E0C3E49396087401939608
:100EB30018400FE493667008087401936618700075
:100EC3007019A3A3C3E49396087401939618A3A37C
:100ED300400DD0E0D0E0D0E0020DC0A3A3A3A3A3B4
:100EE300A3D0E0227404800474028000CCC0E0ED3F
:100EF300C0E0E521C39CCCAD2250011D10AF068C90
:100F0300218D2280068C218D22D2AF121039D0E0A0
:100F1300FDD0E0FC2274028000CCC0E0EDC0E0E52F
:100F230021C39CCCAD2250011D10AF068C218D2214
:100F330080068C218D22D2AF121017D0E0FDD0E0B5
:100F4300FC221213D360251213B5602012144170D2
:100F530003021453080808E76670101819E766704F
:100F63000A1819E76670041819E76622F422C0E02C
:100F730074F2120BD6A2AFE433FED2AFE58BA2E03C
:100F830050057904121702758B00C2E8752300EE31
:100F9300A2E092AF7F01020C35C0E0C0F088F0E41C
:100FA300936670080874019366187000A8F0A3A3F1
:100FB300700BD0F0D0E0D0E0D0E0020DC0A3A3D0FE
:100FC300F0D0E022D083D082CCC0E0E493A36006CB
:100FD30012105A1470FAE493A360061211BC147031
:100FE300FAD0E0FCE493A3C0E0E493C0E022C0089D
:100FF300C3E096F50808A3E096420808A3E09642EA
:101003000808A3E0964208A2D265D033E508700130
:10101300D3D00822CAC0E0E493A3C582CCC582C55D
:1010230083CDC583F0A3C582CCC582C583CDC583DB
:10103300DAE5D0E0CA22CAC0E0E0A3C582CCC5820B
:10104300C583CDC583F0A3C582CCC582C583CDC579
:1010530083DAE6D0E0CA22C0E0E493A3D39C501025
:10106300E493A3C39C400AD0E0D0E0D0E0020FE4B5
:10107300A3A3A3D0E0227009080808226016181859
:1010830018C6C333C608C633C608C633C608C63334
:10109300C6D5E0EA22C008C3E096F50808A3E096A7
:1010A300420808A3E096420808A3E09645087001A9
:1010B300D3D00822C09FF59FE473D09F22D083D062
:1010C30082C09FE493C0E0740193C0E0740293F57F
:1010D3009F22C0E0C0D0E8C0E0A8A8D2AFC2C775C5
:1010E3002300E8A2E792AFD0E0F8D0D0D0E03225D9
:1010F30021F58210AF08F521400C15228008F52157
:1011030040021522D2AF8522832200C0D0252110B0
:10111300AF08F521500C05228008F5215002052265
:10112300D2AFD0D0227404800A7403800674028084
:10113300027401C0E0F4041210F2D0E01213EF22A3
:10114300BB0102E722C082C08389828A83BB00037A
:10115300E08002E493D083D082226016080808C698
:10116300C313C618C613C618C613C618C613C6D5E6
:10117300E0EA22C3E0C696F608A3E0C696F608A303
:10118300E0C696F608A3E0C696F6222521F8E435D4
:1011930022F9222521FAE43522FB222521FCE4351C
:1011A30022FD22252110AF08F521400C15228008CD
:1011B300F52140021522D2AF22C0E0E493A36C7064
:1011C30009D0E0D0E0D0E0020FE4A3A3D0E022C333
:1011D300E7960809E7960809E7960809E796A2D271
:1011E30065D03322C3E09608A3E09608A3E09608EF
:1011F300A3E096A2D265D03322E76670100809E710
:1012030066700A0809E76670040809E76622E06663
:10121300701008A3E066700A08A3E066700408A3D0
:10122300E06622C3E096F008A3E096F008A3E096F8
:10123300F008A3E096F022181818E4C396F608E421
:1012430096F608E496F608E496F622C3E697F608BF
:1012530009E697F60809E697F60809E697F62218CD
:101263001818E60846087009E626087005E633F400
:10127300220822191919E70947097009E727097094
:1012830005E733F4220922C3E49396087401939685
:101293000874029396087403939622E026F008A339
:1012A300E036F008A3E036F008A3E036F02270043D
:1012B30022600D18C6C333C608C633C6D5E0F4187A
:1012C30022E657F60809E657F60809E657F608092D
:1012D300E657F622E627F60809E637F60809E63761
:1012E300F60809E637F622E026F608A3E036F60804
:1012F300A3E036F608A3E036F622E056F608A3E0AC
:1013030056F608A3E056F608A3E056F622E647F69B
:101313000809E647F60809E647F60809E647F6220C
:10132300E056F008A3E056F008A3E056F008A3E067
:1013330056F022E4C397F709E497F709E497F7090E
:10134300E497F722600D08C6A2E713C618C613C6B2
:10135300D5E0F322C6F4C608C6F4C608C6F4C60828
:10136300C6F4C622C3E09608A3E09608A3E0960855
:10137300A3E09622C3E7960809E7960809E79608CB
:1013830009E7962275D00075813F75210175220505
:1013930000020B6E600C08C6C313C618C613C6D56D
:1013A300E0F422E6F008A3E6F008A3E6F008A3E6DB
:1013B300F022E7094709C3134709336002E733F40F
:1013C30022E0F608A3E0F608A3E0F608A3E0F6227D
:1013D300E6084608C3134608336002E633F4228066
:1013E3000100E9F874FF28F90470F622CAC0E0E6A8
:1013F300F0A308DAFAD0E0FA22E0F8A3E0F9A3E0D8
:10140300FAA3E0FB22E8F0A3E9F0A3EAF0A3EBF0F0
:1014130022EAF0A3EBF0A3ECF0A3EDF022E0FAA3B1
:10142300E0FBA3E0FCA3E0FD22E5C754F84401F58B
:10143300C77901222521F582E43522F58322E626A8
:1014430018461846184622C2AF75D69F02000022DE
:10145300E727194719471947221210C0F0D0021283
:1014630010C041D1021210C085D1021210C01FD288
:10147300021210C08FD2021210C0BED2021210C0CC
:10148300C4D3021210C0EED3021210C042D402120F
:1014930010C016D5021210C044D7021210C0F2D7E2
:1014A300021210C05FDA021210C0E4DA021210C096
:1014B300E7DD021210C014E0021210C058E002125D
:1014C30010C0B1E1021210C0C4E1021210C001E267
:1014D300021210C0BEE3021210C083F7041210C040
:1014E300B7F7041210C00AF8041210C00DF9041261
:1014F30010C017F1011210C093F1011210C0C6F110
:10150300011210C0F4F1011210C032F2011210C026
:101513006FF4011210C08EF4011210C0D3F4011243
:1015230010C069F5011210C0B5F5011210C049F6DB
:10153300011210C022F7011210C07EF7011210C071
:10154300DCF7011210C04FF8011210C093F801121A
:1015530010C0EBF8011210C00DF9011210C09DF973
:10156300011210C02EFA011210C07AFA011210C033
:10157300A6FA011210C0E7FA011210C07DFC011295
:1015830010C069FD011210C044FE011210C0AEDA92
:10159300031210C042DB031210C0AADB031210C0F7
:1015A300CFDC031210C059DD031210C0E4DD0312B7
:1015B30010C020DE031210C0B9DE031210C04EDFCC
:1015C300031210C021E0031210C003E2031210C083
:1015D300B7E2031210C0ADE3031210C04CE40312D0
:1015E30010C0A1E4031210C00FE5031210C01BE8E2
:1015F300031210C045EA031210C046EB031210C0D9
:1016030084EC031210C08FEC031210C0C8D704126D
:1016130010C0F4D7041210C014D8041210C03BD861
:10162300041210C082D9041210C0B5D9041210C01C
:1016330074DA041210C00EDB041210C0A288051263
:1016430010C0A788051210C0DA88051210C07AEA04
:10165300041210C041EB041210C053EB041210C06B
:10166300C3EB041210C00B83051210C01C830512B8
:1016730010C0BA83051210C0C583051210C0DF83E2
:10168300051210C0E8FF031210C0EBFF021210C0D6
:101693001EFF011210C02EFF011210C043FF0112E2
:1016A30010C0F7FF011210C00681051210C08A8115
:1016B300051210C0F281051210C05AFD021210C0AB
:1016C30078FD021210C0ADFD021210C0D2FD02124D
:1016D30010C0F5FD021210C030FE021210C05DFEF4
:1016E300021210C0A4FE021210C043FF021210C067
:1016F3002DFD041210C0B4FD041210C0BDFD041270
:1017030010C0E4FD041210C02CFE041210C043FEEE
:10171300041210C07CD0041210C08AD0041210C06E
:1017230003D1041210C0DCD1041210C09FD30412E1
:1017330010C0EED3041210C02CD4041210C0F87FD2
:10174300001210C088F3041210C0C0F3041210C0BA
:101753000EF5041210C092F5041210C0BDB00412AD
:1017630010C0E9B0041210C053B3041210C093B3F5
:10177300041210C0CFB3041210C0E3B3041210C09C
:10178300FCB3041210C0EEB4041210C0A1B50412CD
:1017930010C0B5B5041210C0607E001210C0847E64
:1017A300001210C09D7E001210C0DB7E001210C01C
:1017B3000B7F001210C0387F001210C0427F00124E
:1017C30010C0A87F001210C0AB7F001210C0B57FFD
:1017D300001210C0C27F001210C041FD031210C0DE
:1017E30061FD031210C0A0FD031210C0BEFD031261
:1017F30010C0D9FD031210C03FFE031210C04BFEF0
:10180300031210C0A8FE031210C0B7FE031210C0CB
:10181300DBFE031210C09CFF031210C0A9FF0312CA
:1018230010C0BAFF031210C073FF041210C0BBFF35
:10183300041210C0E7FF041210C00BB6041210C04C
:101843005FB7041210C06DB7041210C080B7041242
:1018530010C095B7041210C0AAB7041210C0BDB7C8
:10186300041210C039B8041210C09EB8041210C07C
:1018730026B9041210C09EB9041210C077BA04121C
:1018830010C087BA041210C096BA041210C024867E
:10189300051210C04886051210C07086051210C0CC
:1018A3009886051210C0E6EC041210C00DED041268
:1018B30010C02BED041210C09AED041210C0ABE15E
:1018C300041210C0C4E1041210C0D0E1041210C00D
:1018D300E4E1041210C002E2041210C00CE204128C
:1018E30010C016E2041210C029E2041210C0B3E2C1
:1018F300041210C028E3041210C05CE3041210C0E9
:10190300AAE3041210C0F7E3041210C012E4041295
:1019130010C01CE4041210C042E4041210C0A7E477
:10192300041210C0EE83051210C01084051210C0FB
:101933009E84051210C0E888051210C02CA0041262
:1019430010C058A0041210C075A0041210C088A0C3
:10195300041210C0A3A0041210C0FDA0041210C0F2
:101963002BA1041210C03FA5041210C09DA604129F
:1019730010C0CFA6041210C032A7041210C0B7A81B
:10198300041210C0DFA8041210C0F4A8041210C07F
:1019930004A9041210C044A9041210C086A9041299
:1019A30010C096A9041210C0FDFB041210C017FC4E
:1019B300041210C03FFC041210C058FC041210C0E3
:1019C3007CFC041210C09AFC041210C0B1FC041277
:1019D30010C0DFFC041210C0FAFC041210C0C8844B
:1019E300051210C00C85051210C03FD4041210C09C
:1019F3004FD4041210C054D5041210C086D504125B
:101A030010C0B6D5041210C0D9D5041210C0F0D539
:101A1300041210C02AD6041210C08FD6041210C0AC
:101A2300D1D6041210C018D7041210C045D704121F
:101A330010C070D7041210C067F9041210C079F9EE
:101A4300041210C08DFA041210C090FA041210C0D0
:101A53000080051210C03680051210C04E8005129A
:101A630010C09080051210C0A080051210C0E48041
:101A7300051210C0EE80051210C0C6A9041210C0D2
:101A830009AA041210C06EAA041210C08DAA04126F
:101A930010C02FAB041210C038AB041210C089ABB6
:101AA300041210C0B2AB041210C0BFAB041210C0BA
:101AB30031AC041210C0BFAC041210C004AD041248
:101AC30010C03DAD041210C0A2AD041210C0CBADC6
:101AD300041210C042AE041210C091AE041210C022
:101AE300CEAE041210C003AF041210C015AF04121F
:101AF30010C027AF041210C046AF041210C04FAF7E
:101B0300041210C010B0041210C053B0041210C05D
:101B130091B0041210C09387051210C0BDFA0412CD
:101B230010C03BEF041210C071EF041210C0B9EFE4
:101B3300041210C012F1041210C093C6031210C095
:101B4300B9C7031210C0F5C7031210C0B3C90312FB
:101B530010C0E1C9031210C04BCC031210C08BCCD0
:101B6300031210C02DCE031210C0C3CE031210C037
:101B73001DCF031210C0ADCF031210C0F1CF03125B
:101B830010C033D0031210C098D1031210C018D361
:101B9300031210C059D5031210C087D5031210C009
:101BA300B3D5031210C0BCD5031210C019D603124B
:101BB30010C0B2D6031210C0C9D9031210C04FDA35
:101BC300031210C07A85051210C09285051210C049
:101BD3009C85051210C0F285051210C0FCC30412C7
:101BE30010C012C4041210C0B3C4041210C0F2C453
:101BF300041210C00FC5041210C040C5041210C057
:101C03008DC5041210C0C1C5041210C0FCC5041256
:101C130010C0F9C7041210C05FC8041210C00B82B1
:101C2300051210C06A82051210C0A882051210C0E6
:101C3300E982051210C0EB87051210C0B9A5021284
:101C430010C0C5A5021210C027A6021210C031A6EB
:101C5300021210C0BEA6021210C0FAA6021210C0D1
:101C6300F6A7021210C054A8021210C0F4A8021260
:101C730010C074A9021210C043AB021210C085AD8C
:101C8300021210C0CCAE021210C009B1021210C071
:101C930071B2021210C01DB3021210C00CB80212AE
:101CA30010C002B9021210C09AB9021210C0BFB913
:101CB300021210C057BA021210C075BA021210C035
:101CC300ECBA021210C00BBB021210C038BB0212D6
:101CD30010C0D0BC021210C0F1BC021210C097BDDC
:101CE300021210C0DEBD021210C052BE021210C09A
:101CF300E0BE021210C03DBF021210C0B6BF0212F6
:101D030010C038C1021210C09CC3021210C025C4F7
:101D1300021210C053C4021210C0C7BA041210C07A
:101D23004EBB041210C04DBC041210C056BD0412A9
:101D330010C073BD041210C095BD041210C040DB67
:101D4300041210C0FFDB041210C065DC041210C0C3
:101D530014DD041210C062B1031210C091B103125A
:101D630010C009B2031210C018B3031210C074B329
:101D7300031210C0E1B4031210C0FDB4031210C06B
:101D83004FB5031210C092B5031210C0A5B50312CC
:101D930010C0FDB5031210C0BFB6031210C03BB78D
:101DA300031210C072B7031210C0AAB7031210C0F7
:101DB3003CB9031210C01BBA031210C069BB031253
:101DC30010C04CBC031210C0D8BC031210C018BD05
:101DD300031210C037BD031210C082BD031210C01E
:101DE300A2BD031210C03BBE031210C0C1BE03123A
:101DF30010C01CBF031210C05CBF031210C0F2C19D
:101E0300031210C00BC3031210C051C3031210C03E
:101E130046C4031210C06EC4031210C071C403126F
:101E230010C07BC4031210C097C4031210C011C5A5
:101E3300031210C04AC5031210C076C5031210C0A6
:101E43009DC5031210C0C1C5031210C032C60312D0
:101E530010C045C6031210C074C6031210C0BD865D
:101E6300051210C0C986051210C0FD86051210C0E8
:101E7300FDFF011210C0339B031210C0569B0312C7
:101E830010C0A39C031210C0EC9C031210C0589DF9
:101E9300031210C0B69D031210C0B99D031210C0E7
:101EA3000A9E031210C07F9E031210C0049F0312E8
:101EB30010C0079F031210C0889F031210C0C99F50
:101EC300031210C0B5A3031210C05FA5031210C004
:101ED300AFA5031210C036A9031210C069AA0312DA
:101EE30010C0E3AB031210C080AC031210C06BAD83
:101EF300031210C0C0AF031210C0CEEC031210C007
:101F03005B9F041210C0E3ED031210C0FEED031239
:101F130010C083EE031210C0DDEE031210C024EFD5
:101F2300031210C03FD0021210C00AF1031210C0F6
:101F330039F2031210C0C1F2031210C0CAF4031223
:101F430010C077F5031210C01BF6031210C0ECF695
:101F5300031210C0A7F8031210C03FFA031210C0F7
:101F6300D2FA031210C0F8FB031210C00080031250
:101F730010C06380031210C0AB80031210C0EF8047
:101F8300031210C04A81031210C06FCE021210C098
:101F9300E281031210C06482031210C0BE820312D6
:101FA30010C03C84031210C0BC84031210C01785F8
:101FB300031210C03185031210C05285031210C0E2
:101FC300AC85031210C02888031210C0478803127F
:101FD30010C03789031210C06A8A031210C0E98A3D
:101FE300031210C0258B031210C0948B031210C070
:101FF300498C031210C0218E031210C0288F0312C4
:1020030010C0A090031210C09692031210C00C953A
:10201300031210C0E696031210C0A797031210C054
:102023001F98031210C03698031210C02D99031283
:1020330010C0219A031210C0909A031210C0B2E488
:10204300041210C009E6041210C0C8E6041210C03E
:1020530030E7041210C086DE041210C0A1DE0412A1
:1020630010C0E5DE041210C00BDF041210C032DF13
:10207300041210C04ADF041210C0ECDF041210C0B7
:1020830001E0041210C024E1041210C02DE1041277
:1020930010C036E1041210C03FE1041210C049E140
:1020A300041210C082BF041210C08EC3041210C0E9
:1020B30093C3041210C095C3041210C010F6041287
:1020C30010C0CDFF021210C0A4E7041210C055FEC9
:1020D300041210C03287051210C079F1041210C027
:1020E300CC7F001210C0A4CC041210C04388051288
:1020F30010C05388051210C06CC8041210C00080B1
:10210300021210C03380021210C09F80021210C04E
:102113003A81021210C0D781021210C01C8202122F
:1021230010C03E82021210C05782021210C07D827C
:10213300021210C09F82021210C0DD82021210C070
:102143002183021210C04383021210C0A58302121E
:1021530010C06C84021210C02385021210C0958532
:10216300021210C06086021210C0B386021210C0A1
:102173001987021210C05387021210C0A5870212DA
:1021830010C01388021210C07E88021210C081880A
:10219300021210C00289021210C09989021210C0E3
:1021A300198A021210C0388A021210C09C8B0212C4
:1021B30010C0A98B021210C0B58C021210C0C28CC1
:1021C300021210C0CB8C021210C0A38E021210C0D8
:1021D300BD8F021210C03690021210C0A8900212D6
:1021E30010C0CA90021210C05E91021210C0329346
:1021F300021210C00997021210C01D97021210C0DC
:102203002D97021210C03797021210C04097021286
:1022130010C04997021210C05397021210C0809742
:10222300021210C0A997021210C0B497021210C074
:10223300D897021210C0FC97021210C066980212BF
:1022430010C0AC98021210C0C998021210C046996F
:10225300021210C07D99021210C0BC99021210C064
:10226300099A021210C08F9A021210C05D9C0212CA
:1022730010C0E09C021210C0C49D021210C02BA01B
:10228300021210C084A0021210C0CEA0021210C00D
:1022930029A2021210C05EA2021210C0B0A2021242
:1022A30010C065A3021210C014A4021210C051A4DE
:1022B300021210C0E6A4021210C052A5021210C0EE
:1022C300A331001210C0D531001210C00332001226
:1022D30010C0D933001210C0B934001210C0113528
:1022E300001210C04C36001210C09836001210C0F5
:1022F300C139001210C0B43C001210C0043E0012D9
:1023030010C09A3E001210C0A63E001210C0D83E64
:10231300001210C05B40001210C00C42001210C02B
:10232300A042001210C0E342001210C06143001229
:1023330010C07E43001210C0AE43001210C0E3432E
:10234300001210C0B344001210C05C45001210C04C
:10235300E247001210C00249001210C0ED490012FA
:1023630010C06F4A001210C0A34E001210C0E04EFE
:10237300001210C0384F001210C06B4F001210C073
:10238300D54F001210C00B50001210C0965000120F
:1023930010C0EE50001210C0C551001210C07E5282
:1023A300001210C01953001210C02156001210C0A1
:1023B3003D57001210C0E05A001210C0D45B001247
:1023C30010C0D75B001210C0065C001210C00C5E78
:1023D300001210C0E55E001210C0285F001210C08A
:1023E3007E60001210C0BD60001210C04661001272
:1023F30010C07A61001210C03F62001210C057640F
:10240300001210C0C864001210C00865001210C08A
:102413009665001210C0B866001210C07A670012E9
:1024230010C08169001210C09969001210C0AD6913
:10243300001210C0E569001210C0136A001210C028
:10244300926B001210C0B76C001210C0146D001212
:1024530010C0C66D001210C0ED6D001210C0B46E36
:10246300001210C04C6F001210C07271001210C025
:10247300A771001210C00A72001210C03973001243
:1024830010C0E173001210C01274001210C02A743D
:10249300001210C0B974001210C06D77001210C082
:1024A3004579001210C06179001210C07D790012C5
:1024B30010C04B7A001210C03E7E001210C0358748
:1024C300011210C06787011210C0568B011210C091
:1024D300A28B011210C0E88B011210C08A8C01126A
:1024E30010C0E68C011210C02B8D011210C0728E29
:1024F300011210C0868F011210C07593011210C013
:10250300F993011210C00695011210C062950112D1
:1025130010C05297011210C0C797011210C0D19773
:10252300011210C0DE97011210C00998011210C0E9
:10253300F098011210C09A99011210C0189A011252
:1025430010C0389A011210C0619A011210C0839A08
:10255300011210C0E39C011210C0A99D011210C00A
:10256300EE9D011210C06B9E011210C01C9F011240
:1025730010C04E9F011210C0949F011210C0D09F33
:10258300011210C020A0011210C074A0011210C0CB
:10259300CAA0011210C016A1011210C083A101121A
:1025A30010C0FEA1011210C0C9A3011210C0C9A41A
:1025B300011210C0EEA5011210C02DA9011210C006
:1025C30040AC011210C0FDAC011210C041AD0112AC
:1025D30010C0F1AE011210C005AF011210C00FAF51
:1025E300011210C019AF011210C025AF011210C0A3
:1025F30041AF011210C0ECAF011210C02BB0011299
:1026030010C035B0011210C03FB0011210C0AFB0FE
:10261300011210C0FAB0011210C00FB2011210C0A3
:102623006BB2011210C0ECB2011210C0ABB30112B5
:1026330010C0B4B4011210C0E8B5011210C0D6B670
:10264300011210C0EEB6011210C049B7011210C03A
:1026530067B7011210C0AFB7011210C0D6B701128D
:1026630010C071B8011210C037B9011210C0C9B936
:10267300011210C043BA011210C05DBB011210C099
:102683000ABC011210C032BD011210C082BD01127A
:1026930010C0E6BD011210C048BE011210C076BEC4
:1026A300011210C09ABE011210C0CFBE011210C099
:1026B30000BF011210C033BF011210C053BF01127B
:1026C30010C0BBBF011210C0AFC0011210C00AC1BD
:1026D300011210C033C1011210C0BBC1011210C0DE
:1026E3003EC2011210C069C2011210C04EC30112D2
:1026F30010C00080041210C03880041210C059802A
:10270300041210C09B80041210C0FD80041210C07C
:102713000781041210C01781041210C052810412E1
:1027230010C03285041210C01F87041210C005891F
:10273300041210C09C89041210C03E8A041210C0F7
:1027430050C5011210C0CEC5011210C02AC6011215
:1027530010C075C6011210C090C6011210C0BBC6CE
:10276300011210C0D8C6011210C0E4C6011210C075
:102773007BC8011210C094C8011210C019C90112FC
:1027830010C02CC9011210C04BC9011210C0EFC9EF
:10279300011210C070CB011210C023CD011210C062
:1027A300B9CD011210C0BCCD011210C02CCE011244
:1027B30010C04ACE011210C0E1CE011210C029CFC1
:1027C300011210C02CCF011210C0F2CF011210C0A1
:1027D3005FD0011210C085D0011210C010D10112B8
:1027E30010C02ED1011210C074D1011210C028D212
:1027F300011210C072D2011210C0A1D2011210C076
:10280300FED2011210C033D3011210C05FD30112E4
:1028130010C06DD3011210C0BAD3011210C02AD454
:10282300011210C073D4011210C0BFD4011210C022
:10283300EBD4011210C0F6D4011210C014D501124A
:1028430010C0FFD5011210C009D6011210C044D622
:10285300011210C054D6011210C05DD6011210C06F
:10286300B1D6011210C0C5D6011210C0F4D701129F
:1028730010C00BD8011210C020D8011210C0AED85E
:10288300011210C0F3D8011210C07FD9011210C079
:102893008AD9011210C0CCDA011210C0E7DA011292
:1028A30010C033DB011210C0A2DB011210C0DBDB4E
:1028B300011210C0F5DB011210C037DC011210C089
:1028C30007DF011210C0B4DF011210C021E00112B2
:1028D30010C061E2011210C079E2011210C07CE263
:1028E300011210C088E2011210C09CE2011210C054
:1028F300A4E2011210C0D7E2011210C0D9E3011201
:1029030010C060E4011210C0D0E4011210C052E5FF
:10291300011210C013E6011210C032E6011210C0FA
:10292300D3E6011210C030E7011210C033E70112E1
:1029330010C060E7011210C075E7011210C0E9E78B
:10294300011210C038E9011210C03EEA011210C092
:10295300C9EA011210C0E4EB011210C0ACEC011281
:1029630010C0DDEC011210C000ED011210C009ED22
:10297300011210C038ED011210C0C8ED011210C0D1
:102983007EEE011210C0F3EE011210C09AEF011295
:1029930010C00FF0011210C046F0011210C084F0F5
:1029A300011210C0BAF0011210C0ABCF021210C056
:1029B300C99D041210C01B9D041210C07E9C0412FA
:1029C30010C0749C041210C00D9C041210C0F99B1B
:1029D300041210C0569B041210C0569A041210C061
:1029E3006F99041210C05F97041210C06D96041201
:1029F30010C00B96041210C04BCF021210C08BEF05
:102A0300031210C046FD021210C03CFD021210C09A
:102A130008CC021210C0BFC8021210C0D1FC0212AF
:102A230010C002FB021210C0C0FA021210C0C4F997
:102A3300021210C098F9021210C04FF9021210C00E
:102A430090F8021210C07CF5021210C03DF302127E
:102A530010C00AF3021210C0B1F2021210C044F205
:102A6300021210C003F2021210C03CF1021210C095
:102A7300D6F0021210C075F0021210C015F0021247
:102A830010C0ECEE021210C080EE021210C0D8ED9E
:102A9300021210C0D3ED021210C0C7ED021210C013
:102AA300FAE9021210C0D4E9021210C013C80212CC
:102AB30010C070C7021210C02AC7021210C0F5C698
:102AC300021210C0C2C6021210C0ADC6021210C05C
:102AD30082C6021210C072E9021210C013E9021278
:102AE30010C0D4E8021210C0C1E8021210C0E69F61
:102AF300041210C0B6E8021210C085E8021210C01A
:102B030072E6021210C0E5E5021210C01BCF0212DA
:102B130010C0A1E5021210C0A781031210C075E511
:102B2300021210C09B95041210C06E95041210C0BF
:102B33003B95041210C01395041210C0B4940412F0
:102B430010C09494041210C05F94041210C00B912F
:102B5300041210C0F38E041210C0DD8C041210C0D6
:102B63005D8C041210C0098C041210C0BD8B0412BA
:102B730010C0158B041210C0B29F041210C078ED60
:102B83000300000080FB000022E4738F000100FDBE
:102B93001787000100FB1735000400C41725000246
:102BA30000C81726000200CA1727000200CC172806
:102BB300000100D61729000100D717840004002E56
:102BC30015860001004E172A000100D8172B0001BB
:102BD30000D9172C000100DD172D0008003A152E2F
:102BE300000100DE172F000100DF1730000100E0B5
:102BF3001731000100E117320001004215330001D3
:102C030000431534000100E2173600010044153873
:102C1300000100E31739000100DC1783000200F90B
:102C23001763000100501564000100DA1765000105
:102C330000DB176D000100511571000800321566A5
:102C4300000100F81743000100E91744000200EAFD
:102C53001745000100EC1746000200ED1747000876
:102C630000481548000100EF174B000100F017045E
:102C7300000100FC17A1000100001837000100FF4C
:102C83001788000100FE173C00010045153D0001B7
:102C930000E41749000200F1176700010052154DC7
:102CA300000200F3174E000100F5174F000200F673
:102CB300173E000100E817510001004615520001BC
:102CC30000E61753000100E7175400010047150001
:102CD300000000000000013636010100010201007E
:102CE30001030100010401060605020000070100BB
:102CF300340801000F090401010D0100FF0E080053
:102D03000017020000190100FF1A0100011B010056
:102D1300FE1C0100081D0200001F0100012001002C
:102D230001210200002301000F24020000260100FC
:102D33000127010008280200FF2A0100072B0102D6
:102D4300402C0100002D0100012E0100012F010084
:102D5300FF30010B1D310800003A0100083B010060
:102D63000F3C0100013D0100FF3E0400004204004E
:102D730000460400004A0400004E04000052040010
:102D830000560400005A0400000000000020013334
:102D93008700000100200134870000020020012F7A
:102DA300870000030020013087000004004201B1C6
:102DB300850000050042019685000006004201558A
:102DC30085000007003001318700000040420155B3
:102DD300850000FDFF21012B8701002000200556FF
:102DE3001701002100200557170100000221055893
:102DF3001702040000290518140304000029051C08
:102E0300140304100029051E140304140028019D53
:102E130017050400002105221401037103010301B6
:102E2300030103010301032203020301031003004F
:102E33000300030003000300030003000342030035
:102E430003240306030003000304031203250323DF
:102E530003250323030403040300030003000344C3
:102E630003000300032303000365032100350381EB
:102E730003000305030003000300030003250323EA
:102E83000303007100300160001100700031022063
:102E930003500480001000610000001400630073FD
:102EA30000720062004300000013000600000000EF
:102EB30000040012000000000000000000040004F1
:102EC30000370037003C024400000000000000000F
:102ED300006500000035008100000005000000834C
:102EE3000000000101710101010101110101013122
:102EF30001010101018001100161013B0014006324
:102F03000173017201620143010001130106013DD6
:102F13000135000401120100010001000100010458
:102F2300010401330133013C014401320136000045
:102F330001000165010001350081010001050182E5
:102F4300018301000103027102300160021102706A
:102F5300020102020202028002100261023A0041EF
:102F63000063027302720262024302000213023818
:102F7300000002000204021202000200020002002A
:102F83000204020402370037003C02440200023903
:102F93000000020002650200023502810200020500
:102FA3000282028302000236000100060000000FC5
:102FB3000000000000000000000000000003FFFF0D
:102FC30000000403FFFF0000FFFF0FF4010005C42E
:102FD300040320000100000B0000000000000000BB
:102FE30003010F00000000000000000000000000CB
:102FF30000000000000000000000000000000000CE
:103003000000000000F61C141DFC1C5A1C000000EC
:1030130000000000000000000000000000021D5A34
:103023001C00000000081D5A1C00000000000000E6
:10303300000E1D5A1C0000000000000000000000EC
:10304300000000000000000000000000000000007D
:10305300000000000000000000000000000000006D
:10306300000000FE290100FE2902009A1E0280943E
:103073001E0300A01E0400A61E0480AC1E0500B2A1
:103083001E0600BE1E3100D01E3300D61E3400DCE7
:103093001EFFFF0000030003000400080010001FD0
:1030A300003E007B00F600EC01D703AF075D0FB9CC
:1030B3001E713D000007ECFDFDFDECDCDCCCBCAC7F
:1030C300AC9C9C8C7C7C6C6C5C5C5C4C4C3C3C2C6D
:1030D3002C1C1C0A3625020025050C250706250C89
:1030E300E8240DF424FF000000160F00000B150B5D
:1030F300020002220F3300000E0F5A696742656512
:10310300416C6C69616E63653039D0D1D2D3D4D54B
:10311300D6D7D8D9DADBDCDDDEDF150AF4D4C0A5D7
:10312300958272636155504900034D4C4651181AFC
:10313300250502000119161816161823030030304E
:1031430016181920231A1C1E303030171819213075
:103153001B1D1F30003C40423A3F3F392F47300C84
:103163000E020B040B0A0708000F020402010101FF
:1031730001090200BE040AE8030000E8030100F6A7
:10318300FB1D310300B830240010030A0C040F08A0
:10319300050328020C051E0815FF00FF0412091E73
:1031A300C082C0831214F290157D74D8F0A37422E8
:1031B300F090157F74DEF0A37422F090158174E40F
:1031C300F0A37422F090158374EAF0A37422F00242
:1031D3005EDE74F7120B02901571E4F0E99015703E
:1031E300F07C487D157A727B15121C309017EFE046
:1031F30090157AF090157B7432F0A3741502416B2D
:1032030074F0120B02EAFEEBFF5480700302337476
:10321300901570124200700302336DEA241B125A98
:103223006B707CEA241F125A6B64137002A3E07064
:103233006E8A828B831233C290158B124FFD750AEF
:1032430000750B00800D1240411270DD121B34AA71
:103253000EAB0FEA4B60488A828B83E0650C7004E7
:10326300A3E0650D702C8A828B83A3A3A3A3E0F54F
:103273000EA3E0F50FE50A450B8A828B83A3A3A374
:10328300A360C3124343850A82850B83A3A3A3A32D
:1032930080B78A0A8B0B8A828B83124FF980B4E53D
:1032A30008242A125A6BFCE5082402F8E43509F9CC
:1032B300E8FAE9FB90158B1234A9A3A3E06402702A
:1032C3003C8A828B83124FFD800B88828983A3A360
:1032D300A3A3124343E849601F88828983E06A708D
:1032E30003A3E06B70E488828983A3A3E06C70DAA4
:1032F3009017F5125D9B806BECF9122314850882FD
:10330300850983E06401704FE50824181233AB127A
:103313001134126685120EE7E50824121233AB123C
:103323001134E5081241F4121130E508240B12663A
:1033330089120EEBE5082417124191E5082402FCDB
:10334300E43509FDE5082419FAE43509FB122B5A83
:10335300740A12110D800CE064027007AA08AB090D
:103363001223F2AA08AB09121A9EEEFAEF648080C8
:103373002DEA5402600C9018547401F0EA6402FAC6
:103383008023EA5408601A12230EEA4B700B90153F
:103393008D1265607A081233B8EE6408FAEFFB8089
:1033A300047A007B00026D0FF582E43509F583E0B2
:1033B300F50A780A22FB901570E0F9121C0022A38B
:1033C300A3E0F50CA3E0F50D227B00901570E0F966
:1033D300121BF474042274F4120B028A088B098AF8
:1033E300828B83A3A3A3124DF512419C38F583E08E
:1033F3002409FA126CA7700302349C8A828B8374AB
:1034030002124E6A8508828509831234A9E8F0A363
:10341300E91269218A828B83A3A3A3A3A3A3A3A3F2
:10342300F0E5082403F8E4350912349E12419C3A6E
:10343300F583E08E828B83A3A3A3A3F0EE2409FA82
:10344300E43FFB8E828F83A3A312604DF5838882B2
:10345300E0A2E58E828F83A3A3A3A3A350047401E8
:103463008001E4F0E5082403F5828983124FFDEA25
:1034730012557E3BF583126C6E12112C12419B3B4D
:1034830012613F8E828F83A3A3127E1D12110DEE54
:10349300FAEFFB901570126CF48016F98882F583AD
:1034A300E0FAA3E0CA2212519AA3A32274021211D2
:1034B3000D7F04020E6274F2120B028A088B09EC70
:1034C300FAEDFB740E121437E0FC1215288A0C8BEC
:1034D3000DAE0CAF0DEA4F6030AC08AD09121516F6
:1034E300E96026AC08AD09EEFAEFFB12151CE97092
:1034F300148E828F83124330FAEFFB121510AA0841
:10350300AB091215407900800279B40250E974F0D6
:10351300120B0274F61211A6EAFEEBFF8C088D095A
:10352300750FB3852182852283E4F0750E00800236
:10353300050E903193E493F8E50EC39840030236E9
:1035430038AA0E7B001215648A0A8B0BEA4B60E0E3
:103553008A828B83A3A312363F28F0F8C3EE98EF39
:10356300940050CC7C157D007900AA08AB09121A8F
:1035730086850A82850B83A3A3A3A312711AE0F89D
:10358300EEC3982925E0F8E433F9E50A28F582E546
:103593000B39F583A3A3A3A3A3A31241A6A3125B91
:1035A300C28A0C8B0DAC0CAD0DAA08AB09121C30F2
:1035B300850A82850B83A3E06401700A1266857411
:1035C300011241B88044740112119E850A82850B51
:1035D30083124FFB12154CE9603D7409121437E056
:1035E300C0E0126685D0E0F07409121437E064037A
:1035F3007013740112119EE508240BFAE43509FBDC
:10360300121C3080127401121437124343E508125E
:103613005BA835091270DB850A82850B83126691DC
:103623001241B8A3A3E0C0E0E5082414126689D0D0
:10363300E0F0750F00A90F740A026D0CA3A3A3E0B9
:10364300F8852182852283E02274F7120B02E9FEBA
:103653008A828B83A3A3A3A3A3A3E0540860338A22
:10366300828B83A3A3A3A3A3A3E0540260218A8232
:103673008B83A3A3A3A3A3A3A3A3A3E06406600FC5
:1036830074E96E600A74CD6E600574F06E70031297
:1036930022F60249E874F0120B0274EF1211A674B9
:1036A3000F1214371264447408121437E9F0ECFE55
:1036B300EDFF74051214371247B01249D4A3E0F991
:1036C3001215347406121437126444740612143734
:1036D30012560F70030239531241E0E0FA740612D6
:1036E3001437E0F91222361239B3F8A3E0F9E849A6
:1036F3007003023953EE2403F50AE43FF50BEE247D
:1037030006F508E43FF5097C00850882F583124F2E
:10371300FD850A82850B83E0F912153A74031214AE
:1037230037126444850A82850B83E0C0E0852182D9
:103733008522831239ACD0E0125724F98521828582
:103743002283124048125276123642FAA3E0CA2468
:1037530007F582E43AF583E8F0A3E412644F240604
:10376300F582E438F583E41270E7124DE912112C67
:10377300EE12419C3F12613F7403121437124DF550
:103783002409127E1712110D7429121437127114A1
:103793001234A31257373A1270DB742B121437E02A
:1037A300C0E08521828522831255D6D0E0F07402D1
:1037B300121437E4F0742512143778081213C40274
:1037C30038AA74031214371261078882F5831239F9
:1037D3009BA3A3A3125BCDFB121552850E82850F0B
:1037E30083A3EAF0A3EBF074031214371239ACA3EA
:1037F30012399B125DDCA2E6500F850E82850F8382
:10380300A3A3A3A3A3E0D2E1F07405121437E070DD
:103813006B850E82850F83A31243439015CBE0681B
:103823007003A3E0697055850E82850F83A3A3A35C
:1038330012417B750C00780C121134780812112890
:103843007429121437E0F50C780C12113474271212
:103853001437120EEB9015D8120EEB79007419126F
:103863001437124FCD12243A740A12110D850E82A9
:10387300850F83A3A3A3A3A3E04405F0740212144A
:1038830037E004FC8E828F83124FF78E828F83A3DF
:10389300A3A3E0F912153A740312143712644474A3
:1038A30002121437E004F0740312143712560F6037
:1038B300677402121437E0FA740612143712434382
:1038C300C3EA98E49950517402121437123C858567
:1038D3002182852283E028F8A3E039F9E8240FF553
:1038E3000EE439F50F850E82F583E4F074031214A8
:1038F300371239A6640160030237C5740512143701
:103903007401126CFAF07403121437125ECE123C77
:10391300A8E8F0A3E90237E9852182852283124FC3
:10392300FD12223C852182852283120EEB7426121E
:103933001437E0FD7425121437E0FC740A121437AF
:10394300E0F9EEFAEFFB1222F0740212110D80433C
:103953008E828F83A3A3A3E0C0E0740C121437D02C
:10396300E0F0126B63E0C0E0740D121437D0E0F0A6
:10397300740612143712560F7009740E121437742A
:10398300B98007740E1214377410F074091211966B
:103993001224347411026D0CE0850E82850F83A30B
:1039A300A3A322E01256FCE022E01256FCA3A322BA
:1039B300852182852283EAF0A3EB1256182274F044
:1039C300120B0274E11211A67404121437E9F07495
:1039D30003121437ECF07402121437EDF08A0E8BD5
:1039E3000F742F1214371233C4AA0CFB12222A7439
:1039F30001121437E9F0AA0CAB0D12223074011234
:103A03001437E07003023C80852182852283E480A1
:103A1300158E828F83A3A3A3A3A3E0D2E3F0852112
:103A230082852283E004126C52F8852182852283E9
:103A3300E0C3984003023C777401121437E070032B
:103A4300023C77852182852283123C85E50C28F888
:103A5300E50D39F9E8240FFEE439FF8E82F583A3DF
:103A6300A3A3A3A3E0A2E040B5750800750A0875F7
:103A73000B007402121437E060037508207C087D84
:103A83000079007405121196121A868E828F83E0D4
:103A9300603E90161BE06401701AE508D2E3F50856
:103AA300750B10123C95121437E8F0A3E9125AC0B3
:103AB30074FF807643080C750A0C8E828F83A312E1
:103AC3003CA01270DD740512143774FFF0A3805A02
:103AD3007404121437E06009E508D2E6F508750AA4
:103AE3000A8E828F83A3E064FE7003A3E0F4703038
:103AF300741212143774041266AFF8741D1214375B
:103B0300E8124E6A74121211961221587D007C003D
:103B130079007415121437AA82AB83121F0C800B21
:103B2300123C95121437E8F0A3E9F0740712143726
:103B3300E508F01241D7C0E07409121437D0E0F061
:103B4300740A1214377401F074051211961223F8D3
:103B53007411121437E06003023C55740D121437CC
:103B630012571F8E828F83A3A3A3A3F0740D121485
:103B730037124E38E50AF0A3E50BF074031214373D
:103B8300E0C0E0124DC9D0E0125DDC601190161B5D
:103B9300E0C0E0740D121437124E13D0E0F0740D30
:103BA300121437124343850C82850D83A3A3A3A369
:103BB300A3123C8E241C12643E1270F7123C901226
:103BC3005D8E39126B82C0E0124DB0D0E0126C47AB
:103BD300C0E0740D1214371248F6D0E0126948C0E1
:103BE300E0740D1214371248ECD0E0F0740D121487
:103BF30037123CA0123C8E242A12643E850E828525
:103C03000F83A3A3A3A3A3A3A3A3E0126437124127
:103C1300C6C0E01248D8D0E0F0740D121437124F2A
:103C2300FD850E82850F83126C5D2428F582E43BAB
:103C33001270DB1241CF126C6E12112C126138EA32
:103C43001263D03B127E1B12110D740512119612D2
:103C530023FE8E828F83A3A3A3A3A3E0D2E0F074F9
:103C630011121437E06003023A147401121437E09E
:103C730014023A207900AA0CAB0D1222FC741F0225
:103C83006D0CE075F007A4F8A9F022A3A31250016C
:103C9300E8228E828F83A3124347740522E0123CED
:103CA300A8A3A3A322F8A3E0F9850E82850F83A31B
:103CB3002274F0120B0274E81211A6E985218285A1
:103CC3002283F08A0E8B0F8A828B83A3A3A3A3A3E1
:103CD300A3A3A3E0F91222548A088B09EA4B7003C9
:103CE300023D91E50E1255921241EF124186852154
:103CF30082852283E06003023D947C04850E8285E5
:103D03000F83A3A3A3A3A3A3A3A3E0F912225AEEB1
:103D13004F607B8E828F83A3A3A3A31243437407B5
:103D23001214371265751243437409121437124E75
:103D33009AC0E07411121437D0E0126926A3A3A32A
:103D4300A3A3A3A3124343740F1214371270DD7499
:103D530012121437E4126D02C8241FF582E438F5F9
:103D630083126103C413135403FC70027C048E8218
:103D73008F83E0F97808121130742059FD7440598B
:103D8300F974031211961222F0740212110D026DCE
:103D93000A7C08850E82850F83A3A3A3A3A3A3A3F1
:103DA300A3E0F912225A8B0BEA4B7003023D12EE89
:103DB3004F60DB852182852283E0F50C780C12119C
:103DC30034850882850983A3A3A3A3A3A3A3E0F552
:103DD3000C780C1211348A828B83A3A3A3E0FB8A91
:103DE30082850B8312793A8A82850B83E0FA8E826D
:103DF3008F83A3A3E0F9122B60740212110D023D0D
:103E03001674F7120B0274FA1211A6E9FE780179FF
:103E1300017F00800379000F125179E0FCEFC39C0E
:103E23005026EF75F007A4FC85F008AD08EA2CFCDA
:103E3300EB3DFD124768E0A2E050DA540C60D6E097
:103E4300A2E250D3780080CF8A828B83A3A3A3A35B
:103E5300A3A3E0703DE9A2E0400574016E70338ACC
:103E6300828B83A3A3A3A3A3A37401124158E0C02D
:103E7300E07403121437D0E01247C7E0C0E07404C3
:103E8300121437D0E0F07405121437E81260A2124E
:103E9300243474060249E5C082C08379011222FCEE
:103EA300025EDE74F4120B02EA4B9018546019E4BC
:103EB300F08A088B09F50AF50B78081211287A02A3
:103EC3001233CC12110D800A7401F07A027B0012B6
:103ED30033B90234B474F0120B0274F31211A674E2
:103EE30003121437E4F0A3F090158B12418674018A
:103EF300121437E4F0A3124E6F04F09015C5E0A23C
:103F0300E35003023FCB12414C74091214371214CD
:103F130008740912143778081213C490158D7808A1
:103F2300121176740512143778081213A612404F33
:103F33007405121437780812136750077A017B004F
:103F430002403C7405121437780C1213C49017F412
:103F5300E0F509780C7908120A93A80CA90D9017BB
:103F6300F5E0C398E4995003E08001E88521828558
:103F73002283F0740912143778081213C4C008C0DE
:103F830009C00AC00B7405121437780C1213C4123B
:103F9300404F780C7908120A93E4F50AF50BD00F19
:103FA300D00ED00DD00C780C790812124E90158DCE
:103FB300780C1213A680111240411270DDEEFAEF55
:103FC300FB121B34AE08AF09EE4F60658E828F8300
:103FD30012363FC398502DEE2403F8E43FF9E0FA7C
:103FE30088828983E0C39AF0602374031214371222
:103FF30044A97401121437EEF0A3EF126590FEA3E7
:10400300E0FF80C48E828F83A3A3A3E4F08E828F0C
:1040130083127DD4740112143712560F8E828F834C
:10402300A3A3A3A3609112656912143712404880B9
:10403300897403121437124FFD740D026D0C124371
:104043004790158B2212612EA3A3A3229017F3127C
:104053007DDCE4F50AF50B2274F0120B028A088B5F
:1040630009890A7800790090158B124186FBEE4B83
:10407300601E088E828F83A3A3A3A3124FC7601071
:1040830008E87001098E828F83124182EA4F70E340
:104093009017F6124FFDC3E89AE99B400302413F94
:1040A3007A06124142A80CA90DEA49700302413F66
:1040B3008A828B83E508F0A3E509124161E50AF0E2
:1040C3009017F5125181124158A3E4F0A3F0901513
:1040D3008B124FC7600D8E828F83A3A3A3A312708D
:1040E300DD801790158B1270DD9015C5E0A2E340BB
:1040F3000912414C90158D1214089015C5E0A2E3E6
:10410300503A7A087B00901570E0F9121C06EA4BCE
:104113004C4D70289017F3E0F508A3E085080CF5E3
:104123000DE4F50EF50F780C1211287A087B009038
:104133001570E0F9121BFA740412110D026D0F7B56
:1041430000121B2E8A0C8B0D22121C18EAF8EBF9B5
:10415300ECFAEDFB2212415C22124161A322F08AA8
:10416300828B83A3A322E508F00249E8F08E828FB5
:1041730083A3A3A3A3A3A322125A79A3A3F022A3E5
:10418300A3A3A3E0FEA3E0FF227F05020E62F58254
:10419300E43509F583E0F922EA1241A0222410F55F
:1041A30082E4221241AEA3A3A3A32212434B8508A8
:1041B30082850983221241BC22F0850A82850B8302
:1041C300A3A322E50E24111241ECE022E50E240EF6
:1041D3001241EC22E50E24101241ECE0221241E4DC
:1041E30022EE1241A03FF58322F582E4350FF583D9
:1041F30022240FF50AE43509F50B780A22E0F912B7
:104203001AB08A088B09EA4B2274F2120B02890B4B
:104213008A088B098A828B83124FFD122320EA4B73
:10422300600479B8806A12232CE9F890318CE49306
:10423300F9E8C399400479B280567A15124142AE27
:104243000CAF0DEA4F7004791080458A828B83E4AA
:10425300F0A3124161E50BF0750A00780812112CE6
:104263007C127D00EA2403126C1912110D90159132
:1042730012560F7008901591800C1243438882895F
:104283008312429670F4EEF0A3EFF012233E79000E
:104293000250E9125001EA4B8882898322C082C00E
:1042A3008390159180048C828D8312793BEC4D6051
:1042B300288C828D83A3A3E069600574FF6970E68F
:1042C3008C828D83A3A3A3E06A7003A3E06B70D6F3
:1042D300EC2403FAE43DFB80047A007B00025EDEFB
:1042E30074F7120B02E9FD74FE6D70047C01800209
:1042F3007C0090159180096D70027C01888289830E
:1043030012560F601F88828983A3A3A3E06A7003F8
:10431300A3E06B70E7ECA2E088828983A3A3E0505B
:10432300D6F9800279FE0249E8EEF9800CA3A312C4
:104333007DDCEE22740212110D7F02020E62F58300
:104343001243472212434B22E0F8A3E0F92212431F
:104353004B8E828F832212110D7F03020E62C08265
:10436300C0837900901591800109E0FAA3E08A8265
:10437300F583E582458370F1025EDE74F6120B026B
:10438300E4F508F509780812113090318CE493753F
:10439300F013A4A9F012449E12713B12110DE9FE11
:1043A30074096E700312233802432C74F6120B0245
:1043B30074FE1211A6852182852283E4F0A3F0A85E
:1043C30021A9228808890978081211307508027515
:1043D30009007808121130126DAC12110D02433727
:1043E30074F5120B0274EB1211A6852182852283C8
:1043F300E4F0A3F090159180748E828F83A3A3E0E1
:10440300C0E07402121437D0E0125AC0A982AA8302
:1044130089088A09750A00780812112C7C127D001C
:10442300740612143712710012110D740212118ED8
:1044330088088909780812113075081375090078FE
:104443000812113074041214371255B275F013A404
:10445300F8AAF075F013E912449A126DB412110D13
:104463008521828522831244A98E828F83124186FD
:10447300EE4F7085A821A9228808890978081211AE
:10448300307508027509007808121130126DAC12EC
:10449300110D7415024359A42AF9E82402FCE439E6
:1044A300FD7A427B0022E02401F0A3E03400F022F5
:1044B30074F4120B0274EB1211A67E007F00A82184
:1044C300A9228808890978081211307508028E0913
:1044D30078081211307C007D007A42127147121164
:1044E3000DE9706C8E088056740212118E880A8949
:1044F3000B780A121130750A13750B00780A121122
:1045030030E50875F013A4F8AAF075F013E5091265
:10451300449A12714912110DE9701B740312143776
:10452300AA82AB837402121437E0F912231AE970DA
:10453300050EEE70010F0508E508700205098521D7
:1045430082852283124343C3E50898E5099940987D
:10455300EEFAEFFB74150234B174F6120B028C827F
:104563008D83A3A31247B5F0EA1263D63BF583E02C
:10457300C0E0124772D0E0F0EA241DF582E43B125A
:1045830043411247561247B0F0A3F0EA241FF582C5
:10459300E43BF583124186EC1247493DF583EEF087
:1045A300A3EFF012474F3BF583124780A3A3A3A3C6
:1045B300A3A3EEF0A3EF126031FE8C828D8312472A
:1045C300BF74035EFEC39403400302473CEE6008DE
:1045D30074026E60030246618C828D83E0540CFE8C
:1045E300740C6E70030246A0E0A2E4400D88828939
:1045F30083E08C828D83A31247D574086E60030217
:1046030046A01247607401F08A828B83A3A3A3A3FD
:10461300A3125A8670148C828D83E0440C1247C710
:10462300A3A3124780EEF0A3EFF08C828D83E0A268
:10463300E4402B888212478E1247A3500109F5826A
:1046430012478EA3A3A3A3A3A3F0A3EF1247CF8C78
:10465300828D83A3A3A3F0E82403F8500109888281
:104663008983E0C0E0EC2411F582E43DF583D0E0DA
:104673001247BF8C828D83E0A2E7507588828983BD
:10468300E0FE8C828D831247D574FC5E700C8C82A5
:104693008D83A3E054036403701E02473C124760FA
:1046A300E4F0740C6E600302460B88821247941286
:1046B30047A350010902462D8C828D83A3E0540346
:1046C300603288828983E0C0E0EC12477A3DF5834B
:1046D300D0E01247D68C828D83E0540364027014B9
:1046E30088828983E0C0E0124768D0E01247D68011
:1046F30003A3E4F0EC12557E3D1270DBEC2410FEB4
:10470300E43DFFEA241DF582E43BF583E0F5088EE2
:10471300828F83E0C3982508F508F0EA2417F8E4AC
:104723003BF98882F583E0C39508C0E0124756D071
:10473300E0126031C39508500A124756E4F012475D
:1047430072E4F002433C2415F582E422EA240DF5D9
:1047530082E422EC240DF582E43DF58322EC12572A
:10476300373DF58322EC2414F582E43DF58322ECF6
:104773001241A03DF583222413F582E422E0FEA337
:10478300E0FF8C828D83A3A3A3A322124794A3A348
:10479300228983E0F508A3E0FFE5088C828D83225C
:1047A300A3A3A3A3F0A3EFF0E82402F8221247B5D2
:1047B300A322E4F08C828D83A3A3A3221247DDA856
:1047C30082A9832212415CA3A3A3A3221247DDA3E0
:1047D300E022A31247DD08A9832212603AA32274C0
:1047E300F4120B0274F31211A68A0A8B0BECFEED82
:1047F300FF8C82F583E0540CF508E0A2E75006E550
:1048030008D2E7F508E508D2E1F508125A867006E2
:10481300E508D2E4F508E0A2E55006E508D2E5F59F
:10482300087C087D007900AA21AB22121A86740243
:10483300121437E5081270E1C0E07403121437D084
:10484300E0124E6FE50AF0A3E50BF074051214377E
:1048530012694D121437E070777408121437124D31
:10486300F512602338126968C0E074081214371215
:1048730048F6D0E0126948C0E074081214371248B1
:10488300ECD0E0F074081214371248E2E0124E1D27
:10489300124E9E126437EE2411125A52C0E012488F
:1048A300D8D0E0F0EE2414125A52C0E07408121467
:1048B30037124DF52435F582E438F583D0E0124EF6
:1048C30042C0E07408121437124DF9D0E01266A109
:1048D300740D0234B1E82432F582E439F5832212EF
:1048E3004351A3A3A3A3A3A322124E09126B4738D8
:1048F300F58322124E092426F582E438F5832274C7
:10490300F7120B027E008A828B83A3A3A3A3A3A324
:10491300A3A3A3E0640460030249C412572FE06019
:10492300030249C41255913B12560D70030249C448
:1049330088828983E0540360030249C4E81257372D
:1049430039F583E0FA8C828D83A3A3E0FBA3E0CB4C
:104953002411F582E43BF583E06A706588828983DC
:10496300A3A3A3A3A3A3A3A3A31249C8E06A7003A9
:10497300A3E06B704C88828983A3A31249D4E0FF20
:10498300A3E0CF2406125A526A7003A3E06B70317E
:1049930088828983A3A3E0F88C828D83A3A3E0F9A3
:1049A300A3E0F5838982A3A3E06860138C828D83DF
:1049B300A3A3A3E0F5838982E0540C640470027E10
:1049C30001EEF980201249CC221250058C828D838E
:1049D30022A3A31249CCA3A322740C121437E0F927
:1049E300740D12110D7F01020E6274F6120B027424
:1049F300FC1211A6EAFEEBFFECFAEDFB8C82F583C9
:104A0300A3E05403601690158712560F605979007E
:104A1300EEFCEFFD12622E122B8C804B85218285DA
:104A23002283EEF0A3EFF07402121437124E64AC3B
:104A330021AD227A567B2312257E8A088B09A8088A
:104A4300A909EA4960218A828B83A3A3A3A3A3A311
:104A5300A3A3A37406F07A0088828B83124DF51208
:104A630063F7E0F91224DC740402433974F2120B85
:104A73000274F31211A6EAFEEBFF8A82F583A3A365
:104A8300A3A3A3A3A3A3A3A3E0F50A901854E070E0
:104A93000579BA024DAD750801750900750C0075ED
:104AA3000D007C087D007900AA21AB22121A8674BE
:104AB300051214377401124E7754046012740212F3
:104AC3001437E0D2E6124E7754087003750803E0FA
:104AD3005410600674404508F508E05408602274D9
:104AE30002121437E044C0124E775420600A740354
:104AF300121437E0D2E080087403121437E0D2E1D5
:104B0300F0EE2415125A52124DDD700374016970D0
:104B13000674084508F5088E828F83A3A3A3A3A375
:104B2300A3A3A3E070161225D885218285228312C0
:104B330064447402121437E0D2E28030640F7010C0
:104B43007402121437124E7F74044508F508807FEF
:104B53008E828F83A3A3A3A3A3A3A3A3E064028E44
:104B6300828F83700A127114E8F0A3E9F08060A3C6
:104B7300A3A3A3A3A3A3A3E06403700DAC21AD225D
:104B8300EEFAEFFB12238C80468E828F83A3A3A3BE
:104B9300A3A3A3A3A3E06401703590161BE06010E8
:104BA3007402121437124E7F750910750AFF8018AC
:104BB3007402121437E0440C124E6F74FDF0A374A8
:104BC300FFF074044508F5088E828F831233C4EE18
:104BD3002415125A52A2E0503F7402121437E054C3
:104BE3000C701B8E828F83124FFD121FD8E9700544
:104BF30079BB024DAD7402121437E0D2E5F0EE2416
:104C030015125A52A2E050107402121437E0540CD9
:104C130064047004E0D2E5F0EE2411125A52C0E0AD
:104C23007404121437D0E012694F121437E0600392
:104C3300024DA67408121437124E38E508F0A3E5A6
:104C430009F0124DD3E0C0E0124DC9D0E0F0124D8F
:104C5300BAE0C0E07408121437124DF512477A38DF
:104C6300F583D0E0124E9E6401701190161BE0C0D4
:104C7300E07408121437124E13D0E0F074081214C3
:104C830037124E33124DC4FAE8241CF582E439F589
:104C930083EA124E6AEE2415FAE43FFB8A82F58317
:104CA30012793BE8125D8E39F583124E64EE241CB3
:104CB300125A52C0E0124DB0D0E0125ED4124DDD54
:104CC30070037401697013740812143712571FFAB2
:104CD300EE241D125A52F91222608E828F83A3A3EF
:104CE300A3A3A3A3A3A3A3E0C0E0740812143712E1
:104CF30048F6D0E0F074081214371248ECE50AF0D5
:104D030074081214371255B22428F582E439F58356
:104D1300E50CF0A3E50D124E4A124E1D125ACB12AA
:104D23006437EE124DC4C0E0E82433F582E439F56C
:104D330083D0E0F0EE241B125A52C0E07408121420
:104D430037124DF9D0E0F0EE241A125A52C0E07433
:104D530008121437124DF52432F582E438F583D066
:104D6300E0124E42124DE912112C126B4D12793B97
:104D7300740B121437124DF5242F127E1712110DD6
:104D8300EE2415125A52544060129015A712560F72
:104D9300600AAA21AB2212622E122B8CAA21AB220B
:104DA3001223FE740C121437E0F90250E4E82420B5
:104DB300F582E439F58322EE2419F582E43FF58385
:104DC30022126B5CE022E82412F582E439F5832297
:104DD300EE2418F582E43FF583225480F8A3E054CF
:104DE30001F974806822F508A3E0F509750A0078D3
:104DF3000822124E0922124E092434F582E438F5B2
:104E03008322A3A3A3A3124E0D22E0F8A3E0C8229A
:104E1300124E0912474938F58322FAA3E0FBE8242E
:104E23002AF582E439F583EAF0A3EB22A3A3A3A333
:104E3300124347EE221255B612559639F58322F0E6
:104E4300EE2413125AD322F0EE240D125AD322E089
:104E5300FC8A828B83E02CFCA3E03400FD8A828BE6
:104E630083ECF0A3EDF022F0A3E4F022F08521829D
:104E730085228322F0EE2415125AD322E0D2E3F0E6
:104E8300124E87228E828F8312434B852182852285
:104E930083E8F0A3E9F022E8F0A3E912658AE022AF
:104EA30074F7120B028A828B83A3E0640170047E81
:104EB3006380027E648A828B83E060087905124EE8
:104EC300D724F3FE9015C3E06007F9124ED724F2FE
:104ED300FE0249C41224A6E9F8EEC3982274F6121E
:104EE3000B0274FE1211A68521828522831264446B
:104EF300E9FEECFAEDFB9005C212560F6032A821D1
:104F0300A9228808890978081211307D01740E12CC
:104F13001437E0FCEEF99005C2126418122B8C745E
:104F23000212110DEA4B60047900800679B2800207
:104F330079B602433774F7120B02E9FE90157D121E
:104F4300560F601F7409121437E0F5087808121120
:104F530034EEF990157D126418122B8C7401121122
:104F63000D800279B60249E874F7120B028908EC46
:104F7300FEEDFF79B5E508245E602014600624F891
:104F83006034803D9005C4124FC7603512715812CA
:104F93002B8C8E828F83126444802490157F127928
:104FA3003BEC4D601CEEFCEFFD90157F1264181274
:104FB3002B8CE9F9800B90157B124FCD121C3079A5
:104FC300000249E8125001EA4B2212793FEEFAEF50
:104FD300FB2274F7120B02E9FE79B574AB6E700B0A
:104FE30090157B124FFD121C3079000249E88E8226
:104FF3008F83A3A3A3A3A3A3A3A31250012212509D
:105003000522E0FAA3E0FB2274F1120B02EAFEEBA5
:10501300FF8C0A8D0B7508019015CBE06E7003A30E
:10502300E06F700C1250D8AA0AAB0B121C30805ED2
:105033001225DEEE6A7002EF6B7009AA0AAB0B123F
:1050430025E4804AAC0AAD0BEEFAEFFB122134E9FA
:10505300F5089017FBE07036122A94E97030E508E2
:10506300702C90159BE06E7003A3E06F7020EE4FE1
:10507300601C750C93750D15750E00780C12112CB0
:105083007C087D00AA0AAB0B12710412110DA9084A
:10509300027A3774F2120B02EAFEEBFF8C088D09D9
:1050A300750A011250D8EEFAEFFB121C2AE96401CB
:1050B30070119015CB1243438508828509831270C2
:1050C300DD800EAC08AD09EEFAEFFB12213AE9F5EB
:1050D3000AA90A80111225D28A0C8B0DAC0CAD0DD6
:1050E30022740D12110D7F06020E6274F6120B026A
:1050F300EAFEEBFF7A0D7B00121B2EEA4B6062EE99
:105103002424126DE1F0EE2425126DE1A31251A6C1
:10511300126DE7A3A3126B7A125181F0EE1251675D
:10512300125196E8F0A3E91251BD12518E1270DDAF
:10513300EE125170126C3DA3A3A3A3F0EE2433121D
:105143005A52C0E0125179D0E012696C12518EA309
:10515300A3A3E8F0A3E91251B5C0E012572FD0E0A2
:10516300F002433C242AF582E43FF58322242EF502
:1051730082E43FF58322EA125BA83BF583221251B6
:105183008522E08A828B83A3A3A322126C9CA3A310
:10519300A3A32212519A2212434B8A828B83A3A385
:1051A300A3A322F01251AB22EE2426F582E43FF5AD
:1051B3008322F0EE2432125AD322F0EE242C125A18
:1051C300D32274F4120B0274FE1211A6ECFEEDFF4F
:1051D300EC2416125A5264057010EC2406FCE43FCA
:1051E300FD122386E97003025271AC21AD22126EC7
:1051F30096121FDE85218285228312560F606B8EE5
:10520300828F83E064017058E875F009A4F8AAF06E
:1052130075F009E9A42AF974F228F8740239F9E857
:10522300FAE9FB8882F58378081213C4EE1253134C
:105233001213674027852182852283124E33125A27
:105243006012527678081213C49086CB7808121233
:10525300EA8A828B8378081213A6800A79A28010C7
:10526300EE240F1270D77900800679A1800279C8E5
:105273000234AF124E94EE126B682274F2120B02D8
:105283008A0C8B0DECFEEDFFEC125A60E4F0A3F0F8
:1052930090869B78081213C4EC12531312121160F8
:1052A30067EC240E125A59703478B39015C2E0702B
:1052B300289015F4E064017020EC2411125A52F97D
:1052C30012248E8B09A909EE1255923F126442EA09
:1052D3004960047800800278A18808802EE0600489
:1052E3006402700A122398E9F5087007801DE064D0
:1052F300037010EEFCEFFDAA0CAB0D122002E9F5D2
:105303000880087508A180037508A3A9080250E95D
:10531300126B6878082274F0120B0274F51211A64E
:10532300EAFEEBFFEA240AFCE43F8C82F583127D5C
:10533300D812559C740312119E8A828B8312623891
:10534300E97003025402740112119E740312119640
:10535300121FDE740112143712560F700302540227
:10536300E875F009A4F8AAF075F009E9A42AF9741C
:10537300EE28FC740239FDE508240E126689E4F078
:1053830004121437124343E508125592350912707B
:10539300DB8C828D831213FCE508241212668912BA
:1053A30014089086CB78081213C48C828D837808F6
:1053B30012129E8C828D83780C1213C490864B78C4
:1053C300081213C4780C7908120A93E508450945B5
:1053D3000A450B702A74011214371255B275F0097D
:1053E300A4F8AAF075F009E9A42AF974F628F5825D
:1053F300740239F5837401F07A007B081255BF8E6D
:10540300828F83A3A3A3A3A3A3A3A3A3A3E024069D
:10541300FCA3E03400FD8E828F8312623812695A36
:10542300603EEE240A125584124E387468124E6A96
:10543300E812557E39F5837402F09015AD1213FC12
:105443008C828D831264311260233CF5831214081D
:105453009086CB78081213C49015AD780812129E6B
:105463001255FA705D90157B1255AAA3A3A3A3A3AB
:10547300A3A3A3A3A3126059121C2AE970101260FC
:105483001790157B126029700512695A60348E8259
:105493008F83A3A3A3A3A3A3A3A3A3A31255AA1276
:1054A3004FFD122008E960118E828F83A3A3A3A36B
:1054B300A3A31255E6E4F0A3F08E828F831255CC9A
:1054C300E4F01255FA60030255798E828F83A3A309
:1054D300A3A3A3A3127DD49015C2E0600302556E6B
:1054E3009015F4E06401600302556E750A3A750B7A
:1054F30000780A121130740212118E880A890B780F
:105503000A1211301273D312110DE9705BE50824EE
:105513000E1266897401125614C0E0E508241112B4
:105523006689D0E0F0E508240F126689743A124EBA
:105533006A9015A91213FCE5082412126689121445
:10554300089086CB78081213C49015A97808121214
:105553009E9086CB78081213C49015A9780812126E
:105563001170081255BB800312559C1255FA700630
:10557300125F1A74A1F0740B026D0C240EF582E411
:1055830022F8E43FF9E8FCE9FD8882F58322EA1278
:10559300559622240FF582E422E508125596350923
:1055A300F583E4F0A3F02212793F8E828F832212D7
:1055B30055B62212434BE8227A007B02901452E044
:1055C300F9121ADA228A828B83A3A3A3A3A3A3A328
:1055D300A3A3A31255DA22124E0D240EF582E4384A
:1055E300F58322A3A3A3A31255EE22124E0D240F7B
:1055F300F582E438F583228E828F83A3A3A3A3A32A
:10560300A3124E05240FF582E438F5831255B649EB
:105613002212561822F0852182852283E02274F615
:10562300120B02EAFEEBFF7A237B00121B2EEE2401
:105633000AF508E43FF5098508821264427C237D5C
:10564300007900121A8685088285098312560F7025
:10565300030256E2EEFAEFFB1223A41255FA60742A
:105663008E828F8312571564018E828F83A3A3A327
:10567300A3A3A3700712570B740E802112560F7049
:105683001012695A700B8E828F83A3A3E0A2E0509D
:1056930007125701740D8005125701740512696CC6
:1056A3005403640170071256E97405800B9015C307
:1056B300E0C0E01256E9D0E0125724F58388821245
:1056C3005A7F850882850983124DF51263D638F512
:1056D30083E9800E8508828509831264BB800312E7
:1056E30063FEF002433C8E828F83A3A3A3A3A3A3F1
:1056F300A3A3A3A31256FB22E012641DA3228E824E
:105703008F83A3A3A3A3A3A3124E051263DC38F5CF
:105713008322A3A3A3A3A3A3A3A3A3A31255DAE062
:105723002212572822126EABF8A3E022EA1257374F
:105733003BF58322240CF582E42274F1120B0274EC
:10574300E41211A68A0C8B0D8C088D097A237B0039
:10575300121B2E8A0A8B0BAE0AAF0BEA4F700302A1
:105763005A3A1263E2E5082415125A6B687003A3D0
:10577300E0698E828F837004740280027401F0E505
:1057830008240DF8E43509F98882F583E0FAC3E4C7
:105793009AFA95E0FB125A672AFAA3E03BFB8E8242
:1057A3008F83A3A3A3A31260408E828F83A3A3F04E
:1057B300EE2420F582E43FF583E4F0EE2421F58224
:1057C300E43FF583E4F0EEFAEFFB122458850882F8
:1057D300850983125A8670098E828F83A37405808C
:1057E300069015C3125A74F0EE2417F50AE43FF538
:1057F3000B8E828F83125A7FE9850A82850B83F091
:10580300EE2416F8E43FF9E508240EFAE43509FB23
:1058130088828983124E52E5082410FAE43509FB85
:10582300850A82850B83E0FC88828983E0F88A827B
:105833008B83E0C398C39CF8125AC0F0EEFCEFFDD3
:10584300AA0CAB0D12239EE9F50B8E828F83E064C5
:10585300027006126017125A44E50B6003025A31B4
:10586300750C00750D009017FBE064016005E064A2
:1058730002703F125A566008EE2421125A597032B0
:105883008E828F83A3A3A3126404125A8CEE241670
:10589300125A52125AB5FAE439FB124144EA4B60E8
:1058A30011126C6612112C125A9AAA0C127104125C
:1058B300110DEEFAEFFB122464E9F50B9017FBE0F0
:1058C30064016008E064026003025A24E970030281
:1058D3005A24E50C450D7003025A318003850E0BE3
:1058E300125A56600BEE2421125A596003025A2AA7
:1058F300850B0E850C08850D09750A0078081211B1
:105903002C125A9A8E828F83A3A3A3A3127E1D12F5
:10591300110DEE2420125A52600D125A5F74681250
:105923004E6AEE24208015EE2421125A526015127D
:105933005A5F7403F0A37401F0EE2421F582E43F6F
:10594300F583E4F0EEFAEFFB122464E9F50B7090B3
:105953007C137D0079007409121196121A86741A49
:105963001214377401125ACB64687002A3E0704FAB
:105973008E828F831255E6E0640560030258E07C53
:105983000879FF8E828F83A3A3A3A3E0242A126046
:105993005C121B10E970030258E07C087D0079FF5C
:1059A3007401121196121A86740112119E7A007BE9
:1059B3000079AB122380741912143774FC8015120A
:1059C3005A5FE064037004A3E06401700874191261
:1059D300143774FFF0E4F508F509780812113074F0
:1059E3000212119E7413121437AA82AB83126541FB
:1059F30012110D852182852283E0602B7409121117
:105A03008E88088909780812113075081375090002
:105A130078081211307C007D00126DB412110D80D4
:105A230006E50C450D6007AA0CAB0D121B34EEFA0C
:105A3300EFFB121B348003750B10A90B741C027A45
:105A430034EE2406FAE43FFB121C3022EE240C123F
:105A53005AD322EE2420125AD3640122EE12559611
:105A63003FF58322E508240EF582E43509F583E04A
:105A730022125A79A322E08E828F8322A3E0F912A5
:105A830024A622E05403640122125A9022E0FAE889
:105A93002AF8E43400F9228E828F83A3A3A312642D
:105AA30008125A90EE2416125AD3125AB5FCE4394E
:105AB300FD22FAE82AF8E439F9E8240422125AC448
:105AC3002212697BA3A3A322F0125AD022EE240F41
:105AD300F582E43FF583E02279010210BD74F412EC
:105AE3000B02EAFEEBFF8A82F583A3A3A3A3A3A37E
:105AF300A3A3124DF52424F582E438F583125A86C4
:105B0300702E8A828B831257157025125BAEE06468
:105B130005701D125BAEA3E0F8740168600574069E
:105B23006870071255C8740280051255C87403F0D3
:105B3300EA240A1264AF126418E4F0EA2408F8E4D1
