:020000040000FA
:06000000021392020863E6
:03002B000210F5CB
:03003300020F9128
:030053000207920F
:100083000207F401010000000000F8FF07FFFF0072
:10009300000504000000030001FFFFFFFF0005301F
:1000A3007500000020FD000206FFFF1E0A00190074
:1000B300010000770123162916C51C00000000006B
:1000C300000000000000000000000000000000002D
:1000D300000000000000000000000000000000001D
:1000E3000000000000A11C00000000000000000050
:1000F3000000000000FF00000000000000000000FE
:10010300000005000104010C0002052A86036C8629
:1001130001040000C313000000E8030000FFFF1404
:10012300140188130000E80300002C012C01BC0219
:10013300A0BB0D00A0BB0D00020202070401051EB7
:1001430002051E020A0A010108080103B80B028016
:100153003E0102FEFFE8030A050001FFFF020A0158
:100163001401E00100B0423BAAB83F0000003F8CFD
:10017300906339AA0CA33A00941E3C8042633DCF9E
:10018300FE753E1572313F0000803FF304353F801A
:1001930096184B000080BF2292D43EDD9B2A3F0479
:1001A300000040FFFF7F7FFFFF7FFF0100803418C7
:1001B30072313F050301010F030003000300030035
:1001C3000300030003000300030005000A001400FA
:1001D30028004F009E000000712E00000000092E31
:1001E30000000000FF000000FF001213C060461271
:1001F30013DE603DE9687008F618F618F618F62263
:10020300748067F7120221090909748067F72212C3
:1002130013DE601D1213C07005191919801A12120A
:100223006D701F121281C37003E6673319191940E9
:10023300071818182208080874FFF618F618F61895
:10024300F622121281601712145E702192F01214BA
:100253004C7019501720F014080808090909E7F62B
:100263001819E7F61819E7F61819E7F62212144CCD
:1002730060E6E869701F0808E62480F608E436F6AD
:1002830018547FB47F0CE654806007F6E418F61820
:10029300F622181822E9C6CC08C6CD08C6CE08C671
:1002A300CFC0E0E8C0E0EAC0E0EBC0E009E9F8094C
:1002B300E7FA09E7FBE6F918E6F8C3EC98ED99EEDF
:1002C3009AEBC2E7F5F0EFC2E795F0500E600CEB46
:1002D300CFFBEACEFAE9CDF9E8CCF8EAA2E7D2E718
:1002E300FAEB33FB13F5F0EEA2E7D2E7FEEF33FFB1
:1002F300C5F013A2E730E601B313C5F0C3C0E0C0F5
:10030300F07F00C39BFB605E9418600F401D146078
:100313001AD0E023F9D0E0F80203F38AF0E9486049
:1003230003D2F0E4AFF0FAF9F8803BEB30E40D8947
:10033300F0EA6003D2F0E4AFF0F9CAF8EB30E30D72
:1003430088F0EF6002D2F0AFF0E4CAC9F8EB5407CB
:100353006014FBC3EA13FAE913F9E813F8EF135037
:1003630002D2E0FFDBEDD0E0C0E030E739C3E49F29
:10037300FFF5F0EC98FC42F0ED99FD42F0EE9AFEA9
:1003830042F0D0E0F9D0E0F8E5F0607AE923F9EE45
:1003930020E742D8028067C3EF33FFEC33FCED3331
:1003A300FDEE33FE80EAEC28FCED39FDEE3AFED09B
:1003B300E023F9D0E0F84002801BC3EE13FEED13F7
:1003C300FDEC13FCEF135002D2E0FF08B800067FE8
:1003D3007F74FF802EEF3350178CF020F0026010F3
:1003E3000CBC000C0DBD00080EBE000408E860DF65
:1003F300E933E813FFEE2313FE4F4D4C8008E95415
:1004030080FFE4FEFDFCEE33EF33F47004FCFD7E6D
:1004130080D0E0FBD0E0FAD0E0F8D0E0CFC618CE31
:10042300C618CDC618CCC6F9221213DE70041818EC
:1004330018221213C0700D74FFF61819F61819F666
:100443001819F622E7548066F612144C700F121432
:100453005E70F014F608F608F608F680D112145E02
:10046300700CF608F608768008E6447F80EC1212DA
:1004730084700C12127060BFE65480F6E480BB12E5
:100483001270700519191980A5E869700C763F1868
:10049300768018F618F6E8F922E6CDC0E018ECC02D
:1004A300E0E633CD33CDD313F6E719FCE71919335F
:1004B300CC33C3947F400ECD9D502408E65480F680
:1004C300E418F6800FF4043D14501408E6447FF654
:1004D300187680E418F618F6D0E0FCD0E0FD22CCC4
:1004E300D313CCFD18E4C6CBC0E018E4C6CAC0E001
:1004F3000808ED08C633E613F618E433C675F003AF
:10050300C3CA97CA09CB97CB199C40047D08802E98
:10051300BD00030205D516B6FF050606081618C367
:10052300CA33CACB33CB33CA27CA09CB37CB193C1F
:10053300C37D08803E187D0820E75CC633C6CA33F6
:10054300CACB33CB33DDF1D5F0EB30E77BCA97CAA7
:1005530009CB974ACB199C406F4B7025E620E021CD
:100563008066187D08C3CA97CA09CB97CB199CD359
:10057300C633C6CA33CACB33CB3350C9DDE7D5F054
:10058300E1D3E4C636C608C636C608C636C608C6AC
:1005930036C61818188031C3CA97CA09CB97CB1926
:1005A3009CB34097C633C6CA33CACB33CB33DD348F
:1005B300D5F02EC6A2E0C640C8CA27CA09CB371950
:1005C3004A70BECB3CB480B90808E63308E6336012
:1005D3001F181818D0E0FAD0E0FBD0E0FCD0E0FD03
:1005E30022187D08CA27CA09CB37CB193CD3808090
:1005F30013F618E4B67F11F618B6FF0EF618C60404
:1006030070D20808768080CAF618F618F680C500FE
:100613001213DE604F1213C06012E7548066F612A5
:10062300126D701112145E703B090909F4F618F685
:1006330018F618F622121281701512144C080808C5
:1006430060EAE6447FF618768018E4F618F622127C
:10065300144C601612145E7012E4F608F608F608DD
:10066300E65480F609090918181822EAC0E0EBC01D
:10067300E0ECC0E0EDC0E0E687F0A4FBACF008E6F8
:1006830087F0A42CFCE435F0FA1809E687F0A42CD3
:100693004B60027401CA35F0FCE433FB09E687F0D2
:1006A300D2F7A42CCB35F0FC1908E687F0A42BCCA9
:1006B30035F0FBE433FD0819E687F0D2E7A42C4AB2
:1006C300CB35F0CD3400FC09E687F0D2E7A42DCC7E
:1006D30035F0FDE433FA0918E687F0D2F7A42CCD00
:1006E30035F0CA3400FC08E687F0D2E7D2F7A42A33
:1006F300CC35F07A7E20E70B0ACB33CBCD33CDCC90
:1007030033CC33CB3350147004ED30E00ED2F1E42C
:10071300CD3DCDCC3CCC3B5005DA05C2F1EB547F4B
:10072300C63308E63392F0FBE73309E733C39A5045
:100733002D2B70190C0D4C4D70151806E608C3339C
:10074300700D20F10AA2F013F6E418800B4024E4A4
:10075300F630F002768018F618F618F68024D33BAC
:1007630014501074FFA2F013F6187680E418F618EC
:10077300F6800FA2F013F618E63303F618ECF6181A
:10078300EDF6D0E0FDD0E0FCD0E0FBD0E0FA22C0F3
:10079300E074F1120BF4A2AFE433F509D2AF85A7ED
:1007A30008AFA1EF5508FE74105E600612170775B7
:1007B300A1EF74085E600812170D75A1F78024EF8E
:1007C300A2E092F0E508A2E082F05017906198E071
:1007D300F89005A2E0C398A2D265D0335002E8F0A6
:1007E30075A1FE752300E509A2E092AF7F02020C1A
:1007F30053C0E074F2120BF4A2AFE433FED2AF9015
:1008030061A4E0F8759B00E5915854086008759160
:10081300F712175B8023E59158541060087591EF28
:100823001217618014E591A2E092F0E8A2E082F051
:100833005007E0C2E0F01218C39061A3E0F8E5E9C5
:10084300585404600E12189975E9FB906193E0A265
:10085300E640F2752300EEA2E092AF7F01020C5353
:10086300C0E074F2120BF4A2AFE433FED2AF906196
:10087300A5E0F8E5BF585404600675BFFB1218DB0A
:1008830080D11208D030F03912091580341208D003
:1008930020F01430E72B74FFFCFBFA747F8022E412
:1008A300FCFBFA7480801AB48008BC00F2BB00EF32
:1008B300800F50EBF9E4C39AFAE49BFBE49CFCE45D
:1008C30099C6CC18C6CB18C6CA18C6F922E4C9C63D
:1008D30008CAC608CBC6D3330308CCC63392F0C3C9
:1008E300947F402E94184019C9B90704CACBCC226F
:1008F3005025C309CA33CACB33CBCC33CC33D9F459
:1009030022F4600DC9CCC313CB13CBCA13CAD9F6D7
:10091300CC22E4FCFBFA2214FCFBFA22C3E498F891
:10092300E499F91209608026C3E49AFAE49BFBE98F
:1009330020E7E9120960E498F8E499F922C3E498FE
:10094300F8E499F9120960E498F8E499F9C3E49A90
:10095300FAE49BFB22EB20E7CFE920E7E0B90010A4
:10096300BB0008E88AF084F8AAF022E4FBC8FA2264
:10097300EB70227B10C833C8C933C9335007C39AFD
:10098300C3DBF280069A50012ADBEAC833F4C8C9F4
:1009930033F4C9FA2275F008E4C833C8C933C9333C
:1009A300C99AC99B5004C92AC93BD5F0ECFBC8338B
:1009B300F4C8E4C9FA22080808EAC0E0EBC0E086FC
:1009C300F0E7A4FA180986F0E7A42AFA180986F0D2
:1009D300E7A42AFA180986F0E7A42AFA1986F0E7A9
:1009E300A4FBE5F02AFA190886F0E7A42BFBE5F04F
:1009F3003AFA190886F0E7A42BFBE5F03AFA18183F
:100A03000986F0E7A4C5F02BFBE43AFA1908E7C519
:100A1300F0C6A426F6E5F03BFBE43AFA1886F0E7C5
:100A2300A4F6E5F00826F6E43B08F6E43A08F6D027
:100A3300E0FBD0E0FA22080808E630E7111212457D
:100A4300120A51080808C64480C618181822181834
:100A530018E9799EC608CAC608CBC608CCC6C370B7
:100A6300207996CACBCC7019798ECBCC701379864A
:100A7300CC700EF9802ACA33CACB33CBCC33CC33F8
:100A83001930E7F2CCCBCA3350147004EA30E00DCE
:100A9300E4CA3ACACB3BCBCC3CCC500209C3E913E2
:100AA300C6CC182313C6CB18C6CA18C6F922E4CF7E
:100AB300C0E0E4CEC0E0E4CDC0E0E4CCC0E075F03B
:100AC30020E626F608E633F608E633F608E633F6BC
:100AD300181818EC33FCED33FDEE33FEEF33FFC390
:100AE300EC9709ED9709EE9709EF97191919400F3C
:100AF300FFEC97FC09ED97FD09EE97FE191906D552
:100B0300F0BFECF709EDF709EEF709EFF71919193B
:100B1300D0E0FCD0E0FDD0E0FED0E0FF222521C5EF
:100B230082C0E0E52234FFC583C0E0E521C395829E
:100B330024F810AF088583228582218008858322CB
:100B4300858221D2AFCEF0A3E520F0A37808E60892
:100B5300F0A3DEFAEFF0A3E58124FAF8E608F0A3A8
:100B6300E608F0A3E608F0A30808E608F0A3E60801
:100B7300F0A315811581D0E0FED0E0F81581158131
:100B83001581E8C0E0EEC0E022121437B900030279
:100B93000BDEE490050178B179128002F0A3D8FC52
:100BA300D9FA78239000867A01BA00028007E49389
:100BB300A3F608DAF97AB17B169000877867790291
:100BC3008015E493A3AD82AE838A828B83F0A3AABC
:100BD30082AB838D828E83D8E9D9E775825A758378
:100BE300EA74041210D775823B75832B74001210BC
:100BF300D7C0D02521C582C0E0E52234FFC583C01C
:100C0300E0E521C3958224F310AF08858322858212
:100C1300218008858322858221D2AFC8F0A3E9F021
:100C2300A3EAF0A3EBF0A37908E709F0A3D8FAEC61
:100C3300F0A3EDF0A3EEF0A3EFF0A3D0E0F0A3D088
:100C4300E0F0A3D0E0F0A3E520F0A3E5F0F0A322C9
:100C5300852283852182E0C0E0A3E0F9A3E0FAA323
:100C6300E0FBA37808E0F608A3DFFAE0FCA3E0FDCD
:100C7300A3E0FEA3E0FFA3E0C0E0A3E0C0E0A3E0A5
:100C8300F5D0A3E0F520A3E0A3F5F010AF0885832A
:100C9300228582218008858322858221D2AFD0825A
:100CA300D083D0E0F8D0E032121248181818120A94
:100CB300B1121341191919221213411919190808EC
:100CC30008E618181820E7E0120AB112124818189B
:100CD3001822090909E719191920E7DC080808E6A9
:100CE30018181820E703020AB1121248181818122C
:100CF3000AB112124818181812134119191922E4CB
:100D03007375F0108E248F2585822985832885218C
:100D130082852283E0CEA3E0CF852982852883EBD9
:100D2300C9EAC8EDCBECCAC3E833C8E933C9EA332F
:100D3300CAEB33CBC3EA9EF527EB9FF526B35004EA
:100D4300AB26AA27EC33CCED33CDD5F0DAAE24AF06
:100D530025221213DE601C1213C0601712144C708C
:100D63000712145E7001D322C0D012145E7006D035
:100D7300D0B322C32233D0D0501430E0F6C3E79669
:100D83000809E7960809E7960809E796B32220E0E1
:100D9300D5E6970809E6970809E6970809E697B3A1
:100DA30022D083D082ECC0E0EDC0E0E493A3FCE466
:100DB30093A3FDED4C600D120EC8EC24FFFCED3443
:100DC300FFFD80EFE493A3FCE493A3FDED4C600DE2
:100DD300120FBCEC24FFFCED34FFFD80EFD0E0FDEF
:100DE300D0E0FCE493A3C0E0E493C0E0221213DE5E
:100DF300601B1213C0601612144C700712145E604D
:100E03000CB322C0D012145E7005D0D022C322339B
:100E1300D0D0501330E0EBC3E7960809E7960809F2
:100E2300E7960809E7962220E0E4E6970809E697A3
:100E33000809E6970809E69722D083D082E9C0E043
:100E4300E493A3C386F0C5F095F0F908E493A38671
:100E5300F0C5F095F0700BE493A3C3994005E90442
:100E63008002A3E475F002A42582F582E5F03583C0
:100E7300F583D0E0F9E493A3C0E0E493C0E02285D6
:100E83002283852182E0A3FEE0A3F5207808E0A376
:100E9300F608DFFAE0A3FFE0A3C0E0E0A3C0E0E0D0
:100EA300A3C0E0E0A3C0E0E0A3C0E010AF088582E8
:100EB300218583228008858221858322D2AFD08336
:100EC300D0820210DDC0E0C3E493960874019396C8
:100ED30018400FE493667008087401936618700055
:100EE3007019A3A3C3E49396087401939618A3A35C
:100EF300400DD0E0D0E0D0E0020DE0A3A3A3A3A374
:100F0300A3D0E0227404800474028000CCC0E0ED1E
:100F1300C0E0E521C39CCCAD2250011D10AF068C6F
:100F2300218D2280068C218D22D2AF121059D0E060
:100F3300FDD0E0FC2274028000CCC0E0EDC0E0E50F
:100F430021C39CCCAD2250011D10AF068C218D22F4
:100F530080068C218D22D2AF121037D0E0FDD0E075
:100F6300FC221213DE60251213C0602012144C7091
:100F73000302145E080808E76670101819E7667024
:100F83000A1819E76670041819E76622F422C0E00C
:100F930074F2120BF4A2AFE433FED2AFE58BA2E0FE
:100FA30050057904121641758B00C2E8752300EED3
:100FB300A2E092AF7F01020C53C0E0C0F088F0E4DE
:100FC300936670080874019366187000A8F0A3A3D1
:100FD300700BD0F0D0E0D0E0D0E0020DE0A3A3D0BE
:100FE300F0D0E022D083D082CCC0E0E493A36006AB
:100FF3001210B81470FAE493A360061211C61470A9
:10100300FAD0E0FCE493A3C0E0E493C0E022C0087C
:10101300C3E096F50808A3E096420808A3E09642C9
:101023000808A3E0964208A2D265D033E508700110
:10103300D3D00822CAC0E0E493A3C582CCC582C53D
:1010430083CDC583F0A3C582CCC582C583CDC583BB
:10105300DAE5D0E0CA22CAC0E0E0A3C582CCC582EB
:10106300C583CDC583F0A3C582CCC582C583CDC559
:1010730083DAE6D0E0CA22C008C3E096F50808A3E5
:10108300E096420808A3E096420808A3E0964508C4
:101093007001D3D0082270090808082260161818B6
:1010A30018C6C333C608C633C608C633C608C63314
:1010B300C6D5E0EA22C0E0E493A3D39C5010E493A6
:1010C300A3C39C400AD0E0D0E0D0E0021004A3A365
:1010D300A3D0E022C09FF59FE473D09F22D083D09A
:1010E30082C09FE493C0E0740193C0E0740293F55F
:1010F3009F22C0E0C0D0E8C0E0A8A8D2AFC2C775A5
:101103002300E8A2E792AFD0E0F8D0D0D0E03225B8
:1011130021F58210AF08F521400C15228008F52136
:1011230040021522D2AF8522832200C0D025211090
:10113300AF08F521500C05228008F5215002052245
:10114300D2AFD0D0227404800A7403800674028064
:10115300027401C0E0F404121112D0E01213FA2257
:10116300BB0102E722C082C08389828A83BB00035A
:10117300E08002E493D083D082226016080808C678
:10118300C313C618C613C618C613C618C613C6D5C6
:10119300E0EA222521F8E43522F9222521FAE43573
:1011A30022FB222521FCE43522FD22C3E0C696F66C
:1011B30008A3E0C696F608A3E0C696F608A3E0C621
:1011C30096F622C0E0E493A36C7009D0E0D0E0D09F
:1011D300E0021004A3A3D0E022252110AF08F521DB
:1011E300400C15228008F52140021522D2AF22E0DF
:1011F30066701008A3E066700A08A3E0667004082E
:10120300A3E06622C3E09608A3E09608A3E096084D
:10121300A3E096A2D265D03322E76670100809E7EF
:1012230066700A0809E76670040809E76622C3E0E6
:1012330096F008A3E096F008A3E096F008A3E096E2
:10124300F022181818E4C396F608E496F608E49614
:10125300F608E496F622C3E697F60809E697F60839
:1012630009E697F60809E697F622181818E60846DD
:10127300087009E626087005E633F42208221919D6
:1012830019E70947097009E727097005E733F422CD
:101293000922C3E493960874019396087402939603
:1012A300087403939622E627F60809E637F6080939
:1012B300E637F60809E637F622700422600D18C6F1
:1012C300C333C608C633C6D5E0F41822E657F6087A
:1012D30009E657F60809E657F60809E657F622E045
:1012E30056F608A3E056F608A3E056F608A3E05620
:1012F300F622E026F608A3E036F608A3E036F60861
:10130300A3E036F622E026F008A3E036F008A3E0D7
:1013130036F008A3E036F022E056F008A3E056F0DA
:1013230008A3E056F008A3E056F022E647F60809C2
:10133300E647F60809E647F60809E647F622E4C356
:1013430097F709E497F709E497F709E497F7226019
:101353000D08C6A2E713C618C613C6D5E0F322C606
:10136300F4C608C6F4C608C6F4C608C6F4C622C343
:10137300E09608A3E09608A3E09608A3E09622C3AC
:10138300E7960809E7960809E7960809E79622759C
:10139300D00075813F75210175220500020B8C6019
:1013A3000C08C6C313C618C613C6D5E0F422E6F06C
:1013B30008A3E6F008A3E6F008A3E6F022E709474E
:1013C30009C3134709336002E733F422E0F608A3A5
:1013D300E0F608A3E0F608A3E0F622E6084608C311
:1013E300134608336002E633F422800100E9F874FF
:1013F300FF28F90470F622CAC0E0E6F0A308DAFA7F
:10140300D0E0FA22E0F8A3E0F9A3E0FAA3E0FB229C
:10141300E8F0A3E9F0A3EAF0A3EBF022EAF0A3EBF0
:10142300F0A3ECF0A3EDF022E0FAA3E0FBA3E0FCD1
:10143300A3E0FD22E5C754F84401F5C7790122254D
:1014430021F582E43522F58322E62618461846184C
:101453004622C2AF75D69F02000022E7271947191B
:10146300471947221210E0E4F5011210E076F60165
:101473001210E04FF7011210E0ABF7011210E00970
:10148300F8011210E07CF8011210E0C0F80112100C
:10149300E018F9011210E03AF9011210E0CAF9015B
:1014A3001210E05BFA011210E0A7FA011210E0D368
:1014B300FA011210E014FB011210E0B3FC01121048
:1014C300E095FD011210E06AFE011210E0F9C1037C
:1014D3001210E08DC2031210E0F5C2031210E01ADD
:1014E300C4031210E0A4C4031210E02FC5031210AA
:1014F300E06BC5031210E004C6031210E099C603A3
:101503001210E06CC7031210E04EC9031210E00280
:10151300CA031210E0F8CA031210E097CB031210AB
:10152300E0ECCB031210E05ACC031210E066CF03B9
:101533001210E090D1031210E091D2031210E0CF09
:10154300D3031210E0DAD3031210E0F8C704121029
:10155300E024C8041210E044C8041210E06BC8046D
:101563001210E0B2C9041210E0E5C9041210E0A49D
:10157300CA041210E03ECB041210E0FAFA0412106F
:10158300E0FFFA041210E032FB041210E03FDF0424
:101593001210E006E0041210E018E0041210E088D4
:1015A300E0041210E062F5041210E073F504121067
:1015B300E011F6041210E01CF6041210E036F604F3
:1015C3001210E0F6FF011210E0E57F001210E04573
:1015D300F6041210E055F6041210E06AF604121035
:1015E300E01EF7041210E05DF3041210E0E1F304CF
:1015F3001210E049F4041210E0CCDC041210E0EA0B
:10160300DC041210E01FDD041210E044DD041210AC
:10161300E067DD041210E0A2DD041210E0CFDD0468
:101623001210E016DE041210E0B5DE041210E01111
:10163300F0041210E098F0041210E0A1F00412106C
:10164300E0C8F0041210E010F1041210E027F104D6
:101653001210E0ACC0041210E0BAC0041210E03360
:10166300C1041210E00CC2041210E0CFC304121024
:10167300E01EC4041210E05CC4041210E0F87F0002
:101683001210E04DE8041210E085E8041210E0D3D4
:10169300E9041210E057EA041210E0A8A50412109E
:1016A300E0D4A5041210E03EA8041210E07EA804C2
:1016B3001210E0BAA8041210E0CEA8041210E0E75A
:1016C300A8041210E0D9A9041210E08CAA04121085
:1016D300E0A0AA041210E04D7E001210E0717E001B
:1016E3001210E08A7E001210E0C87E001210E0F8AB
:1016F3007E001210E0257F001210E02F7F001210F1
:10170300E0957F001210E0987F001210E0A27F00A6
:101713001210E0AF7F001210E025DA041210E0454A
:10172300DA041210E084DA041210E0A2DA041210D0
:10173300E0BDDA041210E023DB041210E02FDB0417
:101743001210E08CDB041210E09BDB041210E0BFEC
:10175300DB041210E080DC041210E08DDC041210B4
:10176300E09EDC041210E09EF8041210E0E6F80498
:101773001210E012F9041210E0F6AA041210E04A63
:10178300AC041210E058AC041210E06BAC0412105D
:10179300E080AC041210E095AC041210E0A8AC0495
:1017A3001210E024AD041210E089AD041210E01110
:1017B300AE041210E089AE041210E062AF041210FE
:1017C300E072AF041210E081AF041210E005F804D8
:1017D3001210E029F8041210E051F8041210E07915
:1017E300F8041210E0ABE1041210E0D2E10412108D
:1017F300E0F0E1041210E05FE2041210E095CE0481
:101803001210E0AECE041210E0BACE041210E0CEF5
:10181300CE041210E0ECCE041210E0F6CE04121047
:10182300E000CF041210E013CF041210E09DCF04A8
:101833001210E012D0041210E046D0041210E0940B
:10184300D0041210E0E1D0041210E0FCD004121016
:10185300E006D1041210E02CD1041210E091D1045F
:101863001210E024F7041210E046F7041210E0D43B
:10187300F7041210E05EFB041210E0179504121037
:10188300E04395041210E06095041210E073950490
:101893001210E08E95041210E0E895041210E01681
:1018A30096041210E02A9A041210E0889B04121086
:1018B300E0BA9B041210E01D9C041210E0A29D04E8
:1018C3001210E0CA9D041210E0DF9D041210E0EF35
:1018D3009D041210E02F9E041210E0719E0412105A
:1018E300E0819E041210E0E1EE041210E0FBEE042E
:1018F3001210E023EF041210E03CEF041210E0603A
:10190300EF041210E07EEF041210E095EF041210C2
:10191300E0C3EF041210E0DEEF041210E044FF0115
:101923001210E088FF011210E06FC4041210E07F70
:10193300C4041210E084C5041210E0B6C5041210EA
:10194300E0E6C5041210E009C6041210E020C60444
:101953001210E05AC6041210E0BFC6041210E001D0
:10196300C7041210E048C7041210E075C704121030
:10197300E0A0C7041210E04BEC041210E05DEC048D
:101983001210E071ED041210E074ED041210E05730
:10199300F2041210E08DF2041210E0A5F20412100A
:1019A300E0E7F2041210E0F7F2041210E03BF30454
:1019B3001210E045F3041210E0B19E041210E0F49B
:1019C3009E041210E0599F041210E0789F04121035
:1019D300E01AA0041210E023A0041210E074A00483
:1019E3001210E09DA0041210E0AAA0041210E01C43
:1019F300A1041210E0AAA1041210E0EFA104121036
:101A0300E028A2041210E08DA2041210E0B6A20492
:101A13001210E02DA3041210E07CA3041210E0B90D
:101A2300A3041210E0EEA3041210E000A4041210A9
:101A3300E012A4041210E031A4041210E03AA4044A
:101A43001210E0FBA4041210E03EA5041210E07C87
:101A5300A5041210E0EBF9041210E0A1ED0412103A
:101A6300E000E4041210E036E4041210E07EE40423
:101A73001210E0D7E5041210E0DEAD031210E0040B
:101A8300AF031210E040AF031210E0FEB0031210D8
:101A9300E02CB1031210E096B3031210E0D6B303A7
:101AA3001210E078B5031210E00EB6031210E068CE
:101AB300B6031210E0F8B6031210E03CB70312109D
:101AC300E07EB7031210E0E3B8031210E063BA0339
:101AD3001210E0A4BC031210E0D2BC031210E0FE0B
:101AE300BC031210E007BD031210E064BD03121023
:101AF300E0FDBD031210E014C1031210E09AC1030C
:101B03001210E034FF021210E04CFF021210E056F4
:101B1300FF021210E0ACFF021210E02CB40412100A
:101B2300E042B4041210E0E3B4041210E022B5045E
:101B33001210E03FB5041210E070B5041210E0BDBE
:101B4300B5041210E0F1B5041210E02CB604121023
:101B5300E029B8041210E08FB8041210E062F40414
:101B63001210E0C1F4041210E0FFF4041210E0407C
:101B7300F5041210E043FA041210E0008002121080
:101B8300E00C80021210E06E80021210E0788002F6
:101B93001210E00781021210E04381021210E002EA
:101BA30082021210E05F82021210E0F18202121030
:101BB300E04483021210E0C283021210E07E850229
:101BC3001210E08387021210E0B888021210E0FBC3
:101BD30089021210E0A08A021210E04E8F02121046
:101BE300E04390021210E0D990021210E0FE90023E
:101BF3001210E09B91021210E0B891021210E0D88B
:101C030091021210E04692021210E0639202121047
:101C1300E09192021210E02F94021210E05094020D
:101C23001210E0F694021210E03E95021210E09CAE
:101C330095021210E03F96021210E0A496021210D1
:101C4300E00397021210E0B197021210E02E9802FF
:101C53001210E06A98021210E0DE98021210E023DC
:101C63009A021210E0AF9B021210E04E9C02121077
:101C7300E08E9E021210E0F09E021210E01E9F0200
:101C83001210E033A1021210E0D3A3021210E0EC11
:101C9300A4021210E082E4031210E0A9E50312107B
:101CA300E087E7031210E098E7031210E0B7E703B9
:101CB3001210E0E0E7031210E0DCEB031210E06D1A
:101CC300ED031210E08AED031210E0BAED031210D7
:101CD300E0D8ED031210E059EE031210E0FCEE031E
:101CE3001210E0A8EF031210E061F0031210E0D726
:101CF300FF021210E065FC031210E020FD03121036
:101D0300E086FD031210E0A7FD031210E082FE033C
:101D13001210E003EA021210E032EA021210E0AA03
:101D2300EA021210E0B9EB021210E015EC021210F5
:101D3300E082ED021210E09EED021210E0F0ED02DF
:101D43001210E033EE021210E046EE021210E09E93
:101D5300EE021210E060EF021210E0DCEF0212104C
:101D6300E013F0021210E04BF0021210E0DDF1027A
:101D73001210E0BCF2021210E00AF4021210E0EDBD
:101D8300F4021210E079F5021210E0B9F502121014
:101D9300E0D8F5021210E023F6021210E043F60237
:101DA3001210E0DCF6021210E062F7021210E0BD3E
:101DB300F7021210E0FDF7021210E093FA0212107C
:101DC300E0ACFB021210E0F2FB021210E0E7FC02AF
:101DD3001210E00FFD021210E012FD021210E01CBF
:101DE300FD021210E038FD021210E0B2FD021210E3
:101DF300E0EBFD021210E017FE021210E03EFE02BD
:101E03001210E062FE021210E0D3FE021210E0E6AE
:101E1300FE021210E015FF021210E015F904121071
:101E2300E021F9041210E055F9041210E0F9FF0162
:101E33001210E0AF97031210E0D297031210E01FC5
:101E430099031210E06899031210E0D49903121059
:101E5300E0329A031210E0359A031210E0869A03D7
:101E63001210E0FB9A031210E0809B031210E08330
:101E73009B031210E0049C031210E0459C03121014
:101E8300E031A0031210E0DBA1031210E02BA20348
:101E93001210E0B2A5031210E0E5A6031210E05FF2
:101EA300A8031210E0FCA8031210E0E7A903121024
:101EB300E03CAC031210E019D4031210E0C3D403C6
:101EC3001210E02ED5031210E049D5031210E0CE14
:101ED300D5031210E028D6031210E06FD6031210B8
:101EE300E0B492041210E055D8031210E084D90331
:101EF3001210E00CDA031210E015DC031210E0C23A
:101F0300DC031210E098F5011210E037DE03121023
:101F1300E0F2DF031210E08AE1031210E01DE20396
:101F23001210E043E3031210E0D0CE021210E033AC
:101F3300CF021210E07BCF021210E0BFCF021210CB
:101F4300E01AD0021210E077D0021210E0B2D002F1
:101F53001210E034D1021210E08ED1021210E00C04
:101F6300D3021210E08CD3021210E08BF201121094
:101F7300E001D4021210E022D4021210E07CD40259
:101F83001210E0F8D6021210E017D7021210E00781
:101F9300D8021210E03AD9021210E0B9D902121095
:101FA300E0F5D9021210E064DA021210E019DB0244
:101FB3001210E0F1DC021210E0F8DD021210E07002
:101FC300DF021210E066E1021210E0DCE3021210FD
:101FD300E0B6E5021210E077E6021210E0EFE60247
:101FE3001210E006E7021210E0FDE7021210E0F122
:101FF300E8021210E060E9021210E09CD104121012
:10200300E0F3D2041210E0B2D3041210E01AD404A5
:102013001210E070CB041210E08BCB041210E0CF4F
:10202300CB041210E0F5CB041210E01CCC04121008
:10203300E034CC041210E0D6CC041210E0EBCC0454
:102043001210E00ECE041210E017CE041210E0209E
:10205300CE041210E029CE041210E033CE04121085
:10206300E0B2AF041210E0BEB3041210E0C3B30435
:102073001210E0C5B3041210E0D8EA041210E040D5
:10208300FB041210E08ED4041210E039F104121094
:10209300E08AF9041210E03EE6041210E0B97F0072
:1020A3001210E0D4BC041210E09BFA041210E0AB4F
:1020B300FA041210E09CB8041210E017A9021210DF
:1020C300E04AA9021210E0B6A9021210E051AA02D6
:1020D3001210E0EEAA021210E033AB021210E05528
:1020E300AB021210E06EAB021210E094AB021210BE
:1020F300E0B6AB021210E0F4AB021210E038AC020F
:102103001210E05AAC021210E0BCAC021210E083D1
:10211300AD021210E03AAE021210E0ACAE021210A1
:10212300E077AF021210E0CAAF021210E030B00243
:102133001210E06AB0021210E0BCB0021210E02AE2
:10214300B1021210E095B1021210E098B102121020
:10215300E019B2021210E0B0B2021210E030B30282
:102163001210E04FB3021210E0B3B4021210E0C039
:10217300B4021210E0CCB5021210E0D9B50212106D
:10218300E0E2B5021210E0BAB7021210E0D4B802CE
:102193001210E04DB9021210E0BFB9021210E0E1D3
:1021A300B9021210E075BA021210E049BC02121013
:1021B300E020C0021210E034C0021210E044C0025A
:1021C3001210E04EC0021210E057C0021210E0607D
:1021D300C0021210E06AC0021210E097C00212108F
:1021E300E0C0C0021210E0CBC0021210E0EFC00248
:1021F3001210E013C1021210E07DC1021210E0C3FD
:10220300C1021210E0E0C1021210E05DC20212101E
:10221300E094C2021210E0D3C2021210E020C30203
:102223001210E0A6C3021210E074C5021210E0F708
:10223300C5021210E0DBC6021210E042C9021210FE
:10224300E09BC9021210E0E5C9021210E040CB0284
:102253001210E075CB021210E0C7CB021210E07C23
:10226300CC021210E02BCD021210E068CD02121046
:10227300E0FDCD021210E069CE021210E0903100B1
:102283001210E0C231001210E0F031001210E0C66B
:1022930033001210E0A634001210E0FE34001210D6
:1022A300E03936001210E08536001210E0AE390036
:1022B3001210E0A13C001210E0F13D001210E08783
:1022C3003E001210E0933E001210E0C53E001210D3
:1022D300E04840001210E0F941001210E08D420086
:1022E3001210E0D042001210E04E43001210E06BD7
:1022F30043001210E09B43001210E0D04300121081
:10230300E0A044001210E04945001210E0CF47005E
:102313001210E0EF48001210E0DA49001210E05CFE
:102323004A001210E0904E001210E0CD4E00121041
:10233300E0254F001210E0584F001210E0C24F008A
:102343001210E0F84F001210E08350001210E0DB8F
:1023530050001210E0B251001210E06B5200121044
:10236300E00653001210E00E56001210E02A570048
:102373001210E0CD5A001210E0C15B001210E0C44D
:102383005B001210E0F35B001210E0F95D00121025
:10239300E0D25E001210E0155F001210E06B6000E7
:1023A3001210E0AA60001210E03361001210E0671F
:1023B30061001210E02C62001210E044640012105D
:1023C300E0B564001210E0F564001210E0836500CC
:1023D3001210E0A566001210E06767001210E06EAD
:1023E30069001210E08669001210E09A6900121069
:1023F300E0D269001210E0006A001210E07F6B0067
:102403001210E0A46C001210E0016D001210E0B392
:102413006D001210E0DA6D001210E0A16E001210D0
:10242300E0396F001210E05F71001210E094710048
:102433001210E0F771001210E02673001210E0CEC4
:1024430073001210E0FF73001210E01774001210F3
:10245300E0A674001210E05A77001210E0327900FF
:102463001210E04E79001210E06A79001210E03881
:102473007A001210E02B7E001210E08E87011210FA
:10248300E0C087011210E0AF8B011210E0FB8B015B
:102493001210E0418C011210E0E38C011210E03FB6
:1024A3008D011210E0848D011210E0CB8E01121009
:1024B300E0DF8F011210E0CE93011210E05294017D
:1024C3001210E05F95011210E0BB95011210E0AB12
:1024D30097011210E02098011210E02A98011210BF
:1024E300E03798011210E06298011210E049990157
:1024F3001210E0F399011210E0719A011210E091A9
:102503009A011210E0BA9A011210E0DC9A0112103B
:10251300E03C9D011210E0029E011210E0479E0173
:102523001210E0C49E011210E0759F011210E0A783
:102533009F011210E0ED9F011210E029A00112107B
:10254300E079A0011210E0CDA0011210E023A10157
:102553001210E06FA1011210E0DCA1011210E0578C
:10256300A2011210E022A4011210E022A501121010
:10257300E047A6011210E086A9011210E099AC0110
:102583001210E056AD011210E09AAD011210E04AAC
:10259300AF011210E05EAF011210E068AF0112103C
:1025A300E072AF011210E07EAF011210E09AAF01AA
:1025B3001210E045B0011210E084B0011210E08E59
:1025C300B0011210E098B0011210E008B10112102E
:1025D300E053B1011210E068B2011210E0C4B2017D
:1025E3001210E045B3011210E004B4011210E00D23
:1025F300B5011210E041B6011210E02FB70112101D
:10260300E047B7011210E0A2B7011210E0C0B70112
:102613001210E008B8011210E02FB8011210E0CA3E
:10262300B8011210E090B9011210E022BA011210A1
:10263300E09CBA011210E0B6BB011210E063BC01CA
:102643001210E08BBD011210E0DBBD011210E03F60
:10265300BE011210E0A1BE011210E0CFBE011210A4
:10266300E0F3BE011210E028BF011210E059BF01D0
:102673001210E08CBF011210E0ACBF011210E01485
:10268300C0011210E008C1011210E063C101121071
:10269300E08CC1011210E014C2011210E097C201D4
:1026A3001210E0C2C2011210E0A7C3011210E050E1
:1026B300F1031210E088F1031210E0A9F1031210E4
:1026C300E0EBF1031210E04DF2031210E057F203B6
:1026D3001210E067F2031210E0A2F2031210E0827C
:1026E300F6031210E06FF8031210E055FA0312100C
:1026F300E0ECFA031210E08EFB031210E0A9C5010F
:102703001210E027C6011210E083C6011210E0CEBA
:10271300C6011210E0E9C6011210E014C70112103D
:10272300E031C7011210E03DC7011210E0D4C80127
:102733001210E0EDC8011210E072C9011210E08519
:10274300C9011210E0A4C9011210E048CA01121015
:10275300E0C9CB011210E07CCD011210E012CE01D2
:102763001210E015CE011210E085CE011210E0A385
:10277300CE011210E03ACF011210E082CF01121005
:10278300E085CF011210E04BD0011210E0B8D00168
:102793001210E0DED0011210E069D1011210E087BF
:1027A300D1011210E0CDD1011210E081D20112103B
:1027B300E0CBD2011210E0FAD2011210E057D3019C
:1027C3001210E08CD3011210E0B8D3011210E0C64E
:1027D300D3011210E013D4011210E083D4011210BC
:1027E300E0CCD4011210E018D5011210E044D50159
:1027F3001210E04FD5011210E06DD5011210E05810
:10280300D6011210E062D6011210E09DD60112101B
:10281300E0ADD6011210E0B6D6011210E00AD701DE
:102823001210E01ED7011210E04DD8011210E0641F
:10283300D8011210E079D8011210E007D901121063
:10284300E04CD9011210E0D8D9011210E0E3D9010C
:102853001210E025DB011210E040DB011210E08CC6
:10286300DB011210E0FBDB011210E034DC0112107B
:10287300E04EDC011210E090DC011210E060DF0199
:102883001210E00DE0011210E07AE0011210E0BA3C
:10289300E2011210E0D2E2011210E0D5E2011210BF
:1028A300E0E1E2011210E0F5E2011210E0FDE201C5
:1028B3001210E030E3011210E032E4011210E0B92B
:1028C300E4011210E029E5011210E0ABE50112105A
:1028D300E06CE6011210E08BE6011210E02CE70138
:1028E3001210E089E7011210E08CE7011210E0B941
:1028F300E7011210E0CEE7011210E042E8011210E6
:10290300E091E9011210E097EA011210E022EB01D5
:102913001210E03DEC011210E005ED011210E0365B
:10292300ED011210E059ED011210E062ED011210F9
:10293300E091ED011210E021EE011210E0D7EE015B
:102943001210E04CEF011210E0F3EF011210E068F7
:10295300F0011210E09FF0011210E0DDF0011210FF
:10296300E013F1011210E013F5011210E0069204D6
:102973001210E06991041210E05F91041210E0F864
:1029830090041210E0E490041210E041900412103D
:10299300E0418F041210E05A8E041210E04A8C04B6
:1029A3001210E0588B041210E0F68A041210E0CEE5
:1029B300F4011210E066DD031210E09B970312107E
:1029C300E09197031210E04DF2011210E01FF201A3
:1029D3001210E02697031210E05795031210E0152A
:1029E30095031210E01994031210E0ED93031210F3
:1029F300E0A493031210E0E592031210E0D38F03D7
:102A03001210E0948D031210E0618D031210E008A0
:102A13008D031210E09B8C031210E05A8C031210EA
:102A2300E0938B031210E02D8B031210E0CC8A038A
:102A33001210E06C8A031210E04389031210E0D7EE
:102A430088031210E02F88031210E02A8803121063
:102A5300E01E88031210E05184031210E02B84035C
:102A63001210E0ECF1011210E070F1011210E0EE2F
:102A7300D8041210E0EBD7041210E098D704121018
:102A8300E064D7041210E0D194041210E0C9830368
:102A93001210E06A83031210E02B83031210E01874
:102AA30083031210E09D94041210E00D83031210AF
:102AB300E0DC82031210E0F880031210E06B800365
:102AC3001210E0B2F4011210E02780031210E0E7C5
:102AD300D3021210E00080031210E0868A04121061
:102AE300E0598A041210E0268A041210E0FE8904D9
:102AF3001210E09F89041210E07F89041210E04A4B
:102B030089041210E0F685041210E0DE830412102B
:102B1300E0C881041210E04881041210E0F480043C
:102B23001210E0A880041210E00080041210E046A6
:102B330094041210E0D6D60300000080FB000022AC
:102B43008F0001008C17870001008A1735000400ED
:102B530053172500020057172600020059172700B4
:102B630002005B17280001006517290001006617A2
:102B7300840004009F1486000100BF162A00010090
:102B830067172B00010068172C0001006C172D003C
:102B93000800AB142E0001006D172F0001006E1703
:102BA300300001006F17310001007017320001007F
:102BB300B31433000100B41434000100711736005C
:102BC3000100B514380001007217390001006B17BA
:102BD30083000200881763000100C1146400010030
:102BE3006917650001006A176D000100C2147100C6
:102BF3000800A3146600010087174300010078173B
:102C0300440002007917450001007B1746000200CB
:102C13007C1747000800B914480001007E174B00D9
:102C230001007F17040001008B17A10001008F171B
:102C3300370001008E17880001008D173C0001004A
:102C4300B6143D00010073174900020080176700A6
:102C53000100C3144D00020082174E0001008417C7
:102C63004F00020085173E00010077175100010055
:102C7300B714520001007517530001007617540072
:102C83000100B81400000000000000000000200153
:102C930088870000010020018A87000002002001CC
:102CA3008C87000003002001898700000400420193
:102CB300DF85000005004201D185000006004201C6
:102CC30090850000070030018D870000004042011D
:102CD30090850000FDFF210186870100200020056B
:102CE300C716010021002005C816010000022105B6
:102CF300C9160100010221232F1702040000290134
:102D03008F13020402022923231702040302292337
:102D130025170204060210232B17050400002101C6
:102D23009113050404022123271705040502212317
:102D330029170504070210232D1703040000290196
:102D430093130304100029019513030414002801AD
:102D530022170001363601010001020100010301BF
:102D63000001040106060502000007010034080102
:102D7300000F090401010D0100FF0E0800001702F6
:102D83000000190100FF1A0100011B0100FE1C01D4
:102D930000081D0200001F010001200100012102A3
:102DA30000002301000F2402000026010001270177
:102DB3000008280200FF2A0100072B0102402C0112
:102DC30000002D0100012E0100012F0100FF300141
:102DD3000B1D310800003A0100083B01000F3C01C4
:102DE30000013D0100FF3E040000420400004604D0
:102DF30000004A0400004E04000052040000560480
:102E030000005A04000001037103010301030103DD
:102E13000103010322030203010310030003000360
:102E23000003000300030003000342030003240321
:102E330006030003000304031203250323032503EE
:102E430023030403040300030003000344030003F8
:102E530000032303000365032100350381030003FB
:102E630005030003000300030003250323030300FA
:102E73007100300160001100700031022003500422
:102E830080001000610000001400630073007200F2
:102E9300620043000000130006000000000004006D
:102EA30012000000000000000000040004003700CE
:102EB30037003C02440000000000000000006500F1
:102EC30000003500810000000500000083000000C1
:102ED300010171010101010111010101310101012F
:102EE30001018001100161013B00140063017301C2
:102EF3007201620143010001130106013D01350026
:102F03000401120100010001000100010401040198
:102F1300330133013C014401320136000001000159
:102F23006501000135008101000105018201830172
:102F330000010302710230016002110270020102FA
:102F4300020202028002100261023A00410063029F
:102F5300730272026202430200021302380000028B
:102F63000002040212020002000200020002040234
:102F73000402370037003C02440200023900000219
:102F8300000265020002350281020002050282028C
:102F93008302000236000100060000000F0000005B
:102FA3000000000000000000000003FFFF00000419
:102FB30003FFFF0000FFFF0FF4010005C40403201B
:102FC300000100000B000000000000000003010FDF
:102FD30000000000000000000000000000000000EE
:102FE30000000000000000000000000000000000DE
:102FF3000000531C7D1C591C991B5F1C831C5F1C08
:103003008F1C651C991B5F1C831C6B1C991B000088
:103013000000711C991B0000000000000000771CD9
:10302300991B0000000000000000000000000000E9
:10303300000000000000000000000000000000008D
:10304300000000000000000000000000000000007D
:10305300352B0100352B0200571E0280511E030041
:103063005D1E0400631E0480691E05006F1E0600BA
:103073007B1E31008D1E3300931E3400991EFFFF0B
:103083000000030003000400080010001F003E00BE
:103093007B00F600EC01D703AF075D0FB91E713D4E
:1030A300000007ECFDFDFDECDCDCCCBCACAC9C9C77
:1030B3008C7C7C6C6C5C5C5C4C4C3C3C2C2C1C1CFD
:1030C3000AF32402BD2405C92407C3240CA5240D37
:1030D300B124FF000000160F00000B150B020002C5
:1030E300220F3300000E0F5A6967426565416C6C0D
:1030F30069616E63653039D0D1D2D3D4D5D6D7D8F0
:10310300D9DADBDCDDDEDF150AF4D4C0A5958272E3
:10311300636155504900034D4C4651181A25050269
:103123000001191618161618230300303016181943
:1031330020231A1C1E30303017181921301B1D1F75
:1031430030003C40423A3F3F392F47300C0E020BD0
:10315300040B0A0708000F0204020101010109021E
:1031630000BE040AE8030000E8030100F6FB0A318D
:103173000300A530240010030A0C040F08050328DC
:10318300020C051E0815FF00FF0419091EC082C0AA
:1031930083122A699014EE7495F0A37422F09014AC
:1031A300F0749BF0A37422F09014F274A1F0A37452
:1031B30022F09014F474A7F0A37422F0025ECB748F
:1031C300F7120B209014E2E4F0E99014E1F07CB9DB
:1031D3007D147AE37B14121B6F90177EE09014EB3F
:1031E300F09014EC74A3F0A3741402415874F01219
:1031F3000B20EAFEEBFF548070030233619014E16D
:103203001241ED700302335AEA241B125A58707CA0
:10321300EA241F125A5864137002A3E0706E8A8264
:103223008B831233AF9014FC124FEA750A00750BAF
:1032330000800D12402E1270CA121A73AA0EAB0F21
:10324300EA4B60488A828B83E0650C7004A3E065D7
:103253000D702C8A828B83A3A3A3A3E0F50EA3E0B6
:10326300F50FE50A450B8A828B83A3A3A3A360C34F
:10327300124330850A82850B83A3A3A3A380B78A55
:103283000A8B0B8A828B83124FE680B4E508242ACB
:10329300125A58FCE5082402F8E43509F9E8FAE97A
:1032A300FB9014FC123496A3A3E06402703C8A8260
:1032B3008B83124FEA800B88828983A3A3A3A31273
:1032C3004330E849601F88828983E06A7003A3E082
:1032D3006B70E488828983A3A3E06C70DA9017840F
:1032E300125D88806BECF91222D1850882850983EF
:1032F300E06401704FE50824181233981211541238
:103303006672120F07E5082412123398121154E55E
:10331300081241E1121150E508240B126676120FD0
:103323000BE508241712417EE5082402FCE4350965
:10333300FDE5082419FAE43509FB122B11740A126E
:10334300112D800CE064027007AA08AB091223AFA9
:10335300AA08AB091219DDEEFAEF6480802DEA5456
:1033630002600C9017E37401F0EA6402FA8023EA26
:103373005408601A1222CBEA4B700B9014FE1265AC
:103383004D7A081233A5EE6408FAEFFB80047A0045
:103393007B00026CFCF582E43509F583E0F50A78DD
:1033A3000A22FB9014E1E0F9121B3F22A3A3E0F5EC
:1033B3000CA3E0F50D227B009014E1E0F9121B331E
:1033C30074042274F4120B208A088B098A828B837B
:1033D300A3A3A3124DE212418938F583E02409FA2D
:1033E300126C9470030234898A828B837402124EA6
:1033F30057850882850983123496E8F0A3E9126998
:103403000E8A828B83A3A3A3A3A3A3A3A3F0E5089C
:103413002403F8E4350912348B1241893AF583E029
:103423008E828B83A3A3A3A3F0EE2409FAE43FFBCC
:103433008E828F83A3A312603AF5838882E0A2E58C
:103443008E828F83A3A3A3A3A3500474018001E4FA
:10345300F0E5082403F5828983124FEAEA12556BDB
:103463003BF583126C5B12114C1241883B12612CA9
:103473008E828F83A3A3127E0A12112DEEFAEFFB25
:103483009014E1126CE18016F98882F583E0FAA3C7
:10349300E0CA22125187A3A322740212112D7F04C2
:1034A300020E8274F2120B208A088B09ECFAEDFBF0
:1034B300740E121442E0FC1214678A0C8B0DAE0CCE
:1034C300AF0DEA4F6030AC08AD091229AFE96026B1
:1034D300AC08AD09EEFAEFFB122967E970148E828E
:1034E3008F8312431DFAEFFB122AC3AA08AB0912FA
:1034F300147F7900800279B40250D674F0120B2045
:1035030074F61211DCEAFEEBFF8C088D09750FB31C
:10351300852182852283E4F0750E008002050E90DA
:103523003180E493F8E50EC3984003023625AA0ED2
:103533007B001214A38A0A8B0BEA4B60E08A828B0E
:1035430083A3A312362C28F0F8C3EE98EF9400500F
:10355300CC7C157D007900AA08AB091219C5850A30
:1035630082850B83A3A3A3A3127107E0F8EEC3988C
:103573002925E0F8E433F9E50A28F582E50B39F566
:1035830083A3A3A3A3A3A3124193A3125BAF8A0CA8
:103593008B0DAC0CAD0DAA08AB09121B6F850A820B
:1035A300850B83A3E06401700A12667274011241F1
:1035B300A5804474011211A6850A82850B83124FDC
:1035C300E812148BE9603D7409121442E0C0E01262
:1035D3006672D0E0F07409121442E064037013744D
:1035E300011211A6E508240BFAE43509FB121B6F3F
:1035F30080127401121442124330E508125B9535B0
:10360300091270C8850A82850B8312667E1241A552
:10361300A3A3E0C0E0E5082414126676D0E0F075B9
:103623000F00A90F740A026CF9A3A3A3E0F8852184
:1036330082852283E02274F7120B20E9FE8A828BB3
:1036430083A3A3A3A3A3A3E0540860338A828B8339
:10365300A3A3A3A3A3A3E0540260218A828B83A321
:10366300A3A3A3A3A3A3A3A3E06406600F74E96EBB
:10367300600A74CD6E600574F06E70031222B3029B
:1036830049D574F0120B2074EF1211DC740F12146D
:10369300421264317408121442E9F0ECFEEDFF7437
:1036A3000512144212479D1249C1A3E0F912147383
:1036B300740612144212643174061214421255FC39
:1036C30070030239401241CDE0FA7406121442E04D
:1036D300F91221F31239A0F8A3E0F9E849700302C3
:1036E3003940EE2403F50AE43FF50BEE2406F50812
:1036F300E43FF5097C00850882F583124FEA850AC9
:1037030082850B83E0F91214797403121442126454
:1037130031850A82850B83E0C0E08521828522837F
:10372300123999D0E0125711F9852182852283122B
:10373300403512526312362FFAA3E0CA2407F582EA
:10374300E43AF583E8F0A3E412643C2406F582E44A
:1037530038F583E41270D4124DD612114CEE124197
:10376300893F12612C7403121442124DE224091290
:103773007E0412112D742912144212710112349015
:103783001257243A1270C8742B121442E0C0E08519
:1037930021828522831255C3D0E0F07402121442B1
:1037A300E4F0742512144278081213CF0238977488
:1037B300031214421260F48882F583123988A3A39A
:1037C300A3125BBAFB121491850E82850F83A3EAC1
:1037D300F0A3EBF07403121442123999A31239883F
:1037E300125DC9A2E6500F850E82850F83A3A3A3A2
:1037F300A3A3E0D2E1F07405121442E0706B850ECE
:1038030082850F83A312433090153CE0687003A3B5
:10381300E0697055850E82850F83A3A3A3124168C7
:10382300750C00780C12115478081211487429127F
:103833001442E0F50C780C1211547427121442123E
:103843000F0B901549120F0B7900741912144212C1
:103853004FBA1223F7740A12112D850E82850F8336
:10386300A3A3A3A3A3E04405F07402121442E0044B
:10387300FC8E828F83124FE48E828F83A3A3A3E0F7
:10388300F91214797403121442126431740212147B
:1038930042E004F074031214421255FC6067740290
:1038A300121442E0FA7406121442124330C3EA9827
:1038B300E49950517402121442123C72852182859C
:1038C3002283E028F8A3E039F9E8240FF50EE43960
:1038D300F50F850E82F583E4F07403121442123956
:1038E30093640160030237B2740512144274011227
:1038F3006CE7F07403121442125EBB123C95E8F0BD
:10390300A3E90237D6852182852283124FEA122149
:10391300F9852182852283120F0B7426121442E04B
:10392300FD7425121442E0FC740A121442E0F9EE0D
:10393300FAEFFB1222AD740212112D80438E828F97
:1039430083A3A3A3E0C0E0740C121442D0E0F012EE
:103953006B50E0C0E0740D121442D0E0F074061214
:1039630014421255FC7009740E12144274B9800784
:10397300740E1214427410F0740912119E1223F182
:103983007411026CF9E0850E82850F83A3A3A32231
:10399300E01256E9E022E01256E9A3A32285218230
:1039A300852283EAF0A3EB1256052274F0120B2052
:1039B30074E11211DC7404121442E9F0740312145A
:1039C30042ECF07402121442EDF08A0E8B0F742F46
:1039D3001214421233B1AA0CFB1221E77401121420
:1039E30042E9F0AA0CAB0D1221ED7401121442E06E
:1039F3007003023C6D852182852283E480158E82CB
:103A03008F83A3A3A3A3A3E0D2E3F085218285221E
:103A130083E004126C3FF8852182852283E0C398FA
:103A23004003023C647401121442E07003023C64DC
:103A3300852182852283123C72E50C28F8E50D3935
:103A4300F9E8240FFEE439FF8E82F583A3A3A3A331
:103A5300A3E0A2E040B5750800750A08750B007471
:103A630002121442E060037508207C087D0079008F
:103A7300740512119E1219C58E828F83E0603E90E9
:103A8300158CE06401701AE508D2E3F508750B1094
:103A9300123C82121442E8F0A3E9125AAD74FF807B
:103AA3007643080C750A0C8E828F83A3123C8D1209
:103AB30070CA740512144274FFF0A3805A7404127E
:103AC3001442E06009E508D2E6F508750A0A8E8219
:103AD3008F83A3E064FE7003A3E0F47030741212CA
:103AE3001442740412669CF8741D121442E8124EB8
:103AF30057741212119E1221157D007C00790074F7
:103B030015121442AA82AB83121EC9800B123C8287
:103B1300121442E8F0A3E9F07407121442E508F026
:103B23001241C4C0E07409121442D0E0F0740A12C6
:103B330014427401F0740512119E1223B57411120C
:103B43001442E06003023C42740D12144212570CFB
:103B53008E828F83A3A3A3A3F0740D121442124E7B
:103B630025E50AF0A3E50BF07403121442E0C0E06C
:103B7300124DB6D0E0125DC9601190158CE0C0E023
:103B8300740D121442124E00D0E0F0740D12144260
:103B9300124330850C82850D83A3A3A3A3A3123CF8
:103BA3007B241C12642B1270E4123C7D125D7B3962
:103BB300126B6FC0E0124D9DD0E0126C34C0E07404
:103BC3000D1214421248E3D0E0126935C0E0740DBF
:103BD3001214421248D9D0E0F0740D121442123C70
:103BE3008D123C7B242A12642B850E82850F83A3BE
:103BF300A3A3A3A3A3A3A3E01264241241B3C0E02D
:103C03001248C5D0E0F0740D121442124FEA850E2B
:103C130082850F83126C4A2428F582E43B1270C814
:103C23001241BC126C5B12114C126125EA1263BD86
:103C33003B127E0812112D740512119E1223BB8EA6
:103C4300828F83A3A3A3A3A3E0D2E0F07411121481
:103C530042E06003023A017401121442E014023A92
:103C63000D7900AA0CAB0D1222B9741F026CF9E096
:103C730075F007A4F8A9F022A3A3124FEEE8228E51
:103C8300828F83A3124334740522E0123C95A3A3CD
:103C9300A322F8A3E0F9850E82850F83A32274F093
:103CA300120B2074E81211DCE9852182852283F04E
:103CB3008A0E8B0F8A828B83A3A3A3A3A3A3A3A39D
:103CC300E0F91222118A088B09EA4B7003023D7E48
:103CD300E50E12557F1241DC124173852182852244
:103CE30083E06003023D817C04850E82850F83A3FC
:103CF300A3A3A3A3A3A3A3E0F9122217EE4F607B10
:103D03008E828F83A3A3A3A312433074071214429A
:103D13001265621243307409121442124E87C0E0D6
:103D23007411121442D0E0126913A3A3A3A3A3A393
:103D3300A3124330740F1214421270CA7412121475
:103D430042E4126CEFC8241FF582E438F583126055
:103D5300F0C413135403FC70027C048E828F83E03F
:103D6300F97808121150742059FD744059F97403FD
:103D730012119E1222AD740212112D026CF77C08EF
:103D8300850E82850F83A3A3A3A3A3A3A3A3E0F913
:103D93001222178B0BEA4B7003023CFFEE4F60DBE2
:103DA300852182852283E0F50C780C121154850855
:103DB30082850983A3A3A3A3A3A3A3E0F50C780C93
:103DC3001211548A828B83A3A3A3E0FB8A82850BFF
:103DD300831279278A82850B83E0FA8E828F83A3ED
:103DE300A3E0F9122B17740212112D023D0374F78D
:103DF300120B2074FA1211DCE9FE780179017F00BD
:103E0300800379000F125166E0FCEFC39C5026EF4C
:103E130075F007A4FC85F008AD08EA2CFCEB3DFD2A
:103E2300124755E0A2E050DA540C60D6E0A2E2500B
:103E3300D3780080CF8A828B83A3A3A3A3A3A3E019
:103E4300703DE9A2E0400574016E70338A828B8372
:103E5300A3A3A3A3A3A37401124145E0C0E0740389
:103E6300121442D0E01247B4E0C0E07404121442CA
:103E7300D0E0F07405121442E812608F1223F1743B
:103E8300060249D2C082C08379011222B9025ECBF5
:103E930074F4120B20EA4B9017E36019E4F08A08DC
:103EA3008B09F50AF50B78081211487A021233B917
:103EB30012112D800A7401F07A027B001233A602DC
:103EC30034A174F0120B2074F31211DC7403121476
:103ED30042E4F0A3F09014FC1241737401121442F3
:103EE300E4F0A3124E5C04F0901536E0A2E3500315
:103EF300023FB8124139740912144212141374099F
:103F030012144278081213CF9014FE78081211AEDF
:103F1300740512144278081213B112403C7405124E
:103F23001442780812137250077A017B0002402969
:103F33007405121442780C1213CF901783E0F5091D
:103F4300780C7908120AB1A80CA90D901784E0C364
:103F530098E4995003E08001E8852182852283F06B
:103F6300740912144278081213CFC008C009C00A9A
:103F7300C00B7405121442780C1213CF12403C7814
:103F83000C7908120AB1E4F50AF50BD00FD00ED064
:103F93000DD00C780C79081212599014FE780C127B
:103FA30013B1801112402E1270CAEEFAEFFB121AEF
:103FB30073AE08AF09EE4F60658E828F8312362C85
:103FC300C398502DEE2403F8E43FF9E0FA88828980
:103FD30083E0C39AF060237403121442124496746C
:103FE30001121442EEF0A3EF12657DFEA3E0FF8001
:103FF300C48E828F83A3A3A3E4F08E828F83127D6A
:10400300C174011214421255FC8E828F83A3A3A3A1
:10401300A3609112655612144212403580897403CD
:10402300121442124FEA740D026CF91243349014C5
:10403300FC2212611BA3A3A322901782127DC9E461
:10404300F50AF50B2274F0120B208A088B09890AF2
:10405300780079009014FC124173FBEE4B601E084C
:104063008E828F83A3A3A3A3124FB4601008E870BA
:1040730001098E828F8312416FEA4F70E390178597
:10408300124FEAC3E89AE99B400302412C7A0612D5
:10409300412FA80CA90DEA49700302412C8A828B97
:1040A30083E508F0A3E50912414EE50AF090178471
:1040B30012516E124145A3E4F0A3F09014FC124F89
:1040C300B4600D8E828F83A3A3A3A31270CA80173B
:1040D3009014FC1270CA901536E0A2E34009124115
:1040E300399014FE121413901536E0A2E3503A7A75
:1040F300087B009014E1E0F9121B45EA4B4C4D702C
:1041030028901782E0F508A3E085080CF50DE4F587
:104113000EF50F780C1211487A087B009014E1E039
:10412300F9121B39740412112D026CFC7B00121A54
:104133006D8A0C8B0D22121B57EAF8EBF9ECFAEDA2
:10414300FB221241492212414EA322F08A828B8321
:10415300A3A322E508F00249D5F08E828F83A3A39F
:10416300A3A3A3A322125A66A3A3F022A3A3A3A3E8
:10417300E0FEA3E0FF227F05020E82F582E435090B
:10418300F583E0F922EA12418D222410F582E4221C
:1041930012419BA3A3A3A322124338850882850956
:1041A30083221241A922F0850A82850B83A3A322CD
:1041B300E50E24111241D9E022E50E240E1241D955
:1041C30022E50E24101241D9E0221241D122EE122F
:1041D300418D3FF58322F582E4350FF58322240FC9
:1041E300F50AE43509F50B780A22E0F91219EF8A8A
:1041F300088B09EA4B2274F2120B20890B8A088B75
:10420300098A828B83124FEA1222DDEA4B6004791A
:10421300B8806A1222E9E9F8903179E493F9E8C3A6
:1042230099400479B280567A1512412FAE0CAF0D26
:10423300EA4F7004791080458A828B83E4F0A312DD
:10424300414EE50BF0750A00780812114C7C127D83
:1042530000EA2403126C0612112D9015021255FC6C
:104263007008901502800C124330888289831242B1
:104273008370F4EEF0A3EFF01222FB79000250D624
:10428300124FEEEA4B8882898322C082C083901545
:104293000280048C828D83127928EC4D60288C82F5
:1042A3008D83A3A3E069600574FF6970E68C828D3A
:1042B30083A3A3A3E06A7003A3E06B70D6EC24038B
:1042C300FAE43DFB80047A007B00025ECB74F712B4
:1042D3000B20E9FD74FE6D70047C0180027C00906C
:1042E300150280096D70027C01888289831255FC56
:1042F300601F88828983A3A3A3E06A7003A3E06B92
:1043030070E7ECA2E088828983A3A3E050D6F9800A
:104313000279FE0249D5EEF9800CA3A3127DC9EE02
:1043230022740212112D7F02020E82F5831243348E
:104333002212433822E0F8A3E0F9221243388E8296
:104343008F832212112D7F03020E82C082C08379D4
:1043530000901502800109E0FAA3E08A82F583E563
:1043630082458370F1025ECB74F6120B20E4F508EC
:10437300F5097808121150903179E49375F013A47C
:10438300A9F012448B12712812112DE9FE74096EE3
:1043930070031222F502431974F6120B2074FE12F5
:1043A30011DC852182852283E4F0A3F0A821A922D0
:1043B3008808890978081211507508027509007870
:1043C30008121150126D9912112D02432474F51223
:1043D3000B2074EB1211DC852182852283E4F0A388
:1043E300F090150280748E828F83A3A3E0C0E074E3
:1043F30002121442D0E0125AADA982AA8389088A14
:1044030009750A00780812114C7C127D007406129B
:1044130014421270ED12112D74021211968808893C
:1044230009780812115075081375090078081211DC
:1044330050740412144212559F75F013A4F8AAF095
:1044430075F013E9124487126DA112112D85218293
:104453008522831244968E828F83124173EE4F70AE
:1044630085A821A92288088909780812115075089E
:10447300027509007808121150126D9912112D74EA
:1044830015024346A42AF9E82402FCE439FD7A42E2
:104493007B0022E02401F0A3E03400F02274F41244
:1044A3000B2074EB1211DC7E007F00A821A9228867
:1044B30008890978081211507508028E09780812C4
:1044C30011507C007D007A4212713412112DE97073
:1044D3006C8E0880567402121196880A890B780A2A
:1044E300121150750A13750B00780A121150E50862
:1044F30075F013A4F8AAF075F013E50912448712B6
:10450300713612112DE9701B7403121442AA82AB87
:10451300837402121442E0F91222D7E970050EEEF9
:1045230070010F0508E508700205098521828522BF
:1045330083124330C3E50898E509994098EEFAEFF2
:10454300FB741502349E74F6120B208C828D83A3A8
:10455300A31247A2F0EA1263C33BF583E0C0E01263
:10456300475FD0E0F0EA241DF582E43B12432E12AC
:10457300474312479DF0A3F0EA241FF582E43BF57D
:1045830083124173EC1247363DF583EEF0A3EFF04F
:1045930012473C3BF58312476DA3A3A3A3A3A3EE4A
:1045A300F0A3EF12601EFE8C828D831247AC74035E
:1045B3005EFEC394034003024729EE600874026E53
:1045C300600302464E8C828D83E0540CFE740C6EA5
:1045D300700302468DE0A2E4400D88828983E08C5B
:1045E300828D83A31247C274086E600302468D1244
:1045F300474D7401F08A828B83A3A3A3A3A3125A0A
:104603007370148C828D83E0440C1247B4A3A312FD
:10461300476DEEF0A3EFF08C828D83E0A2E4402B94
:10462300888212477B124790500109F58212477B1B
:10463300A3A3A3A3A3A3F0A3EF1247BC8C828D83F0
:10464300A3A3A3F0E82403F850010988828983E037
:10465300C0E0EC2411F582E43DF583D0E01247ACD1
:104663008C828D83E0A2E7507588828983E0FE8C7B
:10467300828D831247C274FC5E700C8C828D83A37F
:10468300E054036403701E02472912474DE4F0749B
:104693000C6E60030245F8888212478112479050DE
:1046A300010902461A8C828D83A3E0540360328889
:1046B300828983E0C0E0EC1247673DF583D0E012C6
:1046C30047C38C828D83E05403640270148882890B
:1046D30083E0C0E0124755D0E01247C38003A3E450
:1046E300F0EC12556B3D1270C8EC2410FEE43DFF54
:1046F300EA241DF582E43BF583E0F5088E828F837F
:10470300E0C3982508F508F0EA2417F8E43BF98894
:1047130082F583E0C39508C0E0124743D0E01260FE
:104723001EC39508500A124743E4F012475FE4F0B2
:104733000243292415F582E422EA240DF582E422BA
:10474300EC240DF582E43DF58322EC1257243DF56C
:104753008322EC2414F582E43DF58322EC12418D8F
:104763003DF583222413F582E422E0FEA3E0FF8CCF
:10477300828D83A3A3A3A322124781A3A3228983A8
:10478300E0F508A3E0FFE5088C828D8322A3A3A3B1
:10479300A3F0A3EFF0E82402F8221247A2A322E435
:1047A300F08C828D83A3A3A3221247CAA882A98374
:1047B30022124149A3A3A3A3221247CAA3E022A31F
:1047C3001247CA08A98322126027A32274F4120B8A
:1047D3002074F31211DC8A0A8B0BECFEEDFF8C8242
:1047E300F583E0540CF508E0A2E75006E508D2E7AC
:1047F300F508E508D2E1F508125A737006E508D208
:10480300E4F508E0A2E55006E508D2E5F5087C08E2
:104813007D007900AA21AB221219C5740212144239
:10482300E5081270CEC0E07403121442D0E0124EB9
:104833005CE50AF0A3E50BF0740512144212693A21
:10484300121442E070777408121442124DE212609F
:104853001038126955C0E074081214421248E3D0AC
:10486300E0126935C0E074081214421248D9D0E04E
:10487300F074081214421248CFE0124E0A124E8B03
:10488300126424EE2411125A3FC0E01248C5D0E04E
:10489300F0EE2414125A3FC0E07408121442124D71
:1048A300E22435F582E438F583D0E0124E2FC0E0E0
:1048B3007408121442124DE6D0E012668E740D0293
:1048C300349EE82432F582E439F5832212433EA371
:1048D300A3A3A3A3A322124DF6126B3438F58322AC
:1048E300124DF62426F582E438F5832274F7120B71
:1048F300207E008A828B83A3A3A3A3A3A3A3A3A342
:10490300E0640460030249B112571CE060030249EA
:10491300B112557E3B1255FA70030249B188828960
:1049230083E0540360030249B1E812572439F58345
:10493300E0FA8C828D83A3A3E0FBA3E0CB2411F5E3
:1049430082E43BF583E06A706588828983A3A3A32D
:10495300A3A3A3A3A3A31249B5E06A7003A3E06BC7
:10496300704C88828983A3A31249C1E0FFA3E0CFDF
:104973002406125A3F6A7003A3E06B703188828960
:1049830083A3A3E0F88C828D83A3A3E0F9A3E0F5CE
:10499300838982A3A3E06860138C828D83A3A3A37E
:1049A300E0F5838982E0540C640470027E01EEF921
:1049B30080201249B922124FF28C828D8322A3A345
:1049C3001249B9A3A322740C121442E0F9740D1214
:1049D300112D7F01020E8274F6120B2074FC12114A
:1049E300DCEAFEEBFFECFAEDFB8C82F583A3E054EB
:1049F3000360169014F81255FC60597900EEFCEF31
:104A0300FD12621B120D02804B852182852283EEEB
:104A1300F0A3EFF07402121442124E51AC21AD22F6
:104A23007A137B2312253B8A088B09A808A909EA74
:104A33004960218A828B83A3A3A3A3A3A3A3A3A3D4
:104A43007406F07A0088828B83124DE21263E4E0ED
:104A5300F9122499740402432674F2120B2074F39E
:104A63001211DCEAFEEBFF8A82F583A3A3A3A3A3BF
:104A7300A3A3A3A3A3E0F50A9017E3E0700579BA13
:104A8300024D9A750801750900750C00750D007CBF
:104A9300087D007900AA21AB221219C574051214EE
:104AA300427401124E64540460127402121442E000
:104AB300D2E6124E6454087003750803E054106084
:104AC3000674404508F508E0540860227402121485
:104AD30042E044C0124E645420600A74031214422C
:104AE300E0D2E080087403121442E0D2E1F0EE2435
:104AF30015125A3F124DCA70037401697006740887
:104B03004508F5088E828F83A3A3A3A3A3A3A3A31E
:104B1300E0701612259585218285228312643174F3
:104B230002121442E0D2E28030640F701074021259
:104B33001442124E6C74044508F508807F8E828FF0
:104B430083A3A3A3A3A3A3A3A3E064028E828F835F
:104B5300700A127101E8F0A3E9F08060A3A3A3A394
:104B6300A3A3A3A3E06403700DAC21AD22EEFAEF7F
:104B7300FB12234980468E828F83A3A3A3A3A3A3FF
:104B8300A3A3E06401703590158CE06010740212E9
:104B93001442124E6C750910750AFF8018740212C4
:104BA3001442E0440C124E5C74FDF0A374FFF074E5
:104BB300044508F5088E828F831233B1EE24151253
:104BC3005A3FA2E0503F7402121442E0540C701B8F
:104BD3008E828F83124FEA121F95E9700579BB020B
:104BE3004D9A7402121442E0D2E5F0EE2415125AE3
:104BF3003FA2E050107402121442E0540C6404709B
:104C030004E0D2E5F0EE2411125A3FC0E07404121E
:104C13001442D0E012693C121442E06003024D9347
:104C23007408121442124E25E508F0A3E509F012A8
:104C33004DC0E0C0E0124DB6D0E0F0124DA7E0C089
:104C4300E07408121442124DE212476738F583D01C
:104C5300E0124E8B6401701190158CE0C0E0740873
:104C6300121442124E00D0E0F07408121442124E95
:104C730020124DB1FAE8241CF582E439F583EA12D7
:104C83004E57EE2415FAE43FFB8A82F58312792806
:104C9300E8125D7B39F583124E51EE241C125A3F04
:104CA300C0E0124D9DD0E0125EC1124DCA70037474
:104CB30001697013740812144212570CFAEE241D82
:104CC300125A3FF912221D8E828F83A3A3A3A3A39B
:104CD300A3A3A3A3E0C0E074081214421248E3D0D4
:104CE300E0F074081214421248D9E50AF07408126D
:104CF300144212559F2428F582E439F583E50CF01C
:104D0300A3E50D124E37124E0A125AB8126424EE5E
:104D1300124DB1C0E0E82433F582E439F583D0E0E5
:104D2300F0EE241B125A3FC0E07408121442124DD5
:104D3300E6D0E0F0EE241A125A3FC0E074081214D1
:104D430042124DE22432F582E438F583D0E0124E6C
:104D53002F124DD612114C126B3A127928740B1282
:104D63001442124DE2242F127E0412112DEE24154B
:104D7300125A3F544060129015181255FC600AAA4B
:104D830021AB2212621B120D02AA21AB221223BBFA
:104D9300740C121442E0F90250D1E82420F582E4A5
:104DA30039F58322EE2419F582E43FF58322126B51
:104DB30049E022E82412F582E439F58322EE24182F
:104DC300F582E43FF583225480F8A3E05401F9749B
:104DD300806822F508A3E0F509750A007808221215
:104DE3004DF622124DF62434F582E438F58322A3DE
:104DF300A3A3A3124DFA22E0F8A3E0C822124DF6B2
:104E030012473638F58322FAA3E0FBE8242AF58219
:104E1300E439F583EAF0A3EB22A3A3A3A31243345B
:104E2300EE221255A312558339F58322F0EE241393
:104E3300125AC022F0EE240D125AC022E0FC8A82DC
:104E43008B83E02CFCA3E03400FD8A828B83ECF09F
:104E5300A3EDF022F0A3E4F022F0852182852283E2
:104E630022F0EE2415125AC022E0D2E3F0124E745F
:104E7300228E828F83124338852182852283E8F034
:104E8300A3E9F022E8F0A3E9126577E02274F712B0
:104E93000B208A828B83A3E0640170047E6380020B
:104EA3007E648A828B83E060087905124EC424F302
:104EB300FE901534E06007F9124EC424F2FE024955
:104EC300B1122463E9F8EEC3982274F6120B20742E
:104ED300FE1211DC852182852283126431E9FEEC06
:104EE300FAEDFB9005301255FC6032A821A9228807
:104EF30008890978081211507D01740E121442E0DA
:104F0300FCEEF9900530126405120D0274021211C1
:104F13002DEA4B60047900800679B2800279B602EB
:104F2300432474F7120B20E9FE9014EE1255FC6033
:104F33001F7409121442E0F5087808121154EEF9AF
:104F43009014EE126405120D02740112112D8002E9
:104F530079B60249D574F7120B208908ECFEEDFFF0
:104F630079B5E508245E602014600624F860348077
:104F73003D900532124FB46035127145120D028E09
:104F8300828F8312643180249014F0127928EC4DBF
:104F9300601CEEFCEFFD9014F0126405120D02E9A3
:104FA300F9800B9014EC124FBA121B6F790002496F
:104FB300D5124FEEEA4B2212792CEEFAEFFB227454
:104FC300F7120B20E9FE79B574AB6E700B9014ECFD
:104FD300124FEA121B6F79000249D58E828F83A389
:104FE300A3A3A3A3A3A3A3124FEE22124FF222E083
:104FF300FAA3E0FB2274F1120B20EAFEEBFF8C0A0A
:105003008D0B75080190153CE06E7003A3E06F7083
:105013000C1250C5AA0AAB0B121B6F805E12259BA4
:10502300EE6A7002EF6B7009AA0AAB0B1225A1801E
:105033004AAC0AAD0BEEFAEFFB1220F1E9F508904A
:10504300178AE07036122A4BE97030E508702C900D
:10505300150CE06E7003A3E06F7020EE4F601C75BB
:105063000C04750D15750E00780C12114C7C087D1F
:1050730000AA0AAB0B1270F112112DA908027A24AF
:1050830074F2120B20EAFEEBFF8C088D09750A01FE
:105093001250C5EEFAEFFB121B69E964017011901F
:1050A300153C1243308508828509831270CA800E2D
:1050B300AC08AD09EEFAEFFB1220F7E9F50AA90AED
:1050C300801112258F8A0C8B0DAC0CAD0D22740D43
:1050D30012112D7F06020E8274F6120B20EAFEEBEC
:1050E300FF7A0D7B00121A6DEA4B6062EE242412E4
:1050F3006DCEF0EE2425126DCEA3125193126DD412
:10510300A3A3126B6712516EF0EE12515412518326
:10511300E8F0A3E91251AA12517B1270CAEE1251A0
:105123005D126C2AA3A3A3A3F0EE2433125A3FC04B
:10513300E0125166D0E012695912517BA3A3A3E890
:10514300F0A3E91251A2C0E012571CD0E0F00243D1
:1051530029242AF582E43FF58322242EF582E43FB5
:10516300F58322EA125B953BF5832212517222E00A
:105173008A828B83A3A3A322126C89A3A3A3A32252
:10518300125187221243388A828B83A3A3A3A322BB
:10519300F012519822EE2426F582E43FF58322F0A3
:1051A300EE2432125AC022F0EE242C125AC022747A
:1051B300F4120B2074FE1211DCECFEEDFFEC24164E
:1051C300125A3F64057010EC2406FCE43FFD1223E1
:1051D30043E9700302525EAC21AD22126E83121FAB
:1051E3009B8521828522831255FC606B8E828F837F
:1051F300E064017058E875F009A4F8AAF075F009A5
:10520300E9A42AF9746328F8740239F9E8FAE9FB86
:105213008882F58378081213CFEE125300121372AB
:105223004027852182852283124E20125A4D125225
:105233006378081213CF90868A78081212F58A824F
:105243008B8378081213B1800A79A28010EE240FA1
:105253001270C47900800679A1800279C802349C57
:10526300124E81EE126B552274F2120B208A0C8BB4
:105273000DECFEEDFFEC125A4DE4F0A3F09086D650
:1052830078081213CFEC1253001211F26067EC246A
:105293000E125A46703478B3901533E07028901587
:1052A30065E064017020EC2411125A3FF912244B7B
:1052B3008B09A909EE12557F3F12642FEA49600456
:1052C3007800800278A18808802EE0600464027070
:1052D3000A122355E9F5087007801DE06403701076
:1052E300EEFCEFFDAA0CAB0D121FBFE9F508800819
:1052F3007508A180037508A3A9080250D6126B553F
:1053030078082274F0120B2074F51211DCEAFEEB1C
:10531300FFEA240AFCE43F8C82F583127DC5125513
:105323008974031211A68A828B83126225E97003A2
:105333000253EF74011211A6740312119E121F9BE4
:1053430074011214421255FC70030253EFE875F016
:1053530009A4F8AAF075F009E9A42AF9745F28FCF6
:10536300740239FDE508240E126676E4F004121483
:1053730042124330E50812557F35091270C88C82FA
:105383008D83121407E50824121266761214139003
:10539300868A78081213CF8C828D837808121308BB
:1053A3008C828D83780C1213CF9086967808121313
:1053B300CF780C7908120AB1E5084509450A450B6F
:1053C300702A740112144212559F75F009A4F8AAA9
:1053D300F075F009E9A42AF9746728F58274023993
:1053E300F5837401F07A007B081255AC8E828F83AB
:1053F300A3A3A3A3A3A3A3A3A3A3E02406FCA3E0C3
:105403003400FD8E828F83126225126947603EEE5F
:10541300240A125571124E257468124E57E812551C
:105423006B39F5837402F090151E1214078C828D6C
:105433008312641E1260103CF58312141390868A43
:1054430078081213CF90151E78081213081255E727
:10545300705D9014EC125597A3A3A3A3A3A3A3A3D6
:10546300A3A3126046121B69E97010126004901422
:10547300EC126016700512694760348E828F83A325
:10548300A3A3A3A3A3A3A3A3A3125597124FEA1203
:105493001FC5E960118E828F83A3A3A3A3A3A312C5
:1054A30055D3E4F0A3F08E828F831255B9E4F01242
:1054B30055E760030255668E828F83A3A3A3A3A33C
:1054C300A3127DC1901533E0600302555B9015650F
:1054D300E06401600302555B750A3A750B00780AB4
:1054E3001211507402121196880A890B780A12114C
:1054F300501273C012112DE9705BE508240E126679
:10550300767401125601C0E0E5082411126676D0C4
:10551300E0F0E508240F126676743A124E579015A0
:105523001A121407E50824121266761214139086D1
:105533008A78081213CF90151A78081213089086E8
:105543008A78081213CF90151A78081211F270088E
:105553001255A880031255891255E77006125F078A
:1055630074A1F0740B026CF9240EF582E422F8E4C2
:105573003FF9E8FCE9FD8882F58322EA125583228C
:10558300240FF582E422E5081255833509F583E4F7
:10559300F0A3F02212792C8E828F83221255A3223C
:1055A300124338E8227A007B029013C3E0F9121AFF
:1055B30019228A828B83A3A3A3A3A3A3A3A3A3A335
:1055C3001255C722124DFA240EF582E438F58322D0
:1055D300A3A3A3A31255DB22124DFA240FF582E4F1
:1055E30038F583228E828F83A3A3A3A3A3A3124D93
:1055F300F2240FF582E438F5831255A3492212569B
:105603000522F0852182852283E02274F6120B2085
:10561300EAFEEBFF7A237B00121A6DEE240AF508EB
:10562300E43FF50985088212642F7C237D0079000D
:105633001219C58508828509831255FC7003025629
:10564300CFEEFAEFFB1223611255E760748E828F5F
:105653008312570264018E828F83A3A3A3A3A3A300
:1056630070071256F8740E80211255FC70101269DF
:1056730047700B8E828F83A3A3E0A2E050071256DC
:10568300EE740D80051256EE7405126959540364C5
:105693000170071256D67405800B901534E0C0E0F4
:1056A3001256D6D0E0125711F5838882125A6C85B0
:1056B3000882850983124DE21263C338F583E980BA
:1056C3000E8508828509831264A880031263EBF0B8
:1056D3000243298E828F83A3A3A3A3A3A3A3A3A37C
:1056E300A31256E822E012640AA3228E828F83A3B8
:1056F300A3A3A3A3A3124DF21263C938F58322A374
:10570300A3A3A3A3A3A3A3A3A31255C7E022125742
:105713001522126E98F8A3E022EA1257243BF58370
:1057230022240CF582E42274F1120B2074E412118A
:10573300DC8A0C8B0D8C088D097A237B00121A6D81
:105743008A0A8B0BAE0AAF0BEA4F7003025A271279
:1057530063CFE5082415125A58687003A3E0698ED5
:10576300828F837004740280027401F0E508240DB3
:10577300F8E43509F98882F583E0FAC3E49AFA95E7
:10578300E0FB125A542AFAA3E03BFB8E828F83A3D9
:10579300A3A3A312602D8E828F83A3A3F0EE2420F4
:1057A300F582E43FF583E4F0EE2421F582E43FF54E
:1057B30083E4F0EEFAEFFB12241585088285098352
:1057C300125A7370098E828F83A374058006901515
:1057D30034125A61F0EE2417F50AE43FF50B8E827A
:1057E3008F83125A6CE9850A82850B83F0EE2416A7
:1057F300F8E43FF9E508240EFAE43509FB888289C9
:1058030083124E3FE5082410FAE43509FB850A822A
:10581300850B83E0FC88828983E0F88A828B83E0AE
:10582300C398C39CF8125AADF0EEFCEFFDAA0CAB83
:105833000D12235BE9F50B8E828F83E06402700601
:10584300126004125A31E50B6003025A1E750C00F4
:10585300750D0090178AE064016005E06402703FF3
:10586300125A436008EE2421125A4670328E828FF8
:1058730083A3A3A31263F1125A79EE2416125A3F9B
:10588300125AA2FAE439FB124131EA4B6011126C4D
:105893005312114C125A87AA0C1270F112112DEEE9
:1058A300FAEFFB122421E9F50B90178AE0640160FB
:1058B30008E064026003025A11E97003025A11E519
:1058C3000C450D7003025A1E8003850E0B125A43BA
:1058D300600BEE2421125A466003025A17850B0E01
:1058E300850C08850D09750A00780812114C125AA7
:1058F300878E828F83A3A3A3A3127E0A12112DEE98
:105903002420125A3F600D125A4C7468124E57EEFF
:1059130024208015EE2421125A3F6015125A4C742C
:1059230003F0A37401F0EE2421F582E43FF583E450
:10593300F0EEFAEFFB122421E9F50B70907C137D56
:10594300007900740912119E1219C5741A121442B7
:105953007401125AB864687002A3E0704F8E828F8C
:10596300831255D3E0640560030258CD7C0879FFA8
:105973008E828F83A3A3A3A3E0242A126049121A61
:105983004FE970030258CD7C087D0079FF74011242
:10599300119E1219C574011211A67A007B0079AB0E
:1059A30012233D741912144274FC8015125A4CE0F0
:1059B30064037004A3E06401700874191214427440
:1059C300FFF0E4F508F5097808121150740212117A
:1059D300A67413121442AA82AB8312652E12112DE0
:1059E300852182852283E0602B7409121196880831
:1059F300890978081211507508137509007808127F
:105A030011507C007D00126DA112112D8006E50C52
:105A1300450D6007AA0CAB0D121A73EEFAEFFB12D9
:105A23001A738003750B10A90B741C027A21EE24E0
:105A330006FAE43FFB121B6F22EE240C125AC0221B
:105A4300EE2420125AC0640122EE1255833FF583DF
:105A530022E508240EF582E43509F583E022125A83
:105A630066A322E08E828F8322A3E0F912246322AD
:105A7300E05403640122125A7D22E0FAE82AF8E492
:105A83003400F9228E828F83A3A3A31263F5125AE3
:105A93007DEE2416125AC0125AA2FCE439FD22FAF2
:105AA300E82AF8E439F9E8240422125AB1221269E7
:105AB30068A3A3A322F0125ABD22EE240FF582E4B9
:105AC3003FF583E02279010210DD74F4120B20EA22
:105AD300FEEBFF8A82F583A3A3A3A3A3A3A3A3122D
:105AE3004DE22424F582E438F583125A73702E8A2A
:105AF300828B831257027025125B9BE06405701D35
:105B0300125B9BA3E0F87401686005740668700774
:105B13001255B5740280051255B57403F0EA240AD0
:105B230012649C126405E4F0EA2408F8E43F12349A
:105B33008B2431F582E43AF583E0C0E012713CA393
