:020000040000FA
:0600000002138302083E1A
:03002B000210D1EF
:03003300020F6D4C
:0300530002076D34
:100083000207CF01010000000000F8FF07FFFF0097
:10009300000504000000030001FFFFFFFF003C20F8
:1000A3004E00000020FD000206FFFF1E007701C284
:1000B30016C816F21C00000000000000000000003B
:1000C300000000000000000000000000000000002D
:1000D300000000000000000000000000000000FF1E
:1000E3000104010C0002051481042F8101040000A6
:1000F3008515000000E8030000FFFFD615881300F4
:1001030000E8030000C800C800B801A0BB0D00A0B0
:10011300BB0D00020202070401071E02051E020AAC
:100123000A010108080103B80B02803E0102FEFF29
:10013300E8030A050001FFFF020A011401E00100C0
:10014300B0423BAAB83F0000003F8C906339AA0C31
:10015300A33A00941E3C8042633DCFFE753E157268
:10016300313F0000803FF304353F8096184B000079
:1001730080BF2292D43EDD9B2A3F04000040FFFF54
:100183007F7FFFFF7FFF010080341872313F05033B
:1001930001010F0300030003000300030003000336
:1001A300000300030005000A00140028004F009E0E
:1001B300000000F72E00000000CB2D00000000FF20
:1001C300000000FF001213B160461213CF603DE937
:1001D300687008F618F618F618F622748067F71296
:1001E30001FC090909748067F7221213CF601D12FD
:1001F30013B17005191919801A12125E701F1212A9
:1002030072C37003E66733191919400718181822C7
:1002130008080874FFF618F618F618F62212127278
:10022300601712143D702192F01214467019501782
:1002330020F014080808090909E7F61819E7F61861
:1002430019E7F61819E7F62212144660E6E8697012
:100253001F0808E62480F608E436F618547FB47FB6
:100263000CE654806007F6E418F618F622181822F4
:10027300E9C6CC08C6CD08C6CE08C6CFC0E0E8C0E4
:10028300E0EAC0E0EBC0E009E9F809E7FA09E7FBB7
:10029300E6F918E6F8C3EC98ED99EE9AEBC2E7F5A8
:1002A300F0EFC2E795F0500E600CEBCFFBEACEFA0D
:1002B300E9CDF9E8CCF8EAA2E7D2E7FAEB33FB138E
:1002C300F5F0EEA2E7D2E7FEEF33FFC5F013A2E7A6
:1002D30030E601B313C5F0C3C0E0C0F07F00C39B99
:1002E300FB605E9418600F401D14601AD0E023F980
:1002F300D0E0F80203CE8AF0E9486003D2F0E4AF1D
:10030300F0FAF9F8803BEB30E40D89F0EA6003D2B0
:10031300F0E4AFF0F9CAF8EB30E30D88F0EF6002D8
:10032300D2F0AFF0E4CAC9F8EB54076014FBC3EA98
:1003330013FAE913F9E813F8EF135002D2E0FFDBE5
:10034300EDD0E0C0E030E739C3E49FFFF5F0EC986F
:10035300FC42F0ED99FD42F0EE9AFE42F0D0E0F956
:10036300D0E0F8E5F0607AE923F9EE20E742D8021D
:100373008067C3EF33FFEC33FCED33FDEE33FE80D8
:10038300EAEC28FCED39FDEE3AFED0E023F9D0E0AB
:10039300F84002801BC3EE13FEED13FDEC13FCEFDC
:1003A300135002D2E0FF08B800067F7F74FF802E4F
:1003B300EF3350178CF020F00260100CBC000C0DD2
:1003C300BD00080EBE000408E860DFE933E813FF50
:1003D300EE2313FE4F4D4C8008E95480FFE4FEFDED
:1003E300FCEE33EF33F47004FCFD7E80D0E0FBD0F1
:1003F300E0FAD0E0F8D0E0CFC618CEC618CDC618C4
:10040300CCC6F9221213CF7004181818221213B194
:10041300700D74FFF61819F61819F61819F622E775
:10042300548066F6121446700F12143D70F014F6E1
:1004330008F608F608F680D112143D700CF608F69B
:1004430008768008E6447F80EC121275700C121255
:100453006160BFE65480F6E480BB12126170051937
:10046300191980A5E869700C763F18768018F6187C
:10047300F6E8F922E6CDC0E018ECC0E0E633CD3370
:10048300CDD313F6E719FCE7191933CC33C3947FA3
:10049300400ECD9D502408E65480F6E418F6800FF4
:1004A300F4043D14501408E6447FF6187680E418EB
:1004B300F618F6D0E0FCD0E0FD22CCD313CCFD1827
:1004C300E4C6CBC0E018E4C6CAC0E00808ED08C61D
:1004D30033E613F618E433C675F003C3CA97CA09A3
:1004E300CB97CB199C40047D08802EBD00030205E9
:1004F300B016B6FF050606081618C3CA33CACB33AF
:10050300CB33CA27CA09CB37CB193CC37D08803EFE
:10051300187D0820E75CC633C6CA33CACB33CB3356
:10052300DDF1D5F0EB30E77BCA97CA09CB974ACB0D
:10053300199C406F4B7025E620E0218066187D08EA
:10054300C3CA97CA09CB97CB199CD3C633C6CA3340
:10055300CACB33CB3350C9DDE7D5F0E1D3E4C6369C
:10056300C608C636C608C636C608C636C61818181C
:100573008031C3CA97CA09CB97CB199CB34097C69E
:1005830033C6CA33CACB33CB33DD34D5F02EC6A240
:10059300E0C640C8CA27CA09CB37194A70BECB3C4C
:1005A300B480B90808E63308E633601F181818D07A
:1005B300E0FAD0E0FBD0E0FCD0E0FD22187D08CAD1
:1005C30027CA09CB37CB193CD3808013F618E4B67E
:1005D3007F11F618B6FF0EF618C60470D208087617
:1005E3008080CAF618F618F680C5001213CF604F44
:1005F3001213B16012E7548066F612125E70111284
:10060300143D703B090909F4F618F618F618F6229A
:10061300121272701512144608080860EAE6447F45
:10062300F618768018E4F618F622121446601612AD
:10063300143D7012E4F608F608F608E65480F6094D
:10064300090918181822EAC0E0EBC0E0ECC0E0ED9D
:10065300C0E0E687F0A4FBACF008E687F0A42CFC2E
:10066300E435F0FA1809E687F0A42C4B6002740114
:10067300CA35F0FCE433FB09E687F0D2F7A42CCBB0
:1006830035F0FC1908E687F0A42BCC35F0FBE433F6
:10069300FD0819E687F0D2E7A42C4ACB35F0CD3418
:1006A30000FC09E687F0D2E7A42DCC35F0FDE43356
:1006B300FA0918E687F0D2F7A42CCD35F0CA340036
:1006C300FC08E687F0D2E7D2F7A42ACC35F07A7E8D
:1006D30020E70B0ACB33CBCD33CDCC33CC33CB3369
:1006E30050147004ED30E00ED2F1E4CD3DCDCC3C9E
:1006F300CC3B5005DA05C2F1EB547FC63308E63331
:1007030092F0FBE73309E733C39A502D2B70190C92
:100713000D4C4D70151806E608C333700D20F10A11
:10072300A2F013F6E418800B4024E4F630F00276CE
:100733008018F618F618F68024D33B14501074FF73
:10074300A2F013F6187680E418F618F6800FA2F0DC
:1007530013F618E63303F618ECF618EDF6D0E0FDC1
:10076300D0E0FCD0E0FBD0E0FA22C0E074F1120B41
:10077300CFA2AFE433F509D2AF85A708AFA1EF55F8
:1007830008FE74105E600612178875A1EF74085E88
:10079300600812178E75A1F78024EFA2E092F0E5AE
:1007A30008A2E082F05017906198E0F890060CE000
:1007B300C398A2D265D0335002E8F075A1FE752329
:1007C30000E509A2E092AF7F02020C2EC0E074F2B2
:1007D300120BCFA2AFE433FED2AF9061A4E0F87561
:1007E3009B00E59158540860087591F71217DC8057
:1007F30023E59158541060087591EF1217E28014A5
:10080300E591A2E092F0E8A2E082F05007E0C2E0B6
:10081300F01219389061A3E0F8E5E9585404600E2A
:1008230012190E75E9FB906193E0A2E640F275237D
:1008330000EEA2E092AF7F01020C2EC0E074F21230
:100843000BCFA2AFE433FED2AF9061A5E0F8E5BFD2
:10085300585404600675BFFB12195080D1C3E49845
:10086300F8E499F91208A18026C3E49AFAE49BFB01
:10087300E920E7E91208A1E498F8E499F922C3E42E
:1008830098F8E499F91208A1E498F8E499F9C3E413
:100893009AFAE49BFB22EB20E7CFE920E7E0B900DB
:1008A30010BB0008E88AF084F8AAF022E4FBC8FA37
:1008B30022EB70227B10C833C8C933C9335007C336
:1008C3009AC3DBF280069A50012ADBEAC833F4C8E4
:1008D300C933F4C9FA2275F008E4C833C8C933C967
:1008E30033C99AC99B5004C92AC93BD5F0ECFBC84C
:1008F30033F4C8E4C9FA2212094530F03912098ADF
:10090300803412094520F01430E72B74FFFCFBFA06
:10091300747F8022E4FCFBFA7480801AB48008BCE4
:1009230000F2BB00EF800F50EBF9E4C39AFAE49BAB
:10093300FBE49CFCE499C6CC18C6CB18C6CA18C6FF
:10094300F922E4C9C608CAC608CBC6D3330308CC08
:10095300C63392F0C3947F402E94184019C9B90747
:1009630004CACBCC225025C309CA33CACB33CBCC60
:1009730033CC33D9F422F4600DC9CCC313CB13CBDE
:10098300CA13CAD9F6CC22E4FCFBFA2214FCFBFA04
:1009930022080808EAC0E0EBC0E086F0E7A4FA18F2
:1009A3000986F0E7A42AFA180986F0E7A42AFA18B8
:1009B3000986F0E7A42AFA1986F0E7A4FBE5F02AF2
:1009C300FA190886F0E7A42BFBE5F03AFA19088632
:1009D300F0E7A42BFBE5F03AFA18180986F0E7A430
:1009E300C5F02BFBE43AFA1908E7C5F0C6A426F6CE
:1009F300E5F03BFBE43AFA1886F0E7A4F6E5F008E5
:100A030026F6E43B08F6E43A08F6D0E0FBD0E0FA39
:100A130022080808E630E711121236120A2C0808D9
:100A230008C64480C618181822181818E9799EC6F3
:100A330008CAC608CBC608CCC6C370207996CACBF1
:100A4300CC7019798ECBCC70137986CC700EF9806B
:100A53002ACA33CACB33CBCC33CC331930E7F2CCED
:100A6300CBCA3350147004EA30E00DE4CA3ACACB5F
:100A73003BCBCC3CCC500209C3E913C6CC1823139F
:100A8300C6CB18C6CA18C6F922E4CFC0E0E4CEC06C
:100A9300E0E4CDC0E0E4CCC0E075F020E626F60843
:100AA300E633F608E633F608E633F6181818EC339F
:100AB300FCED33FDEE33FEEF33FFC3EC9709ED9707
:100AC30009EE9709EF97191919400FFFEC97FC09E5
:100AD300ED97FD09EE97FE191906D5F0BFECF7095E
:100AE300EDF709EEF709EFF7191919D0E0FCD0E09B
:100AF300FDD0E0FED0E0FF222521C582C0E0E52243
:100B030034FFC583C0E0E521C3958224F810AF0804
:100B13008583228582218008858322858221D2AF25
:100B2300CEF0A3E520F0A37808E608F0A3DEFAEF01
:100B3300F0A3E58124FAF8E608F0A3E608F0A3E6BB
:100B430008F0A30808E608F0A3E608F0A31581154A
:100B530081D0E0FED0E0F8158115811581E8C0E071
:100B6300EEC0E022121428B90003020BB9E4900589
:100B730001787479148002F0A3D8FCD9FA78239011
:100B830000867A01BA00028007E493A3F608DAF933
:100B93007A747B18900087784279028015E493A3D6
:100BA300AD82AE838A828B83F0A3AA82AB838D82CC
:100BB3008E83D8E9D9E77582E97583E87404121046
:100BC300B375823875832B74001210B3C0D02521FE
:100BD300C582C0E0E52234FFC583C0E0E521C395AB
:100BE3008224F310AF0885832285822180088583C0
:100BF30022858221D2AFC8F0A3E9F0A3EAF0A3EBE8
:100C0300F0A37908E709F0A3D8FAECF0A3EDF0A379
:100C1300EEF0A3EFF0A3D0E0F0A3D0E0F0A3D0E098
:100C2300F0A3E520F0A3E5F0F0A32285228385213C
:100C330082E0C0E0A3E0F9A3E0FAA3E0FBA3780815
:100C4300E0F608A3DFFAE0FCA3E0FDA3E0FEA3E0E7
:100C5300FFA3E0C0E0A3E0C0E0A3E0F5D0A3E0F58C
:100C630020A3E0A3F5F010AF0885832285822180BD
:100C730008858322858221D2AFD082D083D0E0F849
:100C8300D0E032121239181818120A8C12133219C2
:100C9300191922121332191919080808E618181815
:100CA30020E7E0120A8C12123918181822090909D0
:100CB300E719191920E7DC080808E618181820E7CF
:100CC30003020A8C121239181818120A8C121239DC
:100CD30018181812133219191922E473FF75F0103A
:100CE3008E248F25858229858328852182852283E9
:100CF300E0CEA3E0CF852982852883EBC9EAC8ED3E
:100D0300CBECCAC3E833C8E933C9EA33CAEB33CB04
:100D1300C3EA9EF527EB9FF526B35004AB26AA271B
:100D2300EC33CCED33CDD5F0DAAE24AF252212135C
:100D3300CF601C1213B16017121446700712143DD2
:100D43007001D322C0D012143D7006D0D0B322C399
:100D53002233D0D0501430E0F6C3E7960809E79663
:100D63000809E7960809E796B32220E0D5E6970835
:100D730009E6970809E6970809E697B322D083D0D6
:100D830082ECC0E0EDC0E0E493A3FCE493A3FDEDAB
:100D93004C600D120EA4EC24FFFCED34FFFD80EF3C
:100DA300E493A3FCE493A3FDED4C600D120F98ECC8
:100DB30024FFFCED34FFFD80EFD0E0FDD0E0FCE448
:100DC30093A3C0E0E493C0E0221213CF601B12137D
:100DD300B16016121446700712143D600CB322C0A2
:100DE300D012143D7005D0D022C32233D0D050137B
:100DF30030E0EBC3E7960809E7960809E796080988
:100E0300E7962220E0E4E6970809E6970809E697C3
:100E13000809E69722D083D082E9C0E0E493A3C314
:100E230086F0C5F095F0F908E493A386F0C5F09534
:100E3300F0700BE493A3C3994005E9048002A3E493
:100E430075F002A42582F582E5F03583F583D0E0C1
:100E5300F9E493A3C0E0E493C0E0228522838521D3
:100E630082E0A3FEE0A3F5207808E0A3F608DFFA0A
:100E7300E0A3FFE0A3C0E0E0A3C0E0E0A3C0E0E0A4
:100E8300A3C0E0E0A3C0E010AF08858221858322E0
:100E93008008858221858322D2AFD083D08202103D
:100EA300B9C0E0C3E49396087401939618400FE425
:100EB3009366700808740193661870007019A3A3F1
:100EC300C3E49396087401939618A3A3400DD0E04E
:100ED300D0E0D0E0020DBCA3A3A3A3A3A3D0E02240
:100EE3007404800474028000CCC0E0EDC0E0E5210E
:100EF300C39CCCAD2250011D10AF068C218D2280E6
:100F0300068C218D22D2AF121035D0E0FDD0E0FC4B
:100F13002274028000CCC0E0EDC0E0E521C39CCC8C
:100F2300AD2250011D10AF068C218D2280068C212D
:100F33008D22D2AF121013D0E0FDD0E0FC221213A9
:100F4300CF60251213B16020121446700302143DC2
:100F5300080808E76670101819E766700A1819E799
:100F63006670041819E76622F422C0E074F2120BCB
:100F7300CFA2AFE433FED2AFE58BA2E050057904F4
:100F83001216E0758B00C2E8752300EEA2E092AF63
:100F93007F01020C2EC0E0C0F088F0E49366700875
:100FA3000874019366187000A8F0A3A3700BD0F027
:100FB300D0E0D0E0D0E0020DBCA3A3D0F0D0E0227B
:100FC300D083D082CCC0E0E493A360061210561401
:100FD30070FAE493A360061211B81470FAD0E0FC1F
:100FE300E493A3C0E0E493C0E022C008C3E096F515
:100FF3000808A3E096420808A3E096420808A3E085
:10100300964208A2D265D033E5087001D3D00822F6
:10101300CAC0E0E493A3C582CCC582C583CDC58392
:10102300F0A3C582CCC582C583CDC583DAE5D0E004
:10103300CA22CAC0E0E0A3C582CCC582C583CDC5A0
:1010430083F0A3C582CCC582C583CDC583DAE6D040
:10105300E0CA22C0E0E493A3D39C5010E493A3C35B
:101063009C400AD0E0D0E0D0E0020FE0A3A3A3D0DD
:10107300E0227009080808226016181818C6C3333E
:10108300C608C633C608C633C608C633C6D5E0EAA3
:1010930022C008C3E096F50808A3E096420808A317
:1010A300E096420808A3E09645087001D3D00822D1
:1010B300C09FF59FE473D09F22D083D082C09FE46A
:1010C30093C0E0740193C0E0740293F59F22C0E0E3
:1010D300C0D0E8C0E0A8A8D2AFC2C7752300E8A279
:1010E300E792AFD0E0F8D0D0D0E0322521F58210DE
:1010F300AF08F521400C15228008F5214002152286
:10110300D2AF8522832200C0D0252110AF08F5215C
:10111300500C05228008F52150020522D2AFD0D011
:10112300227404800A74038006740280027401C06E
:10113300E0F4041210EED0E01213EB22BB0102E73D
:1011430022C082C08389828A83BB0003E08002E4D9
:1011530093D083D082226016080808C6C313C6182A
:10116300C613C618C613C618C613C6D5E0EA22C3EB
:10117300E0C696F608A3E0C696F608A3E0C696F680
:1011830008A3E0C696F6222521F8E43522F92225A4
:1011930021FAE43522FB222521FCE43522FD222518
:1011A3002110AF08F521400C15228008F5214002DB
:1011B3001522D2AF22C0E0E493A36C7009D0E0D033
:1011C300E0D0E0020FE0A3A3D0E022C3E796080932
:1011D300E7960809E7960809E796A2D265D0332275
:1011E300C3E09608A3E09608A3E09608A3E096A2BE
:1011F300D265D03322E76670100809E766700A08E3
:1012030009E76670040809E76622E066701008A320
:10121300E066700A08A3E066700408A3E06622C3D0
:10122300E096F008A3E096F008A3E096F008A3E0A8
:1012330096F022181818E4C396F608E496F608E424
:1012430096F608E496F622C3E697F60809E697F6BB
:101253000809E697F60809E697F622181818E6082B
:1012630046087009E626087005E633F422082219B9
:101273001919E70947097009E727097005E733F4E6
:10128300220922C3E4939608740193960874029387
:1012930096087403939622E026F008A3E036F0083C
:1012A300A3E036F008A3E036F022700422600D18A4
:1012B300C6C333C608C633C6D5E0F41822E657F6CC
:1012C3000809E657F60809E657F60809E657F6222D
:1012D300E627F60809E637F60809E637F60809E6C9
:1012E30037F622E026F608A3E036F608A3E036F642
:1012F30008A3E036F622E056F608A3E056F608A364
:10130300E056F608A3E056F622E647F60809E64754
:10131300F60809E647F60809E647F622E056F0081C
:10132300A3E056F008A3E056F008A3E056F022E449
:10133300C397F709E497F709E497F709E497F722C6
:10134300600D08C6A2E713C618C613C6D5E0F3227C
:10135300C6F4C608C6F4C608C6F4C608C6F4C62250
:10136300C3E09608A3E09608A3E09608A3E09622BC
:10137300C3E7960809E7960809E7960809E796225E
:1013830075D00075813F75210175220500020B6739
:10139300600C08C6C313C618C613C6D5E0F422E60C
:1013A300F008A3E6F008A3E6F008A3E6F022E709B5
:1013B3004709C3134709336002E733F422E0F60811
:1013C300A3E0F608A3E0F608A3E0F622E608460841
:1013D300C3134608336002E633F422800100E9F8C0
:1013E30074FF28F90470F622CAC0E0E6F0A308DA15
:1013F300FAD0E0FA22E0F8A3E0F9A3E0FAA3E0FBD5
:1014030022E8F0A3E9F0A3EAF0A3EBF022EAF0A3C9
:10141300EBF0A3ECF0A3EDF022E0FAA3E0FBA3E0F2
:10142300FCA3E0FD22E5C754F84401F5C779012286
:101433002521F582E43522F58322E7271947194749
:10144300194722E62618461846184622C2AF75D613
:101453009F020000221210BC30D1021210BC74D1C2
:10146300021210BC0ED2021210BC7ED2021210BCA9
:10147300ADD2021210BCB3D3021210BCDDD30212E0
:1014830010BC31D4021210BC05D5021210BC33D7E4
:10149300021210BCE1D7021210BC4EDA021210BCC9
:1014A300D3DA021210BCD6DD021210BC0AE002121B
:1014B30010BC46E0021210BC9FE1021210BCB2E164
:1014C300021210BCEFE1021210BCB8E3021210BC0E
:1014D300D1EA041210BC05EB041210BC53EB041246
:1014E30010BCF5EB041210BC17EB031210BC93EB0A
:1014F300031210BCC6EB031210BCF4EB031210BCB6
:1015030032EC031210BC6FEE031210BC8EEE03120A
:1015130010BCD3EE031210BC69EF031210BCB5EF7D
:10152300031210BC49F0031210BC22F1031210BCC9
:101533007EF1031210BCDCF1031210BC4FF2031254
:1015430010BC93F2031210BCEBF2031210BC0DF3A8
:10155300031210BC9DF3031210BC2EF4031210BC33
:101563007AF4031210BCA6F4031210BCE7F40312BE
:1015730010BC7DF6031210BC69F7031210BC44F8CB
:10158300031210BC64EC011210BCF8EC011210BC85
:1015930060ED011210BC85EE011210BC0FEF0112B9
:1015A30010BC9AEF011210BCD6EF011210BC6FF001
:1015B300011210BC04F1011210BCD7F1011210BCCE
:1015C300B9F3011210BC6DF4011210BC63F50112E2
:1015D30010BC02F6011210BC57F6011210BCC5F67E
:1015E300011210BCD1F9011210BCFBFB011210BC9B
:1015F300FCFC011210BC3AFE011210BC45FE0112A4
:1016030010BCB5DB041210BCE3DB041210BCFEDB20
:10161300041210BC23DC041210BCC4DC041210BC82
:10162300DFDC041210BC9DDD041210BCC7DD041204
:1016330010BCAAE2041210BC66E3041210BC4BE413
:10164300041210BCAEF3041210BCBFF3041210BC9E
:101653005DF4041210BC68F4041210BC82F404128A
:1016630010BCF8FF021210BCBCF8041210BC91F4B9
:10167300041210BCA1F4041210BCB3F4041210BC85
:1016830065F5041210BCBBF0041210BC3FF1041248
:1016930010BCA7F1041210BC42D9041210BC60D9CB
:1016A300041210BC95D9041210BCBAD9041210BC90
:1016B300DDD9041210BC18DA041210BC45DA041286
:1016C30010BC8CDA041210BC2BDB041210BCC0F269
:1016D300041210BC0DF3041210BC16F3041210BC58
:1016E3003DF3041210BC85F3041210BC9CF30412E6
:1016F30010BCF8FF011210BCFBFF011210BCF87FF5
:10170300001210BCDCE6041210BC14E7041210BC77
:1017130062E8041210BCE6E8041210BC03B0041221
:1017230010BC2FB0041210BC99B2041210BCD9B271
:10173300041210BC15B3041210BC29B3041210BC5C
:1017430042B3041210BC34B4041210BCE7B4041244
:1017530010BCFBB4041210BC147E001210BC387E03
:10176300001210BC517E001210BC8F7E001210BC00
:10177300BF7E001210BCEC7E001210BCF67E00127D
:1017830010BC5C7F001210BC5F7F001210BC697F2D
:10179300001210BC767F001210BC9BD6041210BC42
:1017A300BBD6041210BCFAD6041210BC18D704120C
:1017B30010BC33D7041210BC99D7041210BCA5D7A0
:1017C300041210BC02D8041210BC11D8041210BCAD
:1017D30035D8041210BCF6D8041210BC03D9041275
:1017E30010BC14D9041210BC807F001210BCC87F37
:1017F300001210BCF47F001210BC51B5041210BCCF
:10180300ABB6041210BCB9B6041210BCCCB60412A9
:1018130010BCE1B6041210BCF6B6041210BC09B732
:10182300041210BC85B7041210BCEAB7041210BC32
:1018330072B8041210BCEAB8041210BCC3B9041283
:1018430010BCD3B9041210BCE2B9041210BC15F6D3
:10185300041210BC39F6041210BC61F6041210BC59
:1018630089F6041210BC17DE041210BC3EDE04120B
:1018730010BC5CDE041210BCCBDE041210BC2CFDC9
:10188300021210BC45FD021210BC51FD021210BC25
:1018930065FD021210BC83FD021210BC8DFD021205
:1018A30010BC97FD021210BCAAFD021210BC30FE40
:1018B300021210BCA5FE021210BCD4FE021210BC10
:1018C30022FF021210BC71FF021210BC8CFF021225
:1018D30010BC96FF021210BCA7FF021210BCEAFF55
:1018E300021210BC8CF7041210BCD7F7041210BC00
:1018F3008F9F041210BCBB9F041210BCD89F04120C
:1019030010BCEB9F041210BC06A0041210BC60A014
:10191300041210BC8EA0041210BC9EA4041210BCAE
:10192300FCA5041210BC2EA6041210BC91A604122E
:1019330010BCFDA7041210BC25A8041210BC3AA8C1
:10194300041210BC4AA8041210BC8AA8041210BCCA
:10195300CCA8041210BCDCA8041210BC67ED04125E
:1019630010BC81ED041210BCA9ED041210BCC2ED31
:10197300041210BCE6ED041210BC04EE041210BCF9
:101983001BEE041210BC49EE041210BC64EE0412E8
:1019930010BC4CFF031210BC90FF031210BCD5C641
:1019A300041210BCE5C6041210BCEAC7041210BC32
:1019B3001CC8041210BC4CC8041210BC6FC804121B
:1019C30010BC86C8041210BCC0C8041210BC25C9C0
:1019D300041210BC67C9041210BCAEC9041210BCB7
:1019E300DBC9041210BC06CA041210BC84FE011227
:1019F30010BC96FE011210BCAAFF011210BCADFF71
:101A0300011210BCB5EF041210BCEBEF041210BCB2
:101A130003F0041210BC45F0041210BC55F004127C
:101A230010BC99F0041210BCA3F0041210BC0CA952
:101A3300041210BC4FA9041210BCB4A9041210BCA8
:101A4300D3A9041210BC75AA041210BC7EAA0412F6
:101A530010BCCFAA041210BCF8AA041210BC05AB28
:101A6300041210BC77AB041210BC05AC041210BCFA
:101A73004AAC041210BC83AC041210BCE8AC0412D0
:101A830010BC11AD041210BC88AD041210BCD7AD4C
:101A9300041210BC14AE041210BC49AE041210BCE4
:101AA3005BAE041210BC6DAE041210BC8CAE0412FB
:101AB30010BC95AE041210BC56AF041210BC99AF03
:101AC300041210BCD7AF041210BC3BF8041210BCB4
:101AD30027EC041210BC6CE0041210BCA2E0041248
:101AE30010BCEAE0041210BC43E2041210BC93C61B
:101AF300031210BCB9C7031210BCF5C7031210BC04
:101B0300B3C9031210BCE1C9031210BC4BCC0312BE
:101B130010BC8BCC031210BC2DCE031210BCC3CE51
:101B2300031210BC1DCF031210BCADCF031210BCA7
:101B3300F1CF031210BC33D0031210BC98D103129F
:101B430010BC18D3031210BC59D5031210BC87D58F
:101B5300031210BCB3D5031210BCBCD5031210BCC6
:101B630019D6031210BCB2D6031210BCC9D9031282
:101B730010BC4FDA031210BC6BF5041210BC83F5D2
:101B8300041210BC8DF5041210BCE3F5041210BC52
:101B93008DBE041210BCA3BE041210BC44BF0412B9
:101BA30010BC83BF041210BCA0BF041210BCD1BF71
:101BB300041210BC1EC0041210BC52C0041210BC8C
:101BC3008DC0041210BC8AC2041210BCF0C20412ED
:101BD30010BCC0F1041210BC1FF2041210BC5DF261
:101BE300041210BC9EF2041210BCE3F7041210BCE2
:101BF300B9A5021210BCC5A5021210BC27A6021279
:101C030010BC31A6021210BCBEA6021210BCFAA66A
:101C1300021210BCF6A7021210BC54A8021210BC88
:101C2300F4A8021210BC74A9021210BC43AB021236
:101C330010BC85AD021210BCCCAE021210BC09B1AF
:101C4300021210BC71B2021210BC1DB3021210BCFE
:101C53000CB8021210BC02B9021210BC9AB90212DB
:101C630010BCBFB9021210BC57BA021210BC75BA2D
:101C7300021210BCECBA021210BC0BBB021210BC55
:101C830038BB021210BCD0BC021210BCF1BC021251
:101C930010BC97BD021210BCDEBD021210BC52BEB6
:101CA300021210BCE0BE021210BC3DBF021210BCF7
:101CB300B6BF021210BC38C1021210BC9CC3021280
:101CC30010BC25C4021210BC53C4021210BC1EF96E
:101CD300031210BCAFF9031210BC12FB031210BCA9
:101CE30036FB031210BC3BFB031210BC1BFD03129B
:101CF30010BC3DFD031210BC5FFD031210BCA5FE1A
:101D0300031210BC5ECA041210BC1DCB041210BC1B
:101D130083CB041210BC32CC041210BC62B1031288
:101D230010BC91B1031210BC09B2031210BC18B35A
:101D3300031210BC74B3031210BCE1B4031210BC41
:101D4300FDB4031210BC4FB5031210BC92B50312BD
:101D530010BCA5B5031210BCFDB5031210BCBFB671
:101D6300031210BC3BB7031210BC72B7031210BCB2
:101D7300AAB7031210BC3CB9031210BC1BBA03125E
:101D830010BC69BB031210BC4CBC031210BCD8BC02
:101D9300031210BC18BD031210BC37BD031210BCD4
:101DA30082BD031210BCA2BD031210BC3BBE0312C2
:101DB30010BCC1BE031210BC1CBF031210BC5CBF1D
:101DC300031210BCF2C1031210BC0BC3031210BCEC
:101DD30051C3031210BC46C4031210BC6EC40312D9
:101DE30010BC71C4031210BC7BC4031210BC97C493
:101DF300031210BC11C5031210BC4AC5031210BC58
:101E030076C5031210BC9DC5031210BCC1C50312D5
:101E130010BC32C6031210BC45C6031210BC74C6F4
:101E2300031210BCAEF6041210BCBAF6041210BCB6
:101E3300EEF6041210BCF5FF021210BC339B031222
:101E430010BC569B031210BCA39C031210BCEC9C49
:101E5300031210BC589D031210BCB69D031210BC94
:101E6300B99D031210BC0A9E031210BC7F9E03127D
:101E730010BC049F031210BC079F031210BC889F61
:101E8300031210BCC99F031210BCB5A3031210BCEC
:101E93005FA5031210BCAFA5031210BC36A9031231
:101EA30010BC69AA031210BCE3AB031210BC80ACD4
:101EB300031210BC6BAD031210BCC0AF031210BCF5
:101EC300AEDA031210BC58DB031210BCC3DB0312DF
:101ED30010BC159F041210BC63DC031210BCBDDCE4
:101EE300031210BC04DD031210BC6BDD031210BC23
:101EF300EADE031210BC19E0031210BCA1E00312C6
:101F030010BCAAE2031210BC57E3031210BCFBE39C
:101F1300031210BCCCE4031210BC87E6031210BCFE
:101F23001FE8031210BCB2E8031210BCD8E9031275
:101F330010BC0080031210BC6380031210BCAB8082
:101F4300031210BCEF80031210BC4A81031210BCB1
:101F5300A781031210BCE281031210BC6482031236
:101F630010BCBE82031210BC3C84031210BCBC84A0
:101F7300031210BC1785031210BC3185031210BC69
:101F8300DFD0021210BCAC85031210BC0ACF0212C0
:101F930010BC4788031210BC3789031210BC6A8A2D
:101FA300031210BCE98A031210BC258B031210BC68
:101FB300948B031210BC498C031210BC218E0312A4
:101FC30010BC288F031210BCA090031210BC969271
:101FD300031210BC0C95031210BCE696031210BC3E
:101FE300A797031210BC1F98031210BC3698031254
:101FF30010BC2D99031210BC219A031210BC909AA5
:10200300031210BCC9D0041210BC20D2041210BC9D
:10201300DFD2041210BC47D3041210BCA4CD0412A7
:1020230010BCBFCD041210BC03CE041210BC29CEC9
:10203300041210BC50CE041210BC68CE041210BCA3
:102043000ACF041210BC1FCF041210BC42D00412DA
:1020530010BC4BD0041210BC54D0041210BC5DD081
:10206300041210BC67D0041210BC13BA041210BCC3
:102073001FBE041210BC24BE041210BC26BE0412E0
:1020830010BC5EE9041210BCDAFF011210BCBBD312
:10209300041210BC97EE041210BC23F7041210BCF8
:1020A300CDE4041210BC90F8041210BCFDC204125B
:1020B30010BC0080021210BC3380021210BC9F803F
:1020C300021210BC3A81021210BCD781021210BC5A
:1020D3001C82021210BC3E82021210BC57820212F2
:1020E30010BC7D82021210BC9F82021210BCDD82E2
:1020F300021210BC2183021210BC4383021210BCD3
:10210300A583021210BC6C84021210BC2385021238
:1021130010BC9585021210BC6086021210BCB386F7
:10212300021210BC1987021210BC5387021210BC92
:10213300A587021210BC1388021210BC7E880212FB
:1021430010BC8188021210BC0289021210BC99894A
:10215300021210BC198A021210BC388A021210BC77
:102163009C8B021210BCA98B021210BCB58C0212FC
:1021730010BCC28C021210BCCB8C021210BCA38EFA
:10218300021210BCBD8F021210BC3690021210BC9A
:10219300A890021210BCCA90021210BC5E910212E7
:1021A30010BC3293021210BC0997021210BC1D9787
:1021B300021210BC2D97021210BC3797021210BCEA
:1021C3004097021210BC4997021210BC5397021297
:1021D30010BC8097021210BCA997021210BCB497CE
:1021E300021210BCD897021210BCFC97021210BC4A
:1021F3006698021210BCAC98021210BCC998021265
:1022030010BC4699021210BC7D99021210BCBC99F5
:10221300021210BC099A021210BC8F9A021210BC4F
:102223005D9C021210BCE09C021210BCC49D021201
:1022330010BC2BA0021210BC84A0021210BCCEA0B2
:10224300021210BC29A2021210BC5EA2021210BC20
:10225300B0A2021210BC65A3021210BC14A4021295
:1022630010BC51A4021210BCE6A4021210BC52A569
:10227300021210BC5731001210BC8931001210BC7D
:10228300B731001210BC8D33001210BC6D34001234
:1022930010BCC534001210BC0036001210BC4C3602
:1022A300001210BC7539001210BC683C001210BC3F
:1022B300B83D001210BC4E3E001210BC5A3E001234
:1022C30010BC8C3E001210BC0F40001210BCC04169
:1022D300001210BC5442001210BC9742001210BCF2
:1022E3001543001210BC3243001210BC62430012AB
:1022F30010BC9743001210BC6744001210BC104579
:10230300001210BC9647001210BCB648001210BC55
:10231300A149001210BC234A001210BC574E0012F0
:1023230010BC944E001210BCEC4E001210BC1F4F98
:10233300001210BC894F001210BCBF4F001210BC1A
:102343004A50001210BCA250001210BC7951001266
:1023530010BC3252001210BCCD52001210BCD55525
:10236300001210BCF156001210BC945A001210BC9B
:10237300885B001210BC8B5B001210BCBA5B0012AE
:1023830010BCC05D001210BC995E001210BCDC5E74
:10239300001210BC3260001210BC7160001210BC3D
:1023A300FA60001210BC2E61001210BCF36100121F
:1023B30010BC0B64001210BC7C64001210BCBC6423
:1023C300001210BC4A65001210BC6C66001210BCEF
:1023D3002E67001210BC3569001210BC4D69001243
:1023E30010BC6169001210BC9969001210BCC76966
:1023F300001210BC466B001210BC6B6C001210BCB8
:10240300C86C001210BC7A6D001210BCA16D0012D2
:1024130010BC686E001210BC006F001210BC267155
:10242300001210BC5B71001210BCBE71001210BC14
:10243300ED72001210BC9573001210BCC67300122B
:1024430010BCDE73001210BC6D74001210BC217737
:10245300001210BCF978001210BC1579001210BCE0
:102463003179001210BCFF79001210BCF27D00120A
:1024730010BC8282011210BCB482011210BCA3866C
:10248300011210BCEF86011210BC3587011210BC7B
:10249300D787011210BC3388011210BC788801124F
:1024A30010BCBF89011210BCD38A011210BCC28EAA
:1024B300011210BC468F011210BC5390011210BCC4
:1024C300AF90011210BC9F92011210BC1493011221
:1024D30010BC1E93011210BC2B93011210BC569317
:1024E300011210BC3D94011210BCE794011210BC00
:1024F3006595011210BC8595011210BCAE950112B1
:1025030010BCD095011210BC3098011210BCF69883
:10251300011210BC3B99011210BCB899011210BCF6
:10252300699A011210BC9B9A011210BCE19A011224
:1025330010BC1D9B011210BC6D9B011210BCC19BF2
:10254300011210BC179C011210BC639C011210BC39
:10255300D09C011210BC4B9D011210BC169F01129E
:1025630010BC16A0011210BC3BA1011210BC7AA42E
:10257300011210BC8DA7011210BC4AA8011210BC95
:102583008EA8011210BC3EAA011210BC52AA01125D
:1025930010BC5CAA011210BC66AA011210BC72AA7C
:1025A300011210BC8EAA011210BC39AB011210BC6F
:1025B30078AB011210BC82AB011210BC8CAB0112C0
:1025C30010BCFCAB011210BC47AC011210BC5CADDB
:1025D300011210BCB8AD011210BC39AE011210BC0F
:1025E300F8AE011210BC01B0011210BC35B10112DA
:1025F30010BC23B2011210BC3BB2011210BC96B244
:10260300011210BCB4B2011210BCFCB2011210BC16
:1026130023B3011210BCBEB3011210BC84B4011267
:1026230010BC16B5011210BC90B5011210BCAAB6AD
:10263300011210BC57B7011210BC7FB8011210BCB5
:10264300CFB8011210BC33B9011210BC95B90112F5
:1026530010BCC3B9011210BCE7B9011210BC1CBAFB
:10266300011210BC4DBA011210BC80BA011210BC89
:10267300A0BA011210BC08BB011210BCFCBB0112B2
:1026830010BC57BC011210BC80BC011210BC08BDA9
:10269300011210BC8BBD011210BCB6BD011210BCDF
:1026A3009BBE011210BC0080041210BC38800412BF
:1026B30010BC5980041210BC9B80041210BCFD8016
:1026C300041210BC0781041210BC1781041210BC41
:1026D3005281041210BC3285041210BC1F870412ED
:1026E30010BC0589041210BC9C89041210BC3E8ADC
:1026F300041210BC9DC0011210BC1BC1011210BCFE
:1027030077C1011210BCC2C1011210BCDDC101129C
:1027130010BC08C2011210BC25C2011210BC31C288
:10272300011210BCC8C3011210BCE1C3011210BCDA
:1027330066C4011210BC79C4011210BC98C4011202
:1027430010BC3CC5011210BCBDC6011210BC70C840
:10275300011210BC06C9011210BC09C9011210BC38
:1027630079C9011210BC97C9011210BC2ECA0112FB
:1027730010BC76CA011210BC79CA011210BC3FCB3F
:10278300011210BCACCB011210BCD2CB011210BC95
:102793005DCC011210BC7BCC011210BCC1CC011268
:1027A30010BC75CD011210BCBFCD011210BCEECD13
:1027B300011210BC4BCE011210BC80CE011210BC12
:1027C300ACCE011210BCBACE011210BC07CF01125D
:1027D30010BC77CF011210BCC0CF011210BC0CD0BB
:1027E300011210BC38D0011210BC43D0011210BC2E
:1027F30061D0011210BC4CD1011210BC56D1011290
:1028030010BC91D1011210BCA1D1011210BCAAD1EC
:10281300011210BCFED1011210BC12D2011210BC65
:1028230041D3011210BC58D3011210BC6DD3011255
:1028330010BCFBD3011210BC40D4011210BCCCD489
:10284300011210BCD7D4011210BC19D6011210BC4E
:1028530034D6011210BC80D6011210BCEFD601127F
:1028630010BC28D7011210BC42D7011210BC84D768
:10287300011210BC54DA011210BC01DB011210BCAE
:102883006EDB011210BCAEDD011210BCC6DD0112FD
:1028930010BCC9DD011210BCD5DD011210BCE9DD8D
:1028A300011210BCF1DD011210BC24DE011210BCB8
:1028B30026DF011210BCADDF011210BC1DE00112B6
:1028C30010BC9FE0011210BC60E1011210BC7FE15B
:1028D300011210BC20E2011210BC7DE2011210BCF7
:1028E30080E2011210BCADE2011210BCC2E201127F
:1028F30010BC36E3011210BC85E4011210BC8BE559
:10290300011210BC16E6011210BC31E7011210BC13
:10291300F9E7011210BC2AE8011210BC4DE80112BC
:1029230010BC56E8011210BC85E8011210BC15E971
:10293300011210BCCBE9011210BC40EA011210BC19
:10294300E7EA011210BC5CEB011210BC93EB01121D
:1029530010BCD1EB011210BC07EC011210BCBE9EDF
:10296300041210BC2C9D041210BC7E9C041210BCDB
:10297300749C041210BC0D9C041210BCF99B04122D
:1029830010BC569B041210BC569A041210BC6F99CB
:10299300041210BC5F97041210BC6D96041210BC95
:1029A3000B96041210BC2ED0021210BC9ACF021246
:1029B30010BC18FD021210BC0EFD021210BC5ECE3C
:1029C300021210BCF7CB021210BCA3FC021210BC03
:1029D300D7FA021210BC95FA021210BC99F902122E
:1029E30010BC6DF9021210BC24F9021210BC65F878
:1029F300021210BC65F5021210BC37F3021210BCB0
:102A030004F3021210BCABF2021210BC3EF202122B
:102A130010BCFDF1021210BC36F1021210BCD0F052
:102A2300021210BC6FF0021210BC0FF0021210BCA5
:102A3300E6EE021210BC7AEE021210BCD2ED0212C4
:102A430010BCCDED021210BCC1ED021210BCF4E9B2
:102A5300021210BCCEE9021210BCAEC8021210BCA6
:102A630002C8021210BC70C7021210BC2AC702129D
:102A730010BCF5C6021210BCC2C6021210BCADC611
:102A8300021210BC6CE9021210BC0DE9021210BC58
:102A9300CEE8021210BCBBE8021210BC82C60212BE
:102AA30010BCB0E8021210BC7FE8021210BC6CE646
:102AB300021210BCDFE5021210BC5285031210BCD7
:102AC3009BE5021210BC3ACF021210BC6FE5021252
:102AD30010BC9B95041210BC6E95041210BC3B9560
:102AE300041210BC1395041210BCB494041210BC4D
:102AF3009494041210BC5F94041210BC0B91041242
:102B030010BCF38E041210BCDD8C041210BC5D8C5F
:102B1300041210BC098C041210BCBD8B041210BC2F
:102B23002888031210BC499F041210BC158B041291
:102B330010BCDEDB0300000080FB8F0001002A19BC
:102B430087000100281935000400F1182500020050
:102B5300F51826000200F71827000200F9182800CC
:102B630001000319290001000419840004006216FE
:102B73008600010082182A00010005192B000100BC
:102B830006192C0001000A192D0008006E162E00EC
:102B930001000B192F0001000C19300001000D1961
:102BA300310001000E1932000100761633000100D6
:102BB3007716340001000F1936000100781638002B
:102BC30001001019390001000919830002002619B8
:102BD3006300010084166400010007196500010009
:102BE30008196D000100851671000800661666005D
:102BF30001002519430001001619440002001719AA
:102C0300450001001919460002001A19470008007F
:102C13007C16480001001C194B0001001D1904001B
:102C230001002919A10001002D19370001002C19F9
:102C3300880001002B193C00010079163D000100BA
:102C43001119490002001E196700010086164D0084
:102C5300020020194E00010022194F00020023191F
:102C63003E0001001519510001007A1652000100BF
:102C73001319530001001419540001007B160000BE
:102C830000000000000136360101000102010001CD
:102C930003010001040106060502000007010034D8
:102CA3000801000F090401010D0100FF0E080000D7
:102CB30017020000190100FF1A0100011B0100FEA9
:102CC3001C0100081D0200001F010001200100017A
:102CD300210200002301000F24020000260100014D
:102CE30027010008280200FF2A0100072B010240E8
:102CF3002C0100002D0100012E0100012F0100FF16
:102D030030010B1D310800003A0100083B01000FA0
:102D13003C0100013D0100FF3E04000042040000AD
:102D2300460400004A0400004E0400005204000060
:102D3300560400005A0400000000000020017C82B9
:102D43000000010020017E82000002002001808239
:102D53000000030020017D820000040042010A817B
:102D6300000005004201FF80000006004201E680EA
:102D73000000070030018182000000404201E6802C
:102D83000000FDFF21017A820100200020058A183E
:102D93000100210020058B180100000221058C1879
:102DA3000204000029054F150304000029055115ED
:102DB3000304100029055315030414002801CF1838
:102DC30005040000210555150103710301030103E7
:102DD30001030103010322030203010310030003A0
:102DE3000003000300030003000300034203000386
:102DF3002403060300030003040312032503230330
:102E03002503230304030403000300030003440313
:102E1300000300032303000365032100350381033B
:102E2300000305030003000300030003250323033A
:102E330003027102300160021102700201020202F8
:102E430002028002100261023A004100630273022F
:102E530072026202430200021302380000020002FF
:102E63000402120200020002000200020402040231
:102E7300370037003C02440200023900000200021E
:102E8300650200023502810200020502820283020A
:102E9300000201017101010101011101010131016F
:102EA300010101018001100161013B001400630174
:102EB30073017201620143010001130106013D0127
:102EC30035000401120100010001000100010401A9
:102ED3000401330133013C01440132013600000196
:102EE3000001650100013500810100010501820136
:102EF30083010001030071003001600011007000C4
:102F0300310220035004800010006100000014000F
:102F130063007300720062004300000013000600A8
:102F23000000000004001200000000000000000088
:102F330004000400370037003C0244000000000096
:102F4300000000006500000035008100000005005E
:102F530000008300000036000100060000000F009F
:102F630000000000000000000000000003FFFF005D
:102F7300000403FFFF0000FFFF0FF4010005C4047A
:102F83000320000100000B0000000000000000030C
:102F9300010F00000000000000000000000000001E
:102FA300000000000000000000000000000000001E
:102FB30000000000AA1CC81CB01C0E1C000000006E
:102FC300000000000000000000000000B61C0E1C02
:102FD30000000000BC1C0E1C0000000000000000EC
:102FE300C21C0E1C000000000000000000000000D6
:102FF30000000000000000000000000000000000CE
:1030030000000000000000000000000000000000BD
:103013000000EA1E0100EA1E0200601E02805A1E22
:103023000300661E04006C1E0480721E0500781ED9
:103033000600841E3100961E33009C1E3400A21E1F
:10304300FFFF0000030003000400080010001F003E
:103053003E007B00F600EC01D703AF075D0FB91EFE
:10306300713D000007ECFDFDFDECDCDCCCBCACAC41
:103073009C9C8C7C7C6C6C5C5C5C4C4C3C3C2C2C3D
:103083001C1C03EAF5E5D5D5C5B5A59595858575CC
:1030930075656555554545353525251515050AEAE3
:1030A3002402B42405C02407BA240C9C240DA824AC
:1030B300FF000000160F00000B150B020002220F89
:1030C3003300000E0F5A6967426565416C6C696194
:1030D3006E63653039D0D1D2D3D4D5D6D7D8D9DA27
:1030E300DBDCDDDEDF303016181920231A1C1E301E
:1030F30000034D4C4651181A2505020001191618F4
:10310300161618230300303017181921301B1D1F02
:1031130030003C40423A3F3F392F47300C0E020B00
:10312300040B0A0708000F0204020101010109024E
:10313300E803000000BE040A01001A000300E803CC
:1031430004091203050A030A0C041E0828020C05CD
:1031530008151E14C082C0831214E89016B1748C33
:10316300F0A37422F09016B37492F0A37422F0903B
:1031730016B57498F0A37422F09016B7749EF0A35A
:103183007422F0025E9274F7120AFB9016A5E4F023
:10319300E99016A4F07C7C7D167AA67B16121BE4BC
:1031A30090191CE09016AEF09016AF7466F0A374FD
:1031B3001602411F74F0120AFBEAFEEBFF54807003
:1031C300030233289016A41241B47003023321EA98
:1031D300241B125A1F707CEA241F125A1F64137097
:1031E30002A3E0706E8A828B831233769016BF122D
:1031F3004FB1750A00750B00800D123FF5127091E7
:10320300121AE8AA0EAB0FEA4B60488A828B83E05E
:10321300650C7004A3E0650D702C8A828B83A3A3D5
:10322300A3A3E0F50EA3E0F50FE50A450B8A828B15
:1032330083A3A3A3A360C31242F7850A82850B83EA
:10324300A3A3A3A380B78A0A8B0B8A828B83124F13
:10325300AD80B4E508242A125A1FFCE5082402F8BD
:10326300E43509F9E8FAE9FB9016BF12345DA3A32C
:10327300E06402703C8A828B83124FB1800B888298
:103283008983A3A3A3A31242F7E849601F88828915
:1032930083E06A7003A3E06B70E488828983A3A34D
:1032A300E06C70DA901922125D4F806BECF91222F8
:1032B300C8850882850983E06401704FE5082418F6
:1032C30012335F121130126639120EE3E50824122D
:1032D30012335F121130E5081241A812112CE508D0
:1032E300240B12663D120EE7E5082417124145E54B
:1032F300082402FCE43509FDE5082419FAE435093C
:10330300FB122B08740A121109800CE06402700787
:10331300AA08AB091223A6AA08AB09121A52EEFA9D
:10332300EF6480802DEA5402600C9019817401F0DF
:10333300EA6402FA8023EA5408601A1222C2EA4BB2
:10334300700B9016C11265147A0812336CEE640880
:10335300FAEFFB80047A007B00026CC3F582E4354C
:1033630009F583E0F50A780A22FB9016A4E0F91226
:103373001BB422A3A3E0F50CA3E0F50D227B009080
:1033830016A4E0F9121BA874042274F4120AFB8A2F
:10339300088B098A828B83A3A3A3124DA9124150E0
:1033A30038F583E02409FA126C5B70030234508A07
:1033B300828B837402124E1E850882850983123420
:1033C3005DE8F0A3E91268D58A828B83A3A3A3A344
:1033D300A3A3A3A3F0E5082403F8E43509123452A8
:1033E3001241503AF583E08E828B83A3A3A3A3F00B
:1033F300EE2409FAE43FFB8E828F83A3A3126001BC
:10340300F5838882E0A2E58E828F83A3A3A3A3A37F
:10341300500474018001E4F0E5082403F5828983F4
:10342300124FB1EA1255323BF583126C2212112866
:1034330012414F3B1260F38E828F83A3A3127DD17F
:10344300121109EEFAEFFB9016A4126CA88016F97C
:103453008882F583E0FAA3E0CA2212514EA3A32285
:1034630074021211097F04020E5E74F2120AFB8ABF
:10347300088B09ECFAEDFB740E121433E0FC121501
:103483001E8A0C8B0DAE0CAF0DEA4F6030AC08AD4D
:103493000912150CE96026AC08AD09EEFAEFFB1230
:1034A3001512E970148E828F831242E4FAEFFB1235
:1034B3001506AA08AB091215367900800279B40201
:1034C300509D74F0120AFB74F61211A2EAFEEBFF90
:1034D3008C088D09750FB3852182852283E4F075ED
:1034E3000E008002050E903156E493F8E50EC39862
:1034F30040030235ECAA0E7B0012155A8A0A8B0B85
:10350300EA4B60E08A828B83A3A31235F328F0F899
:10351300C3EE98EF940050CC7C157D007900AA0887
:10352300AB09121A3A850A82850B83A3A3A3A312BC
:1035330070CEE0F8EEC3982925E0F8E433F9E50A04
:1035430028F582E50B39F583A3A3A3A3A3A3124113
:103553005AA3125B768A0C8B0DAC0CAD0DAA08AB8B
:1035630009121BE4850A82850B83A3E06401700AB8
:10357300126639740112416C8044740112119A85E8
:103583000A82850B83124FAF121542E9603D74091D
:10359300121433E0C0E0126639D0E0F0740912145B
:1035A30033E064037013740112119AE508240BFAD3
:1035B300E43509FB121BE480127401121433124226
:1035C300F7E508125B5C350912708F850A82850B5B
:1035D3008312664512416CA3A3E0C0E0E5082414FE
:1035E30012663DD0E0F0750F00A90F740A026CC09B
:1035F300A3A3A3E0F8852182852283E02274F71236
:103603000AFBE9FE8A828B83A3A3A3A3A3A3E054AB
:103613000860338A828B83A3A3A3A3A3A3E05402EA
:1036230060218A828B83A3A3A3A3A3A3A3A3A3E061
:103633006406600F74E96E600A74CD6E600574F001
:103643006E70031222AA02499C74F0120AFB74EFF3
:103653001211A2740F1214331263F8740812143384
:10366300E9F0ECFEEDFF74051214331247641249BE
:1036730088A3E0F912152A74061214331263F8743E
:10368300061214331255C37003023907124194E032
:10369300FA7406121433E0F91221EA123967F8A317
:1036A300E0F9E8497003023907EE2403F50AE43F21
:1036B300F50BEE2406F508E43FF5097C0085088246
:1036C300F583124FB1850A82850B83E0F912153019
:1036D30074031214331263F8850A82850B83E0C0E6
:1036E300E0852182852283123960D0E01256D8F911
:1036F300852182852283123FFC12522A1235F6FA63
:10370300A3E0CA2407F582E43AF583E8F0A3E412C0
:1037130064032406F582E438F583E412709B124DAA
:103723009D121128EE1241503F1260F374031214DC
:1037330033124DA92409127DCB12110974291214D5
:10374300331270C81234571256EB3A12708F742B1F
:10375300121433E0C0E085218285228312558AD07A
:10376300E0F07402121433E4F07425121433780871
:103773001213C002385E74031214331260BB8882C2
:10378300F58312394FA3A3A3125B81FB121548855E
:103793000E82850F83A3EAF0A3EBF07403121433B4
:1037A300123960A312394F125D90A2E6500F850EB5
:1037B30082850F83A3A3A3A3A3E0D2E1F074051230
:1037C3001433E0706B850E82850F83A31242F7904A
:1037D30016FFE0687003A3E0697055850E82850FBC
:1037E30083A3A3A312412F750C00780C1211307818
:1037F300081211247429121433E0F50C780C1211F9
:10380300307427121433120EE790170C120EE77957
:10381300007419121433124F811223EE740A121119
:1038230009850E82850F83A3A3A3A3A3E04405F018
:103833007402121433E004FC8E828F83124FAB8E1A
:10384300828F83A3A3A3E0F91215307403121433F8
:103853001263F87402121433E004F0740312143385
:103863001255C360677402121433E0FA740612141B
:10387300331242F7C3EA98E4995051740212143395
:10388300123C39852182852283E028F8A3E039F9A7
:10389300E8240FF50EE439F50F850E82F583E4F085
:1038A300740312143312395A6401600302377974B2
:1038B300051214337401126CAEF074031214331234
:1038C3005E82123C5CE8F0A3E902379D8521828584
:1038D3002283124FB11221F0852182852283120E99
:1038E300E77426121433E0FD7425121433E0FC74DC
:1038F3000A121433E0F9EEFAEFFB1222A474021257
:10390300110980438E828F83A3A3A3E0C0E0740CCC
:10391300121433D0E0F0126B17E0C0E0740D1214F0
:1039230033D0E0F074061214331255C37009740EC9
:1039330012143374B98007740E1214337410F074B4
:10394300091211921223E87411026CC0E0850E82F1
:10395300850F83A3A3A322E01256B0E022E0125600
:10396300B0A3A322852182852283EAF0A3EB12551B
:10397300CC2274F0120AFB74E11211A27404121423
:1039830033E9F07403121433ECF07402121433EDC0
:10399300F08A0E8B0F742F121433123378AA0CFB98
:1039A3001221DE7401121433E9F0AA0CAB0D1221BB
:1039B300E47401121433E07003023C3485218285E0
:1039C3002283E480158E828F83A3A3A3A3A3E0D2D3
:1039D300E3F0852182852283E004126C06F88521B9
:1039E30082852283E0C3984003023C2B74011214A6
:1039F30033E07003023C2B852182852283123C39FC
:103A0300E50C28F8E50D39F9E8240FFEE439FF8EBB
:103A130082F583A3A3A3A3A3E0A2E040B5750800A6
:103A2300750A08750B007402121433E060037508FD
:103A3300207C087D0079007405121192121A3A8EC7
:103A4300828F83E0603E90174FE06401701AE508AF
:103A5300D2E3F508750B10123C49121433E8F0A3B6
:103A6300E9125A7474FF807643080C750A0C8E822F
:103A73008F83A3123C54127091740512143374FF94
:103A8300F0A3805A7404121433E06009E508D2E607
:103A9300F508750A0A8E828F83A3E064FE7003A380
:103AA300E0F4703074121214337404126663F87401
:103AB3001D121433E8124E1E741212119212210CAD
:103AC3007D007C0079007415121433AA82AB831233
:103AD3002B32800B123C49121433E8F0A3E9F07443
:103AE30007121433E508F012418BC0E07409121475
:103AF30033D0E0F0740A1214337401F07405121118
:103B0300921223AC7411121433E06003023C097463
:103B13000D1214331256D38E828F83A3A3A3A3F063
:103B2300740D121433124DECE50AF0A3E50BF07497
:103B330003121433E0C0E0124D7DD0E0125D9060BB
:103B43001190174FE0C0E0740D121433124DC7D01B
:103B5300E0F0740D1214331242F7850C82850D8345
:103B6300A3A3A3A3A3123C42241C1263F21270ABBF
:103B7300123C44125D4239126B36C0E0124D64D0E0
:103B8300E0126BFBC0E0740D1214331248AAD0E0AC
:103B93001268FCC0E0740D1214331248A0D0E0F098
:103BA300740D121433123C54123C42242A1263F251
:103BB300850E82850F83A3A3A3A3A3A3A3A3E012CC
:103BC30063EB12417AC0E012488CD0E0F0740D121E
:103BD3001433124FB1850E82850F83126C11242882
:103BE300F582E43B12708F124183126C221211286A
:103BF3001260ECEA1263843B127DCF121109740543
:103C03001211921223B28E828F83A3A3A3A3A3E0E4
:103C1300D2E0F07411121433E060030239C8740166
:103C2300121433E0140239D47900AA0CAB0D12221A
:103C3300B0741F026CC0E075F007A4F8A9F022A3CA
:103C4300A3124FB5E8228E828F83A31242FB740521
:103C530022E0123C5CA3A3A322F8A3E0F9850E8221
:103C6300850F83A32274F0120AFB74E81211A2E9F0
:103C7300852182852283F08A0E8B0F8A828B83A310
:103C8300A3A3A3A3A3A3A3E0F91222088A088B0981
:103C9300EA4B7003023D45E50E1255461241A3124D
:103CA300413A852182852283E06003023D487C04FA
:103CB300850E82850F83A3A3A3A3A3A3A3A3E0F9E4
:103CC30012220EEE4F607B8E828F83A3A3A3A312D7
:103CD30042F774071214331265291242F77409125A
:103CE3001433124E4EC0E07411121433D0E0126834
:103CF300DAA3A3A3A3A3A3A31242F7740F1214334B
:103D03001270917412121433E4126CB6C8241FF5A6
:103D130082E438F5831260B7C413135403FC7002B2
:103D23007C048E828F83E0F9780812112C74205959
:103D3300FD744059F974031211921222A4740212F1
:103D43001109026CBE7C08850E82850F83A3A3A391
:103D5300A3A3A3A3A3E0F912220E8B0BEA4B7003D8
:103D6300023CC6EE4F60DB852182852283E0F50CA1
:103D7300780C121130850882850983A3A3A3A3A31A
:103D8300A3A3E0F50C780C1211308A828B83A3A3D2
:103D9300A3E0FB8A82850B831278EE8A82850B83EC
:103DA300E0FA8E828F83A3A3E0F9122B0E74021222
:103DB3001109023CCA74F7120AFB74FA1211A2E940
:103DC300FE780179017F00800379000F12512DE005
:103DD300FCEFC39C5026EF75F007A4FC85F008ADFB
:103DE30008EA2CFCEB3DFD12471CE0A2E050DA543C
:103DF3000C60D6E0A2E250D3780080CF8A828B8316
:103E0300A3A3A3A3A3A3E0703DE9A2E0400574012B
:103E13006E70338A828B83A3A3A3A3A3A37401121B
:103E2300410CE0C0E07403121433D0E012477BE08E
:103E3300C0E07404121433D0E0F07405121433E8B4
:103E43001260561223E87406024999C082C083792E
:103E5300011222B0025E9274F4120AFBEA4B90192B
:103E6300816019E4F08A088B09F50AF50B780812CA
:103E730011247A02123380121109800A7401F07A34
:103E8300027B0012336D02346874F0120AFB74F380
:103E93001211A27403121433E4F0A3F09016BF12AC
:103EA300413A7401121433E4F0A3124E2304F09048
:103EB30016F9E0A2E35003023F7F12410074091296
:103EC3001433121404740912143378081213C090B3
:103ED30016C178081211727405121433780812137C
:103EE300A2124003740512143378081213635007A7
:103EF3007A017B00023FF07405121433780C12131D
:103F0300C0901921E0F509780C7908120A8CA80CE5
:103F1300A90D901922E0C398E4995003E08001E8C9
:103F2300852182852283F0740912143378081213D1
:103F3300C0C008C009C00AC00B7405121433780C42
:103F43001213C0124003780C7908120A8CE4F50AA4
:103F5300F50BD00FD00ED00DD00C780C79081212BF
:103F63004A9016C1780C1213A28011123FF51270F9
:103F730091EEFAEFFB121AE8AE08AF09EE4F606557
:103F83008E828F831235F3C398502DEE2403F8E409
:103F93003FF9E0FA88828983E0C39AF060237403CF
:103FA30012143312445D7401121433EEF0A3EF12B2
:103FB3006544FEA3E0FF80C48E828F83A3A3A3E4A2
:103FC300F08E828F83127D8874011214331255C3CD
:103FD3008E828F83A3A3A3A3609112651D12143352
:103FE300123FFC80897403121433124FB1740D0213
:103FF3006CC01242FB9016BF221260E2A3A3A3225D
:10400300901920127D90E4F50AF50B2274F0120A40
:10401300FB8A088B09890A780079009016BF124140
:104023003AFBEE4B601E088E828F83A3A3A3A312D9
:104033004F7B601008E87001098E828F831241362E
:10404300EA4F70E3901923124FB1C3E89AE99B40FA
:10405300030240F37A061240F6A80CA90DEA497050
:10406300030240F38A828B83E508F0A3E50912413A
:1040730015E50AF090192212513512410CA3E4F010
:10408300A3F09016BF124F7B600D8E828F83A3A384
:10409300A3A312709180179016BF1270919016F916
:1040A300E0A2E340091241009016C11214049016D5
:1040B300F9E0A2E3503A7A087B009016A4E0F912E3
:1040C3001BBAEA4B4C4D7028901920E0F508A3E089
:1040D30085080CF50DE4F50EF50F780C1211247A12
:1040E300087B009016A4E0F9121BAE7404121109A8
:1040F300026CC37B00121AE28A0C8B0D22121BCCBA
:10410300EAF8EBF9ECFAEDFB221241102212411509
:10411300A322F08A828B83A3A322E508F002499CA1
:10412300F08E828F83A3A3A3A3A3A322125A2DA34A
:10413300A3F022A3A3A3A3E0FEA3E0FF227F050233
:104143000E5EF582E43509F583E0F922EA12415463
:10415300222410F582E422124162A3A3A3A3221214
:1041630042FF8508828509832212417022F0850A65
:1041730082850B83A3A322E50E24111241A0E02222
:10418300E50E240E1241A022E50E24101241A0E0F8
:104193002212419822EE1241543FF58322F582E424
:1041A300350FF58322240FF50AE43509F50B780A58
:1041B30022E0F9121A648A088B09EA4B2274F2127C
:1041C3000AFB890B8A088B098A828B83124FB112EF
:1041D30022D4EA4B600479B8806A1222E0E9F890AD
:1041E3003147E493F9E8C399400479B280567A15CC
:1041F3001240F6AE0CAF0DEA4F7004791080458A79
:10420300828B83E4F0A3124115E50BF0750A007865
:10421300081211287C127D00EA2403126BCD1211BF
:10422300099016C51255C370089016C5800C12422A
:10423300F78882898312424A70F4EEF0A3EFF012FA
:1042430022F2790002509D124FB5EA4B888289838E
:1042530022C082C0839016C580048C828D8312781D
:10426300EFEC4D60288C828D83A3A3E06960057415
:10427300FF6970E68C828D83A3A3A3E06A7003A316
:10428300E06B70D6EC2403FAE43DFB80047A007BF8
:1042930000025E9274F7120AFBE9FD74FE6D70046E
:1042A3007C0180027C009016C580096D70027C0140
:1042B300888289831255C3601F88828983A3A3A33D
:1042C300E06A7003A3E06B70E7ECA2E08882898365
:1042D300A3A3E050D6F9800279FE02499CEEF9804F
:1042E3000CA3A3127D90EE2274021211097F020225
:1042F3000E5EF5831242FB221242FF22E0F8A3E096
:10430300F9221242FF8E828F83221211097F030248
:104313000E5EC082C08379009016C5800109E0FA61
:10432300A3E08A82F583E582458370F1025E92748D
:10433300F6120AFBE4F508F509780812112C9031FE
:1043430047E49375F013A4A9F01244521270EF12CC
:104353001109E9FE74096E70031222EC0242E07443
:10436300F6120AFB74FE1211A2852182852283E4D0
:10437300F0A3F0A821A92288088909780812112C32
:10438300750802750900780812112C126D6012115C
:10439300090242EB74F5120AFB74EB1211A2852198
:1043A30082852283E4F0A3F09016C580748E828FF9
:1043B30083A3A3E0C0E07402121433D0E0125A7452
:1043C300A982AA8389088A09750A00780812112824
:1043D3007C127D0074061214331270B41211097426
:1043E3000212118A88088909780812112C7508139A
:1043F300750900780812112C7404121433125566CF
:1044030075F013A4F8AAF075F013E912444E126D77
:104413006812110985218285228312445D8E828F61
:104423008312413AEE4F7085A821A9228808890991
:10443300780812112C750802750900780812112CDE
:10444300126D60121109741502430DA42AF9E824B0
:1044530002FCE439FD7A427B0022E02401F0A3E070
:104463003400F02274F4120AFB74EB1211A27E00E2
:104473007F00A821A92288088909780812112C75C0
:1044830008028E09780812112C7C007D007A4212F2
:1044930070FB121109E9706C8E08805674021211B8
:1044A3008A880A890B780A12112C750A13750B0076
:1044B300780A12112CE50875F013A4F8AAF075F028
:1044C30013E50912444E1270FD121109E9701B74B1
:1044D30003121433AA82AB837402121433E0F91269
:1044E30022CEE970050EEE70010F0508E508700293
:1044F30005098521828522831242F7C3E50898E5E1
:1045030009994098EEFAEFFB741502346574F612BC
:104513000AFB8C828D83A3A3124769F0EA12638A94
:104523003BF583E0C0E0124726D0E0F0EA241DF516
:1045330082E43B1242F512470A124764F0A3F0EA01
:10454300241FF582E43BF58312413AEC1246FD3D0C
:10455300F583EEF0A3EFF01247033BF583124734E4
:10456300A3A3A3A3A3A3EEF0A3EF125FE5FE8C82A4
:104573008D8312477374035EFEC3940340030246A4
:10458300F0EE600874026E60030246158C828D8320
:10459300E0540CFE740C6E7003024654E0A2E44037
:1045A3000D88828983E08C828D83A31247897408E6
:1045B3006E60030246541247147401F08A828B839F
:1045C300A3A3A3A3A3125A3A70148C828D83E0444D
:1045D3000C12477BA3A3124734EEF0A3EFF08C82B7
:1045E3008D83E0A2E4402B88821247421247575042
:1045F3000109F582124742A3A3A3A3A3A3F0A3EF48
:104603001247838C828D83A3A3A3F0E82403F8507D
:10461300010988828983E0C0E0EC2411F582E43D3E
:10462300F583D0E01247738C828D83E0A2E7507547
:1046330088828983E0FE8C828D8312478974FC5EB5
:10464300700C8C828D83A3E054036403701E0246B6
:10465300F0124714E4F0740C6E60030245BF8882C5
:104663001247481247575001090245E18C828D8356
:10467300A3E05403603288828983E0C0E0EC1247F0
:104683002E3DF583D0E012478A8C828D83E054035C
:104693006402701488828983E0C0E012471CD0E072
:1046A30012478A8003A3E4F0EC1255323D12708F57
:1046B300EC2410FEE43DFFEA241DF582E43BF58380
:1046C300E0F5088E828F83E0C3982508F508F0EAA9
:1046D3002417F8E43BF98882F583E0C39508C0E02A
:1046E30012470AD0E0125FE5C39508500A12470A41
:1046F300E4F0124726E4F00242F02415F582E422A6
:10470300EA240DF582E422EC240DF582E43DF583E1
:1047130022EC1256EB3DF58322EC2414F582E43DA2
:10472300F58322EC1241543DF583222413F582E4F0
:1047330022E0FEA3E0FF8C828D83A3A3A3A3221216
:104743004748A3A3228983E0F508A3E0FFE5088C8B
:10475300828D8322A3A3A3A3F0A3EFF0E82402F89E
:1047630022124769A322E4F08C828D83A3A3A322A0
:10477300124791A882A98322124110A3A3A3A322C3
:10478300124791A3E022A312479108A98322125F43
:10479300EEA32274F4120AFB74F31211A28A0A8B99
:1047A3000BECFEEDFF8C82F583E0540CF508E0A2E0
:1047B300E75006E508D2E7F508E508D2E1F5081267
:1047C3005A3A7006E508D2E4F508E0A2E55006E59A
:1047D30008D2E5F5087C087D007900AA21AB2212F6
:1047E3001A3A7402121433E508127095C0E0740388
:1047F300121433D0E0124E23E50AF0A3E50BF07454
:1048030005121433126901121433E070777408121D
:104813001433124DA9125FD73812691CC0E0740813
:104823001214331248AAD0E01268FCC0E0740812D4
:1048330014331248A0D0E0F07408121433124896CF
:10484300E0124DD1124E521263EBEE2411125A06AE
:10485300C0E012488CD0E0F0EE2414125A06C0E0F7
:104863007408121433124DA92435F582E438F58304
:10487300D0E0124DF6C0E07408121433124DADD0DF
:10488300E0126655740D023465E82432F582E4398A
:10489300F58322124305A3A3A3A3A3A322124DBD11
:1048A300126AFB38F58322124DBD2426F582E438C3
:1048B300F5832274F7120AFB7E008A828B83A3A3FB
:1048C300A3A3A3A3A3A3A3E06404600302497812F0
:1048D30056E3E060030249781255453B1255C17017
:1048E3000302497888828983E0540360030249788C
:1048F300E81256EB39F583E0FA8C828D83A3A3E0AB
:10490300FBA3E0CB2411F582E43BF583E06A7065F9
:1049130088828983A3A3A3A3A3A3A3A3A312497CEC
:10492300E06A7003A3E06B704C88828983A3A312AF
:104933004988E0FFA3E0CF2406125A066A7003A356
:10494300E06B703188828983A3A3E0F88C828D8326
:10495300A3A3E0F9A3E0F5838982A3A3E06860132E
:104963008C828D83A3A3A3E0F5838982E0540C6436
:104973000470027E01EEF9802012498022124FB9A1
:104983008C828D8322A3A3124980A3A322740C12C9
:104993001433E0F9740D1211097F01020E5E74F6EF
:1049A300120AFB74FC1211A2EAFEEBFFECFAEDFB18
:1049B3008C82F583A3E0540360169016BB1255C393
:1049C30060597900EEFCEFFD1261E2120CDD804BC1
:1049D300852182852283EEF0A3EFF0740212143353
:1049E300124E18AC21AD227A0A7B231225328A0893
:1049F3008B09A808A909EA4960218A828B83A3A3AA
:104A0300A3A3A3A3A3A3A37406F07A0088828B8332
:104A1300124DA91263ABE0F912249074040242ED23
:104A230074F2120AFB74F31211A2EAFEEBFF8A82FC
:104A3300F583A3A3A3A3A3A3A3A3A3A3E0F50A902E
:104A43001981E0700579BA024D6175080175090095
:104A5300750C00750D007C087D007900AA21AB223E
:104A6300121A3A74051214337401124E2B54046053
:104A7300127402121433E0D2E6124E2B5408700360
:104A8300750803E05410600674404508F508E054C7
:104A93000860227402121433E044C0124E2B5420D7
:104AA300600A7403121433E0D2E080087403121412
:104AB30033E0D2E1F0EE2415125A06124D91700341
:104AC300740169700674084508F5088E828F83A304
:104AD300A3A3A3A3A3A3A3E0701612258C8521820D
:104AE3008522831263F87402121433E0D2E2803019
:104AF300640F70107402121433124E337404450899
:104B0300F508807F8E828F83A3A3A3A3A3A3A3A36C
:104B1300E064028E828F83700A1270C8E8F0A3E902
:104B2300F08060A3A3A3A3A3A3A3A3E06403700DD6
:104B3300AC21AD22EEFAEFFB12234080468E828F2A
:104B430083A3A3A3A3A3A3A3A3E064017035901736
:104B53004FE060107402121433124E33750910754E
:104B63000AFF80187402121433E0440C124E2374AB
:104B7300FDF0A374FFF074044508F5088E828F835B
:104B8300123378EE2415125A06A2E0503F74021233
:104B93001433E0540C701B8E828F83124FB1121F9B
:104BA3009EE9700579BB024D617402121433E0D2A1
:104BB300E5F0EE2415125A06A2E050107402121406
:104BC30033E0540C64047004E0D2E5F0EE241112D7
:104BD3005A06C0E07404121433D0E01269031214AD
:104BE30033E06003024D5A7408121433124DECE59E
:104BF30008F0A3E509F0124D87E0C0E0124D7DD027
:104C0300E0F0124D6EE0C0E07408121433124DA9A7
:104C130012472E38F583D0E0124E52640170119082
:104C2300174FE0C0E07408121433124DC7D0E0F000
:104C33007408121433124DE7124D78FAE8241CF568
:104C430082E439F583EA124E1EEE2415FAE43FFBA3
:104C53008A82F5831278EFE8125D4239F583124EAA
:104C630018EE241C125A06C0E0124D64D0E0125E06
:104C730088124D9170037401697013740812143310
:104C83001256D3FAEE241D125A06F91222148E82FA
:104C93008F83A3A3A3A3A3A3A3A3A3E0C0E0740848
:104CA3001214331248AAD0E0F074081214331248D5
:104CB300A0E50AF074081214331255662428F5820D
:104CC300E439F583E50CF0A3E50D124DFE124DD149
:104CD300125A7F1263EBEE124D78C0E0E82433F5ED
:104CE30082E439F583D0E0F0EE241B125A06C0E0CB
:104CF3007408121433124DADD0E0F0EE241A125A98
:104D030006C0E07408121433124DA92432F582E46C
:104D130038F583D0E0124DF6124D9D121128126B17
:104D2300011278EF740B121433124DA9242F127D44
:104D3300CB121109EE2415125A0654406012901634
:104D4300DB1255C3600AAA21AB221261E2120CDD09
:104D5300AA21AB221223B2740C121433E0F90250CD
:104D630098E82420F582E439F58322EE2419F582AC
:104D7300E43FF58322126B10E022E82412F582E46B
:104D830039F58322EE2418F582E43FF5832254801B
:104D9300F8A3E05401F974806822F508A3E0F5094B
:104DA300750A00780822124DBD22124DBD2434F538
:104DB30082E438F58322A3A3A3A3124DC122E0F812
:104DC300A3E0C822124DBD1246FD38F58322FAA393
:104DD300E0FBE8242AF582E439F583EAF0A3EB2229
:104DE300A3A3A3A31242FBEE2212556A12554A391A
:104DF300F58322F0EE2413125A8722F0EE240D12CB
:104E03005A8722E0FC8A828B83E02CFCA3E03400E7
:104E1300FD8A828B83ECF0A3EDF022F0A3E4F02271
:104E2300F085218285228322F0EE2415125A8722EF
:104E3300E0D2E3F0124E3B228E828F831242FF8533
:104E43002182852283E8F0A3E9F022E8F0A3E912A6
:104E5300653EE02274F7120AFB8A828B83A3E06427
:104E63000170047E6380027E648A828B83E0600823
:104E73007905124E8B24F3FE9016F7E06007F912C2
:104E83004E8B24F2FE02497812245AE9F8EEC398B5
:104E93002274F6120AFB74FE1211A2852182852266
:104EA300831263F8E9FEECFAEDFB9005C21255C3D9
:104EB3006032A821A92288088909780812112C7D5B
:104EC30001740E121433E0FCEEF99005C21263CCA8
:104ED300120CDD7402121109EA4B6004790080069A
:104EE30079B2800279B60242EB74F7120AFBE9FE4B
:104EF3009016B11255C3601F7409121433E0F508FC
:104F03007808121130EEF99016B11263CC120CDD51
:104F13007401121109800279B602499C74F7120ACE
:104F2300FB8908ECFEEDFF79B5E508245E602014EB
:104F3300600624F86034803D9005C4124F7B6035D1
:104F430012710C120CDD8E828F831263F880249011
:104F530016B31278EFEC4D601CEEFCEFFD9016B328
:104F63001263CC120CDDE9F9800B9016AF124F815E
:104F7300121BE4790002499C124FB5EA4B221278C6
:104F8300F3EEFAEFFB2274F7120AFBE9FE79B5742C
:104F9300AB6E700B9016AF124FB1121BE479000287
:104FA300499C8E828F83A3A3A3A3A3A3A3A3124F7E
:104FB300B522124FB922E0FAA3E0FB2274F1120AE0
:104FC300FBEAFEEBFF8C0A8D0B7508019016FFE0E0
:104FD3006E7003A3E06F700C12508CAA0AAB0B1215
:104FE3001BE4805E122592EE6A7002EF6B7009AAD1
:104FF3000AAB0B122598804AAC0AAD0BEEFAEFFB15
:105003001220E8E9F508901928E07036122A42E9DF
:105013007030E508702C9016CFE06E7003A3E06F3C
:105023007020EE4F601C750CC7750D16750E007859
:105033000C1211287C087D00AA0AAB0B1270B8125F
:105043001109A9080279EB74F2120AFBEAFEEBFFDD
:105053008C088D09750A0112508CEEFAEFFB121BB6
:10506300DEE9640170119016FF1242F7850882850C
:105073000983127091800EAC08AD09EEFAEFFB12B2
:1050830020EEE9F50AA90A80111225868A0C8B0DF8
:10509300AC0CAD0D22740D1211097F06020E5E7465
:1050A300F6120AFBEAFEEBFF7A0D7B00121AE2EA24
:1050B3004B6062EE2424126D95F0EE2425126D955B
:1050C300A312515A126D9BA3A3126B2E125135F0EA
:1050D300EE12511B12514AE8F0A3E9125171125119
:1050E30042127091EE125124126BF1A3A3A3A3F009
:1050F300EE2433125A06C0E012512DD0E01269207B
:10510300125142A3A3A3E8F0A3E9125169C0E0122C
:1051130056E3D0E0F00242F0242AF582E43FF5831F
:1051230022242EF582E43FF58322EA125B5C3BF5F1
:10513300832212513922E08A828B83A3A3A32212F2
:105143006C50A3A3A3A32212514E221242FF8A82C0
:105153008B83A3A3A3A322F012515F22EE2426F58F
:1051630082E43FF58322F0EE2432125A8722F0EED6
:10517300242C125A872274F4120AFB74FE1211A211
:10518300ECFEEDFFEC2416125A0664057010EC24B5
:1051930006FCE43FFD12233AE97003025225AC21D9
:1051A300AD22126E4A121FA48521828522831255D5
:1051B300C3606B8E828F83E064017058E875F009D9
:1051C300A4F8AAF075F009E9A42AF9742628F8745A
:1051D3000439F9E8FAE9FB8882F58378081213C0E9
:1051E300EE1252C712136340278521828522831250
:1051F3004DE7125A1412522A78081213C090816A8A
:1052030078081212E68A828B8378081213A2800A26
:1052130079A28010EE240F12708B7900800679A199
:10522300800279C8023463124E48EE126B1C22745A
:10523300F2120AFB8A0C8B0DECFEEDFFEC125A14F2
:10524300E4F0A3F090820278081213C0EC1252C764
:1052530012120D6067EC240E125A0D703478B3905D
:1052630016F6E07028901728E064017020EC2411F2
:10527300125A06F91224428B09A909EE1255463F28
:105283001263F6EA4960047800800278A1880880F6
:105293002EE060046402700A12234CE9F5087007DB
:1052A300801DE064037010EEFCEFFDAA0CAB0D1241
:1052B3001FC8E9F50880087508A180037508A3A92C
:1052C3000802509D126B1C78082274F0120AFB74BA
:1052D300F51211A2EAFEEBFFEA240AFCE43F8C82FA
:1052E300F583127D8C125550740312119A8A828BA6
:1052F300831261ECE970030253B6740112119A74BC
:1053030003121192121FA474011214331255C370A5
:10531300030253B6E875F009A4F8AAF075F009E999
:10532300A42AF9742228FC740439FDE508240E121A
:10533300663DE4F0041214331242F7E508125546B1
:10534300350912708F8C828D831213F8E5082412AD
:1053530012663D12140490816A78081213C08C827D
:105363008D83780812129A8C828D83780C1213C065
:1053730090826E78081213C0780C7908120A8CE5B3
:10538300084509450A450B702A7401121433125556
:105393006675F009A4F8AAF075F009E9A42AF9746E
:1053A3002A28F582740439F5837401F07A007B08A6
:1053B3001255738E828F83A3A3A3A3A3A3A3A3A333
:1053C300A3E02406FCA3E03400FD8E828F831261E8
:1053D300EC12690E603EEE240A125538124DEC743D
:1053E30068124E1EE812553239F5837402F0901696
:1053F300E11213F88C828D831263E5125FD73CF5BB
:105403008312140490816A78081213C09016E1780D
:105413000812129A1255AE705D9016AF12555EA324
:10542300A3A3A3A3A3A3A3A3A312600D121BDEE94B
:105433007010125FCB9016AF125FDD700512690E0C
:1054430060348E828F83A3A3A3A3A3A3A3A3A3A345
:1054530012555E124FB1121FCEE960118E828F83F7
:10546300A3A3A3A3A3A312559AE4F0A3F08E828F60
:1054730083125580E4F01255AE600302552D8E82DF
:105483008F83A3A3A3A3A3A3127D889016F6E06042
:1054930003025522901728E0640160030255227528
:1054A3000A3A750B00780A12112C740212118A88B9
:1054B3000A890B780A12112C127387121109E970E9
:1054C3005BE508240E12663D74011255C8C0E0E581
:1054D30008241112663DD0E0F0E508240F12663D62
:1054E300743A124E1E9016DD1213F8E508241212B8
:1054F300663D12140490816A78081213C09016DD79
:10550300780812129A90816A78081213C09016DDF7
:10551300780812120D700812556F8003125550123D
:1055230055AE7006125ECE74A1F0740B026CC024EB
:105533000EF582E422F8E43FF9E8FCE9FD8882F500
:105543008322EA12554A22240FF582E422E5081247
:10555300554A3509F583E4F0A3F0221278F38E82DD
:105563008F832212556A221242FFE8227A007B02BD
:10557300901585E0F9121A8E228A828B83A3A3A346
:10558300A3A3A3A3A3A3A312558E22124DC1240E3A
:10559300F582E438F58322A3A3A3A31255A2221212
:1055A3004DC1240FF582E438F583228E828F83A3C5
:1055B300A3A3A3A3A3124DB9240FF582E438F58363
:1055C30012556A49221255CC22F085218285228305
:1055D300E02274F6120AFBEAFEEBFF7A237B001249
:1055E3001AE2EE240AF508E43FF5098508821263FE
:1055F300F67C237D007900121A3A85088285098397
:105603001255C37003025696EEFAEFFB122358129B
:1056130055AE60748E828F831256C964018E828F59
:1056230083A3A3A3A3A3A370071256BF740E802161
:105633001255C3701012690E700B8E828F83A3A351
:10564300E0A2E050071256B5740D80051256B574EA
:105653000512692054036401700712569D74058076
:105663000B9016F7E0C0E012569DD0E01256D8F525
:10567300838882125A33850882850983124DA912C1
:10568300638A38F583E9800E85088285098312646D
:105693006F80031263B2F00242F08E828F83A3A362
:1056A300A3A3A3A3A3A3A3A31256AF22E01263D180
:1056B300A3228E828F83A3A3A3A3A3A3124DB91204
:1056C300639038F58322A3A3A3A3A3A3A3A3A3A3B4
:1056D30012558EE0221256DC22126E5FF8A3E022EE
:1056E300EA1256EB3BF58322240CF582E42274F193
:1056F300120AFB74E41211A28A0C8B0D8C088D091B
:105703007A237B00121AE28A0A8B0BAE0AAF0BEAEA
:105713004F70030259EE126396E5082415125A1FBF
:10572300687003A3E0698E828F8370047402800221
:105733007401F0E508240DF8E43509F98882F5834E
:10574300E0FAC3E49AFA95E0FB125A1B2AFAA3E0A3
:105753003BFB8E828F83A3A3A3A3125FF48E828F5E
:1057630083A3A3F0EE2420F582E43FF583E4F0EE77
:105773002421F582E43FF583E4F0EEFAEFFB1224F3
:105783000C850882850983125A3A70098E828F83A9
:10579300A3740580069016F7125A28F0EE2417F525
:1057A3000AE43FF50B8E828F83125A33E9850A820E
:1057B300850B83F0EE2416F8E43FF9E508240EFA8E
:1057C300E43509FB88828983124E06E5082410FA22
:1057D300E43509FB850A82850B83E0FC8882898393
:1057E300E0F88A828B83E0C398C39CF8125A74F062
:1057F300EEFCEFFDAA0CAB0D122352E9F50B8E82E2
:105803008F83E064027006125FCB1259F8E50B60D8
:10581300030259E5750C00750D00901928E0640129
:105823006005E06402703F125A0A6008EE242112F8
:105833005A0D70328E828F83A3A3A31263B8125AB8
:1058430040EE2416125A06125A69FAE439FB124042
:10585300F8EA4B6011126C1A121128125A4EAA0C54
:105863001270B8121109EEFAEFFB122418E9F50BC6
:10587300901928E064016008E0640260030259D8CB
:10588300E970030259D8E50C450D70030259E58010
:1058930003850E0B125A0A600BEE2421125A0D6077
:1058A300030259DE850B0E850C08850D09750A0068
:1058B3007808121128125A4E8E828F83A3A3A3A3B2
:1058C300127DD1121109EE2420125A06600D125ACC
:1058D300137468124E1EEE24208015EE2421125AF2
:1058E300066015125A137403F0A37401F0EE242119
:1058F300F582E43FF583E4F0EEFAEFFB122418E9B6
:10590300F50B70907C137D007900740912119212CB
:105913001A3A741A1214337401125A7F64687002AB
:10592300A3E0704F8E828F8312559AE06405600363
:105933000258947C0879FF8E828F83A3A3A3A3E0EC
:10594300242A126010121AC4E970030258947C08C6
:105953007D0079FF7401121192121A3A7401121127
:105963009A7A007B0079AB122334741912143374BE
:10597300FC8015125A13E064037004A3E064017001
:1059830008741912143374FFF0E4F508F509780864
:1059930012112C740212119A7413121433AA82ABCB
:1059A300831264F5121109852182852283E0602B1D
:1059B300740912118A88088909780812112C75084C
:1059C30013750900780812112C7C007D00126D6894
:1059D3001211098006E50C450D6007AA0CAB0D12E8
:1059E3001AE8EEFAEFFB121AE88003750B10A90B05
:1059F300741C0279E8EE2406FAE43FFB121BE4224E
:105A0300EE240C125A8722EE2420125A87640122B4
:105A1300EE12554A3FF58322E508240EF582E4355C
:105A230009F583E022125A2DA322E08E828F83226E
:105A3300A3E0F912245A22E05403640122125A44C7
:105A430022E0FAE82AF8E43400F9228E828F83A355
:105A5300A3A31263BC125A44EE2416125A87125A95
:105A630069FCE439FD22FAE82AF8E439F9E8240468
:105A730022125A782212692FA3A3A322F0125A8466
:105A830022EE240FF582E43FF583E0227901021030
:105A9300B974F4120AFBEAFEEBFF8A82F583A3A32F
:105AA300A3A3A3A3A3A3124DA92424F582E438F549
:105AB30083125A3A702E8A828B831256C97025122A
:105AC3005B62E06405701D125B62A3E0F874016819
:105AD3006005740668700712557C740280051255C0
:105AE3007C7403F0EA240A1264631263CCE4F0EAE0
:105AF3002408F8E43F1234522431F582E43AF58362
:105B0300E0C0E0127103A3A3D0E0125B81CA242E8C
:105B1300F582E43AF583E0C0E0127103A3A3A3D0B6
:105B2300E01260A7C8125B5C381242F512710312CF
:105B33005B768A0A8B0BAC0AAD0B850882850983D9
