:020000040000FA
:0600000002138302083E1A
:03002B000210D1EF
:03003300020F6D4C
:0300530002076D34
:100083000207CF01010000000000F8FF07FFFF0097
:10009300000504000000030001FFFFFFFF003C20F8
:1000A3004E00000020FD000206FFFF1E007701C284
:1000B30016C816FE1C00000000000000000000002F
:1000C300000000000000000000000000000000002D
:1000D300000000000000000000000000000000FF1E
:1000E3000104010C000205178104328101040000A0
:1000F3008715000000E8030000FFFFD815881300F0
:1001030000E8030000C800C800B801A0BB0D00A0B0
:10011300BB0D00020202070401071E02051E020AAC
:100123000A010108080103B80B02803E0102FEFF29
:10013300E8030A050001FFFF020A011401E00100C0
:10014300B0423BAAB83F0000003F8C906339AA0C31
:10015300A33A00941E3C8042633DCFFE753E157268
:10016300313F0000803FF304353F8096184B000079
:1001730080BF2292D43EDD9B2A3F04000040FFFF54
:100183007F7FFFFF7FFF010080341872313F05033B
:1001930001010F0300030003000300030003000336
:1001A300000300030005000A00140028004F009E0E
:1001B3000000003F2E00000000D72D00000000FFCC
:1001C300000000FF001213B160461213CF603DE937
:1001D300687008F618F618F618F622748067F71296
:1001E30001FC090909748067F7221213CF601D12FD
:1001F30013B17005191919801A12125E701F1212A9
:1002030072C37003E66733191919400718181822C7
:1002130008080874FFF618F618F618F62212127278
:10022300601712143D702192F01214467019501782
:1002330020F014080808090909E7F61819E7F61861
:1002430019E7F61819E7F62212144660E6E8697012
:100253001F0808E62480F608E436F618547FB47FB6
:100263000CE654806007F6E418F618F622181822F4
:10027300E9C6CC08C6CD08C6CE08C6CFC0E0E8C0E4
:10028300E0EAC0E0EBC0E009E9F809E7FA09E7FBB7
:10029300E6F918E6F8C3EC98ED99EE9AEBC2E7F5A8
:1002A300F0EFC2E795F0500E600CEBCFFBEACEFA0D
:1002B300E9CDF9E8CCF8EAA2E7D2E7FAEB33FB138E
:1002C300F5F0EEA2E7D2E7FEEF33FFC5F013A2E7A6
:1002D30030E601B313C5F0C3C0E0C0F07F00C39B99
:1002E300FB605E9418600F401D14601AD0E023F980
:1002F300D0E0F80203CE8AF0E9486003D2F0E4AF1D
:10030300F0FAF9F8803BEB30E40D89F0EA6003D2B0
:10031300F0E4AFF0F9CAF8EB30E30D88F0EF6002D8
:10032300D2F0AFF0E4CAC9F8EB54076014FBC3EA98
:1003330013FAE913F9E813F8EF135002D2E0FFDBE5
:10034300EDD0E0C0E030E739C3E49FFFF5F0EC986F
:10035300FC42F0ED99FD42F0EE9AFE42F0D0E0F956
:10036300D0E0F8E5F0607AE923F9EE20E742D8021D
:100373008067C3EF33FFEC33FCED33FDEE33FE80D8
:10038300EAEC28FCED39FDEE3AFED0E023F9D0E0AB
:10039300F84002801BC3EE13FEED13FDEC13FCEFDC
:1003A300135002D2E0FF08B800067F7F74FF802E4F
:1003B300EF3350178CF020F00260100CBC000C0DD2
:1003C300BD00080EBE000408E860DFE933E813FF50
:1003D300EE2313FE4F4D4C8008E95480FFE4FEFDED
:1003E300FCEE33EF33F47004FCFD7E80D0E0FBD0F1
:1003F300E0FAD0E0F8D0E0CFC618CEC618CDC618C4
:10040300CCC6F9221213CF7004181818221213B194
:10041300700D74FFF61819F61819F61819F622E775
:10042300548066F6121446700F12143D70F014F6E1
:1004330008F608F608F680D112143D700CF608F69B
:1004430008768008E6447F80EC121275700C121255
:100453006160BFE65480F6E480BB12126170051937
:10046300191980A5E869700C763F18768018F6187C
:10047300F6E8F922E6CDC0E018ECC0E0E633CD3370
:10048300CDD313F6E719FCE7191933CC33C3947FA3
:10049300400ECD9D502408E65480F6E418F6800FF4
:1004A300F4043D14501408E6447FF6187680E418EB
:1004B300F618F6D0E0FCD0E0FD22CCD313CCFD1827
:1004C300E4C6CBC0E018E4C6CAC0E00808ED08C61D
:1004D30033E613F618E433C675F003C3CA97CA09A3
:1004E300CB97CB199C40047D08802EBD00030205E9
:1004F300B016B6FF050606081618C3CA33CACB33AF
:10050300CB33CA27CA09CB37CB193CC37D08803EFE
:10051300187D0820E75CC633C6CA33CACB33CB3356
:10052300DDF1D5F0EB30E77BCA97CA09CB974ACB0D
:10053300199C406F4B7025E620E0218066187D08EA
:10054300C3CA97CA09CB97CB199CD3C633C6CA3340
:10055300CACB33CB3350C9DDE7D5F0E1D3E4C6369C
:10056300C608C636C608C636C608C636C61818181C
:100573008031C3CA97CA09CB97CB199CB34097C69E
:1005830033C6CA33CACB33CB33DD34D5F02EC6A240
:10059300E0C640C8CA27CA09CB37194A70BECB3C4C
:1005A300B480B90808E63308E633601F181818D07A
:1005B300E0FAD0E0FBD0E0FCD0E0FD22187D08CAD1
:1005C30027CA09CB37CB193CD3808013F618E4B67E
:1005D3007F11F618B6FF0EF618C60470D208087617
:1005E3008080CAF618F618F680C5001213CF604F44
:1005F3001213B16012E7548066F612125E70111284
:10060300143D703B090909F4F618F618F618F6229A
:10061300121272701512144608080860EAE6447F45
:10062300F618768018E4F618F622121446601612AD
:10063300143D7012E4F608F608F608E65480F6094D
:10064300090918181822EAC0E0EBC0E0ECC0E0ED9D
:10065300C0E0E687F0A4FBACF008E687F0A42CFC2E
:10066300E435F0FA1809E687F0A42C4B6002740114
:10067300CA35F0FCE433FB09E687F0D2F7A42CCBB0
:1006830035F0FC1908E687F0A42BCC35F0FBE433F6
:10069300FD0819E687F0D2E7A42C4ACB35F0CD3418
:1006A30000FC09E687F0D2E7A42DCC35F0FDE43356
:1006B300FA0918E687F0D2F7A42CCD35F0CA340036
:1006C300FC08E687F0D2E7D2F7A42ACC35F07A7E8D
:1006D30020E70B0ACB33CBCD33CDCC33CC33CB3369
:1006E30050147004ED30E00ED2F1E4CD3DCDCC3C9E
:1006F300CC3B5005DA05C2F1EB547FC63308E63331
:1007030092F0FBE73309E733C39A502D2B70190C92
:100713000D4C4D70151806E608C333700D20F10A11
:10072300A2F013F6E418800B4024E4F630F00276CE
:100733008018F618F618F68024D33B14501074FF73
:10074300A2F013F6187680E418F618F6800FA2F0DC
:1007530013F618E63303F618ECF618EDF6D0E0FDC1
:10076300D0E0FCD0E0FBD0E0FA22C0E074F1120B41
:10077300CFA2AFE433F509D2AF85A708AFA1EF55F8
:1007830008FE74105E600612178875A1EF74085E88
:10079300600812178E75A1F78024EFA2E092F0E5AE
:1007A30008A2E082F05017906198E0F890060CE000
:1007B300C398A2D265D0335002E8F075A1FE752329
:1007C30000E509A2E092AF7F02020C2EC0E074F2B2
:1007D300120BCFA2AFE433FED2AF9061A4E0F87561
:1007E3009B00E59158540860087591F71217DC8057
:1007F30023E59158541060087591EF1217E28014A5
:10080300E591A2E092F0E8A2E082F05007E0C2E0B6
:10081300F01219449061A3E0F8E5E9585404600E1E
:1008230012191A75E9FB906193E0A2E640F2752371
:1008330000EEA2E092AF7F01020C2EC0E074F21230
:100843000BCFA2AFE433FED2AF9061A5E0F8E5BFD2
:10085300585404600675BFFB12195C80D1C3E49839
:10086300F8E499F91208A18026C3E49AFAE49BFB01
:10087300E920E7E91208A1E498F8E499F922C3E42E
:1008830098F8E499F91208A1E498F8E499F9C3E413
:100893009AFAE49BFB22EB20E7CFE920E7E0B900DB
:1008A30010BB0008E88AF084F8AAF022E4FBC8FA37
:1008B30022EB70227B10C833C8C933C9335007C336
:1008C3009AC3DBF280069A50012ADBEAC833F4C8E4
:1008D300C933F4C9FA2275F008E4C833C8C933C967
:1008E30033C99AC99B5004C92AC93BD5F0ECFBC84C
:1008F30033F4C8E4C9FA2212094530F03912098ADF
:10090300803412094520F01430E72B74FFFCFBFA06
:10091300747F8022E4FCFBFA7480801AB48008BCE4
:1009230000F2BB00EF800F50EBF9E4C39AFAE49BAB
:10093300FBE49CFCE499C6CC18C6CB18C6CA18C6FF
:10094300F922E4C9C608CAC608CBC6D3330308CC08
:10095300C63392F0C3947F402E94184019C9B90747
:1009630004CACBCC225025C309CA33CACB33CBCC60
:1009730033CC33D9F422F4600DC9CCC313CB13CBDE
:10098300CA13CAD9F6CC22E4FCFBFA2214FCFBFA04
:1009930022080808EAC0E0EBC0E086F0E7A4FA18F2
:1009A3000986F0E7A42AFA180986F0E7A42AFA18B8
:1009B3000986F0E7A42AFA1986F0E7A4FBE5F02AF2
:1009C300FA190886F0E7A42BFBE5F03AFA19088632
:1009D300F0E7A42BFBE5F03AFA18180986F0E7A430
:1009E300C5F02BFBE43AFA1908E7C5F0C6A426F6CE
:1009F300E5F03BFBE43AFA1886F0E7A4F6E5F008E5
:100A030026F6E43B08F6E43A08F6D0E0FBD0E0FA39
:100A130022080808E630E711121236120A2C0808D9
:100A230008C64480C618181822181818E9799EC6F3
:100A330008CAC608CBC608CCC6C370207996CACBF1
:100A4300CC7019798ECBCC70137986CC700EF9806B
:100A53002ACA33CACB33CBCC33CC331930E7F2CCED
:100A6300CBCA3350147004EA30E00DE4CA3ACACB5F
:100A73003BCBCC3CCC500209C3E913C6CC1823139F
:100A8300C6CB18C6CA18C6F922E4CFC0E0E4CEC06C
:100A9300E0E4CDC0E0E4CCC0E075F020E626F60843
:100AA300E633F608E633F608E633F6181818EC339F
:100AB300FCED33FDEE33FEEF33FFC3EC9709ED9707
:100AC30009EE9709EF97191919400FFFEC97FC09E5
:100AD300ED97FD09EE97FE191906D5F0BFECF7095E
:100AE300EDF709EEF709EFF7191919D0E0FCD0E09B
:100AF300FDD0E0FED0E0FF222521C582C0E0E52243
:100B030034FFC583C0E0E521C3958224F810AF0804
:100B13008583228582218008858322858221D2AF25
:100B2300CEF0A3E520F0A37808E608F0A3DEFAEF01
:100B3300F0A3E58124FAF8E608F0A3E608F0A3E6BB
:100B430008F0A30808E608F0A3E608F0A31581154A
:100B530081D0E0FED0E0F8158115811581E8C0E071
:100B6300EEC0E022121428B90003020BB9E4900589
:100B730001787679148002F0A3D8FCD9FA7823900F
:100B830000867A01BA00028007E493A3F608DAF933
:100B93007A767B18900087784279028015E493A3D4
:100BA300AD82AE838A828B83F0A3AA82AB838D82CC
:100BB3008E83D8E9D9E77582567583E974041210D8
:100BC300B375824475832B74001210B3C0D02521F2
:100BD300C582C0E0E52234FFC583C0E0E521C395AB
:100BE3008224F310AF0885832285822180088583C0
:100BF30022858221D2AFC8F0A3E9F0A3EAF0A3EBE8
:100C0300F0A37908E709F0A3D8FAECF0A3EDF0A379
:100C1300EEF0A3EFF0A3D0E0F0A3D0E0F0A3D0E098
:100C2300F0A3E520F0A3E5F0F0A32285228385213C
:100C330082E0C0E0A3E0F9A3E0FAA3E0FBA3780815
:100C4300E0F608A3DFFAE0FCA3E0FDA3E0FEA3E0E7
:100C5300FFA3E0C0E0A3E0C0E0A3E0F5D0A3E0F58C
:100C630020A3E0A3F5F010AF0885832285822180BD
:100C730008858322858221D2AFD082D083D0E0F849
:100C8300D0E032121239181818120A8C12133219C2
:100C9300191922121332191919080808E618181815
:100CA30020E7E0120A8C12123918181822090909D0
:100CB300E719191920E7DC080808E618181820E7CF
:100CC30003020A8C121239181818120A8C121239DC
:100CD30018181812133219191922E4730575F01034
:100CE3008E248F25858229858328852182852283E9
:100CF300E0CEA3E0CF852982852883EBC9EAC8ED3E
:100D0300CBECCAC3E833C8E933C9EA33CAEB33CB04
:100D1300C3EA9EF527EB9FF526B35004AB26AA271B
:100D2300EC33CCED33CDD5F0DAAE24AF252212135C
:100D3300CF601C1213B16017121446700712143DD2
:100D43007001D322C0D012143D7006D0D0B322C399
:100D53002233D0D0501430E0F6C3E7960809E79663
:100D63000809E7960809E796B32220E0D5E6970835
:100D730009E6970809E6970809E697B322D083D0D6
:100D830082ECC0E0EDC0E0E493A3FCE493A3FDEDAB
:100D93004C600D120EA4EC24FFFCED34FFFD80EF3C
:100DA300E493A3FCE493A3FDED4C600D120F98ECC8
:100DB30024FFFCED34FFFD80EFD0E0FDD0E0FCE448
:100DC30093A3C0E0E493C0E0221213CF601B12137D
:100DD300B16016121446700712143D600CB322C0A2
:100DE300D012143D7005D0D022C32233D0D050137B
:100DF30030E0EBC3E7960809E7960809E796080988
:100E0300E7962220E0E4E6970809E6970809E697C3
:100E13000809E69722D083D082E9C0E0E493A3C314
:100E230086F0C5F095F0F908E493A386F0C5F09534
:100E3300F0700BE493A3C3994005E9048002A3E493
:100E430075F002A42582F582E5F03583F583D0E0C1
:100E5300F9E493A3C0E0E493C0E0228522838521D3
:100E630082E0A3FEE0A3F5207808E0A3F608DFFA0A
:100E7300E0A3FFE0A3C0E0E0A3C0E0E0A3C0E0E0A4
:100E8300A3C0E0E0A3C0E010AF08858221858322E0
:100E93008008858221858322D2AFD083D08202103D
:100EA300B9C0E0C3E49396087401939618400FE425
:100EB3009366700808740193661870007019A3A3F1
:100EC300C3E49396087401939618A3A3400DD0E04E
:100ED300D0E0D0E0020DBCA3A3A3A3A3A3D0E02240
:100EE3007404800474028000CCC0E0EDC0E0E5210E
:100EF300C39CCCAD2250011D10AF068C218D2280E6
:100F0300068C218D22D2AF121035D0E0FDD0E0FC4B
:100F13002274028000CCC0E0EDC0E0E521C39CCC8C
:100F2300AD2250011D10AF068C218D2280068C212D
:100F33008D22D2AF121013D0E0FDD0E0FC221213A9
:100F4300CF60251213B16020121446700302143DC2
:100F5300080808E76670101819E766700A1819E799
:100F63006670041819E76622F422C0E074F2120BCB
:100F7300CFA2AFE433FED2AFE58BA2E050057904F4
:100F83001216E0758B00C2E8752300EEA2E092AF63
:100F93007F01020C2EC0E0C0F088F0E49366700875
:100FA3000874019366187000A8F0A3A3700BD0F027
:100FB300D0E0D0E0D0E0020DBCA3A3D0F0D0E0227B
:100FC300D083D082CCC0E0E493A360061210561401
:100FD30070FAE493A360061211B81470FAD0E0FC1F
:100FE300E493A3C0E0E493C0E022C008C3E096F515
:100FF3000808A3E096420808A3E096420808A3E085
:10100300964208A2D265D033E5087001D3D00822F6
:10101300CAC0E0E493A3C582CCC582C583CDC58392
:10102300F0A3C582CCC582C583CDC583DAE5D0E004
:10103300CA22CAC0E0E0A3C582CCC582C583CDC5A0
:1010430083F0A3C582CCC582C583CDC583DAE6D040
:10105300E0CA22C0E0E493A3D39C5010E493A3C35B
:101063009C400AD0E0D0E0D0E0020FE0A3A3A3D0DD
:10107300E0227009080808226016181818C6C3333E
:10108300C608C633C608C633C608C633C6D5E0EAA3
:1010930022C008C3E096F50808A3E096420808A317
:1010A300E096420808A3E09645087001D3D00822D1
:1010B300C09FF59FE473D09F22D083D082C09FE46A
:1010C30093C0E0740193C0E0740293F59F22C0E0E3
:1010D300C0D0E8C0E0A8A8D2AFC2C7752300E8A279
:1010E300E792AFD0E0F8D0D0D0E0322521F58210DE
:1010F300AF08F521400C15228008F5214002152286
:10110300D2AF8522832200C0D0252110AF08F5215C
:10111300500C05228008F52150020522D2AFD0D011
:10112300227404800A74038006740280027401C06E
:10113300E0F4041210EED0E01213EB22BB0102E73D
:1011430022C082C08389828A83BB0003E08002E4D9
:1011530093D083D082226016080808C6C313C6182A
:10116300C613C618C613C618C613C6D5E0EA22C3EB
:10117300E0C696F608A3E0C696F608A3E0C696F680
:1011830008A3E0C696F6222521F8E43522F92225A4
:1011930021FAE43522FB222521FCE43522FD222518
:1011A3002110AF08F521400C15228008F5214002DB
:1011B3001522D2AF22C0E0E493A36C7009D0E0D033
:1011C300E0D0E0020FE0A3A3D0E022C3E796080932
:1011D300E7960809E7960809E796A2D265D0332275
:1011E300C3E09608A3E09608A3E09608A3E096A2BE
:1011F300D265D03322E76670100809E766700A08E3
:1012030009E76670040809E76622E066701008A320
:10121300E066700A08A3E066700408A3E06622C3D0
:10122300E096F008A3E096F008A3E096F008A3E0A8
:1012330096F022181818E4C396F608E496F608E424
:1012430096F608E496F622C3E697F60809E697F6BB
:101253000809E697F60809E697F622181818E6082B
:1012630046087009E626087005E633F422082219B9
:101273001919E70947097009E727097005E733F4E6
:10128300220922C3E4939608740193960874029387
:1012930096087403939622E026F008A3E036F0083C
:1012A300A3E036F008A3E036F022700422600D18A4
:1012B300C6C333C608C633C6D5E0F41822E657F6CC
:1012C3000809E657F60809E657F60809E657F6222D
:1012D300E627F60809E637F60809E637F60809E6C9
:1012E30037F622E026F608A3E036F608A3E036F642
:1012F30008A3E036F622E056F608A3E056F608A364
:10130300E056F608A3E056F622E647F60809E64754
:10131300F60809E647F60809E647F622E056F0081C
:10132300A3E056F008A3E056F008A3E056F022E449
:10133300C397F709E497F709E497F709E497F722C6
:10134300600D08C6A2E713C618C613C6D5E0F3227C
:10135300C6F4C608C6F4C608C6F4C608C6F4C62250
:10136300C3E09608A3E09608A3E09608A3E09622BC
:10137300C3E7960809E7960809E7960809E796225E
:1013830075D00075813F75210175220500020B6739
:10139300600C08C6C313C618C613C6D5E0F422E60C
:1013A300F008A3E6F008A3E6F008A3E6F022E709B5
:1013B3004709C3134709336002E733F422E0F60811
:1013C300A3E0F608A3E0F608A3E0F622E608460841
:1013D300C3134608336002E633F422800100E9F8C0
:1013E30074FF28F90470F622CAC0E0E6F0A308DA15
:1013F300FAD0E0FA22E0F8A3E0F9A3E0FAA3E0FBD5
:1014030022E8F0A3E9F0A3EAF0A3EBF022EAF0A3C9
:10141300EBF0A3ECF0A3EDF022E0FAA3E0FBA3E0F2
:10142300FCA3E0FD22E5C754F84401F5C779012286
:101433002521F582E43522F58322E7271947194749
:10144300194722E62618461846184622C2AF75D613
:101453009F020000221210BC30D1021210BC74D1C2
:10146300021210BC0ED2021210BC7ED2021210BCA9
:10147300ADD2021210BCB3D3021210BCDDD30212E0
:1014830010BC31D4021210BC05D5021210BC33D7E4
:10149300021210BCE1D7021210BC4EDA021210BCC9
:1014A300D3DA021210BCD6DD021210BC0AE002121B
:1014B30010BC46E0021210BC9FE1021210BCB2E164
:1014C300021210BCEFE1021210BCB8E3021210BC0E
:1014D30044EB041210BC78EB041210BCC6EB0412EC
:1014E30010BC68EC041210BC17EB031210BC93EB96
:1014F300031210BCC6EB031210BCF4EB031210BCB6
:1015030032EC031210BC6FEE031210BC8EEE03120A
:1015130010BCD3EE031210BC69EF031210BCB5EF7D
:10152300031210BC49F0031210BC22F1031210BCC9
:101533007EF1031210BCDCF1031210BC4FF2031254
:1015430010BC93F2031210BCEBF2031210BC0DF3A8
:10155300031210BC9DF3031210BC2EF4031210BC33
:101563007AF4031210BCA6F4031210BCE7F40312BE
:1015730010BC7DF6031210BC69F7031210BC44F8CB
:10158300031210BC67EC011210BCFBEC011210BC7F
:1015930063ED011210BC88EE011210BC12EF0112B0
:1015A30010BC9DEF011210BCD9EF011210BC72F0F8
:1015B300011210BC07F1011210BCDAF1011210BCC8
:1015C300BCF3011210BC70F4011210BC66F50112D9
:1015D30010BC05F6011210BC5AF6011210BCC8F675
:1015E300011210BCD4F9011210BCFEFB011210BC95
:1015F300FFFC011210BC3DFE011210BC48FE01129B
:1016030010BC22DC041210BC50DC041210BC6BDCD6
:10161300041210BC90DC041210BC31DD041210BCA7
:101623004CDD041210BC0ADE041210BC34DE0412BA
:1016330010BC17E3041210BCD3E3041210BCB8E4CB
:10164300041210BC21F4041210BC32F4041210BCB6
:10165300D0F4041210BCDBF4041210BCF5F4041231
:1016630010BCF07F001210BCC8F9041210BCE6F5E0
:10167300041210BCF6F5041210BC08F6041210BCD8
:10168300BAF6041210BC2EF1041210BCB2F104120B
:1016930010BC1AF2041210BCAFD9041210BCCDD97D
:1016A300041210BC02DA041210BC27DA041210BCB4
:1016B3004ADA041210BC85DA041210BCB2DA04123E
:1016C30010BCF9DA041210BC98DB041210BC33F31B
:1016D300041210BC80F3041210BC89F3041210BC72
:1016E300B0F3041210BCF8F3041210BC0FF404128C
:1016F30010BCE77F001210BCEA7F001210BCF87F19
:10170300001210BC49E7041210BC81E7041210BC9C
:10171300CFE8041210BC53E9041210BC20B0041229
:1017230010BC4CB0041210BCB6B2041210BCF6B21A
:10173300041210BC32B3041210BC46B3041210BC22
:101743005FB3041210BC51B4041210BC04B50412EC
:1017530010BC18B5041210BC1A7E001210BC3E7ED9
:10176300001210BC577E001210BC957E001210BCF4
:10177300C57E001210BCF27E001210BCFC7E00126B
:1017830010BC627F001210BC657F001210BC6F7F1B
:10179300001210BC7C7F001210BC36FD021210BC7C
:1017A30056FD021210BC95FD021210BCB3FD0212CD
:1017B30010BCCEFD021210BC34FE021210BC40FE5F
:1017C300021210BC9DFE021210BCACFE021210BC31
:1017D300D0FE021210BC91FF021210BC9EFF021237
:1017E30010BCAFFF021210BC03F8041210BC4BF87C
:1017F300041210BC77F8041210BC6EB5041210BCAE
:10180300C2B6041210BCD0B6041210BCE3B6041264
:1018130010BCF8B6041210BC0DB7041210BC20B7EC
:10182300041210BC9CB7041210BC01B8041210BC03
:1018330089B8041210BC01B9041210BCDAB904123D
:1018430010BCEAB9041210BCF9B9041210BC6AF74F
:10185300041210BC8EF7041210BCB6F7041210BCAD
:10186300DEF7041210BC84DE041210BCABDE0412DB
:1018730010BCC9DE041210BC38DF041210BCE0D067
:10188300041210BCF9D0041210BC05D1041210BC10
:1018930019D1041210BC37D1041210BC41D1041267
:1018A30010BC4BD1041210BC5ED1041210BCE8D1A1
:1018B300041210BC5DD2041210BC91D2041210BCED
:1018C300DFD2041210BC2CD3041210BC47D3041271
:1018D30010BC51D3041210BC77D3041210BCDCD358
:1018E300041210BC04F5041210BC26F5041210BC3B
:1018F300BCF5041210BCDDFF021210BC01960412E9
:1019030010BC2D96041210BC4A96041210BC5D96AE
:10191300041210BC7896041210BCD296041210BCA8
:101923000097041210BC149B041210BC729C041286
:1019330010BCA49C041210BC079D041210BC8C9E06
:10194300041210BCB49E041210BCC99E041210BC35
:10195300D99E041210BC199F041210BC5B9F041281
:1019630010BC6B9F041210BCDAED041210BCF4ED32
:10197300041210BC1CEE041210BC35EE041210BC91
:1019830059EE041210BC77EE041210BC8EEE041252
:1019930010BCBCEE041210BCD7EE041210BC4CFFFA
:1019A300031210BC90FF031210BCECC6041210BC4F
:1019B300FCC6041210BC01C8041210BC33C80412C4
:1019C30010BC63C8041210BC86C8041210BC9DC8A6
:1019D300041210BCD7C8041210BC3CC9041210BCBA
:1019E3007EC9041210BCC5C9041210BCF2C904128A
:1019F30010BC1DCA041210BC87FE011210BC99FE54
:101A0300011210BCADFF011210BCB0FF011210BCDB
:101A130028F0041210BC5EF0041210BC76F004121D
:101A230010BCB8F0041210BCC8F0041210BC0CF1C6
:101A3300041210BC16F1041210BC29A9041210BC24
:101A43006CA9041210BCD1A9041210BCF0A9041291
:101A530010BC92AA041210BC9BAA041210BCECAADC
:101A6300041210BC15AB041210BC22AB041210BC40
:101A730094AB041210BC22AC041210BC67AC041269
:101A830010BCA0AC041210BC05AD041210BC2EADEA
:101A9300041210BCA5AD041210BCF4AD041210BCAA
:101AA30031AE041210BC66AE041210BC78AE041240
:101AB30010BC8AAE041210BCA9AE041210BCB2AEA4
:101AC300041210BC73AF041210BCB6AF041210BCE6
:101AD300F4AF041210BC47F9041210BC9AEC0412C0
:101AE30010BCD9E0041210BC0FE1041210BC57E182
:101AF300041210BCB0E2041210BC93C6031210BC53
:101B0300B9C7031210BCF5C7031210BCB3C9031243
:101B130010BCE1C9031210BC4BCC031210BC8BCC1C
:101B2300031210BC2DCE031210BCC3CE031210BC83
:101B33001DCF031210BCADCF031210BCF1CF0312A3
:101B430010BC33D0031210BC98D1031210BC18D3AD
:101B5300031210BC59D5031210BC87D5031210BC55
:101B6300B3D5031210BCBCD5031210BC19D6031293
:101B730010BCB2D6031210BCC9D9031210BC4FDA81
:101B8300031210BCC0F6041210BCD8F6041210BC29
:101B9300E2F6041210BC38F7041210BCA4BE0412FF
:101BA30010BCBABE041210BC5BBF041210BC9ABFB7
:101BB300041210BCB7BF041210BCE8BF041210BC5F
:101BC30035C0041210BC69C0041210BCA4C00412B6
:101BD30010BCA1C2041210BC07C3041210BC33F220
:101BE300041210BC92F2041210BCD0F2041210BC06
:101BF30011F3041210BCEFF8041210BCB9A50212C1
:101C030010BCC5A5021210BC27A6021210BC31A637
:101C1300021210BCBEA6021210BCFAA6021210BC1D
:101C2300F6A7021210BC54A8021210BCF4A80212A8
:101C330010BC74A9021210BC43AB021210BC85ADD8
:101C4300021210BCCCAE021210BC09B1021210BCBD
:101C530071B2021210BC1DB3021210BC0CB80212F6
:101C630010BC02B9021210BC9AB9021210BCBFB95F
:101C7300021210BC57BA021210BC75BA021210BC81
:101C8300ECBA021210BC0BBB021210BC38BB02121E
:101C930010BCD0BC021210BCF1BC021210BC97BD28
:101CA300021210BCDEBD021210BC52BE021210BCE6
:101CB300E0BE021210BC3DBF021210BCB6BF02123E
:101CC30010BC38C1021210BC9CC3021210BC25C444
:101CD300021210BC53C4021210BC1EF9031210BC32
:101CE300AFF9031210BC12FB031210BC36FB031234
:101CF30010BC3BFB031210BC1BFD031210BC3DFDCB
:101D0300031210BC5FFD031210BCA5FE031210BC2E
:101D130075CA041210BC34CB041210BC9ACB041243
:101D230010BC49CC041210BC62B1031210BC91B1B7
:101D3300031210BC09B2031210BC18B3031210BC77
:101D430074B3031210BCE1B4031210BCFDB403124C
:101D530010BC4FB5031210BC92B5031210BCA5B54D
:101D6300031210BCFDB5031210BCBFB6031210BCA6
:101D73003BB7031210BC72B7031210BCAAB703120D
:101D830010BC3CB9031210BC1BBA031210BC69BBD4
:101D9300031210BC4CBC031210BCD8BC031210BC01
:101DA30018BD031210BC37BD031210BC82BD031251
:101DB30010BCA2BD031210BC3BBE031210BCC1BEBB
:101DC300031210BC1CBF031210BC5CBF031210BC77
:101DD300F2C1031210BC0BC3031210BC51C3031294
:101DE30010BC46C4031210BC6EC4031210BC71C4F1
:101DF300031210BC7BC4031210BC97C4031210BCA3
:101E030011C5031210BC4AC5031210BC76C50312D8
:101E130010BC9DC5031210BCC1C5031210BC32C651
:101E2300031210BC45C6031210BC74C6031210BCC7
:101E33007AF8041210BC86F8041210BCBAF8041223
:101E430010BCED7F001210BC339B031210BC569BD9
:101E5300031210BCA39C031210BCEC9C031210BC15
:101E6300589D031210BCB69D031210BCB99D0312FA
:101E730010BC0A9E031210BC7F9E031210BC049F69
:101E8300031210BC079F031210BC889F031210BCDF
:101E9300C99F031210BCB5A3031210BC5FA50312A4
:101EA30010BCAFA5031210BC36A9031210BC69AA5B
:101EB300031210BCE3AB031210BC80AC031210BCC2
:101EC3006BAD031210BCC0AF031210BCAEDA031229
:101ED30010BC58DB031210BCAFA8041210BCDEDB2D
:101EE300031210BC63DC031210BCBDDC031210BC74
:101EF30004DD031210BC6BDD031210BCEADE031217
:101F030010BC19E0031210BCA1E0031210BCAAE23A
:101F1300031210BC57E3031210BCFBE3031210BC03
:101F2300CCE4031210BC87E6031210BC1FE80312B3
:101F330010BCB2E8031210BCD8E9031210BC008035
:101F4300031210BC6380031210BCAB80031210BCDD
:101F5300EF80031210BC4A81031210BCA781031245
:101F630010BCE281031210BC6482031210BCBE8257
:101F7300031210BC3C84031210BCBC84031210BCBB
:101F83001785031210BCDFD0021210BC5285031256
:101F930010BC0ACF021210BC2888031210BC478859
:101FA300031210BC3789031210BC6A8A031210BCD7
:101FB300E98A031210BC258B031210BC948B031205
:101FC30010BC498C031210BC218E031210BC288F45
:101FD300031210BCA090031210BC9692031210BC03
:101FE3000C95031210BCE696031210BCA7970312BC
:101FF30010BC1F98031210BC3698031210BC2D9905
:10200300031210BC219A031210BC909A031210BC45
:10201300E7D3041210BC3ED5041210BCFDD5041244
:1020230010BC65D6041210BCBBCD041210BCD6CDB7
:10203300041210BC1ACE041210BC40CE041210BC01
:1020430067CE041210BC7FCE041210BC21CF041241
:1020530010BC36CF041210BC59D0041210BC62D08D
:10206300041210BC6BD0041210BC74D0041210BC48
:102073007ED0041210BC2ABA041210BC36BE04125D
:1020830010BC3BBE041210BC3DBE041210BCD1E90F
:10209300041210BCDDFF011210BCD9D6041210BC0F
:1020A3000AEF041210BC867F001210BC3AE504123A
:1020B30010BC9CF9041210BC14C3041210BC0080A1
:1020C300021210BC3380021210BC9F80021210BC9B
:1020D3003A81021210BCD781021210BC1C82021278
:1020E30010BC3E82021210BC5782021210BC7D82C9
:1020F300021210BC9F82021210BCDD82021210BCBD
:102103002183021210BC4383021210BCA583021266
:1021130010BC6C84021210BC2385021210BC95857E
:10212300021210BC6086021210BCB386021210BCED
:102133001987021210BC5387021210BCA587021222
:1021430010BC1388021210BC7E88021210BC818856
:10215300021210BC0289021210BC9989021210BC2F
:10216300198A021210BC388A021210BC9C8B02120C
:1021730010BCA98B021210BCB58C021210BCC28C0D
:10218300021210BCCB8C021210BCA38E021210BC24
:10219300BD8F021210BC3690021210BCA89002121E
:1021A30010BCCA90021210BC5E91021210BC329392
:1021B300021210BC0997021210BC1D97021210BC28
:1021C3002D97021210BC3797021210BC40970212CF
:1021D30010BC4997021210BC5397021210BC80978F
:1021E300021210BCA997021210BCB497021210BCC1
:1021F300D897021210BCFC97021210BC6698021208
:1022030010BCAC98021210BCC998021210BC4699BB
:10221300021210BC7D99021210BCBC99021210BCB0
:10222300099A021210BC8F9A021210BC5D9C021212
:1022330010BCE09C021210BCC49D021210BC2BA067
:10224300021210BC84A0021210BCCEA0021210BC59
:1022530029A2021210BC5EA2021210BCB0A202128A
:1022630010BC65A3021210BC14A4021210BC51A42A
:10227300021210BCE6A4021210BC52A5021210BC3A
:102283005D31001210BC8F31001210BCBD31001241
:1022930010BC9333001210BC7334001210BCCB3447
:1022A300001210BC0636001210BC5236001210BCCD
:1022B3007B39001210BC6E3C001210BCBE3D0012F4
:1022C30010BC543E001210BC603E001210BC923E83
:1022D300001210BC1540001210BCC641001210BC05
:1022E3005A42001210BC9D42001210BC1B43001244
:1022F30010BC3843001210BC6843001210BC9D434D
:10230300001210BC6D44001210BC1645001210BC24
:102313009C47001210BCBC48001210BCA749001215
:1023230010BC294A001210BC5D4E001210BC9A4E1C
:10233300001210BCF24E001210BC254F001210BC4C
:102343008F4F001210BCC54F001210BC505000122A
:1023530010BCA850001210BC7F51001210BC3852A0
:10236300001210BCD352001210BCDB55001210BC7B
:10237300F756001210BC9A5A001210BC8E5B001262
:1023830010BC915B001210BCC05B001210BCC65D98
:10239300001210BC9F5E001210BCE25E001210BC63
:1023A3003860001210BC7760001210BC006100128C
:1023B30010BC3461001210BCF961001210BC11642E
:1023C300001210BC8264001210BCC264001210BC64
:1023D3005065001210BC7266001210BC3467001204
:1023E30010BC3B69001210BC5369001210BC676932
:1023F300001210BC9F69001210BCCD69001210BC02
:102403004C6B001210BC716C001210BCCE6C00122D
:1024130010BC806D001210BCA76D001210BC6E6E54
:10242300001210BC066F001210BC2C71001210BCFD
:102433006171001210BCC471001210BCF37200125F
:1024430010BC9B73001210BCCC73001210BCE4735D
:10245300001210BC7374001210BC2777001210BC5A
:10246300FF78001210BC1B79001210BC37790012E0
:1024730010BC057A001210BCF87D001210BC8582D6
:10248300011210BCB782011210BCA686011210BC47
:10249300F286011210BC3887011210BCDA870112D0
:1024A30010BC3688011210BC7B88011210BCC28993
:1024B300011210BCD68A011210BCC58E011210BCC9
:1024C300498F011210BC5690011210BCB290011238
:1024D30010BCA292011210BC1793011210BC2193DD
:1024E300011210BC2E93011210BC5993011210BC9F
:1024F3004094011210BCEA94011210BC68950112B9
:1025030010BC8895011210BCB195011210BCD39573
:10251300011210BC3398011210BCF998011210BCBF
:102523003E99011210BCBB99011210BC6C9A0112A6
:1025330010BC9E9A011210BCE49A011210BC209B9D
:10254300011210BC709B011210BCC49B011210BC81
:102553001A9C011210BC669C011210BCD39C011280
:1025630010BC4E9D011210BC199F011210BC19A082
:10257300011210BC3EA1011210BC7DA4011210BCBB
:1025830090A7011210BC4DA8011210BC91A8011212
:1025930010BC41AA011210BC55AA011210BC5FAABB
:1025A300011210BC69AA011210BC75AA011210BC59
:1025B30091AA011210BC3CAB011210BC7BAB0112FF
:1025C30010BC85AB011210BC8FAB011210BCFFAB6A
:1025D300011210BC4AAC011210BC5FAD011210BC59
:1025E300BBAD011210BC3CAE011210BCFBAE01121C
:1025F30010BC04B0011210BC38B1011210BC26B2D9
:10260300011210BC3EB2011210BC99B2011210BCEF
:10261300B7B2011210BCFFB2011210BC26B30112F3
:1026230010BCC1B3011210BC87B4011210BC19B5A0
:10263300011210BC93B5011210BCADB6011210BC4F
:102643005AB7011210BC82B8011210BCD2B80112E1
:1026530010BC36B9011210BC98B9011210BCC6B92E
:10266300011210BCEAB9011210BC1FBA011210BC4E
:1026730050BA011210BC83BA011210BCA3BA0112E2
:1026830010BC0BBB011210BCFFBB011210BC5ABC27
:10269300011210BC83BC011210BC0BBD011210BC93
:1026A3008EBD011210BCB9BD011210BC9EBE011239
:1026B30010BC0080041210BC3880041210BC598076
:1026C300041210BC9B80041210BCFD80041210BCC9
:1026D3000781041210BC1781041210BC528104122A
:1026E30010BC3285041210BC1F87041210BC05896C
:1026F300041210BC9C89041210BC3E8A041210BC44
:10270300A0C0011210BC1EC1011210BC7AC101127B
:1027130010BCC5C1011210BCE0C1011210BC0BC238
:10272300011210BC28C2011210BC34C2011210BC29
:10273300CBC3011210BCE4C3011210BC69C4011263
:1027430010BC7CC4011210BC9BC4011210BC3FC559
:10275300011210BCC0C6011210BC73C8011210BC18
:1027630009C9011210BC0CC9011210BC7CC90112A9
:1027730010BC9AC9011210BC31CA011210BC79CA2B
:10278300011210BC7CCA011210BC42CB011210BC56
:10279300AFCB011210BCD5CB011210BC60CC01121F
:1027A30010BC7ECC011210BCC4CC011210BC78CD7D
:1027B300011210BCC2CD011210BCF1CD011210BC2C
:1027C3004ECE011210BC83CE011210BCAFCE01124B
:1027D30010BCBDCE011210BC0ACF011210BC7ACFBF
:1027E300011210BCC3CF011210BC0FD0011210BCD8
:1027F3003BD0011210BC46D0011210BC64D00112B0
:1028030010BC4FD1011210BC59D1011210BC94D18C
:10281300011210BCA4D1011210BCADD1011210BC25
:1028230001D2011210BC15D2011210BC44D3011203
:1028330010BC5BD3011210BC70D3011210BCFED3C9
:10284300011210BC43D4011210BCCFD4011210BC2E
:10285300DAD4011210BC1CD6011210BC37D60112F7
:1028630010BC83D6011210BCF2D6011210BC2BD7B8
:10287300011210BC45D7011210BC87D7011210BC3E
:1028830057DA011210BC04DB011210BC71DB011218
:1028930010BCB1DD011210BCC9DD011210BCCCDDCE
:1028A300011210BCD8DD011210BCECDD011210BC0A
:1028B300F4DD011210BC27DE011210BC29DF011266
:1028C30010BCB0DF011210BC20E0011210BCA2E06A
:1028D300011210BC63E1011210BC82E1011210BCB1
:1028E30023E2011210BC80E2011210BC83E2011248
:1028F30010BCB0E2011210BCC5E2011210BC39E3F6
:10290300011210BC88E4011210BC8EE5011210BC48
:1029130019E6011210BC34E7011210BCFCE70112E6
:1029230010BC2DE8011210BC50E8011210BC59E88C
:10293300011210BC88E8011210BC18E9011210BC86
:10294300CEE9011210BC43EA011210BCEAEA0112FB
:1029530010BC5FEB011210BC96EB011210BCD4EB60
:10296300011210BC0AEC011210BC58A8041210BCCE
:10297300C6A6041210BC18A6041210BC0EA604129C
:1029830010BCA7A5041210BC93A5041210BCF0A49C
:10299300041210BCF0A3041210BC09A3041210BC4F
:1029A300F9A0041210BC07A0041210BCA59F0412C6
:1029B30010BC2ED0021210BC9ACF021210BC18FD0C
:1029C300021210BC0EFD021210BC5ECE021210BC2D
:1029D300F7CB021210BCA3FC021210BCD7FA0212EE
:1029E30010BC95FA021210BC99F9021210BC6DF9D1
:1029F300021210BC24F9021210BC65F8021210BCBA
:102A030065F5021210BC37F3021210BC04F3021274
:102A130010BCABF2021210BC3EF2021210BCFDF16C
:102A2300021210BC36F1021210BCD0F0021210BC1C
:102A33006FF0021210BC0FF0021210BCE6EE02128D
:102A430010BC7AEE021210BCD2ED021210BCCDED16
:102A5300021210BCC1ED021210BCF4E9021210BC48
:102A6300CEE9021210BCAEC8021210BC02C8021298
:102A730010BC70C7021210BC2AC7021210BCF5C6E4
:102A8300021210BCC2C6021210BCADC6021210BCA8
:102A93006CE9021210BC0DE9021210BCCEE802125E
:102AA30010BCBBE8021210BC82C6021210BCB0E814
:102AB300021210BC7FE8021210BC6CE6021210BCBA
:102AC300DFE5021210BC3185031210BC9BE5021234
:102AD30010BC3ACF021210BC6FE5021210BC9B95DA
:102AE300041210BC6E95041210BC3B95041210BC6A
:102AF3001395041210BCB494041210BC94940412E1
:102B030010BC5F94041210BC0B91041210BCF38E22
:102B1300041210BCDD8C041210BC5D8C041210BCBA
:102B2300098C041210BCBD8B041210BCAC850312BB
:102B330010BCE3A8041210BC158B041210BCC3DB39
:102B43000300000080FB8F0001002C1987000100A7
:102B53002A1935000400F31825000200F71826008F
:102B63000200F91827000200FB18280001000519CC
:102B73002900010006198400040064168600010080
:102B830084182A00010007192B00010008192C00E2
:102B930001000C192D00080070162E0001000D19FC
:102BA3002F0001000E19300001000F193100010040
:102BB3001019320001007816330001007916340031
:102BC30001001119360001007A16380001001219AC
:102BD300390001000B19830002002819630001006A
:102BE3008616640001000919650001000A196D00C9
:102BF3000100871671000800681666000100271996
:102C0300430001001819440002001919450001008E
:102C13001B19460002001C19470008007E164800D5
:102C230001001E194B0001001F19040001002B199C
:102C3300A10001002F19370001002E19880001009F
:102C43002D193C0001007B163D00010013194900BA
:102C5300020020196700010088164D0002002219A6
:102C63004E00010024194F00020025193E00010007
:102C73001719510001007C16520001001519530069
:102C830001001619540001007D1600000000000029
:102C930000013636010100010201000103010001B8
:102CA3000401060605020000070100340801000FB5
:102CB300090401010D0100FF0E08000017020000C6
:102CC300190100FF1A0100011B0100FE1C0100088D
:102CD3001D0200001F01000120010001210200006C
:102CE3002301000F24020000260100012701000830
:102CF300280200FF2A0100072B0102402C010000DB
:102D03002D0100012E0100012F0100FF30010B1DD9
:102D1300310800003A0100083B01000F3C010001AB
:102D23003D0100FF3E040000420400004604000091
:102D33004A0400004E040000520400005604000040
:102D43005A0400000000000020017F8200000100FF
:102D53002001818200000200200183820000030021
:102D6300200180820000040042010D810000050063
:102D73004201E680000006004201F48000000700E3
:102D830030018482000000404201F4800000FDFF16
:102D930021017D820100200020058C180100210003
:102DA30020058D180100000221058E180204000081
:102DB30029055115030400002905531503041000C8
:102DC30029055515030414002801D1180504000032
:102DD30021055715010371030103010301030103D6
:102DE3000103220302030103100300030003000392
:102DF300000300030003000342030003240306034C
:102E03000003000304031203250323032503230301
:102E1300040304030003000300034403000300034B
:102E23002303000365032100350381030003050326
:102E330000030003000300032503230303007100C1
:102E43003001600011007000310220035004800043
:102E53001000610000001400630073007200620040
:102E630043000000130006000000000004001200ED
:102E730000000000000000000400040037003700D9
:102E83003C02440000000000000000006500000058
:102E930035008100000005000000830000000101EF
:102EA300710101010101110101013101010101015F
:102EB3008001100161013B00140063017301720181
:102EC300620143010001130106013D0135000401C4
:102ED300120100010001000100010401040133019A
:102EE30033013C0144013201360000010001650158
:102EF3000001350081010001050182018301000108
:102F03000302710230016002110270020102020227
:102F130002028002100261023A004100630273025E
:102F2300720262024302000213023800000200022E
:102F33000402120200020002000200020402040260
:102F4300370037003C02440200023900000200024D
:102F53006502000235028102000205028202830239
:102F6300000236000100060000000F000000000010
:102F7300000000000000000003FFFF00000403FF47
:102F8300FF0000FFFF0FF4010005C404032000014C
:102F930000000B000000000000000003010F000010
:102FA300000000000000000000000000000000001E
:102FB300000000000000000000000000000000000E
:102FC300B61CD41CBC1C1A1C00000000000000002E
:102FD3000000000000000000C21C1A1C00000000DA
:102FE300C81C1A1C0000000000000000CE1C1A1CA4
:102FF30000000000000000000000000000000000CE
:1030030000000000000000000000000000000000BD
:103013000000000000000000000000000000F61E99
:103023000100F61E02006C1E0280661E0300721E63
:103033000400781E04807E1E0500841E0600901E78
:103043003100A21E3300A81E3400AE1EFFFF000095
:10305300030003000400080010001F003E007B0073
:10306300F600EC01D703AF075D0FB91E713D0000F9
:1030730007ECFDFDFDECDCDCCCBCACAC9C9C8C7C9F
:103083007C6C6C5C5C5C4C4C3C3C2C2C1C1C0AF635
:103093002402C02405CC2407C6240CA8240DB42480
:1030A300FF000000160F00000B150B020002220F99
:1030B3003300000E0F5A6967426565416C6C6961A4
:1030C3006E63653039D0D1D2D3D4D5D6D7D8D9DA37
:1030D300DBDCDDDEDF150AF4D4C0A5958272636103
:1030E30055504900034D4C4651181A25050200015D
:1030F3001916181616182303003030161819202332
:103103001A1C1E30303017181921301B1D1F3000B8
:103113003C40423A3F3F392F47300C0E020B040B21
:103123000A0708000F02040201010101090200BE9F
:10313300040AE8030000E8030100F6FBD8300300AB
:1031430073301A00030A0C040A08140328020C053E
:103153001E0815FF00FF0412091EC082C08312144B
:10316300E89016B37498F0A37422F09016B5749E89
:10317300F0A37422F09016B774A4F0A37422F09015
:1031830016B974AAF0A37422F0025E9874F7120AB7
:10319300FB9016A7E4F0E99016A6F07C7E7D167AE4
:1031A300A87B16121BF090191EE09016B0F0901633
:1031B300B17468F0A3741602412574F0120AFBEA95
:1031C300FEEBFF5480700302332E9016A61241BA11
:1031D3007003023327EA241B125A25707CEA241F4A
:1031E300125A2564137002A3E0706E8A828B8312D5
:1031F300337C9016C1124FB7750A00750B00800D12
:10320300123FFB127097121AF4AA0EAB0FEA4B602F
:10321300488A828B83E0650C7004A3E0650D702CF3
:103223008A828B83A3A3A3A3E0F50EA3E0F50FE5A6
:103233000A450B8A828B83A3A3A3A360C31242FD17
:10324300850A82850B83A3A3A3A380B78A0A8B0B6A
:103253008A828B83124FB380B4E508242A125A253D
:10326300FCE5082402F8E43509F9E8FAE9FB9016CD
:10327300C1123463A3A3E06402703C8A828B83127D
:103283004FB7800B88828983A3A3A3A31242FDE8CF
:1032930049601F88828983E06A7003A3E06B70E44E
:1032A30088828983A3A3E06C70DA901924125D5598
:1032B300806BECF91222D4850882850983E06401CE
:1032C300704FE508241812336512113012663F124D
:1032D3000EE3E5082412123365121130E50812419A
:1032E300AE12112CE508240B126643120EE7E50813
:1032F300241712414BE5082402FCE43509FDE508D7
:103303002419FAE43509FB122B14740A12110980EB
:103313000CE064027007AA08AB091223B2AA08AB37
:1033230009121A5EEEFAEF6480802DEA5402600CF3
:103333009019837401F0EA6402FA8023EA54086066
:103343001A1222CEEA4B700B9016C312651A7A0832
:10335300123372EE6408FAEFFB80047A007B0002FA
:103363006CC9F582E43509F583E0F50A780A22FB96
:103373009016A6E0F9121BC022A3A3E0F50CA3E06C
:10338300F50D227B009016A6E0F9121BB4740422FB
:1033930074F4120AFB8A088B098A828B83A3A3A382
:1033A300124DAF12415638F583E02409FA126C61CD
:1033B30070030234568A828B837402124E2485086A
:1033C30082850983123463E8F0A3E91268DB8A82F9
:1033D3008B83A3A3A3A3A3A3A3A3F0E5082403F8C8
:1033E300E435091234581241563AF583E08E828B44
:1033F30083A3A3A3A3F0EE2409FAE43FFB8E828FF9
:1034030083A3A3126007F5838882E0A2E58E828FEF
:1034130083A3A3A3A3A3500474018001E4F0E508EC
:103423002403F5828983124FB7EA1255383BF5839B
:10343300126C281211281241553B1260F98E828FAB
:1034430083A3A3127DD7121109EEFAEFFB9016A600
:10345300126CAE8016F98882F583E0FAA3E0CA22E3
:10346300125154A3A32274021211097F04020E5EA7
:1034730074F2120AFB8A088B09ECFAEDFB740E1244
:103483001433E0FC12151E8A0C8B0DAE0CAF0DEA43
:103493004F6030AC08AD0912150CE96026AC08ADDD
:1034A30009EEFAEFFB121512E970148E828F831264
:1034B30042EAFAEFFB121506AA08AB091215367990
:1034C30000800279B40250A374F0120AFB74F6125E
:1034D30011A2EAFEEBFF8C088D09750FB3852182DB
:1034E300852283E4F0750E008002050E90314DE4D1
:1034F30093F8E50EC39840030235F2AA0E7B00123F
:10350300155A8A0A8B0BEA4B60E08A828B83A3A34A
:103513001235F928F0F8C3EE98EF940050CC7C15DF
:103523007D007900AA08AB09121A46850A82850B29
:1035330083A3A3A3A31270D4E0F8EEC3982925E0D4
:10354300F8E433F9E50A28F582E50B39F583A3A3FB
:10355300A3A3A3A3124160A3125B7C8A0C8B0DACC3
:103563000CAD0DAA08AB09121BF0850A82850B83EB
:10357300A3E06401700A12663F7401124172804431
:10358300740112119A850A82850B83124FB51215A5
:1035930042E9603D7409121433E0C0E012663FD083
:1035A300E0F07409121433E0640370137401121110
:1035B3009AE508240BFAE43509FB121BF080127418
:1035C300011214331242FDE508125B6235091270D1
:1035D30095850A82850B8312664B124172A3A3E081
:1035E300C0E0E5082414126643D0E0F0750F00A98B
:1035F3000F740A026CC6A3A3A3E0F8852182852277
:1036030083E02274F7120AFBE9FE8A828B83A3A369
:10361300A3A3A3A3E0540860338A828B83A3A3A349
:10362300A3A3A3E0540260218A828B83A3A3A3A351
:10363300A3A3A3A3A3E06406600F74E96E600A74F6
:10364300CD6E600574F06E70031222B60249A27447
:10365300F0120AFB74EF1211A2740F1214331263E7
:10366300FE7408121433E9F0ECFEEDFF7405121436
:103673003312476A12498EA3E0F912152A7406120F
:1036830014331263FE74061214331255C970030205
:10369300390D12419AE0FA7406121433E0F912213B
:1036A300F612396DF8A3E0F9E849700302390DEE1B
:1036B3002403F50AE43FF50BEE2406F508E43FF591
:1036C300097C00850882F583124FB7850A82850B32
:1036D30083E0F912153074031214331263FE850A62
:1036E30082850B83E0C0E0852182852283123966BF
:1036F300D0E01256DEF98521828522831240021220
:1037030052301235FCFAA3E0CA2407F582E43AF5F5
:1037130083E8F0A3E41264092406F582E438F58310
:10372300E41270A1124DA3121128EE1241563F125A
:1037330060F97403121433124DAF2409127DD112B0
:10374300110974291214331270CE12345D1256F11A
:103753003A127095742B121433E0C0E085218285F0
:103763002283125590D0E0F07402121433E4F07403
:103773002512143378081213C00238647403121428
:10378300331260C18882F583123955A3A3A3125B58
:1037930087FB121548850E82850F83A3EAF0A3EBFE
:1037A300F07403121433123966A3123955125D965D
:1037B300A2E6500F850E82850F83A3A3A3A3A3E0E4
:1037C300D2E1F07405121433E0706B850E82850F1D
:1037D30083A31242FD901701E0687003A3E06970B0
:1037E30055850E82850F83A3A3A3124135750C0063
:1037F300780C12113078081211247429121433E052
:10380300F50C780C1211307427121433120EE79052
:10381300170E120EE779007419121433124F871220
:1038230023FA740A121109850E82850F83A3A3A3B9
:10383300A3A3E04405F07402121433E004FC8E8267
:103843008F83124FB18E828F83A3A3A3E0F9121546
:103853003074031214331263FE7402121433E0043F
:10386300F074031214331255C960677402121433CF
:10387300E0FA74061214331242FDC3EA98E4995035
:10388300517402121433123C3F852182852283E056
:1038930028F8A3E039F9E8240FF50EE439F50F858C
:1038A3000E82F583E4F07403121433123960640159
:1038B300600302377F74051214337401126CB4F081
:1038C3007403121433125E88123C62E8F0A3E90217
:1038D30037A3852182852283124FB71221FC8521CC
:1038E30082852283120EE77426121433E0FD7425B9
:1038F300121433E0FC740A121433E0F9EEFAEFFB0E
:103903001222B0740212110980438E828F83A3A303
:10391300A3E0C0E0740C121433D0E0F0126B1DE08E
:10392300C0E0740D121433D0E0F074061214331295
:1039330055C97009740E12143374B98007740E12CA
:1039430014337410F074091211921223F4741102D7
:103953006CC6E0850E82850F83A3A3A322E01256D3
:10396300B6E022E01256B6A3A322852182852283E4
:10397300EAF0A3EB1255D22274F0120AFB74E1129F
:1039830011A27404121433E9F07403121433ECF02B
:103993007402121433EDF08A0E8B0F742F1214334A
:1039A30012337EAA0CFB1221EA7401121433E9F0DC
:1039B300AA0CAB0D1221F07401121433E070030250
:1039C3003C3A852182852283E480158E828F83A3EE
:1039D300A3A3A3A3E0D2E3F0852182852283E0049D
:1039E300126C0CF8852182852283E0C39840030280
:1039F3003C317401121433E07003023C318521829F
:103A0300852283123C3FE50C28F8E50D39F9E824BB
:103A13000FFEE439FF8E82F583A3A3A3A3A3E0A241
:103A2300E040B5750800750A08750B00740212149E
:103A330033E060037508207C087D0079007405126B
:103A43001192121A468E828F83E0603E901751E0E6
:103A53006401701AE508D2E3F508750B10123C4FA8
:103A6300121433E8F0A3E9125A7A74FF80764308FC
:103A73000C750A0C8E828F83A3123C5A12709774B2
:103A83000512143374FFF0A3805A7404121433E044
:103A93006009E508D2E6F508750A0A8E828F83A3CA
:103AA300E064FE7003A3E0F47030741212143374F4
:103AB30004126669F8741D121433E8124E2474124A
:103AC3001211921221187D007C00790074151214D2
:103AD30033AA82AB83121EDE800B123C4F121433C7
:103AE300E8F0A3E9F07407121433E508F0124191EA
:103AF300C0E07409121433D0E0F0740A1214337462
:103B030001F074051211921223B87411121433E0E8
:103B13006003023C0F740D1214331256D98E828F38
:103B230083A3A3A3A3F0740D121433124DF2E50A79
:103B3300F0A3E50BF07403121433E0C0E0124D83DD
:103B4300D0E0125D966011901751E0C0E0740D1241
:103B53001433124DCDD0E0F0740D1214331242FD24
:103B6300850C82850D83A3A3A3A3A3123C48241C25
:103B73001263F81270B1123C4A125D4839126B3C61
:103B8300C0E0124D6AD0E0126C01C0E0740D121453
:103B9300331248B0D0E0126902C0E0740D1214333E
:103BA3001248A6D0E0F0740D121433123C5A123CA2
:103BB30048242A1263F8850E82850F83A3A3A3A347
:103BC300A3A3A3A3E01263F1124180C0E0124892C1
:103BD300D0E0F0740D121433124FB7850E82850FA7
:103BE30083126C172428F582E43B127095124189E5
:103BF300126C281211281260F2EA12638A3B127DBA
:103C0300D512110974051211921223BE8E828F836D
:103C1300A3A3A3A3A3E0D2E0F07411121433E060D2
:103C2300030239CE7401121433E0140239DA790035
:103C3300AA0CAB0D1222BC741F026CC6E075F00710
:103C4300A4F8A9F022A3A3124FBBE8228E828F838C
:103C5300A3124301740522E0123C62A3A3A322F83A
:103C6300A3E0F9850E82850F83A32274F0120AFB69
:103C730074E81211A2E9852182852283F08A0E8BD2
:103C83000F8A828B83A3A3A3A3A3A3A3A3E0F91205
:103C930022148A088B09EA4B7003023D4BE50E128E
:103CA300554C1241A9124140852182852283E0604F
:103CB30003023D4E7C04850E82850F83A3A3A3A339
:103CC300A3A3A3A3E0F912221AEE4F607B8E828F87
:103CD30083A3A3A3A31242FD740712143312652F07
:103CE3001242FD7409121433124E54C0E0741112BF
:103CF3001433D0E01268E0A3A3A3A3A3A3A31242A7
:103D0300FD740F1214331270977412121433E412E9
:103D13006CBCC8241FF582E438F5831260BDC4135C
:103D2300135403FC70027C048E828F83E0F97808BD
:103D330012112C742059FD744059F9740312119215
:103D43001222B07402121109026CC47C08850E821F
:103D5300850F83A3A3A3A3A3A3A3A3E0F912221A0A
:103D63008B0BEA4B7003023CCCEE4F60DB85218268
:103D7300852283E0F50C780C1211308508828509C1
:103D830083A3A3A3A3A3A3A3E0F50C780C12113080
:103D93008A828B83A3A3A3E0FB8A82850B83127899
:103DA300F48A82850B83E0FA8E828F83A3A3E0F9E2
:103DB300122B1A7402121109023CD074F7120AFB77
:103DC30074FA1211A2E9FE780179017F0080037968
:103DD300000F125133E0FCEFC39C5026EF75F00740
:103DE300A4FC85F008AD08EA2CFCEB3DFD1247224C
:103DF300E0A2E050DA540C60D6E0A2E250D378009F
:103E030080CF8A828B83A3A3A3A3A3A3E0703DE9FE
:103E1300A2E0400574016E70338A828B83A3A3A34F
:103E2300A3A3A37401124112E0C0E074031214337C
:103E3300D0E0124781E0C0E07404121433D0E0F004
:103E43007405121433E812605C1223F474060249F9
:103E53009FC082C08379011222BC025E9874F4125F
:103E63000AFBEA4B9019836019E4F08A088B09F581
:103E73000AF50B78081211247A02123386121109FB
:103E8300800A7401F07A027B0012337302346E7479
:103E9300F0120AFB74F31211A27403121433E4F048
:103EA300A3F09016C11241407401121433E4F0A33D
:103EB300124E2904F09016FBE0A2E35003023F8563
:103EC30012410674091214331214047409121433C0
:103ED30078081213C09016C3780812117274051271
:103EE300143378081213A21240097405121433789C
:103EF3000812136350077A017B00023FF674051220
:103F03001433780C1213C0901923E0F509780C7957
:103F130008120A8CA80CA90D901924E0C398E499FF
:103F23005003E08001E8852182852283F074091221
:103F3300143378081213C0C008C009C00AC00B7438
:103F430005121433780C1213C0124009780C790847
:103F5300120A8CE4F50AF50BD00FD00ED00DD00C5D
:103F6300780C790812124A9016C3780C1213A280A7
:103F730011123FFB127097EEFAEFFB121AF4AE0820
:103F8300AF09EE4F60658E828F831235F9C3985067
:103F93002DEE2403F8E43FF9E0FA88828983E0C335
:103FA3009AF06023740312143312446374011214DD
:103FB30033EEF0A3EF12654AFEA3E0FF80C48E82C6
:103FC3008F83A3A3A3E4F08E828F83127D8E74016B
:103FD3001214331255C98E828F83A3A3A3A36091B6
:103FE30012652312143312400280897403121433AE
:103FF300124FB7740D026CC61243019016C1221200
:1040030060E8A3A3A322901922127D96E4F50AF592
:104013000B2274F0120AFB8A088B09890A7800794B
:10402300009016C1124140FBEE4B601E088E828F3A
:1040330083A3A3A3A3124F81601008E87001098E24
:10404300828F8312413CEA4F70E3901925124FB7D8
:10405300C3E89AE99B40030240F97A061240FCA8A0
:104063000CA90DEA4970030240F98A828B83E508A3
:10407300F0A3E50912411BE50AF090192412513B04
:10408300124112A3E4F0A3F09016C1124F81600D08
:104093008E828F83A3A3A3A312709780179016C158
:1040A3001270979016FBE0A2E340091241069016A6
:1040B300C31214049016FBE0A2E3503A7A087B0083
:1040C3009016A6E0F9121BC6EA4B4C4D70289019C6
:1040D30022E0F508A3E085080CF50DE4F50EF50FD5
:1040E300780C1211247A087B009016A6E0F9121BB3
:1040F300BA7404121109026CC97B00121AEE8A0CFD
:104103008B0D22121BD8EAF8EBF9ECFAEDFB221225
:1041130041162212411BA322F08A828B83A3A3227E
:10412300E508F00249A2F08E828F83A3A3A3A3A381
:10413300A322125A33A3A3F022A3A3A3A3E0FEA3B3
:10414300E0FF227F05020E5EF582E43509F583E088
:10415300F922EA12415A222410F582E4221241681C
:10416300A3A3A3A3221243058508828509832212F0
:10417300417622F0850A82850B83A3A322E50E24D0
:10418300111241A6E022E50E240E1241A622E50EED
:1041930024101241A6E02212419E22EE12415A3F00
:1041A300F58322F582E4350FF58322240FF50AE423
:1041B3003509F50B780A22E0F9121A708A088B097F
:1041C300EA4B2274F2120AFB890B8A088B098A8252
:1041D3008B83124FB71222E0EA4B600479B8806AEE
:1041E3001222ECE9F8900CDFE493F9E8C399400458
:1041F30079B280567A151240FCAE0CAF0DEA4F70BF
:1042030004791080458A828B83E4F0A312411BE575
:104213000BF0750A0078081211287C127D00EA243D
:1042230003126BD31211099016C71255C970089067
:1042330016C7800C1242FD8882898312425070F4A3
:10424300EEF0A3EFF01222FE79000250A3124FBB4F
:10425300EA4B8882898322C082C0839016C7800478
:104263008C828D831278F5EC4D60288C828D83A32C
:10427300A3E069600574FF6970E68C828D83A3A354
:10428300A3E06A7003A3E06B70D6EC2403FAE43D69
:10429300FB80047A007B00025E9874F7120AFBE944
:1042A300FD74FE6D70047C0180027C009016C78053
:1042B300096D70027C01888289831255C9601F8849
:1042C300828983A3A3A3E06A7003A3E06B70E7EC86
:1042D300A2E088828983A3A3E050D6F9800279FE05
:1042E3000249A2EEF9800CA3A3127D96EE2274027A
:1042F3001211097F02020E5EF5831243012212435B
:104303000522E0F8A3E0F9221243058E828F83226F
:104313001211097F03020E5EC082C08379009016DA
:10432300C7800109E0FAA3E08A82F583E582458329
:1043330070F1025E9874F6120AFBE4F508F5097849
:104343000812112C900CDFE49375F013A4A9F0125A
:1043530044581270F5121109E9FE74096E700312C4
:1043630022F80242E674F6120AFB74FE1211A285C9
:104373002182852283E4F0A3F0A821A92288088959
:1043830009780812112C75080275090078081211B2
:104393002C126D661211090242F174F5120AFB74B4
:1043A300EB1211A2852182852283E4F0A3F09016FB
:1043B300C780748E828F83A3A3E0C0E074021214BB
:1043C30033D0E0125A7AA982AA8389088A09750A26
:1043D3000078081211287C127D007406121433121F
:1043E30070BA121109740212118A880889097808AF
:1043F30012112C750813750900780812112C740416
:1044030012143312556C75F013A4F8AAF075F01357
:10441300E9124454126D6E1211098521828522839B
:104423001244638E828F83124140EE4F7085A82120
:10443300A92288088909780812112C7508027509C0
:1044430000780812112C126D6612110974150243BB
:1044530013A42AF9E82402FCE439FD7A427B002202
:10446300E02401F0A3E03400F02274F4120AFB7498
:10447300EB1211A27E007F00A821A92288088909D6
:10448300780812112C7508028E09780812112C7CF9
:10449300007D007A42127101121109E9706C8E08D5
:1044A3008056740212118A880A890B780A12112C19
:1044B300750A13750B00780A12112CE50875F013B1
:1044C300A4F8AAF075F013E509124454127103120B
:1044D3001109E9701B7403121433AA82AB837402AB
:1044E300121433E0F91222DAE970050EEE70010FAF
:1044F3000508E50870020509852182852283124299
:10450300FDC3E50898E509994098EEFAEFFB7415A9
:1045130002346B74F6120AFB8C828D83A3A31247B9
:104523006FF0EA1263903BF583E0C0E012472CD0B2
:10453300E0F0EA241DF582E43B1242FB124710121D
:10454300476AF0A3F0EA241FF582E43BF5831241A6
:1045530040EC1247033DF583EEF0A3EFF012470959
:104563003BF58312473AA3A3A3A3A3A3EEF0A3EFC0
:10457300125FEBFE8C828D8312477974035EFEC358
:10458300940340030246F6EE600874026E60030271
:10459300461B8C828D83E0540CFE740C6E700302F8
:1045A300465AE0A2E4400D88828983E08C828D83A1
:1045B300A312478F74086E600302465A12471A7497
:1045C30001F08A828B83A3A3A3A3A3125A4070147E
:1045D3008C828D83E0440C124781A3A312473AEEE9
:1045E300F0A3EFF08C828D83E0A2E4402B8882124B
:1045F300474812475D500109F582124748A3A3A318
:10460300A3A3A3F0A3EF1247898C828D83A3A3A353
:10461300F0E82403F850010988828983E0C0E0ECC4
:104623002411F582E43DF583D0E01247798C828D25
:1046330083E0A2E7507588828983E0FE8C828D83B4
:1046430012478F74FC5E700C8C828D83A3E054033D
:104653006403701E0246F612471AE4F0740C6E608F
:10466300030245C5888212474E12475D5001090275
:1046730045E78C828D83A3E054036032888289836B
:10468300E0C0E0EC1247343DF583D0E01247908C54
:10469300828D83E054036402701488828983E0C0AE
:1046A300E0124722D0E01247908003A3E4F0EC121B
:1046B30055383D127095EC2410FEE43DFFEA241DAD
:1046C300F582E43BF583E0F5088E828F83E0C3989F
:1046D3002508F508F0EA2417F8E43BF98882F58306
:1046E300E0C39508C0E0124710D0E0125FEBC3951A
:1046F30008500A124710E4F012472CE4F00242F685
:104703002415F582E422EA240DF582E422EC240D3B
:10471300F582E43DF58322EC1256F13DF58322EC5C
:104723002414F582E43DF58322EC12415A3DF583CE
:10473300222413F582E422E0FEA3E0FF8C828D8322
:10474300A3A3A3A32212474EA3A3228983E0F508C0
:10475300A3E0FFE5088C828D8322A3A3A3A3F0A388
:10476300EFF0E82402F82212476FA322E4F08C82D0
:104773008D83A3A3A322124797A882A98322124160
:1047830016A3A3A3A322124797A3E022A31247973A
:1047930008A98322125FF4A32274F4120AFB74F3B0
:1047A3001211A28A0A8B0BECFEEDFF8C82F583E0DB
:1047B300540CF508E0A2E75006E508D2E7F508E552
:1047C30008D2E1F508125A407006E508D2E4F5086C
:1047D300E0A2E55006E508D2E5F5087C087D0079FE
:1047E30000AA21AB22121A467402121433E50812EE
:1047F300709BC0E07403121433D0E0124E29E50A13
:10480300F0A3E50BF0740512143312690712143385
:10481300E070777408121433124DAF125FDD381253
:104823006922C0E074081214331248B0D0E0126950
:1048330002C0E074081214331248A6D0E0F07408E2
:1048430012143312489CE0124DD7124E581263F1E2
:10485300EE2411125A0CC0E0124892D0E0F0EE247C
:1048630014125A0CC0E07408121433124DAF2435DD
:10487300F582E438F583D0E0124DFCC0E0740812F1
:104883001433124DB3D0E012665B740D02346BE83F
:104893002432F582E439F5832212430BA3A3A3A3A5
:1048A300A3A322124DC3126B0138F58322124DC309
:1048B3002426F582E438F5832274F7120AFB7E007E
:1048C3008A828B83A3A3A3A3A3A3A3A3A3E06404C8
:1048D300600302497E1256E9E0600302497E1255E5
:1048E3004B3B1255C7700302497E88828983E0548B
:1048F30003600302497EE81256F139F583E0FA8C2E
:10490300828D83A3A3E0FBA3E0CB2411F582E43BD8
:10491300F583E06A706588828983A3A3A3A3A3A315
:10492300A3A3A3124982E06A7003A3E06B704C88CF
:10493300828983A3A312498EE0FFA3E0CF2406124A
:104943005A0C6A7003A3E06B703188828983A3A336
:10495300E0F88C828D83A3A3E0F9A3E0F583898239
:10496300A3A3E06860138C828D83A3A3A3E0F583E4
:104973008982E0540C640470027E01EEF9802012F7
:10498300498622124FBF8C828D8322A3A3124986AC
:10499300A3A322740C121433E0F9740D1211097FCE
:1049A30001020E5E74F6120AFB74FC1211A2EAFEF7
:1049B300EBFFECFAEDFB8C82F583A3E05403601666
:1049C3009016BD1255C960597900EEFCEFFD1261D6
:1049D300E8120CDD804B852182852283EEF0A3EF64
:1049E300F07402121433124E1EAC21AD227A167BE0
:1049F3002312253E8A088B09A808A909EA496021E0
:104A03008A828B83A3A3A3A3A3A3A3A3A37406F064
:104A13007A0088828B83124DAF1263B1E0F91224BE
:104A23009C74040242F374F2120AFB74F31211A28F
:104A3300EAFEEBFF8A82F583A3A3A3A3A3A3A3A305
:104A4300A3A3E0F50A901983E0700579BA024D67D4
:104A5300750801750900750C00750D007C087D0053
:104A63007900AA21AB22121A467405121433740179
:104A7300124E31540460127402121433E0D2E6125F
:104A83004E3154087003750803E0541060067440F7
:104A93004508F508E0540860227402121433E04418
:104AA300C0124E315420600A7403121433E0D2E072
:104AB30080087403121433E0D2E1F0EE2415125A85
:104AC3000C124D977003740169700674084508F55C
:104AD300088E828F83A3A3A3A3A3A3A3A3E070162B
:104AE3001225988521828522831263FE7402121493
:104AF30033E0D2E28030640F701074021214331268
:104B03004E3974044508F508807F8E828F83A3A3F2
:104B1300A3A3A3A3A3A3E064028E828F83700A12CC
:104B230070CEE8F0A3E9F08060A3A3A3A3A3A3A39B
:104B3300A3E06403700DAC21AD22EEFAEFFB122368
:104B43004C80468E828F83A3A3A3A3A3A3A3A3E036
:104B530064017035901751E060107402121433121F
:104B63004E39750910750AFF80187402121433E068
:104B7300440C124E2974FDF0A374FFF0740445082D
:104B8300F5088E828F8312337EEE2415125A0CA2FF
:104B9300E0503F7402121433E0540C701B8E828F6A
:104BA30083124FB7121FAAE9700579BB024D6774D0
:104BB30002121433E0D2E5F0EE2415125A0CA2E0EF
:104BC30050107402121433E0540C64047004E0D2E5
:104BD300E5F0EE2411125A0CC0E07404121433D021
:104BE300E0126909121433E06003024D6074081285
:104BF3001433124DF2E508F0A3E509F0124D8DE0F0
:104C0300C0E0124D83D0E0F0124D74E0C0E07408B0
:104C1300121433124DAF12473438F583D0E0124EDD
:104C23005864017011901751E0C0E07408121433F6
:104C3300124DCDD0E0F07408121433124DED124D25
:104C43007EFAE8241CF582E439F583EA124E24EE59
:104C53002415FAE43FFB8A82F5831278F5E8125DA6
:104C63004839F583124E1EEE241C125A0CC0E01272
:104C73004D6AD0E0125E8E124D9770037401697015
:104C83001374081214331256D9FAEE241D125A0C57
:104C9300F91222208E828F83A3A3A3A3A3A3A3A38A
:104CA300A3E0C0E074081214331248B0D0E0F074EB
:104CB300081214331248A6E50AF0740812143312CA
:104CC300556C2428F582E439F583E50CF0A3E50D52
:104CD300124E04124DD7125A851263F1EE124D7E15
:104CE300C0E0E82433F582E439F583D0E0F0EE2424
:104CF3001B125A0CC0E07408121433124DB3D0E0E7
:104D0300F0EE241A125A0CC0E07408121433124D38
:104D1300AF2432F582E438F583D0E0124DFC124D16
:104D2300A3121128126B071278F5740B12143312A5
:104D33004DAF242F127DD1121109EE2415125A0CF6
:104D4300544060129016DD1255C9600AAA21AB22A5
:104D53001261E8120CDDAA21AB221223BE740C12DD
:104D63001433E0F902509EE82420F582E439F583F8
:104D730022EE2419F582E43FF58322126B16E0221A
:104D8300E82412F582E439F58322EE2418F582E44F
:104D93003FF583225480F8A3E05401F9748068221C
:104DA300F508A3E0F509750A00780822124DC3221D
:104DB300124DC32434F582E438F58322A3A3A3A3BD
:104DC300124DC722E0F8A3E0C822124DC3124703D5
:104DD30038F58322FAA3E0FBE8242AF582E439F5C7
:104DE30083EAF0A3EB22A3A3A3A3124301EE2212AF
:104DF300557012555039F58322F0EE2413125A8D53
:104E030022F0EE240D125A8D22E0FC8A828B83E07D
:104E13002CFCA3E03400FD8A828B83ECF0A3EDF03D
:104E230022F0A3E4F022F085218285228322F0EE92
:104E33002415125A8D22E0D2E3F0124E41228E82C3
:104E43008F83124305852182852283E8F0A3E9F04D
:104E530022E8F0A3E9126544E02274F7120AFB8A00
:104E6300828B83A3E0640170047E6380027E648A84
:104E7300828B83E060087905124E9124F3FE90162D
:104E8300F9E06007F9124E9124F2FE02497E1224E2
:104E930066E9F8EEC3982274F6120AFB74FE121147
:104EA300A28521828522831263FEE9FEECFAEDFBE3
:104EB3009005C21255C96032A821A9228808890920
:104EC300780812112C7D01740E121433E0FCEEF9F4
:104ED3009005C21263D2120CDD7402121109EA4B5F
:104EE30060047900800679B2800279B60242F174D7
:104EF300F7120AFBE9FE9016B31255C9601F740935
:104F0300121433E0F5087808121130EEF99016B355
:104F13001263D2120CDD7401121109800279B602F8
:104F230049A274F7120AFB8908ECFEEDFF79B5E597
:104F330008245E602014600624F86034803D9005E8
:104F4300C4124F816035127112120CDD8E828F8371
:104F53001263FE80249016B51278F5EC4D601CEEBA
:104F6300FCEFFD9016B51263D2120CDDE9F9800B4C
:104F73009016B1124F87121BF079000249A2124F0B
:104F8300BBEA4B221278F9EEFAEFFB2274F7120A0E
:104F9300FBE9FE79B574AB6E700B9016B1124FB787
:104FA300121BF079000249A28E828F83A3A3A3A3CD
:104FB300A3A3A3A3124FBB22124FBF22E0FAA3E085
:104FC300FB2274F1120AFBEAFEEBFF8C0A8D0B75D0
:104FD3000801901701E06E7003A3E06F700C12508C
:104FE30092AA0AAB0B121BF0805E12259EEE6A702A
:104FF30002EF6B7009AA0AAB0B1225A4804AAC0A14
:10500300AD0BEEFAEFFB1220F4E9F50890192AE054
:105013007036122A4EE97030E508702C9016D1E0F4
:105023006E7003A3E06F7020EE4F601C750CC975A2
:105033000D16750E00780C1211287C087D00AA0A43
:10504300AB0B1270BE121109A9080279F174F212A6
:105053000AFBEAFEEBFF8C088D09750A01125092D8
:10506300EEFAEFFB121BEAE96401701190170112CB
:1050730042FD850882850983127097800EAC08ADC6
:1050830009EEFAEFFB1220FAE9F50AA90A801112D8
:1050930025928A0C8B0DAC0CAD0D22740D121109E7
:1050A3007F06020E5E74F6120AFBEAFEEBFF7A0D30
:1050B3007B00121AEEEA4B6062EE2424126D9BF021
:1050C300EE2425126D9BA3125160126DA1A3A312AE
:1050D3006B3412513BF0EE125121125150E8F0A300
:1050E300E9125177125148127097EE12512A126B3E
:1050F300F7A3A3A3A3F0EE2433125A0CC0E012517A
:1051030033D0E0126926125148A3A3A3E8F0A3E920
:1051130012516FC0E01256E9D0E0F00242F6242AA1
:10512300F582E43FF58322242EF582E43FF58322C2
:10513300EA125B623BF5832212513F22E08A828BA3
:1051430083A3A3A322126C56A3A3A3A32212515495
:10515300221243058A828B83A3A3A3A322F01251B5
:105163006522EE2426F582E43FF58322F0EE243215
:10517300125A8D22F0EE242C125A8D2274F4120A44
:10518300FB74FE1211A2ECFEEDFFEC2416125A0C76
:1051930064057010EC2406FCE43FFD122346E9701D
:1051A3000302522BAC21AD22126E50121FB0852187
:1051B300828522831255C9606B8E828F83E06401DE
:1051C3007058E875F009A4F8AAF075F009E9A42A63
:1051D300F9742828F8740439F9E8FAE9FB8882F5A8
:1051E3008378081213C0EE1252CD12136340278541
:1051F3002182852283124DED125A1A1252307808F9
:105203001213C090816D78081212E68A828B83781C
:10521300081213A2800A79A28010EE240F12709153
:105223007900800679A1800279C8023469124E4E52
:10523300EE126B222274F2120AFB8A0C8B0DECFE27
:10524300EDFFEC125A1AE4F0A3F0908205780812ED
:1052530013C0EC1252CD12120D6067EC240E125AD9
:1052630013703478B39016F8E0702890172AE0642E
:10527300017020EC2411125A0CF912244E8B09A947
:1052830009EE12554C3F1263FCEA49600478008032
:105293000278A18808802EE060046402700A122359
:1052A30058E9F5087007801DE064037010EEFCEF09
:1052B300FDAA0CAB0D121FD4E9F50880087508A1EF
:1052C30080037508A3A9080250A3126B2278082251
:1052D30074F0120AFB74F51211A2EAFEEBFFEA2442
:1052E3000AFCE43F8C82F583127D921255567403B7
:1052F30012119A8A828B831261F2E970030253BC02
:10530300740112119A7403121192121FB0740112D4
:1053130014331255C970030253BCE875F009A4F89D
:10532300AAF075F009E9A42AF9742428FC74043955
:10533300FDE508240E126643E4F00412143312420E
:10534300FDE50812554C35091270958C828D831238
:1053530013F8E508241212664312140490816D7841
:10536300081213C08C828D83780812129A8C828D56
:1053730083780C1213C090827178081213C0780CD2
:105383007908120A8CE5084509450A450B702A7409
:105393000112143312556C75F009A4F8AAF075F0D4
:1053A30009E9A42AF9742C28F582740439F5837465
:1053B30001F07A007B081255798E828F83A3A3A311
:1053C300A3A3A3A3A3A3A3E02406FCA3E03400FDAB
:1053D3008E828F831261F2126914603EEE240A12E8
:1053E300553E124DF27468124E24E812553839F5C1
:1053F300837402F09016E31213F88C828D83126388
:10540300EB125FDD3CF58312140490816D78081272
:1054130013C09016E3780812129A1255B4705D9077
:1054230016B1125564A3A3A3A3A3A3A3A3A3A31277
:105433006013121BEAE97010125FD19016B1125F6C
:10544300E3700512691460348E828F83A3A3A3A330
:10545300A3A3A3A3A3A3125564124FB7121FDAE9A0
:1054630060118E828F83A3A3A3A3A3A31255A0E4E9
:10547300F0A3F08E828F83125586E4F01255B46048
:10548300030255338E828F83A3A3A3A3A3A3127D09
:105493008E9016F8E0600302552890172AE0640105
:1054A3006003025528750A3A750B00780A12112C0D
:1054B300740212118A880A890B780A12112C12734A
:1054C3008D121109E9705BE508240E12664374011D
:1054D3001255CEC0E0E5082411126643D0E0F0E592
:1054E30008240F126643743A124E249016DF1213E7
:1054F300F8E508241212664312140490816D7808AB
:105503001213C09016DF780812129A90816D7808F2
:105513001213C09016DF780812120D700812557519
:1055230080031255561255B47006125ED474A1F05E
:10553300740B026CC6240EF582E422F8E43FF9E80A
:10554300FCE9FD8882F58322EA12555022240FF5E7
:1055530082E422E5081255503509F583E4F0A3F0FF
:10556300221278F98E828F832212557022124305FC
:10557300E8227A007B02901587E0F9121A9A228AB0
:10558300828B83A3A3A3A3A3A3A3A3A3A31255942F
:1055930022124DC7240EF582E438F58322A3A3A378
:1055A300A31255A822124DC7240FF582E438F583C0
:1055B300228E828F83A3A3A3A3A3A3124DBF240F81
:1055C300F582E438F58312557049221255D222F040
:1055D300852182852283E02274F6120AFBEAFEEB20
:1055E300FF7A237B00121AEEEE240AF508E43FF556
:1055F300098508821263FC7C237D007900121A4618
:105603008508828509831255C9700302569CEEFAF8
:10561300EFFB1223641255B460748E828F8312568B
:10562300CF64018E828F83A3A3A3A3A3A3700712C6
:1056330056C5740E80211255C97010126914700B6F
:105643008E828F83A3A3E0A2E050071256BB740D92
:1056530080051256BB740512692654036401700752
:105663001256A37405800B9016F9E0C0E01256A3FE
:10567300D0E01256DEF5838882125A398508828576
:105683000983124DAF12639038F583E9800E8508C4
:105693008285098312647580031263B8F00242F6AF
:1056A3008E828F83A3A3A3A3A3A3A3A3A3A312560F
:1056B300B522E01263D7A3228E828F83A3A3A3A371
:1056C300A3A3124DBF12639638F58322A3A3A3A30A
:1056D300A3A3A3A3A3A3125594E0221256E222127A
:1056E3006E65F8A3E022EA1256F13BF58322240CFF
:1056F300F582E42274F1120AFB74E41211A28A0CFB
:105703008B0D8C088D097A237B00121AEE8A0A8B83
:105713000BAE0AAF0BEA4F70030259F412639CE518
:10572300082415125A25687003A3E0698E828F83BB
:105733007004740280027401F0E508240DF8E43566
:1057430009F98882F583E0FAC3E49AFA95E0FB123B
:105753005A212AFAA3E03BFB8E828F83A3A3A3A340
:10576300125FFA8E828F83A3A3F0EE2420F582E4E6
:105773003FF583E4F0EE2421F582E43FF583E4F082
:10578300EEFAEFFB122418850882850983125A402A
:1057930070098E828F83A3740580069016F9125ABE
:1057A3002EF0EE2417F50AE43FF50B8E828F831259
:1057B3005A39E9850A82850B83F0EE2416F8E43F13
:1057C300F9E508240EFAE43509FB88828983124E31
:1057D3000CE5082410FAE43509FB850A82850B835E
:1057E300E0FC88828983E0F88A828B83E0C398C3D4
:1057F3009CF8125A7AF0EEFCEFFDAA0CAB0D1223C3
:105803005EE9F50B8E828F83E064027006125FD12E
:105813001259FEE50B60030259EB750C00750D0080
:1058230090192AE064016005E06402703F125A1087
:105833006008EE2421125A1370328E828F83A3A341
:10584300A31263BE125A46EE2416125A0C125A6F52
:10585300FAE439FB1240FEEA4B6011126C2012117C
:1058630028125A54AA0C1270BE121109EEFAEFFB59
:10587300122424E9F50B90192AE064016008E0641E
:105883000260030259DEE970030259DEE50C450D9F
:1058930070030259EB8003850E0B125A10600BEE56
:1058A3002421125A1360030259E4850B0E850C0858
:1058B300850D09750A007808121128125A548E8230
:1058C3008F83A3A3A3A3127DD7121109EE24201261
:1058D3005A0C600D125A197468124E24EE2420805B
:1058E30015EE2421125A0C6015125A197403F0A3F1
:1058F3007401F0EE2421F582E43FF583E4F0EEFA3F
:10590300EFFB122424E9F50B70907C137D007900E2
:105913007409121192121A46741A12143374011272
:105923005A8564687002A3E0704F8E828F8312558C
:10593300A0E06405600302589A7C0879FF8E828F89
:1059430083A3A3A3A3E0242A126016121AD0E9703A
:105953000302589A7C087D0079FF74011211921298
:105963001A46740112119A7A007B0079AB12234014
:10597300741912143374FC8015125A19E0640370FD
:1059830004A3E064017008741912143374FFF0E483
:10599300F508F509780812112C740212119A741380
:1059A300121433AA82AB831264FB1211098521827C
:1059B300852283E0602B740912118A88088909788B
:1059C3000812112C750813750900780812112C7C24
:1059D300007D00126D6E1211098006E50C450D6005
:1059E30007AA0CAB0D121AF4EEFAEFFB121AF480AD
:1059F30003750B10A90B741C0279EEEE2406FAE46E
:105A03003FFB121BF022EE240C125A8D22EE2420AF
:105A1300125A8D640122EE1255503FF58322E50898
:105A2300240EF582E43509F583E022125A33A322CA
:105A3300E08E828F8322A3E0F912246622E05403CE
:105A4300640122125A4A22E0FAE82AF8E43400F9FF
:105A5300228E828F83A3A3A31263C2125A4AEE2417
:105A630016125A8D125A6FFCE439FD22FAE82AF80D
:105A7300E439F9E8240422125A7E22126935A3A3D9
:105A8300A322F0125A8A22EE240FF582E43FF58313
:105A9300E02279010210B974F4120AFBEAFEEBFF6B
:105AA3008A82F583A3A3A3A3A3A3A3A3124DAF2425
:105AB30024F582E438F583125A40702E8A828B8350
:105AC3001256CF7025125B68E06405701D125B6887
:105AD300A3E0F874016860057406687007125582C4
:105AE300740280051255827403F0EA240A12646971
:105AF3001263D2E4F0EA2408F8E43F123458243164
:105B0300F582E43AF583E0C0E0127109A3A3D0E083
:105B1300125B87CA242EF582E43AF583E0C0E012D3
:105B23007109A3A3A3D0E01260ADC8125B6238125F
:105B330042FB127109125B7C8A0A8B0BAC0AAD0B18
